{
  "_format": "hh3-artifact-1",
  "contractName": "PayloadIGP129",
  "sourceName": "contracts/payloads/IGP129/PayloadIGP129.sol",
  "abi": [
    {
      "inputs": [
        {
          "internalType": "uint256",
          "name": "errorId_",
          "type": "uint256"
        }
      ],
      "name": "FluidLiquidityCalcsError",
      "type": "error"
    },
    {
      "anonymous": false,
      "inputs": [
        {
          "indexed": true,
          "internalType": "uint256",
          "name": "action",
          "type": "uint256"
        },
        {
          "indexed": true,
          "internalType": "address",
          "name": "by",
          "type": "address"
        }
      ],
      "name": "ActionSkipped",
      "type": "event"
    },
    {
      "anonymous": false,
      "inputs": [
        {
          "indexed": false,
          "internalType": "uint40",
          "name": "at",
          "type": "uint40"
        }
      ],
      "name": "ProposalCreationTimeSet",
      "type": "event"
    },
    {
      "inputs": [],
      "name": "ADDRESS_THIS",
      "outputs": [
        {
          "internalType": "address",
          "name": "",
          "type": "address"
        }
      ],
      "stateMutability": "view",
      "type": "function"
    },
    {
      "inputs": [],
      "name": "BTC_USD_PRICE",
      "outputs": [
        {
          "internalType": "uint256",
          "name": "",
          "type": "uint256"
        }
      ],
      "stateMutability": "pure",
      "type": "function"
    },
    {
      "inputs": [],
      "name": "DEX_FACTORY",
      "outputs": [
        {
          "internalType": "contract IFluidDexFactory",
          "name": "",
          "type": "address"
        }
      ],
      "stateMutability": "view",
      "type": "function"
    },
    {
      "inputs": [],
      "name": "DSA_CONNECTORS_V2",
      "outputs": [
        {
          "internalType": "contract IDSAConnectorsV2",
          "name": "",
          "type": "address"
        }
      ],
      "stateMutability": "view",
      "type": "function"
    },
    {
      "inputs": [],
      "name": "ETH_USD_PRICE",
      "outputs": [
        {
          "internalType": "uint256",
          "name": "",
          "type": "uint256"
        }
      ],
      "stateMutability": "pure",
      "type": "function"
    },
    {
      "inputs": [],
      "name": "FLUID_RESERVE",
      "outputs": [
        {
          "internalType": "contract IFluidReserveContract",
          "name": "",
          "type": "address"
        }
      ],
      "stateMutability": "view",
      "type": "function"
    },
    {
      "inputs": [],
      "name": "FLUID_USD_PRICE",
      "outputs": [
        {
          "internalType": "uint256",
          "name": "",
          "type": "uint256"
        }
      ],
      "stateMutability": "pure",
      "type": "function"
    },
    {
      "inputs": [],
      "name": "GOVERNOR",
      "outputs": [
        {
          "internalType": "contract IGovernorBravo",
          "name": "",
          "type": "address"
        }
      ],
      "stateMutability": "view",
      "type": "function"
    },
    {
      "inputs": [],
      "name": "IETHV2",
      "outputs": [
        {
          "internalType": "contract ILite",
          "name": "",
          "type": "address"
        }
      ],
      "stateMutability": "view",
      "type": "function"
    },
    {
      "inputs": [],
      "name": "JRUSDE_USD_PRICE",
      "outputs": [
        {
          "internalType": "uint256",
          "name": "",
          "type": "uint256"
        }
      ],
      "stateMutability": "pure",
      "type": "function"
    },
    {
      "inputs": [],
      "name": "LENDING_FACTORY",
      "outputs": [
        {
          "internalType": "contract IFluidLendingFactory",
          "name": "",
          "type": "address"
        }
      ],
      "stateMutability": "view",
      "type": "function"
    },
    {
      "inputs": [],
      "name": "LIQUIDITY",
      "outputs": [
        {
          "internalType": "contract IFluidLiquidityAdmin",
          "name": "",
          "type": "address"
        }
      ],
      "stateMutability": "view",
      "type": "function"
    },
    {
      "inputs": [],
      "name": "OSETH_USD_PRICE",
      "outputs": [
        {
          "internalType": "uint256",
          "name": "",
          "type": "uint256"
        }
      ],
      "stateMutability": "pure",
      "type": "function"
    },
    {
      "inputs": [],
      "name": "PAXG_USD_PRICE",
      "outputs": [
        {
          "internalType": "uint256",
          "name": "",
          "type": "uint256"
        }
      ],
      "stateMutability": "pure",
      "type": "function"
    },
    {
      "inputs": [],
      "name": "PROPOSAL_ID",
      "outputs": [
        {
          "internalType": "uint256",
          "name": "",
          "type": "uint256"
        }
      ],
      "stateMutability": "view",
      "type": "function"
    },
    {
      "inputs": [],
      "name": "PROPOSER",
      "outputs": [
        {
          "internalType": "address",
          "name": "",
          "type": "address"
        }
      ],
      "stateMutability": "view",
      "type": "function"
    },
    {
      "inputs": [],
      "name": "PROPOSER_AVO_MULTISIG",
      "outputs": [
        {
          "internalType": "address",
          "name": "",
          "type": "address"
        }
      ],
      "stateMutability": "view",
      "type": "function"
    },
    {
      "inputs": [],
      "name": "PROPOSER_AVO_MULTISIG_2",
      "outputs": [
        {
          "internalType": "address",
          "name": "",
          "type": "address"
        }
      ],
      "stateMutability": "view",
      "type": "function"
    },
    {
      "inputs": [],
      "name": "PROPOSER_AVO_MULTISIG_3",
      "outputs": [
        {
          "internalType": "address",
          "name": "",
          "type": "address"
        }
      ],
      "stateMutability": "view",
      "type": "function"
    },
    {
      "inputs": [],
      "name": "PROPOSER_AVO_MULTISIG_4",
      "outputs": [
        {
          "internalType": "address",
          "name": "",
          "type": "address"
        }
      ],
      "stateMutability": "view",
      "type": "function"
    },
    {
      "inputs": [],
      "name": "PROPOSER_AVO_MULTISIG_5",
      "outputs": [
        {
          "internalType": "address",
          "name": "",
          "type": "address"
        }
      ],
      "stateMutability": "view",
      "type": "function"
    },
    {
      "inputs": [],
      "name": "RESERVE_CONTRACT_PROXY",
      "outputs": [
        {
          "internalType": "address",
          "name": "",
          "type": "address"
        }
      ],
      "stateMutability": "view",
      "type": "function"
    },
    {
      "inputs": [],
      "name": "REUSD_USD_PRICE",
      "outputs": [
        {
          "internalType": "uint256",
          "name": "",
          "type": "uint256"
        }
      ],
      "stateMutability": "pure",
      "type": "function"
    },
    {
      "inputs": [],
      "name": "RLP_USD_PRICE",
      "outputs": [
        {
          "internalType": "uint256",
          "name": "",
          "type": "uint256"
        }
      ],
      "stateMutability": "pure",
      "type": "function"
    },
    {
      "inputs": [],
      "name": "SMART_LENDING_FACTORY",
      "outputs": [
        {
          "internalType": "contract IFluidSmartLendingFactory",
          "name": "",
          "type": "address"
        }
      ],
      "stateMutability": "view",
      "type": "function"
    },
    {
      "inputs": [],
      "name": "SRUSDE_USD_PRICE",
      "outputs": [
        {
          "internalType": "uint256",
          "name": "",
          "type": "uint256"
        }
      ],
      "stateMutability": "pure",
      "type": "function"
    },
    {
      "inputs": [],
      "name": "STABLE_USD_PRICE",
      "outputs": [
        {
          "internalType": "uint256",
          "name": "",
          "type": "uint256"
        }
      ],
      "stateMutability": "pure",
      "type": "function"
    },
    {
      "inputs": [],
      "name": "TEAM_MULTISIG",
      "outputs": [
        {
          "internalType": "address",
          "name": "",
          "type": "address"
        }
      ],
      "stateMutability": "view",
      "type": "function"
    },
    {
      "inputs": [],
      "name": "TEAM_MULTISIG_2",
      "outputs": [
        {
          "internalType": "address",
          "name": "",
          "type": "address"
        }
      ],
      "stateMutability": "view",
      "type": "function"
    },
    {
      "inputs": [],
      "name": "TIMELOCK",
      "outputs": [
        {
          "internalType": "contract ITimelock",
          "name": "",
          "type": "address"
        }
      ],
      "stateMutability": "view",
      "type": "function"
    },
    {
      "inputs": [],
      "name": "TREASURY",
      "outputs": [
        {
          "internalType": "contract IDSAV2",
          "name": "",
          "type": "address"
        }
      ],
      "stateMutability": "view",
      "type": "function"
    },
    {
      "inputs": [],
      "name": "VAULT_FACTORY",
      "outputs": [
        {
          "internalType": "contract IFluidVaultFactory",
          "name": "",
          "type": "address"
        }
      ],
      "stateMutability": "view",
      "type": "function"
    },
    {
      "inputs": [],
      "name": "XAUT_USD_PRICE",
      "outputs": [
        {
          "internalType": "uint256",
          "name": "",
          "type": "uint256"
        }
      ],
      "stateMutability": "pure",
      "type": "function"
    },
    {
      "inputs": [
        {
          "internalType": "uint256",
          "name": "action_",
          "type": "uint256"
        }
      ],
      "name": "actionStatus",
      "outputs": [
        {
          "internalType": "bool",
          "name": "",
          "type": "bool"
        }
      ],
      "stateMutability": "view",
      "type": "function"
    },
    {
      "inputs": [],
      "name": "csUSDL_USD_PRICE",
      "outputs": [
        {
          "internalType": "uint256",
          "name": "",
          "type": "uint256"
        }
      ],
      "stateMutability": "pure",
      "type": "function"
    },
    {
      "inputs": [],
      "name": "execute",
      "outputs": [],
      "stateMutability": "nonpayable",
      "type": "function"
    },
    {
      "inputs": [],
      "name": "ezETH_USD_PRICE",
      "outputs": [
        {
          "internalType": "uint256",
          "name": "",
          "type": "uint256"
        }
      ],
      "stateMutability": "pure",
      "type": "function"
    },
    {
      "inputs": [
        {
          "internalType": "uint256",
          "name": "dexId_",
          "type": "uint256"
        }
      ],
      "name": "getDexAddress",
      "outputs": [
        {
          "internalType": "address",
          "name": "",
          "type": "address"
        }
      ],
      "stateMutability": "view",
      "type": "function"
    },
    {
      "inputs": [
        {
          "internalType": "address",
          "name": "token",
          "type": "address"
        }
      ],
      "name": "getFTokenAddress",
      "outputs": [
        {
          "internalType": "address",
          "name": "",
          "type": "address"
        }
      ],
      "stateMutability": "view",
      "type": "function"
    },
    {
      "inputs": [],
      "name": "getProposalCreationTime",
      "outputs": [
        {
          "internalType": "uint40",
          "name": "",
          "type": "uint40"
        }
      ],
      "stateMutability": "view",
      "type": "function"
    },
    {
      "inputs": [
        {
          "internalType": "address",
          "name": "token",
          "type": "address"
        },
        {
          "internalType": "uint256",
          "name": "amount",
          "type": "uint256"
        },
        {
          "internalType": "uint256",
          "name": "amountInUSD",
          "type": "uint256"
        },
        {
          "internalType": "bool",
          "name": "isSupply",
          "type": "bool"
        }
      ],
      "name": "getRawAmount",
      "outputs": [
        {
          "internalType": "uint256",
          "name": "",
          "type": "uint256"
        }
      ],
      "stateMutability": "view",
      "type": "function"
    },
    {
      "inputs": [
        {
          "internalType": "uint256",
          "name": "dexId_",
          "type": "uint256"
        }
      ],
      "name": "getSmartLendingAddress",
      "outputs": [
        {
          "internalType": "address",
          "name": "",
          "type": "address"
        }
      ],
      "stateMutability": "view",
      "type": "function"
    },
    {
      "inputs": [
        {
          "internalType": "uint256",
          "name": "vaultId_",
          "type": "uint256"
        }
      ],
      "name": "getVaultAddress",
      "outputs": [
        {
          "internalType": "address",
          "name": "",
          "type": "address"
        }
      ],
      "stateMutability": "view",
      "type": "function"
    },
    {
      "inputs": [],
      "name": "isProposalExecutable",
      "outputs": [
        {
          "internalType": "bool",
          "name": "",
          "type": "bool"
        }
      ],
      "stateMutability": "view",
      "type": "function"
    },
    {
      "inputs": [],
      "name": "mETH_USD_PRICE",
      "outputs": [
        {
          "internalType": "uint256",
          "name": "",
          "type": "uint256"
        }
      ],
      "stateMutability": "pure",
      "type": "function"
    },
    {
      "inputs": [
        {
          "internalType": "string",
          "name": "description",
          "type": "string"
        }
      ],
      "name": "propose",
      "outputs": [],
      "stateMutability": "nonpayable",
      "type": "function"
    },
    {
      "inputs": [],
      "name": "rsETH_USD_PRICE",
      "outputs": [
        {
          "internalType": "uint256",
          "name": "",
          "type": "uint256"
        }
      ],
      "stateMutability": "pure",
      "type": "function"
    },
    {
      "inputs": [],
      "name": "sUSDe_USD_PRICE",
      "outputs": [
        {
          "internalType": "uint256",
          "name": "",
          "type": "uint256"
        }
      ],
      "stateMutability": "pure",
      "type": "function"
    },
    {
      "inputs": [],
      "name": "sUSDs_USD_PRICE",
      "outputs": [
        {
          "internalType": "uint256",
          "name": "",
          "type": "uint256"
        }
      ],
      "stateMutability": "pure",
      "type": "function"
    },
    {
      "inputs": [
        {
          "internalType": "uint256[]",
          "name": "actionsToSkip_",
          "type": "uint256[]"
        }
      ],
      "name": "setActionsToSkip",
      "outputs": [],
      "stateMutability": "nonpayable",
      "type": "function"
    },
    {
      "inputs": [
        {
          "internalType": "uint40",
          "name": "proposalCreationTime_",
          "type": "uint40"
        }
      ],
      "name": "setProposalCreationTime",
      "outputs": [],
      "stateMutability": "nonpayable",
      "type": "function"
    },
    {
      "inputs": [],
      "name": "syrupUSDC_USD_PRICE",
      "outputs": [
        {
          "internalType": "uint256",
          "name": "",
          "type": "uint256"
        }
      ],
      "stateMutability": "pure",
      "type": "function"
    },
    {
      "inputs": [],
      "name": "syrupUSDT_USD_PRICE",
      "outputs": [
        {
          "internalType": "uint256",
          "name": "",
          "type": "uint256"
        }
      ],
      "stateMutability": "pure",
      "type": "function"
    },
    {
      "inputs": [
        {
          "internalType": "bool",
          "name": "isExecutable_",
          "type": "bool"
        }
      ],
      "name": "toggleExecutable",
      "outputs": [],
      "stateMutability": "nonpayable",
      "type": "function"
    },
    {
      "inputs": [],
      "name": "verifyProposal",
      "outputs": [],
      "stateMutability": "view",
      "type": "function"
    },
    {
      "inputs": [],
      "name": "weETH_USD_PRICE",
      "outputs": [
        {
          "internalType": "uint256",
          "name": "",
          "type": "uint256"
        }
      ],
      "stateMutability": "pure",
      "type": "function"
    },
    {
      "inputs": [],
      "name": "weETHs_USD_PRICE",
      "outputs": [
        {
          "internalType": "uint256",
          "name": "",
          "type": "uint256"
        }
      ],
      "stateMutability": "pure",
      "type": "function"
    },
    {
      "inputs": [],
      "name": "wstETH_USD_PRICE",
      "outputs": [
        {
          "internalType": "uint256",
          "name": "",
          "type": "uint256"
        }
      ],
      "stateMutability": "pure",
      "type": "function"
    },
    {
      "inputs": [],
      "name": "wstUSR_USD_PRICE",
      "outputs": [
        {
          "internalType": "uint256",
          "name": "",
          "type": "uint256"
        }
      ],
      "stateMutability": "pure",
      "type": "function"
    }
  ],
  "bytecode": "0x60a060405234801561000f575f80fd5b5030608052608051612d7a61004f5f395f818161070d01528181611ac501528181611c46015281816120b70152818161219a01526123d70152612d7a5ff3fe608060405234801561000f575f80fd5b5060043610610387575f3560e01c8063798d5ba3116101df578063aa98df3911610109578063c60dc265116100a9578063f6370aa911610079578063f6370aa91461075d578063f88ed60c14610765578063fb0ae91814610780578063fcee0c9814610793575f80fd5b8063c60dc265146106f5578063cc025f7c14610708578063e6bd26a21461072f578063f53eddcc14610742575f80fd5b8063b753428b116100e4578063b753428b146106af578063b788f3a1146106b7578063bc3301a8146106d2578063bffa7f0f146106da575f80fd5b8063aa98df3914610694578063ae68032b146106a7578063b6966495146104f8575f80fd5b806396db7d5c1161017f5780639ef947371161014f5780639ef9473714610636578063a5caf0f61461064f578063a64f569314610671578063a90558361461068c575f80fd5b806396db7d5c146105f85780639781a8ca1461060057806397b87b4a146106085780639d3d2a7814610623575f80fd5b806383f5d77a116101ba57806383f5d77a146105a7578063841d2699146105af57806395861bd7146105c257806396bac931146105dd575f80fd5b8063798d5ba31461055e5780637aadef8b146105715780637e2f35fa1461058c575f80fd5b806328787d00116102c0578063614619541161026057806366760d7d1161023057806366760d7d146103d95780636dc0ae22146105335780637000778e1461054e578063727a7c8414610556575f80fd5b80636146195414610513578063623007321461051b57806364e9d567146105235780636521e19f1461052b575f80fd5b80633484818b1161029b5780633484818b146104ba57806348bbb557146104c2578063588c77e6146104dd57806358f2552e146104f8575f80fd5b806328787d001461048f5780632b54c373146104975780632d2c55651461049f575f80fd5b806311ae7a141161032b578063194c0e1811610306578063194c0e18146104495780631bbc51a71461045157806325ad7f4d146104595780632861c7d114610474575f80fd5b806311ae7a141461040e57806312e366aa146104165780631392d4ee14610429575f80fd5b80630b396e66116103665780630b396e66146103b65780630bc9136e146103be5780630e6a204c146103c6578063103f2907146103db575f80fd5b8062623d7d1461038b5780630251eb11146103a6578063040e7a80146103ae575b5f80fd5b6103936107ae565b6040519081526020015b60405180910390f35b6103936107fd565b610393610847565b610393610891565b610393608181565b6103d96103d4366004612773565b6108db565b005b6103f673324c5dc1fc42c7a4d43d92df1eba58a54d13bf2d81565b6040516001600160a01b03909116815260200161039d565b610393610954565b6103f6610424366004612795565b61099e565b60055465010000000000900460ff165b604051901515815260200161039d565b610393610a19565b610393610a63565b6103f6739efde135ca4832abf0408c44c6f5f370eb0f35e881565b6103f67352aa899454998be5b000ad077a46bbe360f4e49781565b610393610aad565b610393610af7565b6103f67328849d2b63fa8d361e5fc15cb8abb13019884d0981565b610393610b41565b6103f673e7eb63a8b6392481a9fdebb108cfd580dc8664d381565b6103f6735c43aac965ff230ac1cf63e924d0153291d78bad81565b6103f673264786ef916af64a1db19f513f24a3681734ce9281565b6103d9610b84565b610393610b9e565b610393610be0565b610393610c2a565b6103f6730204cd037b2ec03605cfdfe482d8e257c765fa1b81565b610393610c74565b610393610cb7565b6103d961056c3660046127ac565b610d01565b6103f6732386dc45added673317ef068992f19421b481f4c81565b6103f673059a94a72951c0ae1cc1ce3bf0db52421bbe821081565b610393610e33565b6103f66105bd366004612795565b610e75565b6103f673a0d3707c569ff8c87fa923d3823ec5d81c98be7881565b6103f67354b91a0d94cb471f37f949c60f7fa7935b551d0381565b610393610eaf565b610393610ef2565b6103f67391716c4eda1fb55e84bf8b4c7085f84285c1908581565b61039361063136600461282f565b610f34565b60055460405164ffffffffff909116815260200161039d565b61043961065d366004612795565b5f9081526006602052604090205460ff1690565b6103f67397b0b3a8bdefe8cb9563a3c610019ad10db8ad1181565b6103936117b1565b6103d96106a236600461288a565b6117fb565b610393611caf565b610393611cf9565b6103f6734f6f977acdd1177dcd81ab83074855ecb9c2d49e81565b610393611d43565b6103f673a45f7bd6a5ff45d31aace6bcd3d426d9328cea0181565b6103f6610703366004612935565b611d8d565b6103f67f000000000000000000000000000000000000000000000000000000000000000081565b6103f661073d366004612795565b611e7b565b6103f673e57227c7d5900165344b190fc7aa580bceb53b9b81565b610393611eb5565b6103f6733daff61fe5cfb1f1b4ea7fba8173a58532ef184181565b6103d961078e366004612950565b611eff565b6103f6731e2e1aed876f67fe4fd54090fd7b8f57ce23421981565b60405162461bcd60e51b815260206004820152601760248201527f464c5549445f5553445f5052494345206e6f742073657400000000000000000060448201525f906064015b60405180910390fd5b60405162461bcd60e51b815260206004820152601860248201527f7765455448735f5553445f5052494345206e6f7420736574000000000000000060448201525f906064016107f4565b60405162461bcd60e51b815260206004820152601860248201527f4a52555344455f5553445f5052494345206e6f7420736574000000000000000060448201525f906064016107f4565b60405162461bcd60e51b815260206004820152601760248201527f72734554485f5553445f5052494345206e6f742073657400000000000000000060448201525f906064016107f4565b33734f6f977acdd1177dcd81ab83074855ecb9c2d49e146109325760405162461bcd60e51b81526020600482015260116024820152706e6f742d7465616d2d6d756c746973696760781b60448201526064016107f4565b60058054911515650100000000000265ff000000000019909216919091179055565b60405162461bcd60e51b815260206004820152601760248201527f73555344655f5553445f5052494345206e6f742073657400000000000000000060448201525f906064016107f4565b604051630971b35560e11b8152600481018290525f907391716c4eda1fb55e84bf8b4c7085f84285c19085906312e366aa906024015b602060405180830381865afa1580156109ef573d5f803e3d5ffd5b505050506040513d601f19601f82011682018060405250810190610a139190612974565b92915050565b60405162461bcd60e51b815260206004820152601860248201527f7773744554485f5553445f5052494345206e6f7420736574000000000000000060448201525f906064016107f4565b60405162461bcd60e51b815260206004820152601b60248201527f7379727570555344545f5553445f5052494345206e6f7420736574000000000060448201525f906064016107f4565b60405162461bcd60e51b815260206004820152601860248201527f535441424c455f5553445f5052494345206e6f7420736574000000000000000060448201525f906064016107f4565b60405162461bcd60e51b815260206004820152601860248201527f63735553444c5f5553445f5052494345206e6f7420736574000000000000000060448201525f906064016107f4565b60405162461bcd60e51b815260206004820152601660248201527514105611d7d554d117d4149250d1481b9bdd081cd95d60521b60448201525f906064016107f4565b610b8c61205f565b610b94612181565b610b9c6123be565b565b60405162461bcd60e51b815260206004820152601560248201527411551217d554d117d4149250d1481b9bdd081cd95d605a1b60448201525f906064016107f4565b60405162461bcd60e51b815260206004820152601760248201527f73555344735f5553445f5052494345206e6f742073657400000000000000000060448201525f906064016107f4565b60405162461bcd60e51b815260206004820152601760248201527f657a4554485f5553445f5052494345206e6f742073657400000000000000000060448201525f906064016107f4565b60405162461bcd60e51b81526020600482015260166024820152751610555517d554d117d4149250d1481b9bdd081cd95d60521b60448201525f906064016107f4565b60405162461bcd60e51b815260206004820152601760248201527f52455553445f5553445f5052494345206e6f742073657400000000000000000060448201525f906064016107f4565b33734f6f977acdd1177dcd81ab83074855ecb9c2d49e14610d585760405162461bcd60e51b81526020600482015260116024820152706e6f742d7465616d2d6d756c746973696760781b60448201526064016107f4565b5f5b81811015610e2e5760065f848484818110610d7757610d7761298f565b602090810292909201358352508101919091526040015f205460ff16610e1c57600160065f858585818110610dae57610dae61298f565b602090810292909201358352508101919091526040015f20805460ff191691151591909117905533838383818110610de857610de861298f565b905060200201357f73d6986e29f26b55373edd4820203ff5e60986cb7a4b8456fb988f0aa546a2f060405160405180910390a35b80610e26816129b7565b915050610d5a565b505050565b60405162461bcd60e51b815260206004820152601560248201527414931417d554d117d4149250d1481b9bdd081cd95d605a1b60448201525f906064016107f4565b60405163841d269960e01b8152600481018290525f9073e57227c7d5900165344b190fc7aa580bceb53b9b9063841d2699906024016109d4565b60405162461bcd60e51b81526020600482015260166024820152751b51551217d554d117d4149250d1481b9bdd081cd95d60521b60448201525f906064016107f4565b60405162461bcd60e51b8152602060048201526015602482015274109510d7d554d117d4149250d1481b9bdd081cd95d605a1b60448201525f906064016107f4565b5f8084118015610f4357505f83115b15610f905760405162461bcd60e51b815260206004820181905260248201527f626f74682075736420616e6420616d6f756e7420617265206e6f74207a65726f60448201526064016107f4565b5f8073eeeeeeeeeeeeeeeeeeeeeeeeeeeeeeeeeeeeeeed196001600160a01b03881601610fca57610fbf610b9e565b915060129050611668565b737f39c581f595b53c5cb19bd0b3f8da6c935e2c9f196001600160a01b03881601610ff757610fbf610a19565b73cd5fe23c85820f7b72d0926fc9b05b43e359b7ed196001600160a01b0388160161102457610fbf611eb5565b73a1290d69c65a6fe4df752f95823fae25cb99e5a6196001600160a01b0388160161105157610fbf610891565b73917cee801a67f933f2e6b33fc0cd1ed2d5909d87196001600160a01b0388160161107e57610fbf6107fd565b73d5f7838f5c461feff7fe49ea5ebaf7728bb0adf9196001600160a01b038816016110ab57610fbf610eaf565b73bf5495efe5db9ce00f80364c8b423567e58d210f196001600160a01b038816016110d857610fbf610c2a565b73f1c9acdc66974dfb6decb12aa385b9cd01190e37196001600160a01b0388160161110557610fbf611d43565b732260fac5e5542a773aa44fbcfedf7c193bc2c598196001600160a01b0388160161113d57611132610ef2565b915060089050611668565b73cbb7c0000ab88b473b1f5afd9ef808440eed33be196001600160a01b0388160161116a57611132610ef2565b7318084fba666a33d37592fa2633fd49a74dd93a87196001600160a01b0388160161119757610fbf610ef2565b73657e8c867d8b37dcc18fa4caead9c45eb088c641196001600160a01b038816016111c457611132610ef2565b738236a87084f8b84306f72007f36f2618a5634493196001600160a01b038816016111f157611132610ef2565b73a0b86991c6218b36c1d19d4a2e9eb0ce3606eb47196001600160a01b038816016112295761121e610aad565b915060069050611668565b73dac17f958d2ee523a2206206994597c13d831ec6196001600160a01b038816016112565761121e610aad565b7340d16fc0246ad3160ccc09b8d0d3a2cd28ae6c2e196001600160a01b0388160161128357610fbf610aad565b734c9edd5852cd905f086c759e8383e09bff1e68b2196001600160a01b038816016112b057610fbf610aad565b7315700b564ca08d9439c58ca5053166e8317aa137196001600160a01b038816016112dd57610fbf610aad565b7366a1e37c9b0eaddca17d3662d6c05f4decf3e10f196001600160a01b0388160161130a57610fbf610aad565b7373a15fed60bf67631dc6cd7bc5b6e8da8190acf4196001600160a01b0388160161133757610fbf610aad565b73085780639cc2cacd35e474e71f4d000e2405d8f5196001600160a01b0388160161136457610fbf610aad565b73b01dd87b29d187f3e3a4bf6cdaebfb97f3d9ab97196001600160a01b0388160161139157610fbf610aad565b7348f9e38f3070ad8945dfeae3fa70987722e3d89b196001600160a01b038816016113be57610fbf610aad565b73c139190f447e929f090edeb554d95abb8b18ac1b196001600160a01b038816016113eb57610fbf610aad565b739d39a5de30e57443bff2a8307a4256c8797a3496196001600160a01b0388160161141857610fbf610954565b73a3931d71877c0e7a3148cb7eb4463524fec27fbc196001600160a01b0388160161144557610fbf610be0565b73356b8d89c1e1239cbbb9de4815c39a1474d5ba7c196001600160a01b038816016114725761121e610a63565b7380ac24aa929eaf5013f6436cda2a7ba190f5cc0a196001600160a01b0388160161149f5761121e6117b1565b735086bf358635b81d8c47c66d1c8b9e567db70c71196001600160a01b038816016114cc57610fbf610cb7565b73beefc011e94f43b8b7b455ebab290c7ab4e216f0196001600160a01b038816016114f957610fbf610af7565b73c58d044404d8b14e953c115e67823784dea53d8e196001600160a01b0388160161152657610fbf610847565b733d7d6fdf07ee548b939a80edbc9b2256d0cdc002196001600160a01b0388160161155357610fbf611cf9565b731202f5c7b4b9e47a1a484e8b270be34dbbc75054196001600160a01b0388160161158057610fbf611caf565b734956b52ae2ff65d74ca2d61207523288e4528f95196001600160a01b038816016115ad57610fbf610e33565b736f40d4a6237c257fff2db00fa0510deeecd303ea196001600160a01b038816016115da57610fbf6107ae565b7368749665ff8d2d112fa859aa293f07a622782f37196001600160a01b038816016116075761121e610c74565b7345804880de22913dafe09f4980848ece6ecbaf77196001600160a01b0388160161163457610fbf610b41565b60405162461bcd60e51b81526020600482015260096024820152681b9bdd0b599bdd5b9960ba1b60448201526064016107f4565b604080516001600160a01b03891660208083019190915260058284015282518083038401815260608301938490528051910120632d71cdb960e21b90925260648101919091525f907352aa899454998be5b000ad077a46bbe360f4e4979063b5c736e490608401602060405180830381865afa1580156116ea573d5f803e3d5ffd5b505050506040513d601f19601f8201168201806040525081019061170e91906129cf565b90505f8061171b83612571565b915091505f8761172b578161172d565b825b9050891561175c57806117458b64e8d4a510006129e6565b61174f9190612a11565b96505050505050506117a9565b606461176882886129e6565b6117729190612a11565b61177d86600a612b10565b61178c8b64e8d4a510006129e6565b61179691906129e6565b6117a09190612a11565b96505050505050505b949350505050565b60405162461bcd60e51b815260206004820152601b60248201527f7379727570555344435f5553445f5052494345206e6f7420736574000000000060448201525f906064016107f4565b3373a45f7bd6a5ff45d31aace6bcd3d426d9328cea011480611830575033734f6f977acdd1177dcd81ab83074855ecb9c2d49e145b8061184e57503073059a94a72951c0ae1cc1ce3bf0db52421bbe8210145b8061186c575030739efde135ca4832abf0408c44c6f5f370eb0f35e8145b8061188a575030735c43aac965ff230ac1cf63e924d0153291d78bad145b806118a8575030733daff61fe5cfb1f1b4ea7fba8173a58532ef1841145b806118c657503073e7eb63a8b6392481a9fdebb108cfd580dc8664d3145b61190b5760405162461bcd60e51b81526020600482015260166024820152751b5cd9cb9cd95b99195c8b5b9bdd0b585b1b1bddd95960521b60448201526064016107f4565b6040805160018082528183019092525f9082602080830190803683370190505090505f8267ffffffffffffffff81111561194757611947612876565b604051908082528060200260200182016040528015611970578160200160208202803683370190505b5090505f8367ffffffffffffffff81111561198d5761198d612876565b6040519080825280602002602001820160405280156119c057816020015b60608152602001906001900390816119ab5790505b5090505f8467ffffffffffffffff8111156119dd576119dd612876565b604051908082528060200260200182016040528015611a1057816020015b60608152602001906001900390816119fb5790505b509050732386dc45added673317ef068992f19421b481f4c845f81518110611a3a57611a3a61298f565b60200260200101906001600160a01b031690816001600160a01b0316815250505f835f81518110611a6d57611a6d61298f565b602002602001018181525050604051806060016040528060248152602001612d2160249139825f81518110611aa457611aa461298f565b602090810291909101810191909152604080515f81529182018152611aec917f0000000000000000000000000000000000000000000000000000000000000000918101612b5e565b604051602081830303815290604052815f81518110611b0d57611b0d61298f565b6020908102919091010152604051636d4ab48d60e11b81525f90730204cd037b2ec03605cfdfe482d8e257c765fa1b9063da95691a90611b599088908890889088908e90600401612c2a565b6020604051808303815f875af1158015611b75573d5f803e3d5ffd5b505050506040513d601f19601f82011682018060405250810190611b9991906129cf565b905060818114611be25760405162461bcd60e51b815260206004820152601460248201527350524f504f53414c5f49535f4e4f545f53414d4560601b60448201526064016107f4565b3373a45f7bd6a5ff45d31aace6bcd3d426d9328cea011480611c17575033734f6f977acdd1177dcd81ab83074855ecb9c2d49e145b15611c2a57611c2542611eff565b611ca6565b604051631f615d2360e31b815264ffffffffff421660048201527f00000000000000000000000000000000000000000000000000000000000000006001600160a01b03169063fb0ae918906024015f604051808303815f87803b158015611c8f575f80fd5b505af1158015611ca1573d5f803e3d5ffd5b505050505b50505050505050565b60405162461bcd60e51b815260206004820152601860248201527f7773745553525f5553445f5052494345206e6f7420736574000000000000000060448201525f906064016107f4565b60405162461bcd60e51b815260206004820152601860248201527f5352555344455f5553445f5052494345206e6f7420736574000000000000000060448201525f906064016107f4565b60405162461bcd60e51b815260206004820152601760248201527f4f534554485f5553445f5052494345206e6f742073657400000000000000000060448201525f906064016107f4565b5f73c02aaa39b223fe8d0a0e5c4f27ead9083c756cc1196001600160a01b03831601611e1c576040805163bb4a64d360e01b81526001600160a01b03841660048201526024810191909152601060448201526f4e6174697665556e6465726c79696e6760801b60648201527354b91a0d94cb471f37f949c60f7fa7935b551d039063bb4a64d3906084016109d4565b6040805163bb4a64d360e01b81526001600160a01b038416600482015260248101919091526006604482015265332a37b5b2b760d11b60648201527354b91a0d94cb471f37f949c60f7fa7935b551d039063bb4a64d3906084016109d4565b60405163735e935160e11b8152600481018290525f9073324c5dc1fc42c7a4d43d92df1eba58a54d13bf2d9063e6bd26a2906024016109d4565b60405162461bcd60e51b815260206004820152601760248201527f77654554485f5553445f5052494345206e6f742073657400000000000000000060448201525f906064016107f4565b3373a45f7bd6a5ff45d31aace6bcd3d426d9328cea011480611f34575033734f6f977acdd1177dcd81ab83074855ecb9c2d49e145b80611f5257503373059a94a72951c0ae1cc1ce3bf0db52421bbe8210145b80611f70575033739efde135ca4832abf0408c44c6f5f370eb0f35e8145b80611f8e575033735c43aac965ff230ac1cf63e924d0153291d78bad145b80611fac575033733daff61fe5cfb1f1b4ea7fba8173a58532ef1841145b80611fca57503373e7eb63a8b6392481a9fdebb108cfd580dc8664d3145b61200f5760405162461bcd60e51b81526020600482015260166024820152751b5cd9cb9cd95b99195c8b5b9bdd0b585b1b1bddd95960521b60448201526064016107f4565b6005805464ffffffffff191664ffffffffff83169081179091556040519081527fc63b190684342aebf3bbf9112171a1da60123c5f3035abfe69043e5b985bb74a9060200160405180910390a150565b30732386dc45added673317ef068992f19421b481f4c146120b55760405162461bcd60e51b815260206004820152601060248201526f3737ba16bb30b634b216b1b0b63632b960811b60448201526064016107f4565b7f00000000000000000000000000000000000000000000000000000000000000006001600160a01b0316631392d4ee6040518163ffffffff1660e01b8152600401602060405180830381865afa158015612111573d5f803e3d5ffd5b505050506040513d601f19601f820116820180604052508101906121359190612cc8565b610b9c5760405162461bcd60e51b815260206004820152601760248201527f70726f706f73616c2d6e6f742d65786563757461626c6500000000000000000060448201526064016107f4565b6040516352e5787b60e11b8152600160048201819052907f00000000000000000000000000000000000000000000000000000000000000006001600160a01b03169063a5caf0f690602401602060405180830381865afa1580156121e7573d5f803e3d5ffd5b505050506040513d601f19601f8201168201806040525081019061220b9190612cc8565b6123bb576040805160018082528183019092525f91816020015b60608152602001906001900390816122255750506040805160018082528183019092529192505f9190602082015b60608152602001906001900390816122535790505090506040518060400160405280600781526020016642415349432d4160c81b815250825f8151811061229c5761229c61298f565b602090810291909101015260405173a0d3707c569ff8c87fa923d3823ec5d81c98be7860248201525f196044820152734f6f977acdd1177dcd81ab83074855ecb9c2d49e60648201525f6084820181905260a482015260c40160408051601f198184030181529190526020810180516001600160e01b03166325e9d5c160e11b179052815182905f906123315761233161298f565b60209081029190910101526040516324c1324d60e21b81527328849d2b63fa8d361e5fc15cb8abb13019884d0990639304c9349061237790859085903090600401612ce3565b6020604051808303815f875af1158015612393573d5f803e3d5ffd5b505050506040513d601f19601f820116820180604052508101906123b791906129cf565b5050505b50565b6040516352e5787b60e11b8152600260048201819052907f00000000000000000000000000000000000000000000000000000000000000006001600160a01b03169063a5caf0f690602401602060405180830381865afa158015612424573d5f803e3d5ffd5b505050506040513d601f19601f820116820180604052508101906124489190612cc8565b6123bb576040805160018082528183019092525f91816020015b60608152602001906001900390816124625750506040805160018082528183019092529192505f9190602082015b60608152602001906001900390816124905790505090506040518060400160405280600a8152602001692120a9a4a196a216ab1960b11b815250825f815181106124dc576124dc61298f565b6020908102919091010152604051736a29a46e21c730dca1d8b23d637c101cec605c5b60248201525f196044820152734f6f977acdd1177dcd81ab83074855ecb9c2d49e60648201525f6084820181905260a482015260c40160408051601f198184030181529190526020810180516001600160e01b0316632813248f60e01b179052815182905f906123315761233161298f565b67ffffffffffffffff605b82901c811690609b83901c16811580612593575080155b156125b657604051636a86ba8960e11b81526201117160048201526024016107f4565b61ffff8316603a84901c6401ffffffff16428181039160ea87901c617fff169114806125e0575082155b806125eb5750806001145b156125f857505050915091565b64496cebb80084840283020484019350617fff60db87901c1692508260010361262357505050915091565b826001166001036126785760019290921c91826c7e37be2022c0914b268000000081612651576126516129fd565b049250612710601e87901c613fff166b033b2e3c9fd0803ce80000008501020492506126a5565b60019290921c916305f5e100601e87901c613fff166127108501026b033b2e3c9fd0803ce8000000020492505b806001166001036126dc5760011c61271081016b033b2e3c9fd0803ce80000008202816126d4576126d46129fd565b049050612712565b60011c61271081016b033b2e3c9fd0803ce8000000820281612700576127006129fd565b046b033b2e3c9fd0803ce80000000390505b760a70c3c40a64e6c51999090b65f67d92400000000000008382026127100261ffff881691900402601087901c613fff16612710030292506801b5a660ea44b8000085840283020485019450505050915091565b80151581146123bb575f80fd5b5f60208284031215612783575f80fd5b813561278e81612766565b9392505050565b5f602082840312156127a5575f80fd5b5035919050565b5f80602083850312156127bd575f80fd5b823567ffffffffffffffff808211156127d4575f80fd5b818501915085601f8301126127e7575f80fd5b8135818111156127f5575f80fd5b8660208260051b8501011115612809575f80fd5b60209290920196919550909350505050565b6001600160a01b03811681146123bb575f80fd5b5f805f8060808587031215612842575f80fd5b843561284d8161281b565b93506020850135925060408501359150606085013561286b81612766565b939692955090935050565b634e487b7160e01b5f52604160045260245ffd5b5f6020828403121561289a575f80fd5b813567ffffffffffffffff808211156128b1575f80fd5b818401915084601f8301126128c4575f80fd5b8135818111156128d6576128d6612876565b604051601f8201601f19908116603f011681019083821181831017156128fe576128fe612876565b81604052828152876020848701011115612916575f80fd5b826020860160208301375f928101602001929092525095945050505050565b5f60208284031215612945575f80fd5b813561278e8161281b565b5f60208284031215612960575f80fd5b813564ffffffffff8116811461278e575f80fd5b5f60208284031215612984575f80fd5b815161278e8161281b565b634e487b7160e01b5f52603260045260245ffd5b634e487b7160e01b5f52601160045260245ffd5b5f600182016129c8576129c86129a3565b5060010190565b5f602082840312156129df575f80fd5b5051919050565b8082028115828204841417610a1357610a136129a3565b634e487b7160e01b5f52601260045260245ffd5b5f82612a2b57634e487b7160e01b5f52601260045260245ffd5b500490565b600181815b80851115612a6a57815f1904821115612a5057612a506129a3565b80851615612a5d57918102915b93841c9390800290612a35565b509250929050565b5f82612a8057506001610a13565b81612a8c57505f610a13565b8160018114612aa25760028114612aac57612ac8565b6001915050610a13565b60ff841115612abd57612abd6129a3565b50506001821b610a13565b5060208310610133831016604e8410600b8410161715612aeb575081810a610a13565b612af58383612a30565b805f1904821115612b0857612b086129a3565b029392505050565b5f61278e8383612a72565b5f81518084525f5b81811015612b3f57602081850181015186830182015201612b23565b505f602082860101526020601f19601f83011685010191505092915050565b60018060a01b038316815260606020820152600960608201526865786563757465282960b81b608082015260a060408201525f6117a960a0830184612b1b565b5f8151808452602080850194508084015f5b83811015612bcc57815187529582019590820190600101612bb0565b509495945050505050565b5f81518084526020808501808196508360051b810191508286015f5b85811015612c1d578284038952612c0b848351612b1b565b98850198935090840190600101612bf3565b5091979650505050505050565b60a080825286519082018190525f9060209060c0840190828a01845b82811015612c6b5781516001600160a01b031684529284019290840190600101612c46565b50505083810382850152612c7f8189612b9e565b9150508281036040840152612c948187612bd7565b90508281036060840152612ca88186612bd7565b90508281036080840152612cbc8185612b1b565b98975050505050505050565b5f60208284031215612cd8575f80fd5b815161278e81612766565b606081525f612cf56060830186612bd7565b8281036020840152612d078186612bd7565b91505060018060a01b038316604083015294935050505056fe657865637574655061796c6f616428616464726573732c737472696e672c627974657329a26469706673582212203e8eb373c836a9e1e1e1dda94da15a9225e15fc389a0ca959e16442532c1d8c164736f6c63430008150033",
  "linkReferences": {},
  "deployedLinkReferences": {},
  "immutableReferences": {
    "219": [
      {
        "length": 32,
        "start": 1805
      },
      {
        "length": 32,
        "start": 6853
      },
      {
        "length": 32,
        "start": 7238
      },
      {
        "length": 32,
        "start": 8375
      },
      {
        "length": 32,
        "start": 8602
      },
      {
        "length": 32,
        "start": 9175
      }
    ]
  },
  "inputSourceName": "project/contracts/payloads/IGP129/PayloadIGP129.sol",
  "buildInfoId": "solc-0_8_21-127173c56584eb7c6011ce4c0159fe191af0bce1"
}