{
  "_format": "hh3-artifact-1",
  "contractName": "PayloadIGP135",
  "sourceName": "contracts/payloads/IGP135/PayloadIGP135.sol",
  "abi": [
    {
      "inputs": [
        {
          "internalType": "uint256",
          "name": "errorId_",
          "type": "uint256"
        }
      ],
      "name": "FluidLiquidityCalcsError",
      "type": "error"
    },
    {
      "anonymous": false,
      "inputs": [
        {
          "indexed": true,
          "internalType": "uint256",
          "name": "action",
          "type": "uint256"
        },
        {
          "indexed": true,
          "internalType": "address",
          "name": "by",
          "type": "address"
        }
      ],
      "name": "ActionSkipped",
      "type": "event"
    },
    {
      "anonymous": false,
      "inputs": [
        {
          "indexed": false,
          "internalType": "uint40",
          "name": "at",
          "type": "uint40"
        }
      ],
      "name": "ProposalCreationTimeSet",
      "type": "event"
    },
    {
      "inputs": [],
      "name": "ADDRESS_THIS",
      "outputs": [
        {
          "internalType": "address",
          "name": "",
          "type": "address"
        }
      ],
      "stateMutability": "view",
      "type": "function"
    },
    {
      "inputs": [],
      "name": "BTC_USD_PRICE",
      "outputs": [
        {
          "internalType": "uint256",
          "name": "",
          "type": "uint256"
        }
      ],
      "stateMutability": "pure",
      "type": "function"
    },
    {
      "inputs": [],
      "name": "DEX_FACTORY",
      "outputs": [
        {
          "internalType": "contract IFluidDexFactory",
          "name": "",
          "type": "address"
        }
      ],
      "stateMutability": "view",
      "type": "function"
    },
    {
      "inputs": [],
      "name": "DSA_CONNECTORS_V2",
      "outputs": [
        {
          "internalType": "contract IDSAConnectorsV2",
          "name": "",
          "type": "address"
        }
      ],
      "stateMutability": "view",
      "type": "function"
    },
    {
      "inputs": [],
      "name": "ETH_USD_PRICE",
      "outputs": [
        {
          "internalType": "uint256",
          "name": "",
          "type": "uint256"
        }
      ],
      "stateMutability": "pure",
      "type": "function"
    },
    {
      "inputs": [],
      "name": "FLUID_RESERVE",
      "outputs": [
        {
          "internalType": "contract IFluidReserveContract",
          "name": "",
          "type": "address"
        }
      ],
      "stateMutability": "view",
      "type": "function"
    },
    {
      "inputs": [],
      "name": "FLUID_USD_PRICE",
      "outputs": [
        {
          "internalType": "uint256",
          "name": "",
          "type": "uint256"
        }
      ],
      "stateMutability": "pure",
      "type": "function"
    },
    {
      "inputs": [],
      "name": "FLUID_VAULT_FACTORY_OWNER",
      "outputs": [
        {
          "internalType": "contract IFluidVaultFactory",
          "name": "",
          "type": "address"
        }
      ],
      "stateMutability": "view",
      "type": "function"
    },
    {
      "inputs": [],
      "name": "GHO_USDC_DEX_ID",
      "outputs": [
        {
          "internalType": "uint256",
          "name": "",
          "type": "uint256"
        }
      ],
      "stateMutability": "view",
      "type": "function"
    },
    {
      "inputs": [],
      "name": "GOVERNOR",
      "outputs": [
        {
          "internalType": "contract IGovernorBravo",
          "name": "",
          "type": "address"
        }
      ],
      "stateMutability": "view",
      "type": "function"
    },
    {
      "inputs": [],
      "name": "IETHV2",
      "outputs": [
        {
          "internalType": "contract ILite",
          "name": "",
          "type": "address"
        }
      ],
      "stateMutability": "view",
      "type": "function"
    },
    {
      "inputs": [],
      "name": "JRUSDE_USD_PRICE",
      "outputs": [
        {
          "internalType": "uint256",
          "name": "",
          "type": "uint256"
        }
      ],
      "stateMutability": "pure",
      "type": "function"
    },
    {
      "inputs": [],
      "name": "LENDING_FACTORY",
      "outputs": [
        {
          "internalType": "contract IFluidLendingFactory",
          "name": "",
          "type": "address"
        }
      ],
      "stateMutability": "view",
      "type": "function"
    },
    {
      "inputs": [],
      "name": "LIQUIDITY",
      "outputs": [
        {
          "internalType": "contract IFluidLiquidityAdmin",
          "name": "",
          "type": "address"
        }
      ],
      "stateMutability": "view",
      "type": "function"
    },
    {
      "inputs": [],
      "name": "OSETH_USD_PRICE",
      "outputs": [
        {
          "internalType": "uint256",
          "name": "",
          "type": "uint256"
        }
      ],
      "stateMutability": "pure",
      "type": "function"
    },
    {
      "inputs": [],
      "name": "PAXG_USD_PRICE",
      "outputs": [
        {
          "internalType": "uint256",
          "name": "",
          "type": "uint256"
        }
      ],
      "stateMutability": "pure",
      "type": "function"
    },
    {
      "inputs": [],
      "name": "PROPOSAL_ID",
      "outputs": [
        {
          "internalType": "uint256",
          "name": "",
          "type": "uint256"
        }
      ],
      "stateMutability": "view",
      "type": "function"
    },
    {
      "inputs": [],
      "name": "PROPOSER",
      "outputs": [
        {
          "internalType": "address",
          "name": "",
          "type": "address"
        }
      ],
      "stateMutability": "view",
      "type": "function"
    },
    {
      "inputs": [],
      "name": "PROPOSER_AVO_MULTISIG",
      "outputs": [
        {
          "internalType": "address",
          "name": "",
          "type": "address"
        }
      ],
      "stateMutability": "view",
      "type": "function"
    },
    {
      "inputs": [],
      "name": "PROPOSER_AVO_MULTISIG_2",
      "outputs": [
        {
          "internalType": "address",
          "name": "",
          "type": "address"
        }
      ],
      "stateMutability": "view",
      "type": "function"
    },
    {
      "inputs": [],
      "name": "PROPOSER_AVO_MULTISIG_3",
      "outputs": [
        {
          "internalType": "address",
          "name": "",
          "type": "address"
        }
      ],
      "stateMutability": "view",
      "type": "function"
    },
    {
      "inputs": [],
      "name": "PROPOSER_AVO_MULTISIG_4",
      "outputs": [
        {
          "internalType": "address",
          "name": "",
          "type": "address"
        }
      ],
      "stateMutability": "view",
      "type": "function"
    },
    {
      "inputs": [],
      "name": "PROPOSER_AVO_MULTISIG_5",
      "outputs": [
        {
          "internalType": "address",
          "name": "",
          "type": "address"
        }
      ],
      "stateMutability": "view",
      "type": "function"
    },
    {
      "inputs": [],
      "name": "PST_USD_PRICE",
      "outputs": [
        {
          "internalType": "uint256",
          "name": "",
          "type": "uint256"
        }
      ],
      "stateMutability": "pure",
      "type": "function"
    },
    {
      "inputs": [],
      "name": "RESERVE_CONTRACT_PROXY",
      "outputs": [
        {
          "internalType": "address",
          "name": "",
          "type": "address"
        }
      ],
      "stateMutability": "view",
      "type": "function"
    },
    {
      "inputs": [],
      "name": "REUSD_USDT_DEX_ID",
      "outputs": [
        {
          "internalType": "uint256",
          "name": "",
          "type": "uint256"
        }
      ],
      "stateMutability": "view",
      "type": "function"
    },
    {
      "inputs": [],
      "name": "REUSD_USD_PRICE",
      "outputs": [
        {
          "internalType": "uint256",
          "name": "",
          "type": "uint256"
        }
      ],
      "stateMutability": "pure",
      "type": "function"
    },
    {
      "inputs": [],
      "name": "RLP_USDC_DEX_ID",
      "outputs": [
        {
          "internalType": "uint256",
          "name": "",
          "type": "uint256"
        }
      ],
      "stateMutability": "view",
      "type": "function"
    },
    {
      "inputs": [],
      "name": "RLP_USD_PRICE",
      "outputs": [
        {
          "internalType": "uint256",
          "name": "",
          "type": "uint256"
        }
      ],
      "stateMutability": "pure",
      "type": "function"
    },
    {
      "inputs": [],
      "name": "SMART_LENDING_FACTORY",
      "outputs": [
        {
          "internalType": "contract IFluidSmartLendingFactory",
          "name": "",
          "type": "address"
        }
      ],
      "stateMutability": "view",
      "type": "function"
    },
    {
      "inputs": [],
      "name": "SRUSDE_USD_PRICE",
      "outputs": [
        {
          "internalType": "uint256",
          "name": "",
          "type": "uint256"
        }
      ],
      "stateMutability": "pure",
      "type": "function"
    },
    {
      "inputs": [],
      "name": "STABLE_USD_PRICE",
      "outputs": [
        {
          "internalType": "uint256",
          "name": "",
          "type": "uint256"
        }
      ],
      "stateMutability": "pure",
      "type": "function"
    },
    {
      "inputs": [],
      "name": "STETH_REDEMPTION_PROTOCOL",
      "outputs": [
        {
          "internalType": "contract IStETHRedemptionProtocol",
          "name": "",
          "type": "address"
        }
      ],
      "stateMutability": "view",
      "type": "function"
    },
    {
      "inputs": [],
      "name": "SUSDAI_USD_PRICE",
      "outputs": [
        {
          "internalType": "uint256",
          "name": "",
          "type": "uint256"
        }
      ],
      "stateMutability": "pure",
      "type": "function"
    },
    {
      "inputs": [],
      "name": "TEAM_MULTISIG",
      "outputs": [
        {
          "internalType": "address",
          "name": "",
          "type": "address"
        }
      ],
      "stateMutability": "view",
      "type": "function"
    },
    {
      "inputs": [],
      "name": "TEAM_MULTISIG_2",
      "outputs": [
        {
          "internalType": "address",
          "name": "",
          "type": "address"
        }
      ],
      "stateMutability": "view",
      "type": "function"
    },
    {
      "inputs": [],
      "name": "TIMELOCK",
      "outputs": [
        {
          "internalType": "contract ITimelock",
          "name": "",
          "type": "address"
        }
      ],
      "stateMutability": "view",
      "type": "function"
    },
    {
      "inputs": [],
      "name": "TREASURY",
      "outputs": [
        {
          "internalType": "contract IDSAV2",
          "name": "",
          "type": "address"
        }
      ],
      "stateMutability": "view",
      "type": "function"
    },
    {
      "inputs": [],
      "name": "USDAI_USDC_DEX_ID",
      "outputs": [
        {
          "internalType": "uint256",
          "name": "",
          "type": "uint256"
        }
      ],
      "stateMutability": "view",
      "type": "function"
    },
    {
      "inputs": [],
      "name": "USDC_USDT_DEX_ID",
      "outputs": [
        {
          "internalType": "uint256",
          "name": "",
          "type": "uint256"
        }
      ],
      "stateMutability": "view",
      "type": "function"
    },
    {
      "inputs": [],
      "name": "USR_USDC_DEX_ID",
      "outputs": [
        {
          "internalType": "uint256",
          "name": "",
          "type": "uint256"
        }
      ],
      "stateMutability": "view",
      "type": "function"
    },
    {
      "inputs": [],
      "name": "VAULT_FACTORY",
      "outputs": [
        {
          "internalType": "contract IFluidVaultFactory",
          "name": "",
          "type": "address"
        }
      ],
      "stateMutability": "view",
      "type": "function"
    },
    {
      "inputs": [],
      "name": "VAULT_FACTORY_WRAPPER_OWNER",
      "outputs": [
        {
          "internalType": "contract IFluidVaultFactory",
          "name": "",
          "type": "address"
        }
      ],
      "stateMutability": "view",
      "type": "function"
    },
    {
      "inputs": [],
      "name": "VAULT_REUSD_USDT__USDC_USDT_ID",
      "outputs": [
        {
          "internalType": "uint256",
          "name": "",
          "type": "uint256"
        }
      ],
      "stateMutability": "view",
      "type": "function"
    },
    {
      "inputs": [],
      "name": "VAULT_REUSD__GHO_USDC_ID",
      "outputs": [
        {
          "internalType": "uint256",
          "name": "",
          "type": "uint256"
        }
      ],
      "stateMutability": "view",
      "type": "function"
    },
    {
      "inputs": [],
      "name": "VAULT_USDAI_USDC__USDC_ID",
      "outputs": [
        {
          "internalType": "uint256",
          "name": "",
          "type": "uint256"
        }
      ],
      "stateMutability": "view",
      "type": "function"
    },
    {
      "inputs": [],
      "name": "XAUT_USD_PRICE",
      "outputs": [
        {
          "internalType": "uint256",
          "name": "",
          "type": "uint256"
        }
      ],
      "stateMutability": "pure",
      "type": "function"
    },
    {
      "inputs": [
        {
          "internalType": "uint256",
          "name": "action_",
          "type": "uint256"
        }
      ],
      "name": "actionStatus",
      "outputs": [
        {
          "internalType": "bool",
          "name": "",
          "type": "bool"
        }
      ],
      "stateMutability": "view",
      "type": "function"
    },
    {
      "inputs": [],
      "name": "csUSDL_USD_PRICE",
      "outputs": [
        {
          "internalType": "uint256",
          "name": "",
          "type": "uint256"
        }
      ],
      "stateMutability": "pure",
      "type": "function"
    },
    {
      "inputs": [],
      "name": "execute",
      "outputs": [],
      "stateMutability": "nonpayable",
      "type": "function"
    },
    {
      "inputs": [],
      "name": "ezETH_USD_PRICE",
      "outputs": [
        {
          "internalType": "uint256",
          "name": "",
          "type": "uint256"
        }
      ],
      "stateMutability": "pure",
      "type": "function"
    },
    {
      "inputs": [
        {
          "internalType": "uint256",
          "name": "dexId_",
          "type": "uint256"
        }
      ],
      "name": "getDexAddress",
      "outputs": [
        {
          "internalType": "address",
          "name": "",
          "type": "address"
        }
      ],
      "stateMutability": "view",
      "type": "function"
    },
    {
      "inputs": [
        {
          "internalType": "address",
          "name": "token",
          "type": "address"
        }
      ],
      "name": "getFTokenAddress",
      "outputs": [
        {
          "internalType": "address",
          "name": "",
          "type": "address"
        }
      ],
      "stateMutability": "view",
      "type": "function"
    },
    {
      "inputs": [],
      "name": "getProposalCreationTime",
      "outputs": [
        {
          "internalType": "uint40",
          "name": "",
          "type": "uint40"
        }
      ],
      "stateMutability": "view",
      "type": "function"
    },
    {
      "inputs": [
        {
          "internalType": "address",
          "name": "token",
          "type": "address"
        },
        {
          "internalType": "uint256",
          "name": "amount",
          "type": "uint256"
        },
        {
          "internalType": "uint256",
          "name": "amountInUSD",
          "type": "uint256"
        },
        {
          "internalType": "bool",
          "name": "isSupply",
          "type": "bool"
        }
      ],
      "name": "getRawAmount",
      "outputs": [
        {
          "internalType": "uint256",
          "name": "",
          "type": "uint256"
        }
      ],
      "stateMutability": "view",
      "type": "function"
    },
    {
      "inputs": [
        {
          "internalType": "uint256",
          "name": "dexId_",
          "type": "uint256"
        }
      ],
      "name": "getSmartLendingAddress",
      "outputs": [
        {
          "internalType": "address",
          "name": "",
          "type": "address"
        }
      ],
      "stateMutability": "view",
      "type": "function"
    },
    {
      "inputs": [
        {
          "internalType": "uint256",
          "name": "vaultId_",
          "type": "uint256"
        }
      ],
      "name": "getVaultAddress",
      "outputs": [
        {
          "internalType": "address",
          "name": "",
          "type": "address"
        }
      ],
      "stateMutability": "view",
      "type": "function"
    },
    {
      "inputs": [],
      "name": "isProposalExecutable",
      "outputs": [
        {
          "internalType": "bool",
          "name": "",
          "type": "bool"
        }
      ],
      "stateMutability": "view",
      "type": "function"
    },
    {
      "inputs": [],
      "name": "mETH_USD_PRICE",
      "outputs": [
        {
          "internalType": "uint256",
          "name": "",
          "type": "uint256"
        }
      ],
      "stateMutability": "pure",
      "type": "function"
    },
    {
      "inputs": [
        {
          "internalType": "string",
          "name": "description",
          "type": "string"
        }
      ],
      "name": "propose",
      "outputs": [],
      "stateMutability": "nonpayable",
      "type": "function"
    },
    {
      "inputs": [],
      "name": "rsETH_USD_PRICE",
      "outputs": [
        {
          "internalType": "uint256",
          "name": "",
          "type": "uint256"
        }
      ],
      "stateMutability": "pure",
      "type": "function"
    },
    {
      "inputs": [],
      "name": "sUSDe_USD_PRICE",
      "outputs": [
        {
          "internalType": "uint256",
          "name": "",
          "type": "uint256"
        }
      ],
      "stateMutability": "pure",
      "type": "function"
    },
    {
      "inputs": [],
      "name": "sUSDs_USD_PRICE",
      "outputs": [
        {
          "internalType": "uint256",
          "name": "",
          "type": "uint256"
        }
      ],
      "stateMutability": "pure",
      "type": "function"
    },
    {
      "inputs": [
        {
          "internalType": "uint256[]",
          "name": "actionsToSkip_",
          "type": "uint256[]"
        }
      ],
      "name": "setActionsToSkip",
      "outputs": [],
      "stateMutability": "nonpayable",
      "type": "function"
    },
    {
      "inputs": [
        {
          "internalType": "uint40",
          "name": "proposalCreationTime_",
          "type": "uint40"
        }
      ],
      "name": "setProposalCreationTime",
      "outputs": [],
      "stateMutability": "nonpayable",
      "type": "function"
    },
    {
      "inputs": [],
      "name": "syrupUSDC_USD_PRICE",
      "outputs": [
        {
          "internalType": "uint256",
          "name": "",
          "type": "uint256"
        }
      ],
      "stateMutability": "pure",
      "type": "function"
    },
    {
      "inputs": [],
      "name": "syrupUSDT_USD_PRICE",
      "outputs": [
        {
          "internalType": "uint256",
          "name": "",
          "type": "uint256"
        }
      ],
      "stateMutability": "pure",
      "type": "function"
    },
    {
      "inputs": [
        {
          "internalType": "bool",
          "name": "isExecutable_",
          "type": "bool"
        }
      ],
      "name": "toggleExecutable",
      "outputs": [],
      "stateMutability": "nonpayable",
      "type": "function"
    },
    {
      "inputs": [],
      "name": "verifyProposal",
      "outputs": [],
      "stateMutability": "view",
      "type": "function"
    },
    {
      "inputs": [],
      "name": "weETH_USD_PRICE",
      "outputs": [
        {
          "internalType": "uint256",
          "name": "",
          "type": "uint256"
        }
      ],
      "stateMutability": "pure",
      "type": "function"
    },
    {
      "inputs": [],
      "name": "weETHs_USD_PRICE",
      "outputs": [
        {
          "internalType": "uint256",
          "name": "",
          "type": "uint256"
        }
      ],
      "stateMutability": "pure",
      "type": "function"
    },
    {
      "inputs": [],
      "name": "wstETH_USD_PRICE",
      "outputs": [
        {
          "internalType": "uint256",
          "name": "",
          "type": "uint256"
        }
      ],
      "stateMutability": "pure",
      "type": "function"
    },
    {
      "inputs": [],
      "name": "wstUSR_USD_PRICE",
      "outputs": [
        {
          "internalType": "uint256",
          "name": "",
          "type": "uint256"
        }
      ],
      "stateMutability": "pure",
      "type": "function"
    }
  ],
  "bytecode": "0x60a060405234801561000f575f80fd5b5030608052608051615a7c6200008f5f395f818161082501528181611c8301528181611e04015281816122b70152818161239a01528181612784015281816128c60152818161384f01528181613adf01528181613c7201528181613e48015281816140e80152818161423a01528181614643015261489a0152615a7c5ff3fe608060405234801561000f575f80fd5b5060043610610421575f3560e01c80637aadef8b1161022c578063ae68032b11610135578063c7e32aee116100bf578063f53eddcc11610084578063f53eddcc1461086a578063f6370aa914610885578063f88ed60c1461088d578063fb0ae918146108a8578063fcee0c98146108bb575f80fd5b8063c7e32aee14610818578063cc025f7c14610820578063e6bd26a214610847578063f192f4c51461085a578063f202813f14610862575f80fd5b8063bc3301a811610105578063bc3301a8146107d2578063bcbcc4e2146107da578063bffa7f0f146107e2578063c5f69dde146107fd578063c60dc26514610805575f80fd5b8063ae68032b146107a7578063b6966495146105e8578063b753428b146107af578063b788f3a1146107b7575f80fd5b806397b87b4a116101b6578063a5caf0f611610186578063a5caf0f61461074f578063a64f569314610771578063a90558361461078c578063aa98df3914610794578063ac1236f714610493575f80fd5b806397b87b4a146107005780639d3d2a781461071b5780639ef947371461072e578063a072297914610747575f80fd5b80638e40b937116101fc5780638e40b937146106b157806395861bd7146106b957806396bac931146106d457806396db7d5c146106ef5780639781a8ca146106f7575f80fd5b80637aadef8b146106605780637e2f35fa1461067b57806383f5d77a14610696578063841d26991461069e575f80fd5b80632b54c3731161032e57806361461954116102b857806366760d7d1161028857806366760d7d146104c15780636dc0ae22146106235780637000778e1461063e578063727a7c8414610646578063798d5ba31461064d575f80fd5b80636146195414610603578063623007321461060b57806364e9d567146106135780636521e19f1461061b575f80fd5b80633f5778ac116102fe5780633f5778ac146105a257806348bbb557146105aa578063521d0357146105c5578063588c77e6146105cd57806358f2552e146105e8575f80fd5b80632b54c3731461056f5780632d2c55651461057757806333d13eb2146105925780633484818b1461059a575f80fd5b806311ae7a14116103af5780631b7d757d1161037f5780631b7d757d146105225780631bbc51a71461052a57806325ad7f4d146105325780632861c7d11461054d57806328787d0014610568575f80fd5b806311ae7a14146104de57806312e366aa146104e65780631392d4ee146104f9578063194c0e1814610519575f80fd5b80630b396e66116103f55780630b396e66146104835780630bc9136e1461048b5780630d67976f146104935780630e6a204c146104ae578063103f2907146104c3575f80fd5b8062623d7d146104255780630251eb1114610440578063040e7a80146104485780630b0a1d9c14610450575b5f80fd5b61042d6108d6565b6040519081526020015b60405180910390f35b61042d610925565b61042d61096f565b61046b731f6b2bfdd5d1e6ade7b17027ff5300419a56ad6b81565b6040516001600160a01b039091168152602001610437565b61042d6109b9565b61042d608781565b61046b73b031913cb7ad81b8a4ba412b471c2da69bea410b81565b6104c16104bc366004615276565b610a03565b005b61046b73324c5dc1fc42c7a4d43d92df1eba58a54d13bf2d81565b61042d610a7c565b61046b6104f4366004615298565b610ac6565b60055465010000000000900460ff165b6040519015158152602001610437565b62034bc061042d565b61042d610b41565b61042d610b8b565b61046b739efde135ca4832abf0408c44c6f5f370eb0f35e881565b61046b7352aa899454998be5b000ad077a46bbe360f4e49781565b606461042d565b61042d610bd5565b61046b7328849d2b63fa8d361e5fc15cb8abb13019884d0981565b61042d60b581565b61042d610c1f565b61042d602c81565b61046b73e7eb63a8b6392481a9fdebb108cfd580dc8664d381565b61042d600281565b61046b735c43aac965ff230ac1cf63e924d0153291d78bad81565b61046b73264786ef916af64a1db19f513f24a3681734ce9281565b6104c1610c62565b61042d610cc4565b61042d610d06565b61042d610d50565b61046b730204cd037b2ec03605cfdfe482d8e257c765fa1b81565b61042d610d9a565b606d61042d565b6104c161065b3660046152af565b610ddd565b61046b732386dc45added673317ef068992f19421b481f4c81565b61046b73059a94a72951c0ae1cc1ce3bf0db52421bbe821081565b61042d610f0f565b61046b6106ac366004615298565b610f51565b61042d602f81565b61046b73a0d3707c569ff8c87fa923d3823ec5d81c98be7881565b61046b7354b91a0d94cb471f37f949c60f7fa7935b551d0381565b61042d610f8b565b6261a80061042d565b61046b7391716c4eda1fb55e84bf8b4c7085f84285c1908581565b61042d610729366004615332565b610fce565b60055460405164ffffffffff9091168152602001610437565b61042d60aa81565b61050961075d366004615298565b5f9081526006602052604090205460ff1690565b61046b7397b0b3a8bdefe8cb9563a3c610019ad10db8ad1181565b61042d61196f565b6104c16107a236600461538d565b6119b9565b61042d611e6d565b61042d611eb7565b61046b734f6f977acdd1177dcd81ab83074855ecb9c2d49e81565b61042d611f01565b61042d611f4b565b61046b73a45f7bd6a5ff45d31aace6bcd3d426d9328cea0181565b61042d601c81565b61046b610813366004615438565b611f8d565b61042d600481565b61046b7f000000000000000000000000000000000000000000000000000000000000000081565b61046b610855366004615298565b61207b565b61042d60b481565b61042d601481565b61046b73e57227c7d5900165344b190fc7aa580bceb53b9b81565b61042d6120b5565b61046b733daff61fe5cfb1f1b4ea7fba8173a58532ef184181565b6104c16108b6366004615453565b6120ff565b61046b731e2e1aed876f67fe4fd54090fd7b8f57ce23421981565b60405162461bcd60e51b815260206004820152601760248201527f464c5549445f5553445f5052494345206e6f742073657400000000000000000060448201525f906064015b60405180910390fd5b60405162461bcd60e51b815260206004820152601860248201527f7765455448735f5553445f5052494345206e6f7420736574000000000000000060448201525f9060640161091c565b60405162461bcd60e51b815260206004820152601860248201527f4a52555344455f5553445f5052494345206e6f7420736574000000000000000060448201525f9060640161091c565b60405162461bcd60e51b815260206004820152601760248201527f72734554485f5553445f5052494345206e6f742073657400000000000000000060448201525f9060640161091c565b33734f6f977acdd1177dcd81ab83074855ecb9c2d49e14610a5a5760405162461bcd60e51b81526020600482015260116024820152706e6f742d7465616d2d6d756c746973696760781b604482015260640161091c565b60058054911515650100000000000265ff000000000019909216919091179055565b60405162461bcd60e51b815260206004820152601760248201527f73555344655f5553445f5052494345206e6f742073657400000000000000000060448201525f9060640161091c565b604051630971b35560e11b8152600481018290525f907391716c4eda1fb55e84bf8b4c7085f84285c19085906312e366aa906024015b602060405180830381865afa158015610b17573d5f803e3d5ffd5b505050506040513d601f19601f82011682018060405250810190610b3b9190615477565b92915050565b60405162461bcd60e51b815260206004820152601860248201527f5355534441495f5553445f5052494345206e6f7420736574000000000000000060448201525f9060640161091c565b60405162461bcd60e51b815260206004820152601b60248201527f7379727570555344545f5553445f5052494345206e6f7420736574000000000060448201525f9060640161091c565b60405162461bcd60e51b815260206004820152601860248201527f63735553444c5f5553445f5052494345206e6f7420736574000000000000000060448201525f9060640161091c565b60405162461bcd60e51b815260206004820152601660248201527514105611d7d554d117d4149250d1481b9bdd081cd95d60521b60448201525f9060640161091c565b610c6a61225f565b610c72612381565b610c7a61276b565b610c826128ad565b610c8a613837565b610c92613ac6565b610c9a613c59565b610ca2613e2f565b610caa6140cf565b610cb2614221565b610cba61462a565b610cc2614881565b565b60405162461bcd60e51b815260206004820152601560248201527411551217d554d117d4149250d1481b9bdd081cd95d605a1b60448201525f9060640161091c565b60405162461bcd60e51b815260206004820152601760248201527f73555344735f5553445f5052494345206e6f742073657400000000000000000060448201525f9060640161091c565b60405162461bcd60e51b815260206004820152601760248201527f657a4554485f5553445f5052494345206e6f742073657400000000000000000060448201525f9060640161091c565b60405162461bcd60e51b81526020600482015260166024820152751610555517d554d117d4149250d1481b9bdd081cd95d60521b60448201525f9060640161091c565b33734f6f977acdd1177dcd81ab83074855ecb9c2d49e14610e345760405162461bcd60e51b81526020600482015260116024820152706e6f742d7465616d2d6d756c746973696760781b604482015260640161091c565b5f5b81811015610f0a5760065f848484818110610e5357610e53615492565b602090810292909201358352508101919091526040015f205460ff16610ef857600160065f858585818110610e8a57610e8a615492565b602090810292909201358352508101919091526040015f20805460ff191691151591909117905533838383818110610ec457610ec4615492565b905060200201357f73d6986e29f26b55373edd4820203ff5e60986cb7a4b8456fb988f0aa546a2f060405160405180910390a35b80610f02816154ba565b915050610e36565b505050565b60405162461bcd60e51b815260206004820152601560248201527414931417d554d117d4149250d1481b9bdd081cd95d605a1b60448201525f9060640161091c565b60405163841d269960e01b8152600481018290525f9073e57227c7d5900165344b190fc7aa580bceb53b9b9063841d269990602401610afc565b60405162461bcd60e51b81526020600482015260166024820152751b51551217d554d117d4149250d1481b9bdd081cd95d60521b60448201525f9060640161091c565b5f8084118015610fdd57505f83115b1561102a5760405162461bcd60e51b815260206004820181905260248201527f626f74682075736420616e6420616d6f756e7420617265206e6f74207a65726f604482015260640161091c565b83156110f9575f7352aa899454998be5b000ad077a46bbe360f4e49763b5c736e4611056600589614952565b6040518263ffffffff1660e01b815260040161107491815260200190565b602060405180830381865afa15801561108f573d5f803e3d5ffd5b505050506040513d601f19601f820116820180604052508101906110b391906154d2565b90505f806110c08361498e565b915091505f856110d057816110d2565b825b9050806110e48964e8d4a510006154e9565b6110ee9190615514565b945050505050611967565b5f8073eeeeeeeeeeeeeeeeeeeeeeeeeeeeeeeeeeeeeeed196001600160a01b0388160161113357611128610cc4565b915060129050611849565b737f39c581f595b53c5cb19bd0b3f8da6c935e2c9f196001600160a01b038816016111615762034bc0611128565b73cd5fe23c85820f7b72d0926fc9b05b43e359b7ed196001600160a01b0388160161118e576111286120b5565b73a1290d69c65a6fe4df752f95823fae25cb99e5a6196001600160a01b038816016111bb576111286109b9565b73917cee801a67f933f2e6b33fc0cd1ed2d5909d87196001600160a01b038816016111e857611128610925565b73d5f7838f5c461feff7fe49ea5ebaf7728bb0adf9196001600160a01b0388160161121557611128610f8b565b73bf5495efe5db9ce00f80364c8b423567e58d210f196001600160a01b0388160161124257611128610d50565b73f1c9acdc66974dfb6decb12aa385b9cd01190e37196001600160a01b0388160161126f57611128611f01565b732260fac5e5542a773aa44fbcfedf7c193bc2c598196001600160a01b038816016112a4576261a8005b915060089050611849565b73cbb7c0000ab88b473b1f5afd9ef808440eed33be196001600160a01b038816016112d2576261a800611299565b7318084fba666a33d37592fa2633fd49a74dd93a87196001600160a01b03881601611300576261a800611128565b73657e8c867d8b37dcc18fa4caead9c45eb088c641196001600160a01b0388160161132e576261a800611299565b738236a87084f8b84306f72007f36f2618a5634493196001600160a01b0388160161135c576261a800611299565b73a0b86991c6218b36c1d19d4a2e9eb0ce3606eb47196001600160a01b0388160161138f5760645b915060069050611849565b73dac17f958d2ee523a2206206994597c13d831ec6196001600160a01b038816016113bb576064611384565b7340d16fc0246ad3160ccc09b8d0d3a2cd28ae6c2e196001600160a01b038816016113e7576064611128565b734c9edd5852cd905f086c759e8383e09bff1e68b2196001600160a01b03881601611413576064611128565b7315700b564ca08d9439c58ca5053166e8317aa137196001600160a01b0388160161143f576064611128565b7366a1e37c9b0eaddca17d3662d6c05f4decf3e10f196001600160a01b0388160161146b576064611128565b7373a15fed60bf67631dc6cd7bc5b6e8da8190acf4196001600160a01b03881601611497576064611128565b73085780639cc2cacd35e474e71f4d000e2405d8f5196001600160a01b038816016114c3576064611128565b73b01dd87b29d187f3e3a4bf6cdaebfb97f3d9ab97196001600160a01b038816016114ef576064611128565b7348f9e38f3070ad8945dfeae3fa70987722e3d89b196001600160a01b0388160161151b576064611128565b73c139190f447e929f090edeb554d95abb8b18ac1b196001600160a01b03881601611547576064611128565b730a1a1a107e45b7ced86833863f482bc5f4ed82ee196001600160a01b03881601611573576064611128565b739d39a5de30e57443bff2a8307a4256c8797a3496196001600160a01b038816016115a057611128610a7c565b73a3931d71877c0e7a3148cb7eb4463524fec27fbc196001600160a01b038816016115cd57611128610d06565b73356b8d89c1e1239cbbb9de4815c39a1474d5ba7c196001600160a01b038816016115fa57611384610b8b565b7380ac24aa929eaf5013f6436cda2a7ba190f5cc0a196001600160a01b038816016116275761138461196f565b735086bf358635b81d8c47c66d1c8b9e567db70c71196001600160a01b0388160161165357606d611128565b7322ae3d9a738471f405169af055d31c687087d4c6196001600160a01b0388160161168057611384611f4b565b730b2b2b2076d95dda7817e785989fe353fe955ef8196001600160a01b038816016116ad57611128610b41565b73beefc011e94f43b8b7b455ebab290c7ab4e216f0196001600160a01b038816016116da57611128610bd5565b73c58d044404d8b14e953c115e67823784dea53d8e196001600160a01b038816016117075761112861096f565b733d7d6fdf07ee548b939a80edbc9b2256d0cdc002196001600160a01b0388160161173457611128611eb7565b731202f5c7b4b9e47a1a484e8b270be34dbbc75054196001600160a01b0388160161176157611128611e6d565b734956b52ae2ff65d74ca2d61207523288e4528f95196001600160a01b0388160161178e57611128610f0f565b736f40d4a6237c257fff2db00fa0510deeecd303ea196001600160a01b038816016117bb576111286108d6565b7368749665ff8d2d112fa859aa293f07a622782f37196001600160a01b038816016117e857611384610d9a565b7345804880de22913dafe09f4980848ece6ecbaf77196001600160a01b0388160161181557611128610c1f565b60405162461bcd60e51b81526020600482015260096024820152681b9bdd0b599bdd5b9960ba1b604482015260640161091c565b5f7352aa899454998be5b000ad077a46bbe360f4e49763b5c736e461186f60058b614952565b6040518263ffffffff1660e01b815260040161188d91815260200190565b602060405180830381865afa1580156118a8573d5f803e3d5ffd5b505050506040513d601f19601f820116820180604052508101906118cc91906154d2565b90505f806118d98361498e565b915091505f876118e957816118eb565b825b9050891561191a57806119038b64e8d4a510006154e9565b61190d9190615514565b9650505050505050611967565b606461192682886154e9565b6119309190615514565b61193b86600a615613565b61194a8b64e8d4a510006154e9565b61195491906154e9565b61195e9190615514565b96505050505050505b949350505050565b60405162461bcd60e51b815260206004820152601b60248201527f7379727570555344435f5553445f5052494345206e6f7420736574000000000060448201525f9060640161091c565b3373a45f7bd6a5ff45d31aace6bcd3d426d9328cea0114806119ee575033734f6f977acdd1177dcd81ab83074855ecb9c2d49e145b80611a0c57503073059a94a72951c0ae1cc1ce3bf0db52421bbe8210145b80611a2a575030739efde135ca4832abf0408c44c6f5f370eb0f35e8145b80611a48575030735c43aac965ff230ac1cf63e924d0153291d78bad145b80611a66575030733daff61fe5cfb1f1b4ea7fba8173a58532ef1841145b80611a8457503073e7eb63a8b6392481a9fdebb108cfd580dc8664d3145b611ac95760405162461bcd60e51b81526020600482015260166024820152751b5cd9cb9cd95b99195c8b5b9bdd0b585b1b1bddd95960521b604482015260640161091c565b6040805160018082528183019092525f9082602080830190803683370190505090505f8267ffffffffffffffff811115611b0557611b05615379565b604051908082528060200260200182016040528015611b2e578160200160208202803683370190505b5090505f8367ffffffffffffffff811115611b4b57611b4b615379565b604051908082528060200260200182016040528015611b7e57816020015b6060815260200190600190039081611b695790505b5090505f8467ffffffffffffffff811115611b9b57611b9b615379565b604051908082528060200260200182016040528015611bce57816020015b6060815260200190600190039081611bb95790505b509050732386dc45added673317ef068992f19421b481f4c845f81518110611bf857611bf8615492565b60200260200101906001600160a01b031690816001600160a01b0316815250505f835f81518110611c2b57611c2b615492565b602002602001018181525050604051806060016040528060248152602001615a2360249139825f81518110611c6257611c62615492565b602090810291909101810191909152604080515f81529182018152611caa917f0000000000000000000000000000000000000000000000000000000000000000918101615661565b604051602081830303815290604052815f81518110611ccb57611ccb615492565b6020908102919091010152604051636d4ab48d60e11b81525f90730204cd037b2ec03605cfdfe482d8e257c765fa1b9063da95691a90611d179088908890889088908e9060040161572d565b6020604051808303815f875af1158015611d33573d5f803e3d5ffd5b505050506040513d601f19601f82011682018060405250810190611d5791906154d2565b905060878114611da05760405162461bcd60e51b815260206004820152601460248201527350524f504f53414c5f49535f4e4f545f53414d4560601b604482015260640161091c565b3373a45f7bd6a5ff45d31aace6bcd3d426d9328cea011480611dd5575033734f6f977acdd1177dcd81ab83074855ecb9c2d49e145b15611de857611de3426120ff565b611e64565b604051631f615d2360e31b815264ffffffffff421660048201527f00000000000000000000000000000000000000000000000000000000000000006001600160a01b03169063fb0ae918906024015f604051808303815f87803b158015611e4d575f80fd5b505af1158015611e5f573d5f803e3d5ffd5b505050505b50505050505050565b60405162461bcd60e51b815260206004820152601860248201527f7773745553525f5553445f5052494345206e6f7420736574000000000000000060448201525f9060640161091c565b60405162461bcd60e51b815260206004820152601860248201527f5352555344455f5553445f5052494345206e6f7420736574000000000000000060448201525f9060640161091c565b60405162461bcd60e51b815260206004820152601760248201527f4f534554485f5553445f5052494345206e6f742073657400000000000000000060448201525f9060640161091c565b60405162461bcd60e51b81526020600482015260156024820152741414d517d554d117d4149250d1481b9bdd081cd95d605a1b60448201525f9060640161091c565b5f73c02aaa39b223fe8d0a0e5c4f27ead9083c756cc1196001600160a01b0383160161201c576040805163bb4a64d360e01b81526001600160a01b03841660048201526024810191909152601060448201526f4e6174697665556e6465726c79696e6760801b60648201527354b91a0d94cb471f37f949c60f7fa7935b551d039063bb4a64d390608401610afc565b6040805163bb4a64d360e01b81526001600160a01b038416600482015260248101919091526006604482015265332a37b5b2b760d11b60648201527354b91a0d94cb471f37f949c60f7fa7935b551d039063bb4a64d390608401610afc565b60405163735e935160e11b8152600481018290525f9073324c5dc1fc42c7a4d43d92df1eba58a54d13bf2d9063e6bd26a290602401610afc565b60405162461bcd60e51b815260206004820152601760248201527f77654554485f5553445f5052494345206e6f742073657400000000000000000060448201525f9060640161091c565b3373a45f7bd6a5ff45d31aace6bcd3d426d9328cea011480612134575033734f6f977acdd1177dcd81ab83074855ecb9c2d49e145b8061215257503373059a94a72951c0ae1cc1ce3bf0db52421bbe8210145b80612170575033739efde135ca4832abf0408c44c6f5f370eb0f35e8145b8061218e575033735c43aac965ff230ac1cf63e924d0153291d78bad145b806121ac575033733daff61fe5cfb1f1b4ea7fba8173a58532ef1841145b806121ca57503373e7eb63a8b6392481a9fdebb108cfd580dc8664d3145b61220f5760405162461bcd60e51b81526020600482015260166024820152751b5cd9cb9cd95b99195c8b5b9bdd0b585b1b1bddd95960521b604482015260640161091c565b6005805464ffffffffff191664ffffffffff83169081179091556040519081527fc63b190684342aebf3bbf9112171a1da60123c5f3035abfe69043e5b985bb74a9060200160405180910390a150565b30732386dc45added673317ef068992f19421b481f4c146122b55760405162461bcd60e51b815260206004820152601060248201526f3737ba16bb30b634b216b1b0b63632b960811b604482015260640161091c565b7f00000000000000000000000000000000000000000000000000000000000000006001600160a01b0316631392d4ee6040518163ffffffff1660e01b8152600401602060405180830381865afa158015612311573d5f803e3d5ffd5b505050506040513d601f19601f8201168201806040525081019061233591906157cb565b610cc25760405162461bcd60e51b815260206004820152601760248201527f70726f706f73616c2d6e6f742d65786563757461626c65000000000000000000604482015260640161091c565b6040516352e5787b60e11b8152600160048201819052907f00000000000000000000000000000000000000000000000000000000000000006001600160a01b03169063a5caf0f690602401602060405180830381865afa1580156123e7573d5f803e3d5ffd5b505050506040513d601f19601f8201168201806040525081019061240b91906157cb565b6127685760408051600a80825261016082019092525f91816020015b61242f6151d9565b81526020019060019003908161242757905050905061246c600173eeeeeeeeeeeeeeeeeeeeeeeeeeeeeeeeeeeeeeee67097d850ad5019000614b83565b815f8151811061247e5761247e615492565b60200260200101819052506124b1600273eeeeeeeeeeeeeeeeeeeeeeeeeeeeeeeeeeeeeeee670e4b7e797ac28000614b83565b816001815181106124c4576124c4615492565b60200260200101819052506124f76003737f39c581f595b53c5cb19bd0b3f8da6c935e2ca06709558f0bc0929000614b83565b8160028151811061250a5761250a615492565b602002602001018190525061253d6004737f39c581f595b53c5cb19bd0b3f8da6c935e2ca06707cdf5fe0e348000614b83565b8160038151811061255057612550615492565b60200260200101819052506125836005737f39c581f595b53c5cb19bd0b3f8da6c935e2ca06707e49ebfe6952000614b83565b8160048151811061259657612596615492565b60200260200101819052506125ca600673cd5fe23c85820f7b72d0926fc9b05b43e359b7ee6825adef614d5417a000614b83565b816005815181106125dd576125dd615492565b60200260200101819052506126116007739d39a5de30e57443bff2a8307a4256c8797a349768b2d612a3e57ac31000614b83565b8160068151811061262457612624615492565b60200260200101819052506126586008739d39a5de30e57443bff2a8307a4256c8797a349768166ca78eb367469000614b83565b8160078151811061266b5761266b615492565b602002602001018190525061269e600973cd5fe23c85820f7b72d0926fc9b05b43e359b7ee67035661a700197000614b83565b816008815181106126b1576126b1615492565b60200260200101819052506126e4600a73cd5fe23c85820f7b72d0926fc9b05b43e359b7ee6702f7507bce8e0000614b83565b816009815181106126f7576126f7615492565b60209081029190910101526040516301635db560e11b81527352aa899454998be5b000ad077a46bbe360f4e497906302c6bb6a906127399084906004016157e6565b5f604051808303815f87803b158015612750575f80fd5b505af1158015612762573d5f803e3d5ffd5b50505050505b50565b6040516352e5787b60e11b8152600260048201819052907f00000000000000000000000000000000000000000000000000000000000000006001600160a01b03169063a5caf0f690602401602060405180830381865afa1580156127d1573d5f803e3d5ffd5b505050506040513d601f19601f820116820180604052508101906127f591906157cb565b61276857604080516002808252606082019092525f91816020015b6128186151d9565b815260200190600190039081612810579050509050612856603a73a3931d71877c0e7a3148cb7eb4463524fec27fbd68232eaf2d735c840000614b83565b815f8151811061286857612868615492565b602002602001018190525061289a6055737f39c581f595b53c5cb19bd0b3f8da6c935e2ca066214c93e77bb7c0614b83565b816001815181106126f7576126f7615492565b6040516352e5787b60e11b8152600360048201819052907f00000000000000000000000000000000000000000000000000000000000000006001600160a01b03169063a5caf0f690602401602060405180830381865afa158015612913573d5f803e3d5ffd5b505050506040513d601f19601f8201168201806040525081019061293791906157cb565b612768576040805160368082526106e082019092525f91816020015b61295b61521e565b81526020019060019003908161295357905050905061299b6010737f39c581f595b53c5cb19bd0b3f8da6c935e2ca06109c4622625a063017d7840614bd9565b815f815181106129ad576129ad615492565b60200260200101819052506129dc60125f80516020615a038339815191526109c4622625a063017d7840614bd9565b816001815181106129ef576129ef615492565b6020026020010181905250612a1e60115f805160206159e38339815191526109c4622625a063017d7840614bd9565b81600281518110612a3157612a31615492565b6020026020010181905250612a6060135f805160206159e38339815191526109c4622625a063017d7840614bd9565b81600381518110612a7357612a73615492565b6020026020010181905250612aa260145f80516020615a038339815191526109c4622625a063017d7840614bd9565b81600481518110612ab557612ab5615492565b6020026020010181905250612aea601a732260fac5e5542a773aa44fbcfedf7c193bc2c5996109c4620186a0620f4240614bd9565b81600581518110612afd57612afd615492565b6020026020010181905250612b32601b737f39c581f595b53c5cb19bd0b3f8da6c935e2ca06109c4620f4240624c4b40614bd9565b81600681518110612b4557612b45615492565b6020026020010181905250612b7a602073cbb7c0000ab88b473b1f5afd9ef808440eed33bf6109c4620186a0620f4240614bd9565b81600781518110612b8d57612b8d615492565b6020026020010181905250612bc360387340d16fc0246ad3160ccc09b8d0d3a2cd28ae6c2f6109c4622625a063017d7840614bd9565b81600881518110612bd657612bd6615492565b6020026020010181905250612c0c60397340d16fc0246ad3160ccc09b8d0d3a2cd28ae6c2f6109c4622625a063017d7840614bd9565b81600981518110612c1f57612c1f615492565b6020026020010181905250612c55604a737f39c581f595b53c5cb19bd0b3f8da6c935e2ca06103e8622625a06302faf080614bd9565b81600a81518110612c6857612c68615492565b6020026020010181905250612c9d6050737f39c581f595b53c5cb19bd0b3f8da6c935e2ca06109c4620f4240622625a0614bd9565b81600b81518110612cb057612cb0615492565b6020026020010181905250612cdf605c5f80516020615a038339815191526109c4622625a063017d7840614bd9565b81600c81518110612cf257612cf2615492565b6020026020010181905250612d21605d5f80516020615a038339815191526109c4622625a063017d7840614bd9565b81600d81518110612d3457612d34615492565b6020026020010181905250612d69605e732260fac5e5542a773aa44fbcfedf7c193bc2c5996109c4620186a0620f4240614bd9565b81600e81518110612d7c57612d7c615492565b6020026020010181905250612db16060732260fac5e5542a773aa44fbcfedf7c193bc2c5996109c4620186a0620f4240614bd9565b81600f81518110612dc457612dc4615492565b6020026020010181905250612dfa6061732260fac5e5542a773aa44fbcfedf7c193bc2c5996109c4622625a063017d7840614bd9565b81601081518110612e0d57612e0d615492565b6020026020010181905250612e426067737f39c581f595b53c5cb19bd0b3f8da6c935e2ca06109c4620186a0620f4240614bd9565b81601181518110612e5557612e55615492565b6020026020010181905250612e8b6068737f39c581f595b53c5cb19bd0b3f8da6c935e2ca06109c4622625a063017d7840614bd9565b81601281518110612e9e57612e9e615492565b6020026020010181905250612ecd606b5f805160206159e38339815191526109c4622625a063017d7840614bd9565b81601381518110612ee057612ee0615492565b6020026020010181905250612f0f606c5f80516020615a038339815191526109c4622625a063017d7840614bd9565b81601481518110612f2257612f22615492565b6020026020010181905250612f58606d7340d16fc0246ad3160ccc09b8d0d3a2cd28ae6c2f6109c4622625a063017d7840614bd9565b81601581518110612f6b57612f6b615492565b6020026020010181905250612fa1607273cbb7c0000ab88b473b1f5afd9ef808440eed33bf6109c4622625a063017d7840614bd9565b81601681518110612fb457612fb4615492565b6020026020010181905250612fea6073732260fac5e5542a773aa44fbcfedf7c193bc2c5996109c4622625a063017d7840614bd9565b81601781518110612ffd57612ffd615492565b602002602001018190525061302c60745f805160206159e38339815191526109c4622625a063017d7840614bd9565b8160188151811061303f5761303f615492565b602002602001018190525061306e60755f80516020615a038339815191526109c4622625a063017d7840614bd9565b8160198151811061308157613081615492565b60200260200101819052506130b660767340d16fc0246ad3160ccc09b8d0d3a2cd28ae6c2f6109c4620f424062989680614bd9565b81601a815181106130c9576130c9615492565b60200260200101819052506130f860775f805160206159e38339815191526109c4622625a063017d7840614bd9565b81601b8151811061310b5761310b615492565b602002602001018190525061313a60785f80516020615a038339815191526109c4622625a063017d7840614bd9565b81601c8151811061314d5761314d615492565b602002602001018190525061318260797340d16fc0246ad3160ccc09b8d0d3a2cd28ae6c2f6109c4620f424062989680614bd9565b81601d8151811061319557613195615492565b60200260200101819052506131c3607a5f805160206159e38339815191526109c4620f4240622625a0614bd9565b81601e815181106131d6576131d6615492565b6020026020010181905250613205607b5f80516020615a038339815191526109c4622625a063017d7840614bd9565b81601f8151811061321857613218615492565b602002602001018190525061324d607c7340d16fc0246ad3160ccc09b8d0d3a2cd28ae6c2f6109c4620f424062989680614bd9565b8160208151811061326057613260615492565b6020026020010181905250613295608273c139190f447e929f090edeb554d95abb8b18ac1c6109c4620f4240622625a0614bd9565b816021815181106132a8576132a8615492565b60200260200101819052506132d660895f80516020615a038339815191526109c4620f424062989680614bd9565b816022815181106132e9576132e9615492565b6020026020010181905250613317608a5f805160206159e38339815191526109c4620f424062989680614bd9565b8160238151811061332a5761332a615492565b602002602001018190525061335f608c7340d16fc0246ad3160ccc09b8d0d3a2cd28ae6c2f6109c4620f424062989680614bd9565b8160248151811061337257613372615492565b60200260200101819052506133a7608d7340d16fc0246ad3160ccc09b8d0d3a2cd28ae6c2f6109c4620f424062989680614bd9565b816025815181106133ba576133ba615492565b60200260200101819052506133e960915f805160206159e38339815191526109c4622625a063017d7840614bd9565b816026815181106133fc576133fc615492565b602002602001018190525061342b60925f805160206159e38339815191526109c4622625a063017d7840614bd9565b8160278151811061343e5761343e615492565b602002602001018190525061346c60935f80516020615a038339815191526109c4620f4240622625a0614bd9565b8160288151811061347f5761347f615492565b60200260200101819052506134b460947340d16fc0246ad3160ccc09b8d0d3a2cd28ae6c2f6109c4620f4240622625a0614bd9565b816029815181106134c7576134c7615492565b60200260200101819052506134f660955f80516020615a038339815191526109c4622625a063017d7840614bd9565b81602a8151811061350957613509615492565b602002602001018190525061353760965f805160206159e38339815191526109c4620f4240622625a0614bd9565b81602b8151811061354a5761354a615492565b602002602001018190525061357960975f80516020615a038339815191526109c4622625a063017d7840614bd9565b81602c8151811061358c5761358c615492565b60200260200101819052506135c160987340d16fc0246ad3160ccc09b8d0d3a2cd28ae6c2f6109c4620186a0620f4240614bd9565b81602d815181106135d4576135d4615492565b602002602001018190525061360260995f805160206159e38339815191526109c4620186a0620f4240614bd9565b81602e8151811061361557613615615492565b6020026020010181905250613643609a5f80516020615a038339815191526109c4620186a0620f4240614bd9565b81602f8151811061365657613656615492565b602002602001018190525061368b609b7340d16fc0246ad3160ccc09b8d0d3a2cd28ae6c2f6109c4620186a0620f4240614bd9565b8160308151811061369e5761369e615492565b60200260200101819052506136d4609f737f39c581f595b53c5cb19bd0b3f8da6c935e2ca06103e8622625a063017d7840614bd9565b816031815181106136e7576136e7615492565b602002602001018190525061371660a05f805160206159e38339815191526103e8622625a06301312d00614bd9565b8160328151811061372957613729615492565b602002602001018190525061375860a15f80516020615a038339815191526103e8622625a06301312d00614bd9565b8160338151811061376b5761376b615492565b60200260200101819052506137a160a27340d16fc0246ad3160ccc09b8d0d3a2cd28ae6c2f6109c4622625a06301312d00614bd9565b816034815181106137b4576137b4615492565b60200260200101819052506137e360a45f80516020615a038339815191526103e8622625a06301312d00614bd9565b816035815181106137f6576137f6615492565b602090810291909101015260405162dc47c360e11b81527352aa899454998be5b000ad077a46bbe360f4e497906301b88f869061273990849060040161585f565b6040516352e5787b60e11b81526004808201819052907f00000000000000000000000000000000000000000000000000000000000000006001600160a01b03169063a5caf0f690602401602060405180830381865afa15801561389c573d5f803e3d5ffd5b505050506040513d601f19601f820116820180604052508101906138c091906157cb565b612768575f6138cf6002610ac6565b905061393a6040518060c00160405280836001600160a01b031681526020016138f8602f61207b565b6001600160a01b031681526020016109c48152602001612a30815260200169eea8fa672ff4fd4fff6381526020016a095299c807df91e51ff9de815250614c53565b6139616040518060c00160405280836001600160a01b031681526020016138f8603261207b565b6139886040518060c00160405280836001600160a01b031681526020016138f8606261207b565b6139f16040518060c00160405280836001600160a01b031681526020016139af606361207b565b6001600160a01b031681526020016103e88152602001612a30815260200169eea8fa672ff4fd4fff6381526020016a095299c807df91e51ff9de815250614c53565b613a596040518060c00160405280836001600160a01b03168152602001613a18609c61207b565b6001600160a01b031681526020016109c48152602001612a30815260200169098be10e5e140a21eb7f8152602001695f76ca8facc8655332f4815250614c53565b613ac26040518060c00160405280836001600160a01b03168152602001613a8060a361207b565b6001600160a01b031681526020016103e88152602001612a30815260200169eea8fa672ff4fd4fff6381526020016a077547d3397fa7ea7ffb18815250614c53565b5050565b6040516352e5787b60e11b8152600560048201819052907f00000000000000000000000000000000000000000000000000000000000000006001600160a01b03169063a5caf0f690602401602060405180830381865afa158015613b2c573d5f803e3d5ffd5b505050506040513d601f19601f82011682018060405250810190613b5091906157cb565b612768575f613b5f6022610ac6565b9050613bca6040518060c00160405280836001600160a01b03168152602001613b88607e61207b565b6001600160a01b031681526020016109c48152602001612a30815260200169fa07402b239b5753a91781526020016a138891035ec822d28935c5815250614c53565b613bf16040518060c00160405280836001600160a01b03168152602001613b88607f61207b565b613ac26040518060c00160405280836001600160a01b03168152602001613c18609d61207b565b6001600160a01b031681526020016109c48152602001612a308152602001690a004a3f2a625fa72fb98152602001696402e677a7d7bc87dd3c815250614c53565b6040516352e5787b60e11b8152600660048201819052907f00000000000000000000000000000000000000000000000000000000000000006001600160a01b03169063a5caf0f690602401602060405180830381865afa158015613cbf573d5f803e3d5ffd5b505050506040513d601f19601f82011682018060405250810190613ce391906157cb565b612768575f613cf26004610ac6565b9050613d5d6040518060c00160405280836001600160a01b03168152602001613d1b603d61207b565b6001600160a01b031681526020016103e88152602001612a30815260200169ed7cd69f9580797a8b7181526020016a0946e0623bd704bec97268815250614c53565b613dc66040518060c00160405280836001600160a01b03168152602001613d84607d61207b565b6001600160a01b031681526020016109c48152602001612a308152602001695efebc3fd56696fdd16081526020016a0946e0623bd704bec97268815250614c53565b613ac26040518060c00160405280836001600160a01b03168152602001613ded608b61207b565b6001600160a01b031681526020016109c48152602001612a308152602001695efebc3fd56696fdd16081526020016a03b5f35a7e5601e5ea2dc3815250614c53565b6040516352e5787b60e11b8152600760048201819052907f00000000000000000000000000000000000000000000000000000000000000006001600160a01b03169063a5caf0f690602401602060405180830381865afa158015613e95573d5f803e3d5ffd5b505050506040513d601f19601f82011682018060405250810190613eb991906157cb565b6127685760408051732bbe31d63e6813e3ac858c04dae43fb2a72b0d1160208083019190915260088284015282518083038401815260608301845280519082012073a3931d71877c0e7a3148cb7eb4463524fec27fbd608084015260a0808401919091528351808403909101815260c08301938490528051910120632d71cdb960e21b90925260c48101919091525f907352aa899454998be5b000ad077a46bbe360f4e4979063b5c736e49060e401602060405180830381865afa158015613f83573d5f803e3d5ffd5b505050506040513d601f19601f82011682018060405250810190613fa791906154d2565b6040805160018082528183019092529192505f9190816020015b613fc96151d9565b815260200190600190039081613fc15750506040805160c081018252732bbe31d63e6813e3ac858c04dae43fb2a72b0d11815273a3931d71877c0e7a3148cb7eb4463524fec27fbd6020820152600185169181019190915260a284901c613fff16606082015260b084901c62ffffff16608082015269012b11f3835eb947000060a082015281519192509082905f9061406457614064615492565b60209081029190910101526040516301635db560e11b81527352aa899454998be5b000ad077a46bbe360f4e497906302c6bb6a906140a69084906004016157e6565b5f604051808303815f87803b1580156140bd575f80fd5b505af1158015611e64573d5f803e3d5ffd5b6040516352e5787b60e11b8152600860048201819052907f00000000000000000000000000000000000000000000000000000000000000006001600160a01b03169063a5caf0f690602401602060405180830381865afa158015614135573d5f803e3d5ffd5b505050506040513d601f19601f8201168201806040525081019061415991906157cb565b612768576141676014610ac6565b604051632ce226fd60e21b81525f60048201526001600160a01b03919091169063b3889bf4906024015f604051808303815f87803b1580156141a7575f80fd5b505af11580156141b9573d5f803e3d5ffd5b505050506141c7601c610ac6565b604051632ce226fd60e21b81525f60048201526001600160a01b03919091169063b3889bf4906024015b5f604051808303815f87803b158015614208575f80fd5b505af115801561421a573d5f803e3d5ffd5b5050505050565b6040516352e5787b60e11b8152600960048201819052907f00000000000000000000000000000000000000000000000000000000000000006001600160a01b03169063a5caf0f690602401602060405180830381865afa158015614287573d5f803e3d5ffd5b505050506040513d601f19601f820116820180604052508101906142ab91906157cb565b612768575f6142ba602c610ac6565b90505f6142c76002610ac6565b90505f6142d460aa61207b565b6040805160018082528183019092529192505f9190816020015b61431e60405180608001604052805f6001600160a01b031681526020015f81526020015f81526020015f81525090565b8152602001906001900390816142ee5790505090506040518060800160405280836001600160a01b03168152602001610bb88152602001615460815260200168bf47a140c220f68489815250815f8151811061437c5761437c615492565b602090810291909101015260405163137ed05b60e11b81526001600160a01b038516906326fda0b6906143b39084906004016158e2565b5f604051808303815f87803b1580156143ca575f80fd5b505af11580156143dc573d5f803e3d5ffd5b505050505061443e6040518060c00160405280846001600160a01b03168152602001836001600160a01b03168152602001610bb88152602001615460815260200168ab12505da01f6de4f7815260200168dbf2f99cf2718d4af4815250614c53565b604051637faa1d2160e01b815273b031913cb7ad81b8a4ba412b471c2da69bea410b90637faa1d219061448e908490734f6f977acdd1177dcd81ab83074855ecb9c2d49e90600190600401615941565b5f604051808303815f87803b1580156144a5575f80fd5b505af11580156144b7573d5f803e3d5ffd5b505050505050505f6144c96004610ac6565b90505f6144d660b561207b565b90505f6040518060e00160405280836001600160a01b031681526020016002600381111561450657614506615965565b8152735086bf358635b81d8c47c66d1c8b9e567db70c7260208201525f60408201819052611b5860608301526080820181905260a090910152905061454a81614d44565b6145a76040518060c00160405280856001600160a01b03168152602001846001600160a01b03168152602001610bb88152602001615460815260200168aa3b2c7a94f12f5840815260200168dade5dc22d36184ce4815250614c53565b604051637faa1d2160e01b815273b031913cb7ad81b8a4ba412b471c2da69bea410b90637faa1d21906145f7908590734f6f977acdd1177dcd81ab83074855ecb9c2d49e90600190600401615941565b5f604051808303815f87803b15801561460e575f80fd5b505af1158015614620573d5f803e3d5ffd5b5050505050505050565b6040516352e5787b60e11b8152600a60048201819052907f00000000000000000000000000000000000000000000000000000000000000006001600160a01b03169063a5caf0f690602401602060405180830381865afa158015614690573d5f803e3d5ffd5b505050506040513d601f19601f820116820180604052508101906146b491906157cb565b612768575f6146c3602f610ac6565b60408051610100810182526001600160a01b0383168152730a1a1a107e45b7ced86833863f482bc5f4ed82ef60208201525f805160206159e383398151915291810191909152600160608201525f60808201819052624c4b4060a083015260c0820181905260e082015290915061473981614f08565b604051630f18fc2760e31b81527391716c4eda1fb55e84bf8b4c7085f84285c19085906378c7e13890614788908590734f6f977acdd1177dcd81ab83074855ecb9c2d49e905f90600401615941565b5f604051808303815f87803b15801561479f575f80fd5b505af11580156147b1573d5f803e3d5ffd5b5050505050505f6147c260b461207b565b90505f6040518060e00160405280836001600160a01b03168152602001600160038111156147f2576147f2615965565b81525f602082018190525f805160206159e383398151915260408301526060820152624c4b4060808201526298968060a090910152905061483281614d44565b604051637faa1d2160e01b815273b031913cb7ad81b8a4ba412b471c2da69bea410b90637faa1d21906140a6908590734f6f977acdd1177dcd81ab83074855ecb9c2d49e905f90600401615941565b6040516352e5787b60e11b8152600b60048201819052907f00000000000000000000000000000000000000000000000000000000000000006001600160a01b03169063a5caf0f690602401602060405180830381865afa1580156148e7573d5f803e3d5ffd5b505050506040513d601f19601f8201168201806040525081019061490b91906157cb565b612768576149196002610ac6565b6040516369482f6b60e11b81526a108b2a2c2802909400000060048201526001600160a01b03919091169063d2905ed6906024016141f1565b604080516001600160a01b03831660208201529081018390525f9060600160405160208183030381529060405280519060200120905092915050565b67ffffffffffffffff605b82901c811690609b83901c168115806149b0575080155b156149d357604051636a86ba8960e11b815262011171600482015260240161091c565b61ffff8316603a84901c6401ffffffff16428181039160ea87901c617fff169114806149fd575082155b80614a085750806001145b15614a1557505050915091565b64496cebb80084840283020484019350617fff60db87901c16925082600103614a4057505050915091565b82600116600103614a955760019290921c91826c7e37be2022c0914b268000000081614a6e57614a6e615500565b049250612710601e87901c613fff166b033b2e3c9fd0803ce8000000850102049250614ac2565b60019290921c916305f5e100601e87901c613fff166127108501026b033b2e3c9fd0803ce8000000020492505b80600116600103614af95760011c61271081016b033b2e3c9fd0803ce8000000820281614af157614af1615500565b049050614b2f565b60011c61271081016b033b2e3c9fd0803ce8000000820281614b1d57614b1d615500565b046b033b2e3c9fd0803ce80000000390505b760a70c3c40a64e6c51999090b65f67d92400000000000008382026127100261ffff881691900402601087901c613fff16612710030292506801b5a660ea44b8000085840283020485019450505050915091565b614b8b6151d9565b6040518060c00160405280614b9f8661207b565b6001600160a01b03908116825285166020820152600160408201819052606082015262ffffff608082015260a00183905290509392505050565b614be161521e565b6040518060e00160405280614bf58861207b565b6001600160a01b03168152602001866001600160a01b03168152602001600160ff168152602001858152602001612a308152602001614c36875f875f610fce565b8152602001614c47875f865f610fce565b90529695505050505050565b6040805160018082528183019092525f91816020015b614c9f6040518060a001604052805f6001600160a01b031681526020015f81526020015f81526020015f81526020015f81525090565b815260200190600190039081614c695790505090506040518060a0016040528083602001516001600160a01b031681526020018360400151815260200183606001518152602001836080015181526020018360a00151815250815f81518110614d0a57614d0a615492565b6020908102919091010152815160405163ba9af1e360e01b81526001600160a01b039091169063ba9af1e390612739908490600401615979565b5f81602001516003811115614d5b57614d5b615965565b03614daa576040805160a08101825282516001600160a01b0390811682528383015116602082015261138891810191909152615460606082015260808083015190820152614da88161506b565b505b5f81602001516003811115614dc157614dc1615965565b03614e26575f6040518060c00160405280835f01516001600160a01b0316815260200183606001516001600160a01b03168152602001611388815260200161546081526020018360a0015181526020018360c001518152509050614e2481615116565b505b600181602001516003811115614e3e57614e3e615965565b03614ea3575f6040518060c00160405280835f01516001600160a01b0316815260200183606001516001600160a01b03168152602001610bb8815260200161546081526020018360a0015181526020018360c001518152509050614ea181615116565b505b600281602001516003811115614ebb57614ebb615965565b03612768576040805160a08101825282516001600160a01b03908116825283830151166020820152610dac91810191909152615460606082015260808083015190820152613ac28161506b565b806060015115614fb1575f6040518060a00160405280835f01516001600160a01b0316815260200183602001516001600160a01b031681526020016113888152602001610e1081526020018360a001518152509050614f668161506b565b6040805160a0808201835284516001600160a01b0390811683528584015116602083015261138892820192909252610e106060820152908301516080820152614fae8161506b565b50505b806080015115612768575f6040518060c00160405280835f01516001600160a01b0316815260200183602001516001600160a01b031681526020016113888152602001610e1081526020018360c0015181526020018360e00151815250905061501981615116565b6040805160c0808201835284516001600160a01b0390811683528584015116602083015261138892820192909252610e10606082015290830151608082015260e083015160a0820152610f0a81615116565b6040805160018082528183019092525f91816020015b6150896151d9565b8152602001906001900390816150815790505090506040518060c00160405280835f01516001600160a01b0316815260200183602001516001600160a01b03168152602001600160ff168152602001836040015181526020018360600151815260200161510184602001515f86608001516001610fce565b815250815f815181106126f7576126f7615492565b6040805160018082528183019092525f91816020015b61513461521e565b81526020019060019003908161512c5790505090506040518060e00160405280835f01516001600160a01b0316815260200183602001516001600160a01b03168152602001600160ff16815260200183604001518152602001836060015181526020016151ab84602001515f86608001515f610fce565b81526020016151c484602001515f8660a001515f610fce565b815250815f815181106137f6576137f6615492565b6040518060c001604052805f6001600160a01b031681526020015f6001600160a01b031681526020015f60ff1681526020015f81526020015f81526020015f81525090565b6040518060e001604052805f6001600160a01b031681526020015f6001600160a01b031681526020015f60ff1681526020015f81526020015f81526020015f81526020015f81525090565b8015158114612768575f80fd5b5f60208284031215615286575f80fd5b813561529181615269565b9392505050565b5f602082840312156152a8575f80fd5b5035919050565b5f80602083850312156152c0575f80fd5b823567ffffffffffffffff808211156152d7575f80fd5b818501915085601f8301126152ea575f80fd5b8135818111156152f8575f80fd5b8660208260051b850101111561530c575f80fd5b60209290920196919550909350505050565b6001600160a01b0381168114612768575f80fd5b5f805f8060808587031215615345575f80fd5b84356153508161531e565b93506020850135925060408501359150606085013561536e81615269565b939692955090935050565b634e487b7160e01b5f52604160045260245ffd5b5f6020828403121561539d575f80fd5b813567ffffffffffffffff808211156153b4575f80fd5b818401915084601f8301126153c7575f80fd5b8135818111156153d9576153d9615379565b604051601f8201601f19908116603f0116810190838211818310171561540157615401615379565b81604052828152876020848701011115615419575f80fd5b826020860160208301375f928101602001929092525095945050505050565b5f60208284031215615448575f80fd5b81356152918161531e565b5f60208284031215615463575f80fd5b813564ffffffffff81168114615291575f80fd5b5f60208284031215615487575f80fd5b81516152918161531e565b634e487b7160e01b5f52603260045260245ffd5b634e487b7160e01b5f52601160045260245ffd5b5f600182016154cb576154cb6154a6565b5060010190565b5f602082840312156154e2575f80fd5b5051919050565b8082028115828204841417610b3b57610b3b6154a6565b634e487b7160e01b5f52601260045260245ffd5b5f8261552e57634e487b7160e01b5f52601260045260245ffd5b500490565b600181815b8085111561556d57815f1904821115615553576155536154a6565b8085161561556057918102915b93841c9390800290615538565b509250929050565b5f8261558357506001610b3b565b8161558f57505f610b3b565b81600181146155a557600281146155af576155cb565b6001915050610b3b565b60ff8411156155c0576155c06154a6565b50506001821b610b3b565b5060208310610133831016604e8410600b84101617156155ee575081810a610b3b565b6155f88383615533565b805f190482111561560b5761560b6154a6565b029392505050565b5f6152918383615575565b5f81518084525f5b8181101561564257602081850181015186830182015201615626565b505f602082860101526020601f19601f83011685010191505092915050565b60018060a01b038316815260606020820152600960608201526865786563757465282960b81b608082015260a060408201525f61196760a083018461561e565b5f8151808452602080850194508084015f5b838110156156cf578151875295820195908201906001016156b3565b509495945050505050565b5f81518084526020808501808196508360051b810191508286015f5b8581101561572057828403895261570e84835161561e565b988501989350908401906001016156f6565b5091979650505050505050565b60a080825286519082018190525f9060209060c0840190828a01845b8281101561576e5781516001600160a01b031684529284019290840190600101615749565b5050508381038285015261578281896156a1565b915050828103604084015261579781876156da565b905082810360608401526157ab81866156da565b905082810360808401526157bf818561561e565b98975050505050505050565b5f602082840312156157db575f80fd5b815161529181615269565b602080825282518282018190525f919060409081850190868401855b8281101561572057815180516001600160a01b0390811686528782015116878601528581015160ff1686860152606080820151908601526080808201519086015260a0908101519085015260c09093019290850190600101615802565b602080825282518282018190525f919060409081850190868401855b8281101561572057815180516001600160a01b0390811686528782015116878601528581015160ff1686860152606080820151908601526080808201519086015260a0808201519086015260c0908101519085015260e0909301929085019060010161587b565b602080825282518282018190525f919060409081850190868401855b8281101561572057815180516001600160a01b031685528681015187860152858101518686015260609081015190850152608090930192908501906001016158fe565b6001600160a01b039384168152919092166020820152901515604082015260600190565b634e487b7160e01b5f52602160045260245ffd5b602080825282518282018190525f919060409081850190868401855b8281101561572057815180516001600160a01b0316855286810151878601528581015186860152606080820151908601526080908101519085015260a0909301929085019060010161599556fe000000000000000000000000a0b86991c6218b36c1d19d4a2e9eb0ce3606eb48000000000000000000000000dac17f958d2ee523a2206206994597c13d831ec7657865637574655061796c6f616428616464726573732c737472696e672c627974657329a2646970667358221220e38e9fdf351423f695738e60448a10ff4a734ab80f66e57e23122fb07b9432fb64736f6c63430008150033",
  "linkReferences": {},
  "deployedLinkReferences": {},
  "immutableReferences": {
    "1795": [
      {
        "length": 32,
        "start": 2085
      },
      {
        "length": 32,
        "start": 7299
      },
      {
        "length": 32,
        "start": 7684
      },
      {
        "length": 32,
        "start": 8887
      },
      {
        "length": 32,
        "start": 9114
      },
      {
        "length": 32,
        "start": 10116
      },
      {
        "length": 32,
        "start": 10438
      },
      {
        "length": 32,
        "start": 14415
      },
      {
        "length": 32,
        "start": 15071
      },
      {
        "length": 32,
        "start": 15474
      },
      {
        "length": 32,
        "start": 15944
      },
      {
        "length": 32,
        "start": 16616
      },
      {
        "length": 32,
        "start": 16954
      },
      {
        "length": 32,
        "start": 17987
      },
      {
        "length": 32,
        "start": 18586
      }
    ]
  },
  "inputSourceName": "project/contracts/payloads/IGP135/PayloadIGP135.sol",
  "buildInfoId": "solc-0_8_21-a0c8b793d0f54b4c06dffe96baa74592d84a63bd"
}