{
  "_format": "hh3-artifact-1",
  "contractName": "PayloadIGP133",
  "sourceName": "contracts/payloads/IGP133/PayloadIGP133.sol",
  "abi": [
    {
      "inputs": [
        {
          "internalType": "uint256",
          "name": "errorId_",
          "type": "uint256"
        }
      ],
      "name": "FluidLiquidityCalcsError",
      "type": "error"
    },
    {
      "anonymous": false,
      "inputs": [
        {
          "indexed": true,
          "internalType": "uint256",
          "name": "action",
          "type": "uint256"
        },
        {
          "indexed": true,
          "internalType": "address",
          "name": "by",
          "type": "address"
        }
      ],
      "name": "ActionSkipped",
      "type": "event"
    },
    {
      "anonymous": false,
      "inputs": [
        {
          "indexed": false,
          "internalType": "uint40",
          "name": "at",
          "type": "uint40"
        }
      ],
      "name": "ProposalCreationTimeSet",
      "type": "event"
    },
    {
      "inputs": [],
      "name": "ADDRESS_THIS",
      "outputs": [
        {
          "internalType": "address",
          "name": "",
          "type": "address"
        }
      ],
      "stateMutability": "view",
      "type": "function"
    },
    {
      "inputs": [],
      "name": "BTC_USD_PRICE",
      "outputs": [
        {
          "internalType": "uint256",
          "name": "",
          "type": "uint256"
        }
      ],
      "stateMutability": "pure",
      "type": "function"
    },
    {
      "inputs": [],
      "name": "DEX_FACTORY",
      "outputs": [
        {
          "internalType": "contract IFluidDexFactory",
          "name": "",
          "type": "address"
        }
      ],
      "stateMutability": "view",
      "type": "function"
    },
    {
      "inputs": [],
      "name": "DSA_CONNECTORS_V2",
      "outputs": [
        {
          "internalType": "contract IDSAConnectorsV2",
          "name": "",
          "type": "address"
        }
      ],
      "stateMutability": "view",
      "type": "function"
    },
    {
      "inputs": [],
      "name": "ETH_USD_PRICE",
      "outputs": [
        {
          "internalType": "uint256",
          "name": "",
          "type": "uint256"
        }
      ],
      "stateMutability": "pure",
      "type": "function"
    },
    {
      "inputs": [],
      "name": "FLUID_RESERVE",
      "outputs": [
        {
          "internalType": "contract IFluidReserveContract",
          "name": "",
          "type": "address"
        }
      ],
      "stateMutability": "view",
      "type": "function"
    },
    {
      "inputs": [],
      "name": "FLUID_USD_PRICE",
      "outputs": [
        {
          "internalType": "uint256",
          "name": "",
          "type": "uint256"
        }
      ],
      "stateMutability": "pure",
      "type": "function"
    },
    {
      "inputs": [],
      "name": "FLUID_VAULT_FACTORY_OWNER",
      "outputs": [
        {
          "internalType": "contract IFluidVaultFactory",
          "name": "",
          "type": "address"
        }
      ],
      "stateMutability": "view",
      "type": "function"
    },
    {
      "inputs": [],
      "name": "GOVERNOR",
      "outputs": [
        {
          "internalType": "contract IGovernorBravo",
          "name": "",
          "type": "address"
        }
      ],
      "stateMutability": "view",
      "type": "function"
    },
    {
      "inputs": [],
      "name": "IETHV2",
      "outputs": [
        {
          "internalType": "contract ILite",
          "name": "",
          "type": "address"
        }
      ],
      "stateMutability": "view",
      "type": "function"
    },
    {
      "inputs": [],
      "name": "JRUSDE_USD_PRICE",
      "outputs": [
        {
          "internalType": "uint256",
          "name": "",
          "type": "uint256"
        }
      ],
      "stateMutability": "pure",
      "type": "function"
    },
    {
      "inputs": [],
      "name": "LENDING_FACTORY",
      "outputs": [
        {
          "internalType": "contract IFluidLendingFactory",
          "name": "",
          "type": "address"
        }
      ],
      "stateMutability": "view",
      "type": "function"
    },
    {
      "inputs": [],
      "name": "LIQUIDITY",
      "outputs": [
        {
          "internalType": "contract IFluidLiquidityAdmin",
          "name": "",
          "type": "address"
        }
      ],
      "stateMutability": "view",
      "type": "function"
    },
    {
      "inputs": [],
      "name": "OSETH_USD_PRICE",
      "outputs": [
        {
          "internalType": "uint256",
          "name": "",
          "type": "uint256"
        }
      ],
      "stateMutability": "pure",
      "type": "function"
    },
    {
      "inputs": [],
      "name": "PAXG_USD_PRICE",
      "outputs": [
        {
          "internalType": "uint256",
          "name": "",
          "type": "uint256"
        }
      ],
      "stateMutability": "pure",
      "type": "function"
    },
    {
      "inputs": [],
      "name": "PROPOSAL_ID",
      "outputs": [
        {
          "internalType": "uint256",
          "name": "",
          "type": "uint256"
        }
      ],
      "stateMutability": "view",
      "type": "function"
    },
    {
      "inputs": [],
      "name": "PROPOSER",
      "outputs": [
        {
          "internalType": "address",
          "name": "",
          "type": "address"
        }
      ],
      "stateMutability": "view",
      "type": "function"
    },
    {
      "inputs": [],
      "name": "PROPOSER_AVO_MULTISIG",
      "outputs": [
        {
          "internalType": "address",
          "name": "",
          "type": "address"
        }
      ],
      "stateMutability": "view",
      "type": "function"
    },
    {
      "inputs": [],
      "name": "PROPOSER_AVO_MULTISIG_2",
      "outputs": [
        {
          "internalType": "address",
          "name": "",
          "type": "address"
        }
      ],
      "stateMutability": "view",
      "type": "function"
    },
    {
      "inputs": [],
      "name": "PROPOSER_AVO_MULTISIG_3",
      "outputs": [
        {
          "internalType": "address",
          "name": "",
          "type": "address"
        }
      ],
      "stateMutability": "view",
      "type": "function"
    },
    {
      "inputs": [],
      "name": "PROPOSER_AVO_MULTISIG_4",
      "outputs": [
        {
          "internalType": "address",
          "name": "",
          "type": "address"
        }
      ],
      "stateMutability": "view",
      "type": "function"
    },
    {
      "inputs": [],
      "name": "PROPOSER_AVO_MULTISIG_5",
      "outputs": [
        {
          "internalType": "address",
          "name": "",
          "type": "address"
        }
      ],
      "stateMutability": "view",
      "type": "function"
    },
    {
      "inputs": [],
      "name": "PST_USD_PRICE",
      "outputs": [
        {
          "internalType": "uint256",
          "name": "",
          "type": "uint256"
        }
      ],
      "stateMutability": "pure",
      "type": "function"
    },
    {
      "inputs": [],
      "name": "RESERVE_CONTRACT_PROXY",
      "outputs": [
        {
          "internalType": "address",
          "name": "",
          "type": "address"
        }
      ],
      "stateMutability": "view",
      "type": "function"
    },
    {
      "inputs": [],
      "name": "REUSD_USD_PRICE",
      "outputs": [
        {
          "internalType": "uint256",
          "name": "",
          "type": "uint256"
        }
      ],
      "stateMutability": "pure",
      "type": "function"
    },
    {
      "inputs": [],
      "name": "RLP_USD_PRICE",
      "outputs": [
        {
          "internalType": "uint256",
          "name": "",
          "type": "uint256"
        }
      ],
      "stateMutability": "pure",
      "type": "function"
    },
    {
      "inputs": [],
      "name": "SMART_LENDING_FACTORY",
      "outputs": [
        {
          "internalType": "contract IFluidSmartLendingFactory",
          "name": "",
          "type": "address"
        }
      ],
      "stateMutability": "view",
      "type": "function"
    },
    {
      "inputs": [],
      "name": "SRUSDE_USD_PRICE",
      "outputs": [
        {
          "internalType": "uint256",
          "name": "",
          "type": "uint256"
        }
      ],
      "stateMutability": "pure",
      "type": "function"
    },
    {
      "inputs": [],
      "name": "STABLE_USD_PRICE",
      "outputs": [
        {
          "internalType": "uint256",
          "name": "",
          "type": "uint256"
        }
      ],
      "stateMutability": "pure",
      "type": "function"
    },
    {
      "inputs": [],
      "name": "STETH_REDEMPTION_PROTOCOL",
      "outputs": [
        {
          "internalType": "contract IStETHRedemptionProtocol",
          "name": "",
          "type": "address"
        }
      ],
      "stateMutability": "view",
      "type": "function"
    },
    {
      "inputs": [],
      "name": "SUSDAI_USDC_DEX_ID",
      "outputs": [
        {
          "internalType": "uint256",
          "name": "",
          "type": "uint256"
        }
      ],
      "stateMutability": "view",
      "type": "function"
    },
    {
      "inputs": [],
      "name": "SUSDAI_USDT_DEX_ID",
      "outputs": [
        {
          "internalType": "uint256",
          "name": "",
          "type": "uint256"
        }
      ],
      "stateMutability": "view",
      "type": "function"
    },
    {
      "inputs": [],
      "name": "SUSDAI_USD_PRICE",
      "outputs": [
        {
          "internalType": "uint256",
          "name": "",
          "type": "uint256"
        }
      ],
      "stateMutability": "pure",
      "type": "function"
    },
    {
      "inputs": [],
      "name": "TEAM_MULTISIG",
      "outputs": [
        {
          "internalType": "address",
          "name": "",
          "type": "address"
        }
      ],
      "stateMutability": "view",
      "type": "function"
    },
    {
      "inputs": [],
      "name": "TEAM_MULTISIG_2",
      "outputs": [
        {
          "internalType": "address",
          "name": "",
          "type": "address"
        }
      ],
      "stateMutability": "view",
      "type": "function"
    },
    {
      "inputs": [],
      "name": "TIMELOCK",
      "outputs": [
        {
          "internalType": "contract ITimelock",
          "name": "",
          "type": "address"
        }
      ],
      "stateMutability": "view",
      "type": "function"
    },
    {
      "inputs": [],
      "name": "TREASURY",
      "outputs": [
        {
          "internalType": "contract IDSAV2",
          "name": "",
          "type": "address"
        }
      ],
      "stateMutability": "view",
      "type": "function"
    },
    {
      "inputs": [],
      "name": "USDAI_USDC_DEX_ID",
      "outputs": [
        {
          "internalType": "uint256",
          "name": "",
          "type": "uint256"
        }
      ],
      "stateMutability": "view",
      "type": "function"
    },
    {
      "inputs": [],
      "name": "VAULT_FACTORY",
      "outputs": [
        {
          "internalType": "contract IFluidVaultFactory",
          "name": "",
          "type": "address"
        }
      ],
      "stateMutability": "view",
      "type": "function"
    },
    {
      "inputs": [],
      "name": "VAULT_FACTORY_WRAPPER_OWNER",
      "outputs": [
        {
          "internalType": "contract IFluidVaultFactory",
          "name": "",
          "type": "address"
        }
      ],
      "stateMutability": "view",
      "type": "function"
    },
    {
      "inputs": [],
      "name": "VAULT_SUSDAI_GHO_ID",
      "outputs": [
        {
          "internalType": "uint256",
          "name": "",
          "type": "uint256"
        }
      ],
      "stateMutability": "view",
      "type": "function"
    },
    {
      "inputs": [],
      "name": "VAULT_SUSDAI_USDC_ID",
      "outputs": [
        {
          "internalType": "uint256",
          "name": "",
          "type": "uint256"
        }
      ],
      "stateMutability": "view",
      "type": "function"
    },
    {
      "inputs": [],
      "name": "VAULT_SUSDAI_USDC__USDC_ID",
      "outputs": [
        {
          "internalType": "uint256",
          "name": "",
          "type": "uint256"
        }
      ],
      "stateMutability": "view",
      "type": "function"
    },
    {
      "inputs": [],
      "name": "VAULT_SUSDAI_USDC__USDC_USDT_ID",
      "outputs": [
        {
          "internalType": "uint256",
          "name": "",
          "type": "uint256"
        }
      ],
      "stateMutability": "view",
      "type": "function"
    },
    {
      "inputs": [],
      "name": "VAULT_SUSDAI_USDT_ID",
      "outputs": [
        {
          "internalType": "uint256",
          "name": "",
          "type": "uint256"
        }
      ],
      "stateMutability": "view",
      "type": "function"
    },
    {
      "inputs": [],
      "name": "VAULT_SUSDAI_USDT__USDC_USDT_ID",
      "outputs": [
        {
          "internalType": "uint256",
          "name": "",
          "type": "uint256"
        }
      ],
      "stateMutability": "view",
      "type": "function"
    },
    {
      "inputs": [],
      "name": "VAULT_SUSDAI_USDT__USDT_ID",
      "outputs": [
        {
          "internalType": "uint256",
          "name": "",
          "type": "uint256"
        }
      ],
      "stateMutability": "view",
      "type": "function"
    },
    {
      "inputs": [],
      "name": "VAULT_SUSDAI__USDC_USDT_ID",
      "outputs": [
        {
          "internalType": "uint256",
          "name": "",
          "type": "uint256"
        }
      ],
      "stateMutability": "view",
      "type": "function"
    },
    {
      "inputs": [],
      "name": "VAULT_USDAI_USDC_ID",
      "outputs": [
        {
          "internalType": "uint256",
          "name": "",
          "type": "uint256"
        }
      ],
      "stateMutability": "view",
      "type": "function"
    },
    {
      "inputs": [],
      "name": "XAUT_USD_PRICE",
      "outputs": [
        {
          "internalType": "uint256",
          "name": "",
          "type": "uint256"
        }
      ],
      "stateMutability": "pure",
      "type": "function"
    },
    {
      "inputs": [
        {
          "internalType": "uint256",
          "name": "action_",
          "type": "uint256"
        }
      ],
      "name": "actionStatus",
      "outputs": [
        {
          "internalType": "bool",
          "name": "",
          "type": "bool"
        }
      ],
      "stateMutability": "view",
      "type": "function"
    },
    {
      "inputs": [],
      "name": "csUSDL_USD_PRICE",
      "outputs": [
        {
          "internalType": "uint256",
          "name": "",
          "type": "uint256"
        }
      ],
      "stateMutability": "pure",
      "type": "function"
    },
    {
      "inputs": [],
      "name": "execute",
      "outputs": [],
      "stateMutability": "nonpayable",
      "type": "function"
    },
    {
      "inputs": [],
      "name": "ezETH_USD_PRICE",
      "outputs": [
        {
          "internalType": "uint256",
          "name": "",
          "type": "uint256"
        }
      ],
      "stateMutability": "pure",
      "type": "function"
    },
    {
      "inputs": [
        {
          "internalType": "uint256",
          "name": "dexId_",
          "type": "uint256"
        }
      ],
      "name": "getDexAddress",
      "outputs": [
        {
          "internalType": "address",
          "name": "",
          "type": "address"
        }
      ],
      "stateMutability": "view",
      "type": "function"
    },
    {
      "inputs": [
        {
          "internalType": "address",
          "name": "token",
          "type": "address"
        }
      ],
      "name": "getFTokenAddress",
      "outputs": [
        {
          "internalType": "address",
          "name": "",
          "type": "address"
        }
      ],
      "stateMutability": "view",
      "type": "function"
    },
    {
      "inputs": [],
      "name": "getProposalCreationTime",
      "outputs": [
        {
          "internalType": "uint40",
          "name": "",
          "type": "uint40"
        }
      ],
      "stateMutability": "view",
      "type": "function"
    },
    {
      "inputs": [
        {
          "internalType": "address",
          "name": "token",
          "type": "address"
        },
        {
          "internalType": "uint256",
          "name": "amount",
          "type": "uint256"
        },
        {
          "internalType": "uint256",
          "name": "amountInUSD",
          "type": "uint256"
        },
        {
          "internalType": "bool",
          "name": "isSupply",
          "type": "bool"
        }
      ],
      "name": "getRawAmount",
      "outputs": [
        {
          "internalType": "uint256",
          "name": "",
          "type": "uint256"
        }
      ],
      "stateMutability": "view",
      "type": "function"
    },
    {
      "inputs": [
        {
          "internalType": "uint256",
          "name": "dexId_",
          "type": "uint256"
        }
      ],
      "name": "getSmartLendingAddress",
      "outputs": [
        {
          "internalType": "address",
          "name": "",
          "type": "address"
        }
      ],
      "stateMutability": "view",
      "type": "function"
    },
    {
      "inputs": [
        {
          "internalType": "uint256",
          "name": "vaultId_",
          "type": "uint256"
        }
      ],
      "name": "getVaultAddress",
      "outputs": [
        {
          "internalType": "address",
          "name": "",
          "type": "address"
        }
      ],
      "stateMutability": "view",
      "type": "function"
    },
    {
      "inputs": [],
      "name": "isProposalExecutable",
      "outputs": [
        {
          "internalType": "bool",
          "name": "",
          "type": "bool"
        }
      ],
      "stateMutability": "view",
      "type": "function"
    },
    {
      "inputs": [],
      "name": "mETH_USD_PRICE",
      "outputs": [
        {
          "internalType": "uint256",
          "name": "",
          "type": "uint256"
        }
      ],
      "stateMutability": "pure",
      "type": "function"
    },
    {
      "inputs": [
        {
          "internalType": "string",
          "name": "description",
          "type": "string"
        }
      ],
      "name": "propose",
      "outputs": [],
      "stateMutability": "nonpayable",
      "type": "function"
    },
    {
      "inputs": [],
      "name": "rsETH_USD_PRICE",
      "outputs": [
        {
          "internalType": "uint256",
          "name": "",
          "type": "uint256"
        }
      ],
      "stateMutability": "pure",
      "type": "function"
    },
    {
      "inputs": [],
      "name": "sUSDe_USD_PRICE",
      "outputs": [
        {
          "internalType": "uint256",
          "name": "",
          "type": "uint256"
        }
      ],
      "stateMutability": "pure",
      "type": "function"
    },
    {
      "inputs": [],
      "name": "sUSDs_USD_PRICE",
      "outputs": [
        {
          "internalType": "uint256",
          "name": "",
          "type": "uint256"
        }
      ],
      "stateMutability": "pure",
      "type": "function"
    },
    {
      "inputs": [
        {
          "internalType": "uint256[]",
          "name": "actionsToSkip_",
          "type": "uint256[]"
        }
      ],
      "name": "setActionsToSkip",
      "outputs": [],
      "stateMutability": "nonpayable",
      "type": "function"
    },
    {
      "inputs": [
        {
          "internalType": "uint40",
          "name": "proposalCreationTime_",
          "type": "uint40"
        }
      ],
      "name": "setProposalCreationTime",
      "outputs": [],
      "stateMutability": "nonpayable",
      "type": "function"
    },
    {
      "inputs": [],
      "name": "syrupUSDC_USD_PRICE",
      "outputs": [
        {
          "internalType": "uint256",
          "name": "",
          "type": "uint256"
        }
      ],
      "stateMutability": "pure",
      "type": "function"
    },
    {
      "inputs": [],
      "name": "syrupUSDT_USD_PRICE",
      "outputs": [
        {
          "internalType": "uint256",
          "name": "",
          "type": "uint256"
        }
      ],
      "stateMutability": "pure",
      "type": "function"
    },
    {
      "inputs": [
        {
          "internalType": "bool",
          "name": "isExecutable_",
          "type": "bool"
        }
      ],
      "name": "toggleExecutable",
      "outputs": [],
      "stateMutability": "nonpayable",
      "type": "function"
    },
    {
      "inputs": [],
      "name": "verifyProposal",
      "outputs": [],
      "stateMutability": "view",
      "type": "function"
    },
    {
      "inputs": [],
      "name": "weETH_USD_PRICE",
      "outputs": [
        {
          "internalType": "uint256",
          "name": "",
          "type": "uint256"
        }
      ],
      "stateMutability": "pure",
      "type": "function"
    },
    {
      "inputs": [],
      "name": "weETHs_USD_PRICE",
      "outputs": [
        {
          "internalType": "uint256",
          "name": "",
          "type": "uint256"
        }
      ],
      "stateMutability": "pure",
      "type": "function"
    },
    {
      "inputs": [],
      "name": "wstETH_USD_PRICE",
      "outputs": [
        {
          "internalType": "uint256",
          "name": "",
          "type": "uint256"
        }
      ],
      "stateMutability": "pure",
      "type": "function"
    },
    {
      "inputs": [],
      "name": "wstUSR_USD_PRICE",
      "outputs": [
        {
          "internalType": "uint256",
          "name": "",
          "type": "uint256"
        }
      ],
      "stateMutability": "pure",
      "type": "function"
    }
  ],
  "bytecode": "0x60a060405234801561000f575f80fd5b503060805260805161402e6100485f395f818161083d01528181611c2c01528181611da6015281816122520152612335015261402e5ff3fe608060405234801561000f575f80fd5b5060043610610442575f3560e01c806383f5d77a11610237578063b753428b11610135578063e6bd26a2116100bf578063f88ed60c11610084578063f88ed60c146108ad578063f90b914f146108c8578063fb0ae918146108d0578063fb7727ca146108e3578063fcee0c98146108eb575f80fd5b8063e6bd26a214610867578063f1989de51461087a578063f53eddcc14610882578063f6370aa91461089d578063f6c5d304146108a5575f80fd5b8063bfb742e111610105578063bfb742e114610802578063bffa7f0f1461080a578063c60dc26514610825578063cc025f7c14610838578063d6aaf3d21461085f575f80fd5b8063b753428b146107d6578063b788f3a1146107de578063bc3301a8146107f2578063bcbcc4e2146107fa575f80fd5b80639d3d2a78116101c1578063aa98df3911610186578063aa98df39146107b3578063ac1236f7146104b4578063ae68032b146107c6578063b225d9b1146107ce578063b6966495146105ff575f80fd5b80639d3d2a78146107425780639ef9473714610755578063a5caf0f61461076e578063a64f569314610790578063a9055836146107ab575f80fd5b806396bac9311161020757806396bac931146106f457806396db7d5c1461070f5780639781a8ca1461071757806397b87b4a1461071f5780639993e7581461073a575f80fd5b806383f5d77a146106b6578063841d2699146106be5780638e40b937146106d157806395861bd7146106d9575f80fd5b80632b54c3731161034457806364e9d567116102ce578063727a7c8411610293578063727a7c841461065d578063798d5ba3146106655780637a73bbc4146106785780637aadef8b146106805780637e2f35fa1461069b575f80fd5b806364e9d5671461062a5780636521e19f1461063257806366760d7d146104e25780636dc0ae221461063a5780637000778e14610655575f80fd5b806348bbb5571161031457806348bbb557146105c9578063588c77e6146105e457806358f2552e146105ff578063614619541461061a5780636230073214610622575f80fd5b80632b54c373146105965780632d2c55651461059e5780633484818b146105b9578063473dc4ab146105c1575f80fd5b806311ae7a14116103d05780631bbc51a7116103955780631bbc51a71461054957806324e3f3d41461055157806325ad7f4d146105595780632861c7d11461057457806328787d001461058f575f80fd5b806311ae7a14146104ff57806312e366aa146105075780631392d4ee1461051a578063194c0e181461053a5780631b7d757d14610542575f80fd5b80630b396e66116104165780630b396e66146104a45780630bc9136e146104ac5780630d67976f146104b45780630e6a204c146104cf578063103f2907146104e4575f80fd5b8062623d7d146104465780630251eb1114610461578063040e7a80146104695780630b0a1d9c14610471575b5f80fd5b61044e610906565b6040519081526020015b60405180910390f35b61044e610955565b61044e61099f565b61048c731f6b2bfdd5d1e6ade7b17027ff5300419a56ad6b81565b6040516001600160a01b039091168152602001610458565b61044e6109e9565b61044e608581565b61048c73b031913cb7ad81b8a4ba412b471c2da69bea410b81565b6104e26104dd3660046138a7565b610a33565b005b61048c73324c5dc1fc42c7a4d43d92df1eba58a54d13bf2d81565b61044e610aa5565b61048c6105153660046138c9565b610aef565b60055465010000000000900460ff165b6040519015158152602001610458565b61044e610b6a565b606d61044e565b61044e610bb4565b61044e60b181565b61048c739efde135ca4832abf0408c44c6f5f370eb0f35e881565b61048c7352aa899454998be5b000ad077a46bbe360f4e49781565b606461044e565b61044e610bfe565b61048c7328849d2b63fa8d361e5fc15cb8abb13019884d0981565b61044e610c48565b61044e60ae81565b61048c73e7eb63a8b6392481a9fdebb108cfd580dc8664d381565b61048c735c43aac965ff230ac1cf63e924d0153291d78bad81565b61048c73264786ef916af64a1db19f513f24a3681734ce9281565b6104e2610c8b565b61044e610c9d565b61044e610cdf565b61044e610d29565b61048c730204cd037b2ec03605cfdfe482d8e257c765fa1b81565b61044e610d73565b61044e610db6565b6104e26106733660046138e0565b610e00565b61044e60ac81565b61048c732386dc45added673317ef068992f19421b481f4c81565b61048c73059a94a72951c0ae1cc1ce3bf0db52421bbe821081565b61044e610f2b565b61048c6106cc3660046138c9565b610f6d565b61044e602f81565b61048c73a0d3707c569ff8c87fa923d3823ec5d81c98be7881565b61048c7354b91a0d94cb471f37f949c60f7fa7935b551d0381565b61044e610fa7565b61044e610fea565b61048c7391716c4eda1fb55e84bf8b4c7085f84285c1908581565b61044e60b381565b61044e610750366004613963565b61102c565b60055460405164ffffffffff9091168152602001610458565b61052a61077c3660046138c9565b5f9081526006602052604090205460ff1690565b61048c7397b0b3a8bdefe8cb9563a3c610019ad10db8ad1181565b61044e61191f565b6104e26107c13660046139be565b611969565b61044e611e0f565b61044e60ab81565b61044e611e59565b61048c5f80516020613fd983398151915281565b61044e611ea3565b61044e611eed565b61044e603081565b61048c73a45f7bd6a5ff45d31aace6bcd3d426d9328cea0181565b61048c610833366004613a69565b611f2f565b61048c7f000000000000000000000000000000000000000000000000000000000000000081565b61044e60b081565b61048c6108753660046138c9565b61201d565b61044e60af81565b61048c73e57227c7d5900165344b190fc7aa580bceb53b9b81565b61044e612057565b61044e60b281565b61048c733daff61fe5cfb1f1b4ea7fba8173a58532ef184181565b61044e602e81565b6104e26108de366004613a84565b6120a1565b61044e60ad81565b61048c731e2e1aed876f67fe4fd54090fd7b8f57ce23421981565b60405162461bcd60e51b815260206004820152601760248201527f464c5549445f5553445f5052494345206e6f742073657400000000000000000060448201525f906064015b60405180910390fd5b60405162461bcd60e51b815260206004820152601860248201527f7765455448735f5553445f5052494345206e6f7420736574000000000000000060448201525f9060640161094c565b60405162461bcd60e51b815260206004820152601860248201527f4a52555344455f5553445f5052494345206e6f7420736574000000000000000060448201525f9060640161094c565b60405162461bcd60e51b815260206004820152601760248201527f72734554485f5553445f5052494345206e6f742073657400000000000000000060448201525f9060640161094c565b335f80516020613fd983398151915214610a835760405162461bcd60e51b81526020600482015260116024820152706e6f742d7465616d2d6d756c746973696760781b604482015260640161094c565b60058054911515650100000000000265ff000000000019909216919091179055565b60405162461bcd60e51b815260206004820152601760248201527f73555344655f5553445f5052494345206e6f742073657400000000000000000060448201525f9060640161094c565b604051630971b35560e11b8152600481018290525f907391716c4eda1fb55e84bf8b4c7085f84285c19085906312e366aa906024015b602060405180830381865afa158015610b40573d5f803e3d5ffd5b505050506040513d601f19601f82011682018060405250810190610b649190613aa8565b92915050565b60405162461bcd60e51b815260206004820152601860248201527f7773744554485f5553445f5052494345206e6f7420736574000000000000000060448201525f9060640161094c565b60405162461bcd60e51b815260206004820152601b60248201527f7379727570555344545f5553445f5052494345206e6f7420736574000000000060448201525f9060640161094c565b60405162461bcd60e51b815260206004820152601860248201527f63735553444c5f5553445f5052494345206e6f7420736574000000000000000060448201525f9060640161094c565b60405162461bcd60e51b815260206004820152601660248201527514105611d7d554d117d4149250d1481b9bdd081cd95d60521b60448201525f9060640161094c565b610c936121fa565b610c9b61231c565b565b60405162461bcd60e51b815260206004820152601560248201527411551217d554d117d4149250d1481b9bdd081cd95d605a1b60448201525f9060640161094c565b60405162461bcd60e51b815260206004820152601760248201527f73555344735f5553445f5052494345206e6f742073657400000000000000000060448201525f9060640161094c565b60405162461bcd60e51b815260206004820152601760248201527f657a4554485f5553445f5052494345206e6f742073657400000000000000000060448201525f9060640161094c565b60405162461bcd60e51b81526020600482015260166024820152751610555517d554d117d4149250d1481b9bdd081cd95d60521b60448201525f9060640161094c565b60405162461bcd60e51b815260206004820152601760248201527f52455553445f5553445f5052494345206e6f742073657400000000000000000060448201525f9060640161094c565b335f80516020613fd983398151915214610e505760405162461bcd60e51b81526020600482015260116024820152706e6f742d7465616d2d6d756c746973696760781b604482015260640161094c565b5f5b81811015610f265760065f848484818110610e6f57610e6f613ac3565b602090810292909201358352508101919091526040015f205460ff16610f1457600160065f858585818110610ea657610ea6613ac3565b602090810292909201358352508101919091526040015f20805460ff191691151591909117905533838383818110610ee057610ee0613ac3565b905060200201357f73d6986e29f26b55373edd4820203ff5e60986cb7a4b8456fb988f0aa546a2f060405160405180910390a35b80610f1e81613aeb565b915050610e52565b505050565b60405162461bcd60e51b815260206004820152601560248201527414931417d554d117d4149250d1481b9bdd081cd95d605a1b60448201525f9060640161094c565b60405163841d269960e01b8152600481018290525f9073e57227c7d5900165344b190fc7aa580bceb53b9b9063841d269990602401610b25565b60405162461bcd60e51b81526020600482015260166024820152751b51551217d554d117d4149250d1481b9bdd081cd95d60521b60448201525f9060640161094c565b60405162461bcd60e51b8152602060048201526015602482015274109510d7d554d117d4149250d1481b9bdd081cd95d605a1b60448201525f9060640161094c565b5f808411801561103b57505f83115b156110885760405162461bcd60e51b815260206004820181905260248201527f626f74682075736420616e6420616d6f756e7420617265206e6f74207a65726f604482015260640161094c565b5f8073eeeeeeeeeeeeeeeeeeeeeeeeeeeeeeeeeeeeeeed196001600160a01b038816016110c2576110b7610c9d565b9150601290506117d6565b737f39c581f595b53c5cb19bd0b3f8da6c935e2c9f196001600160a01b038816016110ef576110b7610b6a565b73cd5fe23c85820f7b72d0926fc9b05b43e359b7ed196001600160a01b0388160161111c576110b7612057565b73a1290d69c65a6fe4df752f95823fae25cb99e5a6196001600160a01b03881601611149576110b76109e9565b73917cee801a67f933f2e6b33fc0cd1ed2d5909d87196001600160a01b03881601611176576110b7610955565b73d5f7838f5c461feff7fe49ea5ebaf7728bb0adf9196001600160a01b038816016111a3576110b7610fa7565b73bf5495efe5db9ce00f80364c8b423567e58d210f196001600160a01b038816016111d0576110b7610d29565b73f1c9acdc66974dfb6decb12aa385b9cd01190e37196001600160a01b038816016111fd576110b7611ea3565b732260fac5e5542a773aa44fbcfedf7c193bc2c598196001600160a01b038816016112355761122a610fea565b9150600890506117d6565b73cbb7c0000ab88b473b1f5afd9ef808440eed33be196001600160a01b038816016112625761122a610fea565b7318084fba666a33d37592fa2633fd49a74dd93a87196001600160a01b0388160161128f576110b7610fea565b73657e8c867d8b37dcc18fa4caead9c45eb088c641196001600160a01b038816016112bc5761122a610fea565b738236a87084f8b84306f72007f36f2618a5634493196001600160a01b038816016112e95761122a610fea565b73a0b86991c6218b36c1d19d4a2e9eb0ce3606eb47196001600160a01b0388160161131c5760645b9150600690506117d6565b73dac17f958d2ee523a2206206994597c13d831ec6196001600160a01b03881601611348576064611311565b7340d16fc0246ad3160ccc09b8d0d3a2cd28ae6c2e196001600160a01b038816016113745760646110b7565b734c9edd5852cd905f086c759e8383e09bff1e68b2196001600160a01b038816016113a05760646110b7565b7315700b564ca08d9439c58ca5053166e8317aa137196001600160a01b038816016113cc5760646110b7565b7366a1e37c9b0eaddca17d3662d6c05f4decf3e10f196001600160a01b038816016113f85760646110b7565b7373a15fed60bf67631dc6cd7bc5b6e8da8190acf4196001600160a01b038816016114245760646110b7565b73085780639cc2cacd35e474e71f4d000e2405d8f5196001600160a01b038816016114505760646110b7565b73b01dd87b29d187f3e3a4bf6cdaebfb97f3d9ab97196001600160a01b0388160161147c5760646110b7565b7348f9e38f3070ad8945dfeae3fa70987722e3d89b196001600160a01b038816016114a85760646110b7565b73c139190f447e929f090edeb554d95abb8b18ac1b196001600160a01b038816016114d45760646110b7565b730a1a1a107e45b7ced86833863f482bc5f4ed82ee196001600160a01b038816016115005760646110b7565b739d39a5de30e57443bff2a8307a4256c8797a3496196001600160a01b0388160161152d576110b7610aa5565b73a3931d71877c0e7a3148cb7eb4463524fec27fbc196001600160a01b0388160161155a576110b7610cdf565b73356b8d89c1e1239cbbb9de4815c39a1474d5ba7c196001600160a01b0388160161158757611311610bb4565b7380ac24aa929eaf5013f6436cda2a7ba190f5cc0a196001600160a01b038816016115b45761131161191f565b735086bf358635b81d8c47c66d1c8b9e567db70c71196001600160a01b038816016115e1576110b7610db6565b7322ae3d9a738471f405169af055d31c687087d4c6196001600160a01b0388160161160e57611311611eed565b730b2b2b2076d95dda7817e785989fe353fe955ef8196001600160a01b0388160161163a57606d6110b7565b73beefc011e94f43b8b7b455ebab290c7ab4e216f0196001600160a01b03881601611667576110b7610bfe565b73c58d044404d8b14e953c115e67823784dea53d8e196001600160a01b03881601611694576110b761099f565b733d7d6fdf07ee548b939a80edbc9b2256d0cdc002196001600160a01b038816016116c1576110b7611e59565b731202f5c7b4b9e47a1a484e8b270be34dbbc75054196001600160a01b038816016116ee576110b7611e0f565b734956b52ae2ff65d74ca2d61207523288e4528f95196001600160a01b0388160161171b576110b7610f2b565b736f40d4a6237c257fff2db00fa0510deeecd303ea196001600160a01b03881601611748576110b7610906565b7368749665ff8d2d112fa859aa293f07a622782f37196001600160a01b0388160161177557611311610d73565b7345804880de22913dafe09f4980848ece6ecbaf77196001600160a01b038816016117a2576110b7610c48565b60405162461bcd60e51b81526020600482015260096024820152681b9bdd0b599bdd5b9960ba1b604482015260640161094c565b604080516001600160a01b03891660208083019190915260058284015282518083038401815260608301938490528051910120632d71cdb960e21b90925260648101919091525f907352aa899454998be5b000ad077a46bbe360f4e4979063b5c736e490608401602060405180830381865afa158015611858573d5f803e3d5ffd5b505050506040513d601f19601f8201168201806040525081019061187c9190613b03565b90505f8061188983612ffc565b915091505f87611899578161189b565b825b905089156118ca57806118b38b64e8d4a51000613b1a565b6118bd9190613b45565b9650505050505050611917565b60646118d68288613b1a565b6118e09190613b45565b6118eb86600a613c44565b6118fa8b64e8d4a51000613b1a565b6119049190613b1a565b61190e9190613b45565b96505050505050505b949350505050565b60405162461bcd60e51b815260206004820152601b60248201527f7379727570555344435f5553445f5052494345206e6f7420736574000000000060448201525f9060640161094c565b3373a45f7bd6a5ff45d31aace6bcd3d426d9328cea0114806119975750335f80516020613fd9833981519152145b806119b557503073059a94a72951c0ae1cc1ce3bf0db52421bbe8210145b806119d3575030739efde135ca4832abf0408c44c6f5f370eb0f35e8145b806119f1575030735c43aac965ff230ac1cf63e924d0153291d78bad145b80611a0f575030733daff61fe5cfb1f1b4ea7fba8173a58532ef1841145b80611a2d57503073e7eb63a8b6392481a9fdebb108cfd580dc8664d3145b611a725760405162461bcd60e51b81526020600482015260166024820152751b5cd9cb9cd95b99195c8b5b9bdd0b585b1b1bddd95960521b604482015260640161094c565b6040805160018082528183019092525f9082602080830190803683370190505090505f8267ffffffffffffffff811115611aae57611aae6139aa565b604051908082528060200260200182016040528015611ad7578160200160208202803683370190505b5090505f8367ffffffffffffffff811115611af457611af46139aa565b604051908082528060200260200182016040528015611b2757816020015b6060815260200190600190039081611b125790505b5090505f8467ffffffffffffffff811115611b4457611b446139aa565b604051908082528060200260200182016040528015611b7757816020015b6060815260200190600190039081611b625790505b509050732386dc45added673317ef068992f19421b481f4c845f81518110611ba157611ba1613ac3565b60200260200101906001600160a01b031690816001600160a01b0316815250505f835f81518110611bd457611bd4613ac3565b602002602001018181525050604051806060016040528060248152602001613fb560249139825f81518110611c0b57611c0b613ac3565b602090810291909101810191909152604080515f81529182018152611c53917f0000000000000000000000000000000000000000000000000000000000000000918101613c92565b604051602081830303815290604052815f81518110611c7457611c74613ac3565b6020908102919091010152604051636d4ab48d60e11b81525f90730204cd037b2ec03605cfdfe482d8e257c765fa1b9063da95691a90611cc09088908890889088908e90600401613d5e565b6020604051808303815f875af1158015611cdc573d5f803e3d5ffd5b505050506040513d601f19601f82011682018060405250810190611d009190613b03565b905060858114611d495760405162461bcd60e51b815260206004820152601460248201527350524f504f53414c5f49535f4e4f545f53414d4560601b604482015260640161094c565b3373a45f7bd6a5ff45d31aace6bcd3d426d9328cea011480611d775750335f80516020613fd9833981519152145b15611d8a57611d85426120a1565b611e06565b604051631f615d2360e31b815264ffffffffff421660048201527f00000000000000000000000000000000000000000000000000000000000000006001600160a01b03169063fb0ae918906024015f604051808303815f87803b158015611def575f80fd5b505af1158015611e01573d5f803e3d5ffd5b505050505b50505050505050565b60405162461bcd60e51b815260206004820152601860248201527f7773745553525f5553445f5052494345206e6f7420736574000000000000000060448201525f9060640161094c565b60405162461bcd60e51b815260206004820152601860248201527f5352555344455f5553445f5052494345206e6f7420736574000000000000000060448201525f9060640161094c565b60405162461bcd60e51b815260206004820152601760248201527f4f534554485f5553445f5052494345206e6f742073657400000000000000000060448201525f9060640161094c565b60405162461bcd60e51b81526020600482015260156024820152741414d517d554d117d4149250d1481b9bdd081cd95d605a1b60448201525f9060640161094c565b5f73c02aaa39b223fe8d0a0e5c4f27ead9083c756cc1196001600160a01b03831601611fbe576040805163bb4a64d360e01b81526001600160a01b03841660048201526024810191909152601060448201526f4e6174697665556e6465726c79696e6760801b60648201527354b91a0d94cb471f37f949c60f7fa7935b551d039063bb4a64d390608401610b25565b6040805163bb4a64d360e01b81526001600160a01b038416600482015260248101919091526006604482015265332a37b5b2b760d11b60648201527354b91a0d94cb471f37f949c60f7fa7935b551d039063bb4a64d390608401610b25565b60405163735e935160e11b8152600481018290525f9073324c5dc1fc42c7a4d43d92df1eba58a54d13bf2d9063e6bd26a290602401610b25565b60405162461bcd60e51b815260206004820152601760248201527f77654554485f5553445f5052494345206e6f742073657400000000000000000060448201525f9060640161094c565b3373a45f7bd6a5ff45d31aace6bcd3d426d9328cea0114806120cf5750335f80516020613fd9833981519152145b806120ed57503373059a94a72951c0ae1cc1ce3bf0db52421bbe8210145b8061210b575033739efde135ca4832abf0408c44c6f5f370eb0f35e8145b80612129575033735c43aac965ff230ac1cf63e924d0153291d78bad145b80612147575033733daff61fe5cfb1f1b4ea7fba8173a58532ef1841145b8061216557503373e7eb63a8b6392481a9fdebb108cfd580dc8664d3145b6121aa5760405162461bcd60e51b81526020600482015260166024820152751b5cd9cb9cd95b99195c8b5b9bdd0b585b1b1bddd95960521b604482015260640161094c565b6005805464ffffffffff191664ffffffffff83169081179091556040519081527fc63b190684342aebf3bbf9112171a1da60123c5f3035abfe69043e5b985bb74a9060200160405180910390a150565b30732386dc45added673317ef068992f19421b481f4c146122505760405162461bcd60e51b815260206004820152601060248201526f3737ba16bb30b634b216b1b0b63632b960811b604482015260640161094c565b7f00000000000000000000000000000000000000000000000000000000000000006001600160a01b0316631392d4ee6040518163ffffffff1660e01b8152600401602060405180830381865afa1580156122ac573d5f803e3d5ffd5b505050506040513d601f19601f820116820180604052508101906122d09190613dfc565b610c9b5760405162461bcd60e51b815260206004820152601760248201527f70726f706f73616c2d6e6f742d65786563757461626c65000000000000000000604482015260640161094c565b6040516352e5787b60e11b8152600160048201819052907f00000000000000000000000000000000000000000000000000000000000000006001600160a01b03169063a5caf0f690602401602060405180830381865afa158015612382573d5f803e3d5ffd5b505050506040513d601f19601f820116820180604052508101906123a69190613dfc565b612ff9575f6123b56002610aef565b90505f6123c2602e610aef565b60408051610100810182526001600160a01b0383168152730b2b2b2076d95dda7817e785989fe353fe955ef9602082015273a0b86991c6218b36c1d19d4a2e9eb0ce3606eb4891810191909152600160608201525f6080820181905261271060a083015260c0820181905260e082015290915061243e816131f1565b604051630f18fc2760e31b81527391716c4eda1fb55e84bf8b4c7085f84285c19085906378c7e138906124879085905f80516020613fd983398151915290600190600401613e17565b5f604051808303815f87803b15801561249e575f80fd5b505af11580156124b0573d5f803e3d5ffd5b5050505050505f6124c1602f610aef565b60408051610100810182526001600160a01b0383168152730a1a1a107e45b7ced86833863f482bc5f4ed82ef602082015273a0b86991c6218b36c1d19d4a2e9eb0ce3606eb4891810191909152600160608201525f6080820181905261271060a083015260c0820181905260e082015290915061253d816131f1565b604051630f18fc2760e31b81527391716c4eda1fb55e84bf8b4c7085f84285c19085906378c7e138906125869085905f80516020613fd983398151915290600190600401613e17565b5f604051808303815f87803b15801561259d575f80fd5b505af11580156125af573d5f803e3d5ffd5b5050505050505f6125c06030610aef565b60408051610100810182526001600160a01b0383168152730b2b2b2076d95dda7817e785989fe353fe955ef9602082015273dac17f958d2ee523a2206206994597c13d831ec791810191909152600160608201525f6080820181905261271060a083015260c0820181905260e082015290915061263c816131f1565b604051630f18fc2760e31b81527391716c4eda1fb55e84bf8b4c7085f84285c19085906378c7e138906126859085905f80516020613fd983398151915290600190600401613e17565b5f604051808303815f87803b15801561269c575f80fd5b505af11580156126ae573d5f803e3d5ffd5b5050505050505f6126bf60ab61201d565b90505f6040518060e00160405280836001600160a01b031681526020015f60038111156126ee576126ee613e3b565b8152730b2b2b2076d95dda7817e785989fe353fe955ef9602082015273a0b86991c6218b36c1d19d4a2e9eb0ce3606eb486040820152611b5860608201819052608082015261232860a090910152905061274781613354565b604051637faa1d2160e01b815273b031913cb7ad81b8a4ba412b471c2da69bea410b90637faa1d21906127909085905f80516020613fd983398151915290600190600401613e17565b5f604051808303815f87803b1580156127a7575f80fd5b505af11580156127b9573d5f803e3d5ffd5b5050505050505f6127ca60ac61201d565b90505f6040518060e00160405280836001600160a01b031681526020015f60038111156127f9576127f9613e3b565b8152730b2b2b2076d95dda7817e785989fe353fe955ef9602082015273dac17f958d2ee523a2206206994597c13d831ec76040820152611b5860608201819052608082015261232860a090910152905061285281613354565b604051637faa1d2160e01b815273b031913cb7ad81b8a4ba412b471c2da69bea410b90637faa1d219061289b9085905f80516020613fd983398151915290600190600401613e17565b5f604051808303815f87803b1580156128b2575f80fd5b505af11580156128c4573d5f803e3d5ffd5b5050505050505f6128d560ad61201d565b90505f6040518060e00160405280836001600160a01b031681526020016002600381111561290557612905613e3b565b8152730b2b2b2076d95dda7817e785989fe353fe955ef960208201525f60408201819052611b5860608301526080820181905260a090910152905061294981613354565b604051637faa1d2160e01b815273b031913cb7ad81b8a4ba412b471c2da69bea410b90637faa1d21906129929085905f80516020613fd983398151915290600190600401613e17565b5f604051808303815f87803b1580156129a9575f80fd5b505af11580156129bb573d5f803e3d5ffd5b505050505f6040518060c00160405280856001600160a01b03168152602001846001600160a01b03168152602001610bb88152602001615460815260200168bdbc41e0348b300000815260200168f3f20b8dfa69d000008152509050612a208161351c565b5050505f612a2e60ae61201d565b90505f6040518060e00160405280836001600160a01b031681526020015f6003811115612a5d57612a5d613e3b565b8152730a1a1a107e45b7ced86833863f482bc5f4ed82ef602082015273a0b86991c6218b36c1d19d4a2e9eb0ce3606eb486040820152611b5860608201819052608082015261232860a0909101529050612ab681613354565b604051637faa1d2160e01b815273b031913cb7ad81b8a4ba412b471c2da69bea410b90637faa1d2190612aff9085905f80516020613fd983398151915290600190600401613e17565b5f604051808303815f87803b158015612b16575f80fd5b505af1158015612b28573d5f803e3d5ffd5b5050505050505f612b3960af61201d565b604051637faa1d2160e01b815290915073b031913cb7ad81b8a4ba412b471c2da69bea410b90637faa1d2190612b859084905f80516020613fd983398151915290600190600401613e17565b5f604051808303815f87803b158015612b9c575f80fd5b505af1158015612bae573d5f803e3d5ffd5b505050505f6040518060c00160405280846001600160a01b03168152602001836001600160a01b03168152602001610bb88152602001615460815260200168bdbc41e0348b300000815260200168f3f20b8dfa69d000008152509050612c138161351c565b50505f612c2060b061201d565b604051637faa1d2160e01b815290915073b031913cb7ad81b8a4ba412b471c2da69bea410b90637faa1d2190612c6c9084905f80516020613fd983398151915290600190600401613e17565b5f604051808303815f87803b158015612c83575f80fd5b505af1158015612c95573d5f803e3d5ffd5b505050505f6040518060c00160405280846001600160a01b03168152602001836001600160a01b03168152602001610bb88152602001615460815260200168bdbc41e0348b300000815260200168f3f20b8dfa69d000008152509050612cfa8161351c565b50505f612d0760b161201d565b90505f6040518060e00160405280836001600160a01b0316815260200160016003811115612d3757612d37613e3b565b81525f6020820181905273dac17f958d2ee523a2206206994597c13d831ec760408301526060820152611b58608082015261232860a0909101529050612d7c81613354565b604051637faa1d2160e01b815273b031913cb7ad81b8a4ba412b471c2da69bea410b90637faa1d2190612dc59085905f80516020613fd983398151915290600190600401613e17565b5f604051808303815f87803b158015612ddc575f80fd5b505af1158015612dee573d5f803e3d5ffd5b5050505050505f612dff60b261201d565b90505f6040518060e00160405280836001600160a01b0316815260200160016003811115612e2f57612e2f613e3b565b81525f6020820181905273a0b86991c6218b36c1d19d4a2e9eb0ce3606eb4860408301526060820152611b58608082015261232860a0909101529050612e7481613354565b604051637faa1d2160e01b815273b031913cb7ad81b8a4ba412b471c2da69bea410b90637faa1d2190612ebd9085905f80516020613fd983398151915290600190600401613e17565b5f604051808303815f87803b158015612ed4575f80fd5b505af1158015612ee6573d5f803e3d5ffd5b5050505050505f612ef760b361201d565b90505f6040518060e00160405280836001600160a01b031681526020015f6003811115612f2657612f26613e3b565b8152730b2b2b2076d95dda7817e785989fe353fe955ef960208201527340d16fc0246ad3160ccc09b8d0d3a2cd28ae6c2f6040820152611b5860608201819052608082015261232860a0909101529050612f7f81613354565b604051637faa1d2160e01b815273b031913cb7ad81b8a4ba412b471c2da69bea410b90637faa1d2190612fc89085905f80516020613fd983398151915290600190600401613e17565b5f604051808303815f87803b158015612fdf575f80fd5b505af1158015612ff1573d5f803e3d5ffd5b505050505050505b50565b67ffffffffffffffff605b82901c811690609b83901c1681158061301e575080155b1561304157604051636a86ba8960e11b815262011171600482015260240161094c565b61ffff8316603a84901c6401ffffffff16428181039160ea87901c617fff1691148061306b575082155b806130765750806001145b1561308357505050915091565b64496cebb80084840283020484019350617fff60db87901c169250826001036130ae57505050915091565b826001166001036131035760019290921c91826c7e37be2022c0914b2680000000816130dc576130dc613b31565b049250612710601e87901c613fff166b033b2e3c9fd0803ce8000000850102049250613130565b60019290921c916305f5e100601e87901c613fff166127108501026b033b2e3c9fd0803ce8000000020492505b806001166001036131675760011c61271081016b033b2e3c9fd0803ce800000082028161315f5761315f613b31565b04905061319d565b60011c61271081016b033b2e3c9fd0803ce800000082028161318b5761318b613b31565b046b033b2e3c9fd0803ce80000000390505b760a70c3c40a64e6c51999090b65f67d92400000000000008382026127100261ffff881691900402601087901c613fff16612710030292506801b5a660ea44b8000085840283020485019450505050915091565b80606001511561329a575f6040518060a00160405280835f01516001600160a01b0316815260200183602001516001600160a01b031681526020016113888152602001610e1081526020018360a00151815250905061324f8161363e565b6040805160a0808201835284516001600160a01b0390811683528584015116602083015261138892820192909252610e1060608201529083015160808201526132978161363e565b50505b806080015115612ff9575f6040518060c00160405280835f01516001600160a01b0316815260200183602001516001600160a01b031681526020016113888152602001610e1081526020018360c0015181526020018360e00151815250905061330281613750565b6040805160c0808201835284516001600160a01b0390811683528584015116602083015261138892820192909252610e10606082015290830151608082015260e083015160a0820152610f2681613750565b5f8160200151600381111561336b5761336b613e3b565b036133ba576040805160a08101825282516001600160a01b03908116825283830151166020820152611388918101919091526154606060820152608080830151908201526133b88161363e565b505b5f816020015160038111156133d1576133d1613e3b565b03613436575f6040518060c00160405280835f01516001600160a01b0316815260200183606001516001600160a01b03168152602001611388815260200161546081526020018360a0015181526020018360c00151815250905061343481613750565b505b60018160200151600381111561344e5761344e613e3b565b036134b3575f6040518060c00160405280835f01516001600160a01b0316815260200183606001516001600160a01b03168152602001610bb8815260200161546081526020018360a0015181526020018360c0015181525090506134b181613750565b505b6002816020015160038111156134cb576134cb613e3b565b03612ff9576040805160a08101825282516001600160a01b03908116825283830151166020820152610dac918101919091526154606060820152608080830151908201526135188161363e565b5050565b6040805160018082528183019092525f91816020015b6135686040518060a001604052805f6001600160a01b031681526020015f81526020015f81526020015f81526020015f81525090565b8152602001906001900390816135325790505090506040518060a0016040528083602001516001600160a01b031681526020018360400151815260200183606001518152602001836080015181526020018360a00151815250815f815181106135d3576135d3613ac3565b6020908102919091010152815160405163ba9af1e360e01b81526001600160a01b039091169063ba9af1e39061360d908490600401613e4f565b5f604051808303815f87803b158015613624575f80fd5b505af1158015613636573d5f803e3d5ffd5b505050505050565b6040805160018082528183019092525f91816020015b6040805160c0810182525f8082526020808301829052928201819052606082018190526080820181905260a082015282525f199092019101816136545790505090506040518060c00160405280835f01516001600160a01b0316815260200183602001516001600160a01b03168152602001600160ff16815260200183604001518152602001836060015181526020016136f984602001515f8660800151600161102c565b815250815f8151811061370e5761370e613ac3565b60209081029190910101526040516301635db560e11b81527352aa899454998be5b000ad077a46bbe360f4e497906302c6bb6a9061360d908490600401613eb8565b6040805160018082528183019092525f91816020015b6137b46040518060e001604052805f6001600160a01b031681526020015f6001600160a01b031681526020015f60ff1681526020015f81526020015f81526020015f81526020015f81525090565b8152602001906001900390816137665790505090506040518060e00160405280835f01516001600160a01b0316815260200183602001516001600160a01b03168152602001600160ff168152602001836040015181526020018360600151815260200161382b84602001515f86608001515f61102c565b815260200161384484602001515f8660a001515f61102c565b815250815f8151811061385957613859613ac3565b602090810291909101015260405162dc47c360e11b81527352aa899454998be5b000ad077a46bbe360f4e497906301b88f869061360d908490600401613f31565b8015158114612ff9575f80fd5b5f602082840312156138b7575f80fd5b81356138c28161389a565b9392505050565b5f602082840312156138d9575f80fd5b5035919050565b5f80602083850312156138f1575f80fd5b823567ffffffffffffffff80821115613908575f80fd5b818501915085601f83011261391b575f80fd5b813581811115613929575f80fd5b8660208260051b850101111561393d575f80fd5b60209290920196919550909350505050565b6001600160a01b0381168114612ff9575f80fd5b5f805f8060808587031215613976575f80fd5b84356139818161394f565b93506020850135925060408501359150606085013561399f8161389a565b939692955090935050565b634e487b7160e01b5f52604160045260245ffd5b5f602082840312156139ce575f80fd5b813567ffffffffffffffff808211156139e5575f80fd5b818401915084601f8301126139f8575f80fd5b813581811115613a0a57613a0a6139aa565b604051601f8201601f19908116603f01168101908382118183101715613a3257613a326139aa565b81604052828152876020848701011115613a4a575f80fd5b826020860160208301375f928101602001929092525095945050505050565b5f60208284031215613a79575f80fd5b81356138c28161394f565b5f60208284031215613a94575f80fd5b813564ffffffffff811681146138c2575f80fd5b5f60208284031215613ab8575f80fd5b81516138c28161394f565b634e487b7160e01b5f52603260045260245ffd5b634e487b7160e01b5f52601160045260245ffd5b5f60018201613afc57613afc613ad7565b5060010190565b5f60208284031215613b13575f80fd5b5051919050565b8082028115828204841417610b6457610b64613ad7565b634e487b7160e01b5f52601260045260245ffd5b5f82613b5f57634e487b7160e01b5f52601260045260245ffd5b500490565b600181815b80851115613b9e57815f1904821115613b8457613b84613ad7565b80851615613b9157918102915b93841c9390800290613b69565b509250929050565b5f82613bb457506001610b64565b81613bc057505f610b64565b8160018114613bd65760028114613be057613bfc565b6001915050610b64565b60ff841115613bf157613bf1613ad7565b50506001821b610b64565b5060208310610133831016604e8410600b8410161715613c1f575081810a610b64565b613c298383613b64565b805f1904821115613c3c57613c3c613ad7565b029392505050565b5f6138c28383613ba6565b5f81518084525f5b81811015613c7357602081850181015186830182015201613c57565b505f602082860101526020601f19601f83011685010191505092915050565b60018060a01b038316815260606020820152600960608201526865786563757465282960b81b608082015260a060408201525f61191760a0830184613c4f565b5f8151808452602080850194508084015f5b83811015613d0057815187529582019590820190600101613ce4565b509495945050505050565b5f81518084526020808501808196508360051b810191508286015f5b85811015613d51578284038952613d3f848351613c4f565b98850198935090840190600101613d27565b5091979650505050505050565b60a080825286519082018190525f9060209060c0840190828a01845b82811015613d9f5781516001600160a01b031684529284019290840190600101613d7a565b50505083810382850152613db38189613cd2565b9150508281036040840152613dc88187613d0b565b90508281036060840152613ddc8186613d0b565b90508281036080840152613df08185613c4f565b98975050505050505050565b5f60208284031215613e0c575f80fd5b81516138c28161389a565b6001600160a01b039384168152919092166020820152901515604082015260600190565b634e487b7160e01b5f52602160045260245ffd5b602080825282518282018190525f919060409081850190868401855b82811015613d5157815180516001600160a01b0316855286810151878601528581015186860152606080820151908601526080908101519085015260a09093019290850190600101613e6b565b602080825282518282018190525f919060409081850190868401855b82811015613d5157815180516001600160a01b0390811686528782015116878601528581015160ff1686860152606080820151908601526080808201519086015260a0908101519085015260c09093019290850190600101613ed4565b602080825282518282018190525f919060409081850190868401855b82811015613d5157815180516001600160a01b0390811686528782015116878601528581015160ff1686860152606080820151908601526080808201519086015260a0808201519086015260c0908101519085015260e09093019290850190600101613f4d56fe657865637574655061796c6f616428616464726573732c737472696e672c6279746573290000000000000000000000004f6f977acdd1177dcd81ab83074855ecb9c2d49ea2646970667358221220d1df5002a79c656c5b795a950353923320d89d0cfbb468c355df1fdf584e7af264736f6c63430008150033",
  "linkReferences": {},
  "deployedLinkReferences": {},
  "immutableReferences": {
    "593": [
      {
        "length": 32,
        "start": 2109
      },
      {
        "length": 32,
        "start": 7212
      },
      {
        "length": 32,
        "start": 7590
      },
      {
        "length": 32,
        "start": 8786
      },
      {
        "length": 32,
        "start": 9013
      }
    ]
  },
  "inputSourceName": "project/contracts/payloads/IGP133/PayloadIGP133.sol",
  "buildInfoId": "solc-0_8_21-9f15592ca6a3ecfb80089e496a524427856a59e3"
}