{
  "_format": "hh3-artifact-1",
  "contractName": "PayloadIGP130",
  "sourceName": "contracts/payloads/IGP130/PayloadIGP130.sol",
  "abi": [
    {
      "inputs": [
        {
          "internalType": "uint256",
          "name": "errorId_",
          "type": "uint256"
        }
      ],
      "name": "FluidLiquidityCalcsError",
      "type": "error"
    },
    {
      "anonymous": false,
      "inputs": [
        {
          "indexed": true,
          "internalType": "uint256",
          "name": "action",
          "type": "uint256"
        },
        {
          "indexed": true,
          "internalType": "address",
          "name": "by",
          "type": "address"
        }
      ],
      "name": "ActionSkipped",
      "type": "event"
    },
    {
      "anonymous": false,
      "inputs": [
        {
          "indexed": false,
          "internalType": "uint40",
          "name": "at",
          "type": "uint40"
        }
      ],
      "name": "ProposalCreationTimeSet",
      "type": "event"
    },
    {
      "inputs": [],
      "name": "ADDRESS_THIS",
      "outputs": [
        {
          "internalType": "address",
          "name": "",
          "type": "address"
        }
      ],
      "stateMutability": "view",
      "type": "function"
    },
    {
      "inputs": [],
      "name": "BTC_USD_PRICE",
      "outputs": [
        {
          "internalType": "uint256",
          "name": "",
          "type": "uint256"
        }
      ],
      "stateMutability": "pure",
      "type": "function"
    },
    {
      "inputs": [],
      "name": "DEX_FACTORY",
      "outputs": [
        {
          "internalType": "contract IFluidDexFactory",
          "name": "",
          "type": "address"
        }
      ],
      "stateMutability": "view",
      "type": "function"
    },
    {
      "inputs": [],
      "name": "DSA_CONNECTORS_V2",
      "outputs": [
        {
          "internalType": "contract IDSAConnectorsV2",
          "name": "",
          "type": "address"
        }
      ],
      "stateMutability": "view",
      "type": "function"
    },
    {
      "inputs": [],
      "name": "ETH_USD_PRICE",
      "outputs": [
        {
          "internalType": "uint256",
          "name": "",
          "type": "uint256"
        }
      ],
      "stateMutability": "pure",
      "type": "function"
    },
    {
      "inputs": [],
      "name": "FLUID_RESERVE",
      "outputs": [
        {
          "internalType": "contract IFluidReserveContract",
          "name": "",
          "type": "address"
        }
      ],
      "stateMutability": "view",
      "type": "function"
    },
    {
      "inputs": [],
      "name": "FLUID_USD_PRICE",
      "outputs": [
        {
          "internalType": "uint256",
          "name": "",
          "type": "uint256"
        }
      ],
      "stateMutability": "pure",
      "type": "function"
    },
    {
      "inputs": [],
      "name": "FLUID_VAULT_FACTORY_OWNER",
      "outputs": [
        {
          "internalType": "contract IFluidVaultFactory",
          "name": "",
          "type": "address"
        }
      ],
      "stateMutability": "view",
      "type": "function"
    },
    {
      "inputs": [],
      "name": "GOVERNOR",
      "outputs": [
        {
          "internalType": "contract IGovernorBravo",
          "name": "",
          "type": "address"
        }
      ],
      "stateMutability": "view",
      "type": "function"
    },
    {
      "inputs": [],
      "name": "IETHV2",
      "outputs": [
        {
          "internalType": "contract ILite",
          "name": "",
          "type": "address"
        }
      ],
      "stateMutability": "view",
      "type": "function"
    },
    {
      "inputs": [],
      "name": "JRUSDE_USD_PRICE",
      "outputs": [
        {
          "internalType": "uint256",
          "name": "",
          "type": "uint256"
        }
      ],
      "stateMutability": "pure",
      "type": "function"
    },
    {
      "inputs": [],
      "name": "LENDING_FACTORY",
      "outputs": [
        {
          "internalType": "contract IFluidLendingFactory",
          "name": "",
          "type": "address"
        }
      ],
      "stateMutability": "view",
      "type": "function"
    },
    {
      "inputs": [],
      "name": "LIQUIDITY",
      "outputs": [
        {
          "internalType": "contract IFluidLiquidityAdmin",
          "name": "",
          "type": "address"
        }
      ],
      "stateMutability": "view",
      "type": "function"
    },
    {
      "inputs": [],
      "name": "OSETH_USD_PRICE",
      "outputs": [
        {
          "internalType": "uint256",
          "name": "",
          "type": "uint256"
        }
      ],
      "stateMutability": "pure",
      "type": "function"
    },
    {
      "inputs": [],
      "name": "PAXG_USD_PRICE",
      "outputs": [
        {
          "internalType": "uint256",
          "name": "",
          "type": "uint256"
        }
      ],
      "stateMutability": "pure",
      "type": "function"
    },
    {
      "inputs": [],
      "name": "PROPOSAL_ID",
      "outputs": [
        {
          "internalType": "uint256",
          "name": "",
          "type": "uint256"
        }
      ],
      "stateMutability": "view",
      "type": "function"
    },
    {
      "inputs": [],
      "name": "PROPOSER",
      "outputs": [
        {
          "internalType": "address",
          "name": "",
          "type": "address"
        }
      ],
      "stateMutability": "view",
      "type": "function"
    },
    {
      "inputs": [],
      "name": "PROPOSER_AVO_MULTISIG",
      "outputs": [
        {
          "internalType": "address",
          "name": "",
          "type": "address"
        }
      ],
      "stateMutability": "view",
      "type": "function"
    },
    {
      "inputs": [],
      "name": "PROPOSER_AVO_MULTISIG_2",
      "outputs": [
        {
          "internalType": "address",
          "name": "",
          "type": "address"
        }
      ],
      "stateMutability": "view",
      "type": "function"
    },
    {
      "inputs": [],
      "name": "PROPOSER_AVO_MULTISIG_3",
      "outputs": [
        {
          "internalType": "address",
          "name": "",
          "type": "address"
        }
      ],
      "stateMutability": "view",
      "type": "function"
    },
    {
      "inputs": [],
      "name": "PROPOSER_AVO_MULTISIG_4",
      "outputs": [
        {
          "internalType": "address",
          "name": "",
          "type": "address"
        }
      ],
      "stateMutability": "view",
      "type": "function"
    },
    {
      "inputs": [],
      "name": "PROPOSER_AVO_MULTISIG_5",
      "outputs": [
        {
          "internalType": "address",
          "name": "",
          "type": "address"
        }
      ],
      "stateMutability": "view",
      "type": "function"
    },
    {
      "inputs": [],
      "name": "PST_USDC_DEX_ID",
      "outputs": [
        {
          "internalType": "uint256",
          "name": "",
          "type": "uint256"
        }
      ],
      "stateMutability": "view",
      "type": "function"
    },
    {
      "inputs": [],
      "name": "PST_USD_PRICE",
      "outputs": [
        {
          "internalType": "uint256",
          "name": "",
          "type": "uint256"
        }
      ],
      "stateMutability": "pure",
      "type": "function"
    },
    {
      "inputs": [],
      "name": "RESERVE_CONTRACT_PROXY",
      "outputs": [
        {
          "internalType": "address",
          "name": "",
          "type": "address"
        }
      ],
      "stateMutability": "view",
      "type": "function"
    },
    {
      "inputs": [],
      "name": "REUSD_USD_PRICE",
      "outputs": [
        {
          "internalType": "uint256",
          "name": "",
          "type": "uint256"
        }
      ],
      "stateMutability": "pure",
      "type": "function"
    },
    {
      "inputs": [],
      "name": "RLP_USD_PRICE",
      "outputs": [
        {
          "internalType": "uint256",
          "name": "",
          "type": "uint256"
        }
      ],
      "stateMutability": "pure",
      "type": "function"
    },
    {
      "inputs": [],
      "name": "SMART_LENDING_FACTORY",
      "outputs": [
        {
          "internalType": "contract IFluidSmartLendingFactory",
          "name": "",
          "type": "address"
        }
      ],
      "stateMutability": "view",
      "type": "function"
    },
    {
      "inputs": [],
      "name": "SRUSDE_USD_PRICE",
      "outputs": [
        {
          "internalType": "uint256",
          "name": "",
          "type": "uint256"
        }
      ],
      "stateMutability": "pure",
      "type": "function"
    },
    {
      "inputs": [],
      "name": "STABLE_USD_PRICE",
      "outputs": [
        {
          "internalType": "uint256",
          "name": "",
          "type": "uint256"
        }
      ],
      "stateMutability": "pure",
      "type": "function"
    },
    {
      "inputs": [],
      "name": "STETH_REDEMPTION_PROTOCOL",
      "outputs": [
        {
          "internalType": "contract IStETHRedemptionProtocol",
          "name": "",
          "type": "address"
        }
      ],
      "stateMutability": "view",
      "type": "function"
    },
    {
      "inputs": [],
      "name": "TEAM_MULTISIG",
      "outputs": [
        {
          "internalType": "address",
          "name": "",
          "type": "address"
        }
      ],
      "stateMutability": "view",
      "type": "function"
    },
    {
      "inputs": [],
      "name": "TEAM_MULTISIG_2",
      "outputs": [
        {
          "internalType": "address",
          "name": "",
          "type": "address"
        }
      ],
      "stateMutability": "view",
      "type": "function"
    },
    {
      "inputs": [],
      "name": "TIMELOCK",
      "outputs": [
        {
          "internalType": "contract ITimelock",
          "name": "",
          "type": "address"
        }
      ],
      "stateMutability": "view",
      "type": "function"
    },
    {
      "inputs": [],
      "name": "TREASURY",
      "outputs": [
        {
          "internalType": "contract IDSAV2",
          "name": "",
          "type": "address"
        }
      ],
      "stateMutability": "view",
      "type": "function"
    },
    {
      "inputs": [],
      "name": "VAULT_FACTORY",
      "outputs": [
        {
          "internalType": "contract IFluidVaultFactory",
          "name": "",
          "type": "address"
        }
      ],
      "stateMutability": "view",
      "type": "function"
    },
    {
      "inputs": [],
      "name": "VAULT_PST_USDC_ID",
      "outputs": [
        {
          "internalType": "uint256",
          "name": "",
          "type": "uint256"
        }
      ],
      "stateMutability": "view",
      "type": "function"
    },
    {
      "inputs": [],
      "name": "VAULT_PST_USDC__USDC_ID",
      "outputs": [
        {
          "internalType": "uint256",
          "name": "",
          "type": "uint256"
        }
      ],
      "stateMutability": "view",
      "type": "function"
    },
    {
      "inputs": [],
      "name": "VAULT_PST_USDC__USDC_USDT_ID",
      "outputs": [
        {
          "internalType": "uint256",
          "name": "",
          "type": "uint256"
        }
      ],
      "stateMutability": "view",
      "type": "function"
    },
    {
      "inputs": [],
      "name": "VAULT_PST_USDT_ID",
      "outputs": [
        {
          "internalType": "uint256",
          "name": "",
          "type": "uint256"
        }
      ],
      "stateMutability": "view",
      "type": "function"
    },
    {
      "inputs": [],
      "name": "VAULT_PST__USDC_USDT_ID",
      "outputs": [
        {
          "internalType": "uint256",
          "name": "",
          "type": "uint256"
        }
      ],
      "stateMutability": "view",
      "type": "function"
    },
    {
      "inputs": [],
      "name": "XAUT_USD_PRICE",
      "outputs": [
        {
          "internalType": "uint256",
          "name": "",
          "type": "uint256"
        }
      ],
      "stateMutability": "pure",
      "type": "function"
    },
    {
      "inputs": [
        {
          "internalType": "uint256",
          "name": "action_",
          "type": "uint256"
        }
      ],
      "name": "actionStatus",
      "outputs": [
        {
          "internalType": "bool",
          "name": "",
          "type": "bool"
        }
      ],
      "stateMutability": "view",
      "type": "function"
    },
    {
      "inputs": [],
      "name": "csUSDL_USD_PRICE",
      "outputs": [
        {
          "internalType": "uint256",
          "name": "",
          "type": "uint256"
        }
      ],
      "stateMutability": "pure",
      "type": "function"
    },
    {
      "inputs": [],
      "name": "execute",
      "outputs": [],
      "stateMutability": "nonpayable",
      "type": "function"
    },
    {
      "inputs": [],
      "name": "ezETH_USD_PRICE",
      "outputs": [
        {
          "internalType": "uint256",
          "name": "",
          "type": "uint256"
        }
      ],
      "stateMutability": "pure",
      "type": "function"
    },
    {
      "inputs": [
        {
          "internalType": "uint256",
          "name": "dexId_",
          "type": "uint256"
        }
      ],
      "name": "getDexAddress",
      "outputs": [
        {
          "internalType": "address",
          "name": "",
          "type": "address"
        }
      ],
      "stateMutability": "view",
      "type": "function"
    },
    {
      "inputs": [
        {
          "internalType": "address",
          "name": "token",
          "type": "address"
        }
      ],
      "name": "getFTokenAddress",
      "outputs": [
        {
          "internalType": "address",
          "name": "",
          "type": "address"
        }
      ],
      "stateMutability": "view",
      "type": "function"
    },
    {
      "inputs": [],
      "name": "getProposalCreationTime",
      "outputs": [
        {
          "internalType": "uint40",
          "name": "",
          "type": "uint40"
        }
      ],
      "stateMutability": "view",
      "type": "function"
    },
    {
      "inputs": [
        {
          "internalType": "address",
          "name": "token",
          "type": "address"
        },
        {
          "internalType": "uint256",
          "name": "amount",
          "type": "uint256"
        },
        {
          "internalType": "uint256",
          "name": "amountInUSD",
          "type": "uint256"
        },
        {
          "internalType": "bool",
          "name": "isSupply",
          "type": "bool"
        }
      ],
      "name": "getRawAmount",
      "outputs": [
        {
          "internalType": "uint256",
          "name": "",
          "type": "uint256"
        }
      ],
      "stateMutability": "view",
      "type": "function"
    },
    {
      "inputs": [
        {
          "internalType": "uint256",
          "name": "dexId_",
          "type": "uint256"
        }
      ],
      "name": "getSmartLendingAddress",
      "outputs": [
        {
          "internalType": "address",
          "name": "",
          "type": "address"
        }
      ],
      "stateMutability": "view",
      "type": "function"
    },
    {
      "inputs": [
        {
          "internalType": "uint256",
          "name": "vaultId_",
          "type": "uint256"
        }
      ],
      "name": "getVaultAddress",
      "outputs": [
        {
          "internalType": "address",
          "name": "",
          "type": "address"
        }
      ],
      "stateMutability": "view",
      "type": "function"
    },
    {
      "inputs": [],
      "name": "isProposalExecutable",
      "outputs": [
        {
          "internalType": "bool",
          "name": "",
          "type": "bool"
        }
      ],
      "stateMutability": "view",
      "type": "function"
    },
    {
      "inputs": [],
      "name": "mETH_USD_PRICE",
      "outputs": [
        {
          "internalType": "uint256",
          "name": "",
          "type": "uint256"
        }
      ],
      "stateMutability": "pure",
      "type": "function"
    },
    {
      "inputs": [
        {
          "internalType": "string",
          "name": "description",
          "type": "string"
        }
      ],
      "name": "propose",
      "outputs": [],
      "stateMutability": "nonpayable",
      "type": "function"
    },
    {
      "inputs": [],
      "name": "rsETH_USD_PRICE",
      "outputs": [
        {
          "internalType": "uint256",
          "name": "",
          "type": "uint256"
        }
      ],
      "stateMutability": "pure",
      "type": "function"
    },
    {
      "inputs": [],
      "name": "sUSDe_USD_PRICE",
      "outputs": [
        {
          "internalType": "uint256",
          "name": "",
          "type": "uint256"
        }
      ],
      "stateMutability": "pure",
      "type": "function"
    },
    {
      "inputs": [],
      "name": "sUSDs_USD_PRICE",
      "outputs": [
        {
          "internalType": "uint256",
          "name": "",
          "type": "uint256"
        }
      ],
      "stateMutability": "pure",
      "type": "function"
    },
    {
      "inputs": [
        {
          "internalType": "uint256[]",
          "name": "actionsToSkip_",
          "type": "uint256[]"
        }
      ],
      "name": "setActionsToSkip",
      "outputs": [],
      "stateMutability": "nonpayable",
      "type": "function"
    },
    {
      "inputs": [
        {
          "internalType": "uint40",
          "name": "proposalCreationTime_",
          "type": "uint40"
        }
      ],
      "name": "setProposalCreationTime",
      "outputs": [],
      "stateMutability": "nonpayable",
      "type": "function"
    },
    {
      "inputs": [],
      "name": "syrupUSDC_USD_PRICE",
      "outputs": [
        {
          "internalType": "uint256",
          "name": "",
          "type": "uint256"
        }
      ],
      "stateMutability": "pure",
      "type": "function"
    },
    {
      "inputs": [],
      "name": "syrupUSDT_USD_PRICE",
      "outputs": [
        {
          "internalType": "uint256",
          "name": "",
          "type": "uint256"
        }
      ],
      "stateMutability": "pure",
      "type": "function"
    },
    {
      "inputs": [
        {
          "internalType": "bool",
          "name": "isExecutable_",
          "type": "bool"
        }
      ],
      "name": "toggleExecutable",
      "outputs": [],
      "stateMutability": "nonpayable",
      "type": "function"
    },
    {
      "inputs": [],
      "name": "verifyProposal",
      "outputs": [],
      "stateMutability": "view",
      "type": "function"
    },
    {
      "inputs": [],
      "name": "weETH_USD_PRICE",
      "outputs": [
        {
          "internalType": "uint256",
          "name": "",
          "type": "uint256"
        }
      ],
      "stateMutability": "pure",
      "type": "function"
    },
    {
      "inputs": [],
      "name": "weETHs_USD_PRICE",
      "outputs": [
        {
          "internalType": "uint256",
          "name": "",
          "type": "uint256"
        }
      ],
      "stateMutability": "pure",
      "type": "function"
    },
    {
      "inputs": [],
      "name": "wstETH_USD_PRICE",
      "outputs": [
        {
          "internalType": "uint256",
          "name": "",
          "type": "uint256"
        }
      ],
      "stateMutability": "pure",
      "type": "function"
    },
    {
      "inputs": [],
      "name": "wstUSR_USD_PRICE",
      "outputs": [
        {
          "internalType": "uint256",
          "name": "",
          "type": "uint256"
        }
      ],
      "stateMutability": "pure",
      "type": "function"
    }
  ],
  "bytecode": "0x60a060405234801561000f575f80fd5b503060805260805161510661005d5f395f81816107d001528181611857015281816119d101528181611df101528181611ed4015281816134e601528181613b9f0152613d6601526151065ff3fe608060405234801561000f575f80fd5b50600436106103ea575f3560e01c8063798d5ba31161020b578063ae68032b1161011f578063c60dc265116100b4578063f53eddcc11610084578063f53eddcc1461080d578063f6370aa914610828578063f88ed60c14610831578063fb0ae9181461084c578063fcee0c981461085f575f80fd5b8063c60dc265146107b8578063cc025f7c146107cb578063daa2e9a2146107f2578063e6bd26a2146107fa575f80fd5b8063b8fd95e9116100ef578063b8fd95e914610786578063bc3301a81461078e578063bcbcc4e214610796578063bffa7f0f1461079d575f80fd5b8063ae68032b14610762578063b696649514610597578063b753428b1461076a578063b788f3a114610772575f80fd5b80639781a8ca116101a0578063a5caf0f611610170578063a5caf0f6146106f0578063a64f569314610712578063a90558361461072d578063aa98df3914610734578063ac1236f714610747575f80fd5b80639781a8ca146106a057806397b87b4a146106a95780639d3d2a78146106c45780639ef94737146106d7575f80fd5b8063841d2699116101db578063841d26991461064f57806395861bd71461066257806396bac9311461067d57806396db7d5c14610698575f80fd5b8063798d5ba3146105ff5780637aadef8b146106125780637e2f35fa1461062d57806383f5d77a14610648575f80fd5b806328787d001161030257806358f2552e116102975780636521e19f116102675780636521e19f146105cb57806366760d7d146104805780636dc0ae22146105d45780637000778e146105ef578063727a7c84146105f8575f80fd5b806358f2552e1461059757806361461954146105b257806362300732146105ba57806364e9d567146105c3575f80fd5b80633484818b116102d25780633484818b1461055057806348bbb5571461055957806353bc346714610574578063588c77e61461057c575f80fd5b806328787d001461051e5780632b54c373146105255780632d2c55651461052d5780632eebab9c14610548575f80fd5b80630e6a204c116103835780631392d4ee116103535780631392d4ee146104b7578063194c0e18146104d75780631bbc51a7146104e057806325ad7f4d146104e85780632861c7d114610503575f80fd5b80630e6a204c1461046d578063103f29071461048257806311ae7a141461049d57806312e366aa146104a4575f80fd5b80630b396e66116103be5780630b396e661461044c5780630bc9136e146104555780630c78d1d01461045d5780630de0660714610465575f80fd5b8062623d7d146103ee5780630251eb1114610409578063040e7a80146104115780630b0a1d9c14610419575b5f80fd5b6103f661087a565b6040519081526020015b60405180910390f35b6103f66108c9565b6103f6610913565b610434731f6b2bfdd5d1e6ade7b17027ff5300419a56ad6b81565b6040516001600160a01b039091168152602001610400565b62037aa06103f6565b6103f6608281565b6103f660a881565b6103f660a681565b61048061047b366004614852565b61095d565b005b61043473324c5dc1fc42c7a4d43d92df1eba58a54d13bf2d81565b607b6103f6565b6104346104b2366004614874565b6109cf565b60055465010000000000900460ff165b6040519015158152602001610400565b620407406103f6565b6103f6610a4a565b610434739efde135ca4832abf0408c44c6f5f370eb0f35e881565b6104347352aa899454998be5b000ad077a46bbe360f4e49781565b60646103f6565b6103f6610a94565b6104347328849d2b63fa8d361e5fc15cb8abb13019884d0981565b6103f660a981565b6206ed706103f6565b61043473e7eb63a8b6392481a9fdebb108cfd580dc8664d381565b6103f660a781565b610434735c43aac965ff230ac1cf63e924d0153291d78bad81565b61043473264786ef916af64a1db19f513f24a3681734ce9281565b610480610ade565b620340086103f6565b6103f6610b08565b62037e886103f6565b610434730204cd037b2ec03605cfdfe482d8e257c765fa1b81565b6206e9886103f6565b606c6103f6565b61048061060d36600461488b565b610b52565b610434732386dc45added673317ef068992f19421b481f4c81565b61043473059a94a72951c0ae1cc1ce3bf0db52421bbe821081565b60296103f6565b61043461065d366004614874565b610c7d565b61043473a0d3707c569ff8c87fa923d3823ec5d81c98be7881565b6104347354b91a0d94cb471f37f949c60f7fa7935b551d0381565b6103f6610cb7565b62757e206103f6565b6104347391716c4eda1fb55e84bf8b4c7085f84285c1908581565b6103f66106d236600461490e565b610cfa565b60055460405164ffffffffff9091168152602001610400565b6104c76106fe366004614874565b5f9081526006602052604090205460ff1690565b6104347397b0b3a8bdefe8cb9563a3c610019ad10db8ad1181565b60746103f6565b610480610742366004614969565b611594565b61043473b031913cb7ad81b8a4ba412b471c2da69bea410b81565b6103f6611a3a565b6103f6611a84565b6104345f805160206150b183398151915281565b6103f6602d81565b6103f6611ace565b606e6103f6565b61043473a45f7bd6a5ff45d31aace6bcd3d426d9328cea0181565b6104346107c6366004614a14565b611b18565b6104347f000000000000000000000000000000000000000000000000000000000000000081565b6103f660a581565b610434610808366004614874565b611c06565b61043473e57227c7d5900165344b190fc7aa580bceb53b9b81565b62038e286103f6565b610434733daff61fe5cfb1f1b4ea7fba8173a58532ef184181565b61048061085a366004614a2f565b611c40565b610434731e2e1aed876f67fe4fd54090fd7b8f57ce23421981565b60405162461bcd60e51b815260206004820152601760248201527f464c5549445f5553445f5052494345206e6f742073657400000000000000000060448201525f906064015b60405180910390fd5b60405162461bcd60e51b815260206004820152601860248201527f7765455448735f5553445f5052494345206e6f7420736574000000000000000060448201525f906064016108c0565b60405162461bcd60e51b815260206004820152601860248201527f4a52555344455f5553445f5052494345206e6f7420736574000000000000000060448201525f906064016108c0565b335f805160206150b1833981519152146109ad5760405162461bcd60e51b81526020600482015260116024820152706e6f742d7465616d2d6d756c746973696760781b60448201526064016108c0565b60058054911515650100000000000265ff000000000019909216919091179055565b604051630971b35560e11b8152600481018290525f907391716c4eda1fb55e84bf8b4c7085f84285c19085906312e366aa906024015b602060405180830381865afa158015610a20573d5f803e3d5ffd5b505050506040513d601f19601f82011682018060405250810190610a449190614a53565b92915050565b60405162461bcd60e51b815260206004820152601b60248201527f7379727570555344545f5553445f5052494345206e6f7420736574000000000060448201525f906064016108c0565b60405162461bcd60e51b815260206004820152601860248201527f63735553444c5f5553445f5052494345206e6f7420736574000000000000000060448201525f906064016108c0565b610ae6611d99565b610aee611ebb565b610af66134cd565b610afe613b86565b610b06613d4e565b565b60405162461bcd60e51b815260206004820152601760248201527f73555344735f5553445f5052494345206e6f742073657400000000000000000060448201525f906064016108c0565b335f805160206150b183398151915214610ba25760405162461bcd60e51b81526020600482015260116024820152706e6f742d7465616d2d6d756c746973696760781b60448201526064016108c0565b5f5b81811015610c785760065f848484818110610bc157610bc1614a6e565b602090810292909201358352508101919091526040015f205460ff16610c6657600160065f858585818110610bf857610bf8614a6e565b602090810292909201358352508101919091526040015f20805460ff191691151591909117905533838383818110610c3257610c32614a6e565b905060200201357f73d6986e29f26b55373edd4820203ff5e60986cb7a4b8456fb988f0aa546a2f060405160405180910390a35b80610c7081614a96565b915050610ba4565b505050565b60405163841d269960e01b8152600481018290525f9073e57227c7d5900165344b190fc7aa580bceb53b9b9063841d269990602401610a05565b60405162461bcd60e51b81526020600482015260166024820152751b51551217d554d117d4149250d1481b9bdd081cd95d60521b60448201525f906064016108c0565b5f8084118015610d0957505f83115b15610d565760405162461bcd60e51b815260206004820181905260248201527f626f74682075736420616e6420616d6f756e7420617265206e6f74207a65726f60448201526064016108c0565b5f8073eeeeeeeeeeeeeeeeeeeeeeeeeeeeeeeeeeeeeeed196001600160a01b03881601610d8d57620340085b91506012905061144b565b737f39c581f595b53c5cb19bd0b3f8da6c935e2c9f196001600160a01b03881601610dbb5762040740610d82565b73cd5fe23c85820f7b72d0926fc9b05b43e359b7ed196001600160a01b03881601610de95762038e28610d82565b73a1290d69c65a6fe4df752f95823fae25cb99e5a6196001600160a01b03881601610e175762037aa0610d82565b73917cee801a67f933f2e6b33fc0cd1ed2d5909d87196001600160a01b03881601610e4457610d826108c9565b73d5f7838f5c461feff7fe49ea5ebaf7728bb0adf9196001600160a01b03881601610e7157610d82610cb7565b73bf5495efe5db9ce00f80364c8b423567e58d210f196001600160a01b03881601610e9f5762037e88610d82565b73f1c9acdc66974dfb6decb12aa385b9cd01190e37196001600160a01b03881601610ecc57610d82611ace565b732260fac5e5542a773aa44fbcfedf7c193bc2c598196001600160a01b03881601610f015762757e205b91506008905061144b565b73cbb7c0000ab88b473b1f5afd9ef808440eed33be196001600160a01b03881601610f2f5762757e20610ef6565b7318084fba666a33d37592fa2633fd49a74dd93a87196001600160a01b03881601610f5d5762757e20610d82565b73657e8c867d8b37dcc18fa4caead9c45eb088c641196001600160a01b03881601610f8b5762757e20610ef6565b738236a87084f8b84306f72007f36f2618a5634493196001600160a01b03881601610fb95762757e20610ef6565b73a0b86991c6218b36c1d19d4a2e9eb0ce3606eb47196001600160a01b03881601610fec5760645b91506006905061144b565b73dac17f958d2ee523a2206206994597c13d831ec6196001600160a01b03881601611018576064610fe1565b7340d16fc0246ad3160ccc09b8d0d3a2cd28ae6c2e196001600160a01b03881601611044576064610d82565b734c9edd5852cd905f086c759e8383e09bff1e68b2196001600160a01b03881601611070576064610d82565b7315700b564ca08d9439c58ca5053166e8317aa137196001600160a01b0388160161109c576064610d82565b7366a1e37c9b0eaddca17d3662d6c05f4decf3e10f196001600160a01b038816016110c8576064610d82565b7373a15fed60bf67631dc6cd7bc5b6e8da8190acf4196001600160a01b038816016110f4576064610d82565b73085780639cc2cacd35e474e71f4d000e2405d8f5196001600160a01b03881601611120576064610d82565b73b01dd87b29d187f3e3a4bf6cdaebfb97f3d9ab97196001600160a01b0388160161114c576064610d82565b7348f9e38f3070ad8945dfeae3fa70987722e3d89b196001600160a01b03881601611178576064610d82565b73c139190f447e929f090edeb554d95abb8b18ac1b196001600160a01b038816016111a4576064610d82565b739d39a5de30e57443bff2a8307a4256c8797a3496196001600160a01b038816016111d057607b610d82565b73a3931d71877c0e7a3148cb7eb4463524fec27fbc196001600160a01b038816016111fd57610d82610b08565b73356b8d89c1e1239cbbb9de4815c39a1474d5ba7c196001600160a01b0388160161122a57610fe1610a4a565b7380ac24aa929eaf5013f6436cda2a7ba190f5cc0a196001600160a01b03881601611256576074610fe1565b735086bf358635b81d8c47c66d1c8b9e567db70c71196001600160a01b0388160161128257606c610d82565b7322ae3d9a738471f405169af055d31c687087d4c6196001600160a01b038816016112ae57606e610fe1565b73beefc011e94f43b8b7b455ebab290c7ab4e216f0196001600160a01b038816016112db57610d82610a94565b73c58d044404d8b14e953c115e67823784dea53d8e196001600160a01b0388160161130857610d82610913565b733d7d6fdf07ee548b939a80edbc9b2256d0cdc002196001600160a01b0388160161133557610d82611a84565b731202f5c7b4b9e47a1a484e8b270be34dbbc75054196001600160a01b0388160161136257610d82611a3a565b734956b52ae2ff65d74ca2d61207523288e4528f95196001600160a01b0388160161138e576029610d82565b736f40d4a6237c257fff2db00fa0510deeecd303ea196001600160a01b038816016113bb57610d8261087a565b7368749665ff8d2d112fa859aa293f07a622782f37196001600160a01b038816016113e9576206e988610fe1565b7345804880de22913dafe09f4980848ece6ecbaf77196001600160a01b03881601611417576206ed70610d82565b60405162461bcd60e51b81526020600482015260096024820152681b9bdd0b599bdd5b9960ba1b60448201526064016108c0565b604080516001600160a01b03891660208083019190915260058284015282518083038401815260608301938490528051910120632d71cdb960e21b90925260648101919091525f907352aa899454998be5b000ad077a46bbe360f4e4979063b5c736e490608401602060405180830381865afa1580156114cd573d5f803e3d5ffd5b505050506040513d601f19601f820116820180604052508101906114f19190614aae565b90505f806114fe83613fa2565b915091505f8761150e5781611510565b825b9050891561153f57806115288b64e8d4a51000614ac5565b6115329190614af0565b965050505050505061158c565b606461154b8288614ac5565b6115559190614af0565b61156086600a614bef565b61156f8b64e8d4a51000614ac5565b6115799190614ac5565b6115839190614af0565b96505050505050505b949350505050565b3373a45f7bd6a5ff45d31aace6bcd3d426d9328cea0114806115c25750335f805160206150b1833981519152145b806115e057503073059a94a72951c0ae1cc1ce3bf0db52421bbe8210145b806115fe575030739efde135ca4832abf0408c44c6f5f370eb0f35e8145b8061161c575030735c43aac965ff230ac1cf63e924d0153291d78bad145b8061163a575030733daff61fe5cfb1f1b4ea7fba8173a58532ef1841145b8061165857503073e7eb63a8b6392481a9fdebb108cfd580dc8664d3145b61169d5760405162461bcd60e51b81526020600482015260166024820152751b5cd9cb9cd95b99195c8b5b9bdd0b585b1b1bddd95960521b60448201526064016108c0565b6040805160018082528183019092525f9082602080830190803683370190505090505f8267ffffffffffffffff8111156116d9576116d9614955565b604051908082528060200260200182016040528015611702578160200160208202803683370190505b5090505f8367ffffffffffffffff81111561171f5761171f614955565b60405190808252806020026020018201604052801561175257816020015b606081526020019060019003908161173d5790505b5090505f8467ffffffffffffffff81111561176f5761176f614955565b6040519080825280602002602001820160405280156117a257816020015b606081526020019060019003908161178d5790505b509050732386dc45added673317ef068992f19421b481f4c845f815181106117cc576117cc614a6e565b60200260200101906001600160a01b031690816001600160a01b0316815250505f835f815181106117ff576117ff614a6e565b60200260200101818152505060405180606001604052806024815260200161508d60249139825f8151811061183657611836614a6e565b602090810291909101810191909152604080515f8152918201815261187e917f0000000000000000000000000000000000000000000000000000000000000000918101614c3d565b604051602081830303815290604052815f8151811061189f5761189f614a6e565b6020908102919091010152604051636d4ab48d60e11b81525f90730204cd037b2ec03605cfdfe482d8e257c765fa1b9063da95691a906118eb9088908890889088908e90600401614d40565b6020604051808303815f875af1158015611907573d5f803e3d5ffd5b505050506040513d601f19601f8201168201806040525081019061192b9190614aae565b9050608281146119745760405162461bcd60e51b815260206004820152601460248201527350524f504f53414c5f49535f4e4f545f53414d4560601b60448201526064016108c0565b3373a45f7bd6a5ff45d31aace6bcd3d426d9328cea0114806119a25750335f805160206150b1833981519152145b156119b5576119b042611c40565b611a31565b604051631f615d2360e31b815264ffffffffff421660048201527f00000000000000000000000000000000000000000000000000000000000000006001600160a01b03169063fb0ae918906024015f604051808303815f87803b158015611a1a575f80fd5b505af1158015611a2c573d5f803e3d5ffd5b505050505b50505050505050565b60405162461bcd60e51b815260206004820152601860248201527f7773745553525f5553445f5052494345206e6f7420736574000000000000000060448201525f906064016108c0565b60405162461bcd60e51b815260206004820152601860248201527f5352555344455f5553445f5052494345206e6f7420736574000000000000000060448201525f906064016108c0565b60405162461bcd60e51b815260206004820152601760248201527f4f534554485f5553445f5052494345206e6f742073657400000000000000000060448201525f906064016108c0565b5f73c02aaa39b223fe8d0a0e5c4f27ead9083c756cc1196001600160a01b03831601611ba7576040805163bb4a64d360e01b81526001600160a01b03841660048201526024810191909152601060448201526f4e6174697665556e6465726c79696e6760801b60648201527354b91a0d94cb471f37f949c60f7fa7935b551d039063bb4a64d390608401610a05565b6040805163bb4a64d360e01b81526001600160a01b038416600482015260248101919091526006604482015265332a37b5b2b760d11b60648201527354b91a0d94cb471f37f949c60f7fa7935b551d039063bb4a64d390608401610a05565b60405163735e935160e11b8152600481018290525f9073324c5dc1fc42c7a4d43d92df1eba58a54d13bf2d9063e6bd26a290602401610a05565b3373a45f7bd6a5ff45d31aace6bcd3d426d9328cea011480611c6e5750335f805160206150b1833981519152145b80611c8c57503373059a94a72951c0ae1cc1ce3bf0db52421bbe8210145b80611caa575033739efde135ca4832abf0408c44c6f5f370eb0f35e8145b80611cc8575033735c43aac965ff230ac1cf63e924d0153291d78bad145b80611ce6575033733daff61fe5cfb1f1b4ea7fba8173a58532ef1841145b80611d0457503373e7eb63a8b6392481a9fdebb108cfd580dc8664d3145b611d495760405162461bcd60e51b81526020600482015260166024820152751b5cd9cb9cd95b99195c8b5b9bdd0b585b1b1bddd95960521b60448201526064016108c0565b6005805464ffffffffff191664ffffffffff83169081179091556040519081527fc63b190684342aebf3bbf9112171a1da60123c5f3035abfe69043e5b985bb74a9060200160405180910390a150565b30732386dc45added673317ef068992f19421b481f4c14611def5760405162461bcd60e51b815260206004820152601060248201526f3737ba16bb30b634b216b1b0b63632b960811b60448201526064016108c0565b7f00000000000000000000000000000000000000000000000000000000000000006001600160a01b0316631392d4ee6040518163ffffffff1660e01b8152600401602060405180830381865afa158015611e4b573d5f803e3d5ffd5b505050506040513d601f19601f82011682018060405250810190611e6f9190614ded565b610b065760405162461bcd60e51b815260206004820152601760248201527f70726f706f73616c2d6e6f742d65786563757461626c6500000000000000000060448201526064016108c0565b6040516352e5787b60e11b8152600160048201819052907f00000000000000000000000000000000000000000000000000000000000000006001600160a01b03169063a5caf0f690602401602060405180830381865afa158015611f21573d5f803e3d5ffd5b505050506040513d601f19601f82011682018060405250810190611f459190614ded565b6134ca576040805160168082526102e082019092525f91602082016102c08036833701905050905073a0b86991c6218b36c1d19d4a2e9eb0ce3606eb48815f81518110611f9457611f94614a6e565b60200260200101906001600160a01b031690816001600160a01b03168152505073eeeeeeeeeeeeeeeeeeeeeeeeeeeeeeeeeeeeeeee81600181518110611fdc57611fdc614a6e565b60200260200101906001600160a01b031690816001600160a01b03168152505073dac17f958d2ee523a2206206994597c13d831ec78160028151811061202457612024614a6e565b60200260200101906001600160a01b031690816001600160a01b031681525050737f39c581f595b53c5cb19bd0b3f8da6c935e2ca08160038151811061206c5761206c614a6e565b60200260200101906001600160a01b031690816001600160a01b03168152505073cbb7c0000ab88b473b1f5afd9ef808440eed33bf816004815181106120b4576120b4614a6e565b60200260200101906001600160a01b031690816001600160a01b0316815250507340d16fc0246ad3160ccc09b8d0d3a2cd28ae6c2f816005815181106120fc576120fc614a6e565b60200260200101906001600160a01b031690816001600160a01b031681525050734c9edd5852cd905f086c759e8383e09bff1e68b38160068151811061214457612144614a6e565b60200260200101906001600160a01b031690816001600160a01b031681525050732260fac5e5542a773aa44fbcfedf7c193bc2c5998160078151811061218c5761218c614a6e565b60200260200101906001600160a01b031690816001600160a01b03168152505073cd5fe23c85820f7b72d0926fc9b05b43e359b7ee816008815181106121d4576121d4614a6e565b60200260200101906001600160a01b031690816001600160a01b0316815250507380ac24aa929eaf5013f6436cda2a7ba190f5cc0b8160098151811061221c5761221c614a6e565b60200260200101906001600160a01b031690816001600160a01b031681525050739d39a5de30e57443bff2a8307a4256c8797a349781600a8151811061226457612264614a6e565b60200260200101906001600160a01b031690816001600160a01b0316815250507368749665ff8d2d112fa859aa293f07a622782f3881600b815181106122ac576122ac614a6e565b60200260200101906001600160a01b031690816001600160a01b03168152505073c139190f447e929f090edeb554d95abb8b18ac1c81600c815181106122f4576122f4614a6e565b60200260200101906001600160a01b031690816001600160a01b0316815250507345804880de22913dafe09f4980848ece6ecbaf7881600d8151811061233c5761233c614a6e565b60200260200101906001600160a01b031690816001600160a01b03168152505073a1290d69c65a6fe4df752f95823fae25cb99e5a781600e8151811061238457612384614a6e565b60200260200101906001600160a01b031690816001600160a01b03168152505073bf5495efe5db9ce00f80364c8b423567e58d211081600f815181106123cc576123cc614a6e565b60200260200101906001600160a01b031690816001600160a01b031681525050734956b52ae2ff65d74ca2d61207523288e4528f968160108151811061241457612414614a6e565b60200260200101906001600160a01b031690816001600160a01b031681525050735086bf358635b81d8c47c66d1c8b9e567db70c728160118151811061245c5761245c614a6e565b60200260200101906001600160a01b031690816001600160a01b0316815250507373a15fed60bf67631dc6cd7bc5b6e8da8190acf5816012815181106124a4576124a4614a6e565b60200260200101906001600160a01b031690816001600160a01b03168152505073657e8c867d8b37dcc18fa4caead9c45eb088c642816013815181106124ec576124ec614a6e565b60200260200101906001600160a01b031690816001600160a01b031681525050738236a87084f8b84306f72007f36f2618a56344948160148151811061253457612534614a6e565b60200260200101906001600160a01b031690816001600160a01b03168152505073085780639cc2cacd35e474e71f4d000e2405d8f68160158151811061257c5761257c614a6e565b6001600160a01b039092166020928302919091019091015260405163564315fd60e11b81527352aa899454998be5b000ad077a46bbe360f4e4979063ac862bfa906125cb908490600401614e08565b5f604051808303815f87803b1580156125e2575f80fd5b505af11580156125f4573d5f803e3d5ffd5b50506040805160168082526102e0820190925273264786ef916af64a1db19f513f24a3681734ce9293505f925090602082016102c080368337019050506040516370a0823160e01b81526001600160a01b0384166004820152909150600a9073a0b86991c6218b36c1d19d4a2e9eb0ce3606eb48906370a0823190602401602060405180830381865afa15801561268d573d5f803e3d5ffd5b505050506040513d601f19601f820116820180604052508101906126b19190614aae565b6126bb9190614e1a565b815f815181106126cd576126cd614a6e565b60209081029190910101526126f467016345785d8a00006001600160a01b03841631614e1a565b8160018151811061270757612707614a6e565b60209081029190910101526040516370a0823160e01b81526001600160a01b0383166004820152600a9073dac17f958d2ee523a2206206994597c13d831ec7906370a0823190602401602060405180830381865afa15801561276b573d5f803e3d5ffd5b505050506040513d601f19601f8201168201806040525081019061278f9190614aae565b6127999190614e1a565b816002815181106127ac576127ac614a6e565b60209081029190910101526040516370a0823160e01b81526001600160a01b038316600482015267016345785d8a000090737f39c581f595b53c5cb19bd0b3f8da6c935e2ca0906370a0823190602401602060405180830381865afa158015612817573d5f803e3d5ffd5b505050506040513d601f19601f8201168201806040525081019061283b9190614aae565b6128459190614e1a565b8160038151811061285857612858614a6e565b60209081029190910101526040516370a0823160e01b81526001600160a01b0383166004820152600a9073cbb7c0000ab88b473b1f5afd9ef808440eed33bf906370a0823190602401602060405180830381865afa1580156128bc573d5f803e3d5ffd5b505050506040513d601f19601f820116820180604052508101906128e09190614aae565b6128ea9190614e1a565b816004815181106128fd576128fd614a6e565b60209081029190910101526040516370a0823160e01b81526001600160a01b038316600482015267016345785d8a0000907340d16fc0246ad3160ccc09b8d0d3a2cd28ae6c2f906370a0823190602401602060405180830381865afa158015612968573d5f803e3d5ffd5b505050506040513d601f19601f8201168201806040525081019061298c9190614aae565b6129969190614e1a565b816005815181106129a9576129a9614a6e565b60209081029190910101526040516370a0823160e01b81526001600160a01b038316600482015267016345785d8a000090734c9edd5852cd905f086c759e8383e09bff1e68b3906370a0823190602401602060405180830381865afa158015612a14573d5f803e3d5ffd5b505050506040513d601f19601f82011682018060405250810190612a389190614aae565b612a429190614e1a565b81600681518110612a5557612a55614a6e565b60209081029190910101526040516370a0823160e01b81526001600160a01b0383166004820152600a90732260fac5e5542a773aa44fbcfedf7c193bc2c599906370a0823190602401602060405180830381865afa158015612ab9573d5f803e3d5ffd5b505050506040513d601f19601f82011682018060405250810190612add9190614aae565b612ae79190614e1a565b81600781518110612afa57612afa614a6e565b60209081029190910101526040516370a0823160e01b81526001600160a01b038316600482015267016345785d8a00009073cd5fe23c85820f7b72d0926fc9b05b43e359b7ee906370a0823190602401602060405180830381865afa158015612b65573d5f803e3d5ffd5b505050506040513d601f19601f82011682018060405250810190612b899190614aae565b612b939190614e1a565b81600881518110612ba657612ba6614a6e565b60209081029190910101526040516370a0823160e01b81526001600160a01b0383166004820152600a907380ac24aa929eaf5013f6436cda2a7ba190f5cc0b906370a0823190602401602060405180830381865afa158015612c0a573d5f803e3d5ffd5b505050506040513d601f19601f82011682018060405250810190612c2e9190614aae565b612c389190614e1a565b81600981518110612c4b57612c4b614a6e565b60209081029190910101526040516370a0823160e01b81526001600160a01b038316600482015267016345785d8a000090739d39a5de30e57443bff2a8307a4256c8797a3497906370a0823190602401602060405180830381865afa158015612cb6573d5f803e3d5ffd5b505050506040513d601f19601f82011682018060405250810190612cda9190614aae565b612ce49190614e1a565b81600a81518110612cf757612cf7614a6e565b60209081029190910101526040516370a0823160e01b81526001600160a01b0383166004820152600a907368749665ff8d2d112fa859aa293f07a622782f38906370a0823190602401602060405180830381865afa158015612d5b573d5f803e3d5ffd5b505050506040513d601f19601f82011682018060405250810190612d7f9190614aae565b612d899190614e1a565b81600b81518110612d9c57612d9c614a6e565b60209081029190910101526040516370a0823160e01b81526001600160a01b038316600482015267016345785d8a00009073c139190f447e929f090edeb554d95abb8b18ac1c906370a0823190602401602060405180830381865afa158015612e07573d5f803e3d5ffd5b505050506040513d601f19601f82011682018060405250810190612e2b9190614aae565b612e359190614e1a565b81600c81518110612e4857612e48614a6e565b60209081029190910101526040516370a0823160e01b81526001600160a01b038316600482015267016345785d8a0000907345804880de22913dafe09f4980848ece6ecbaf78906370a0823190602401602060405180830381865afa158015612eb3573d5f803e3d5ffd5b505050506040513d601f19601f82011682018060405250810190612ed79190614aae565b612ee19190614e1a565b81600d81518110612ef457612ef4614a6e565b60209081029190910101526040516370a0823160e01b81526001600160a01b038316600482015267016345785d8a00009073a1290d69c65a6fe4df752f95823fae25cb99e5a7906370a0823190602401602060405180830381865afa158015612f5f573d5f803e3d5ffd5b505050506040513d601f19601f82011682018060405250810190612f839190614aae565b612f8d9190614e1a565b81600e81518110612fa057612fa0614a6e565b60209081029190910101526040516370a0823160e01b81526001600160a01b038316600482015267016345785d8a00009073bf5495efe5db9ce00f80364c8b423567e58d2110906370a0823190602401602060405180830381865afa15801561300b573d5f803e3d5ffd5b505050506040513d601f19601f8201168201806040525081019061302f9190614aae565b6130399190614e1a565b81600f8151811061304c5761304c614a6e565b60209081029190910101526040516370a0823160e01b81526001600160a01b038316600482015267016345785d8a000090734956b52ae2ff65d74ca2d61207523288e4528f96906370a0823190602401602060405180830381865afa1580156130b7573d5f803e3d5ffd5b505050506040513d601f19601f820116820180604052508101906130db9190614aae565b6130e59190614e1a565b816010815181106130f8576130f8614a6e565b60209081029190910101526040516370a0823160e01b81526001600160a01b038316600482015267016345785d8a000090735086bf358635b81d8c47c66d1c8b9e567db70c72906370a0823190602401602060405180830381865afa158015613163573d5f803e3d5ffd5b505050506040513d601f19601f820116820180604052508101906131879190614aae565b6131919190614e1a565b816011815181106131a4576131a4614a6e565b60209081029190910101526040516370a0823160e01b81526001600160a01b038316600482015267016345785d8a0000907373a15fed60bf67631dc6cd7bc5b6e8da8190acf5906370a0823190602401602060405180830381865afa15801561320f573d5f803e3d5ffd5b505050506040513d601f19601f820116820180604052508101906132339190614aae565b61323d9190614e1a565b8160128151811061325057613250614a6e565b60209081029190910101526040516370a0823160e01b81526001600160a01b0383166004820152600a9073657e8c867d8b37dcc18fa4caead9c45eb088c642906370a0823190602401602060405180830381865afa1580156132b4573d5f803e3d5ffd5b505050506040513d601f19601f820116820180604052508101906132d89190614aae565b6132e29190614e1a565b816013815181106132f5576132f5614a6e565b60209081029190910101526040516370a0823160e01b81526001600160a01b0383166004820152600a90738236a87084f8b84306f72007f36f2618a5634494906370a0823190602401602060405180830381865afa158015613359573d5f803e3d5ffd5b505050506040513d601f19601f8201168201806040525081019061337d9190614aae565b6133879190614e1a565b8160148151811061339a5761339a614a6e565b60209081029190910101526040516370a0823160e01b81526001600160a01b038316600482015267016345785d8a00009073085780639cc2cacd35e474e71f4d000e2405d8f6906370a0823190602401602060405180830381865afa158015613405573d5f803e3d5ffd5b505050506040513d601f19601f820116820180604052508101906134299190614aae565b6134339190614e1a565b8160158151811061344657613446614a6e565b6020908102919091010152604051631f70f8f560e11b815273264786ef916af64a1db19f513f24a3681734ce9290633ee1f1ea9061349990869085905f805160206150b183398151915290600401614e2d565b5f604051808303815f87803b1580156134b0575f80fd5b505af11580156134c2573d5f803e3d5ffd5b505050505050505b50565b6040516352e5787b60e11b8152600260048201819052907f00000000000000000000000000000000000000000000000000000000000000006001600160a01b03169063a5caf0f690602401602060405180830381865afa158015613533573d5f803e3d5ffd5b505050506040513d601f19601f820116820180604052508101906135579190614ded565b6134ca575f61356660026109cf565b90505f61357360a5611c06565b90505f6040518060e00160405280836001600160a01b031681526020015f60038111156135a2576135a2614e96565b81527322ae3d9a738471f405169af055d31c687087d4c7602082015273a0b86991c6218b36c1d19d4a2e9eb0ce3606eb486040820152611b5860608201819052608082015261232860a09091015290506135fb81614197565b604051637faa1d2160e01b815273b031913cb7ad81b8a4ba412b471c2da69bea410b90637faa1d21906136449085905f805160206150b183398151915290600190600401614eaa565b5f604051808303815f87803b15801561365b575f80fd5b505af115801561366d573d5f803e3d5ffd5b5050505050505f61367e60a6611c06565b90505f6040518060e00160405280836001600160a01b031681526020015f60038111156136ad576136ad614e96565b81527322ae3d9a738471f405169af055d31c687087d4c7602082015273dac17f958d2ee523a2206206994597c13d831ec76040820152611b5860608201819052608082015261232860a090910152905061370681614197565b604051637faa1d2160e01b815273b031913cb7ad81b8a4ba412b471c2da69bea410b90637faa1d219061374f9085905f805160206150b183398151915290600190600401614eaa565b5f604051808303815f87803b158015613766575f80fd5b505af1158015613778573d5f803e3d5ffd5b5050505050505f61378960a7611c06565b90505f6040518060e00160405280836001600160a01b03168152602001600160038111156137b9576137b9614e96565b81525f6020820181905273a0b86991c6218b36c1d19d4a2e9eb0ce3606eb4860408301526060820152611b58608082015261232860a09091015290506137fe81614197565b604051637faa1d2160e01b815273b031913cb7ad81b8a4ba412b471c2da69bea410b90637faa1d21906138479085905f805160206150b183398151915290600190600401614eaa565b5f604051808303815f87803b15801561385e575f80fd5b505af1158015613870573d5f803e3d5ffd5b5050505050505f61388160a8611c06565b90505f6040518060e00160405280836001600160a01b03168152602001600260038111156138b1576138b1614e96565b81527322ae3d9a738471f405169af055d31c687087d4c760208201525f60408201819052611b5860608301526080820181905260a09091015290506138f581614197565b604051637faa1d2160e01b815273b031913cb7ad81b8a4ba412b471c2da69bea410b90637faa1d219061393e9085905f805160206150b183398151915290600190600401614eaa565b5f604051808303815f87803b158015613955575f80fd5b505af1158015613967573d5f803e3d5ffd5b505050505f6040518060c00160405280856001600160a01b03168152602001846001600160a01b03168152602001610bb88152602001615460815260200168bdbc41e0348b300000815260200168f3f20b8dfa69d0000081525090506139cc8161435f565b5050505f6139da60a9611c06565b604051637faa1d2160e01b815290915073b031913cb7ad81b8a4ba412b471c2da69bea410b90637faa1d2190613a269084905f805160206150b183398151915290600190600401614eaa565b5f604051808303815f87803b158015613a3d575f80fd5b505af1158015613a4f573d5f803e3d5ffd5b505050505f6040518060c00160405280846001600160a01b03168152602001836001600160a01b03168152602001610bb88152602001615460815260200168bdbc41e0348b300000815260200168f3f20b8dfa69d000008152509050613ab48161435f565b50505f613ac1602d6109cf565b60408051610100810182526001600160a01b03831681527322ae3d9a738471f405169af055d31c687087d4c7602082015273a0b86991c6218b36c1d19d4a2e9eb0ce3606eb4891810191909152600160608201525f6080820181905261271060a083015260c0820181905260e0820152909150613b3d81614481565b604051630f18fc2760e31b81527391716c4eda1fb55e84bf8b4c7085f84285c19085906378c7e138906134999085905f805160206150b183398151915290600190600401614eaa565b6040516352e5787b60e11b8152600360048201819052907f00000000000000000000000000000000000000000000000000000000000000006001600160a01b03169063a5caf0f690602401602060405180830381865afa158015613bec573d5f803e3d5ffd5b505050506040513d601f19601f82011682018060405250810190613c109190614ded565b6134ca576040805160028082526060820183525f9260208301908036833750506040805160028082526060820183529394505f93909250906020830190803683370190505090506002825f81518110613c6b57613c6b614a6e565b602002602001019060ff16908160ff1681525050620e57e0815f81518110613c9557613c95614a6e565b602002602001018181525050600782600181518110613cb657613cb6614a6e565b602002602001019060ff16908160ff1681525050620e09c081600181518110613ce157613ce1614a6e565b60209081029190910101526040516307ac73b360e31b815273a0d3707c569ff8c87fa923d3823ec5d81c98be7890633d639d9890613d259085908590600401614ece565b5f604051808303815f87803b158015613d3c575f80fd5b505af1158015611a31573d5f803e3d5ffd5b6040516352e5787b60e11b81526004808201819052907f00000000000000000000000000000000000000000000000000000000000000006001600160a01b03169063a5caf0f690602401602060405180830381865afa158015613db3573d5f803e3d5ffd5b505050506040513d601f19601f82011682018060405250810190613dd79190614ded565b6134ca575f613e0673eeeeeeeeeeeeeeeeeeeeeeeeeeeeeeeeeeeeeeee69043c33c19375648000005f80610cfa565b6040805160018082528183019092529192505f9190816020015b613e286147fa565b815260200190600190039081613e205750506040805160e081018252731f6b2bfdd5d1e6ade7b17027ff5300419a56ad6b815273eeeeeeeeeeeeeeeeeeeeeeeeeeeeeeeeeeeeeeee602082015260019181018290525f6060820152608081019190915260a0810184905290915060c081016103e8613ea8856103e9614ac5565b613eb29190614af0565b815250815f81518110613ec757613ec7614a6e565b602090810291909101015260405162dc47c360e11b81527352aa899454998be5b000ad077a46bbe360f4e497906301b88f8690613f08908490600401614f27565b5f604051808303815f87803b158015613f1f575f80fd5b505af1158015613f31573d5f803e3d5ffd5b50506040516351fa075360e11b81526125e46004820152731f6b2bfdd5d1e6ade7b17027ff5300419a56ad6b945063a3f40ea693506024019150613f729050565b5f604051808303815f87803b158015613f89575f80fd5b505af1158015613f9b573d5f803e3d5ffd5b5050505050565b67ffffffffffffffff605b82901c811690609b83901c16811580613fc4575080155b15613fe757604051636a86ba8960e11b81526201117160048201526024016108c0565b61ffff8316603a84901c6401ffffffff16428181039160ea87901c617fff16911480614011575082155b8061401c5750806001145b1561402957505050915091565b64496cebb80084840283020484019350617fff60db87901c1692508260010361405457505050915091565b826001166001036140a95760019290921c91826c7e37be2022c0914b26800000008161408257614082614adc565b049250612710601e87901c613fff166b033b2e3c9fd0803ce80000008501020492506140d6565b60019290921c916305f5e100601e87901c613fff166127108501026b033b2e3c9fd0803ce8000000020492505b8060011660010361410d5760011c61271081016b033b2e3c9fd0803ce800000082028161410557614105614adc565b049050614143565b60011c61271081016b033b2e3c9fd0803ce800000082028161413157614131614adc565b046b033b2e3c9fd0803ce80000000390505b760a70c3c40a64e6c51999090b65f67d92400000000000008382026127100261ffff881691900402601087901c613fff16612710030292506801b5a660ea44b8000085840283020485019450505050915091565b5f816020015160038111156141ae576141ae614e96565b036141fd576040805160a08101825282516001600160a01b03908116825283830151166020820152611388918101919091526154606060820152608080830151908201526141fb816145e4565b505b5f8160200151600381111561421457614214614e96565b03614279575f6040518060c00160405280835f01516001600160a01b0316815260200183606001516001600160a01b03168152602001611388815260200161546081526020018360a0015181526020018360c001518152509050614277816146f6565b505b60018160200151600381111561429157614291614e96565b036142f6575f6040518060c00160405280835f01516001600160a01b0316815260200183606001516001600160a01b03168152602001610bb8815260200161546081526020018360a0015181526020018360c0015181525090506142f4816146f6565b505b60028160200151600381111561430e5761430e614e96565b036134ca576040805160a08101825282516001600160a01b03908116825283830151166020820152610dac9181019190915261546060608201526080808301519082015261435b816145e4565b5050565b6040805160018082528183019092525f91816020015b6143ab6040518060a001604052805f6001600160a01b031681526020015f81526020015f81526020015f81526020015f81525090565b8152602001906001900390816143755790505090506040518060a0016040528083602001516001600160a01b031681526020018360400151815260200183606001518152602001836080015181526020018360a00151815250815f8151811061441657614416614a6e565b6020908102919091010152815160405163ba9af1e360e01b81526001600160a01b039091169063ba9af1e390614450908490600401614faa565b5f604051808303815f87803b158015614467575f80fd5b505af1158015614479573d5f803e3d5ffd5b505050505050565b80606001511561452a575f6040518060a00160405280835f01516001600160a01b0316815260200183602001516001600160a01b031681526020016113888152602001610e1081526020018360a0015181525090506144df816145e4565b6040805160a0808201835284516001600160a01b0390811683528584015116602083015261138892820192909252610e106060820152908301516080820152614527816145e4565b50505b8060800151156134ca575f6040518060c00160405280835f01516001600160a01b0316815260200183602001516001600160a01b031681526020016113888152602001610e1081526020018360c0015181526020018360e001518152509050614592816146f6565b6040805160c0808201835284516001600160a01b0390811683528584015116602083015261138892820192909252610e10606082015290830151608082015260e083015160a0820152610c78816146f6565b6040805160018082528183019092525f91816020015b6040805160c0810182525f8082526020808301829052928201819052606082018190526080820181905260a082015282525f199092019101816145fa5790505090506040518060c00160405280835f01516001600160a01b0316815260200183602001516001600160a01b03168152602001600160ff168152602001836040015181526020018360600151815260200161469f84602001515f86608001516001610cfa565b815250815f815181106146b4576146b4614a6e565b60209081029190910101526040516301635db560e11b81527352aa899454998be5b000ad077a46bbe360f4e497906302c6bb6a90614450908490600401615013565b6040805160018082528183019092525f91816020015b6147146147fa565b81526020019060019003908161470c5790505090506040518060e00160405280835f01516001600160a01b0316815260200183602001516001600160a01b03168152602001600160ff168152602001836040015181526020018360600151815260200161478b84602001515f86608001515f610cfa565b81526020016147a484602001515f8660a001515f610cfa565b815250815f815181106147b9576147b9614a6e565b602090810291909101015260405162dc47c360e11b81527352aa899454998be5b000ad077a46bbe360f4e497906301b88f8690614450908490600401614f27565b6040518060e001604052805f6001600160a01b031681526020015f6001600160a01b031681526020015f60ff1681526020015f81526020015f81526020015f81526020015f81525090565b80151581146134ca575f80fd5b5f60208284031215614862575f80fd5b813561486d81614845565b9392505050565b5f60208284031215614884575f80fd5b5035919050565b5f806020838503121561489c575f80fd5b823567ffffffffffffffff808211156148b3575f80fd5b818501915085601f8301126148c6575f80fd5b8135818111156148d4575f80fd5b8660208260051b85010111156148e8575f80fd5b60209290920196919550909350505050565b6001600160a01b03811681146134ca575f80fd5b5f805f8060808587031215614921575f80fd5b843561492c816148fa565b93506020850135925060408501359150606085013561494a81614845565b939692955090935050565b634e487b7160e01b5f52604160045260245ffd5b5f60208284031215614979575f80fd5b813567ffffffffffffffff80821115614990575f80fd5b818401915084601f8301126149a3575f80fd5b8135818111156149b5576149b5614955565b604051601f8201601f19908116603f011681019083821181831017156149dd576149dd614955565b816040528281528760208487010111156149f5575f80fd5b826020860160208301375f928101602001929092525095945050505050565b5f60208284031215614a24575f80fd5b813561486d816148fa565b5f60208284031215614a3f575f80fd5b813564ffffffffff8116811461486d575f80fd5b5f60208284031215614a63575f80fd5b815161486d816148fa565b634e487b7160e01b5f52603260045260245ffd5b634e487b7160e01b5f52601160045260245ffd5b5f60018201614aa757614aa7614a82565b5060010190565b5f60208284031215614abe575f80fd5b5051919050565b8082028115828204841417610a4457610a44614a82565b634e487b7160e01b5f52601260045260245ffd5b5f82614b0a57634e487b7160e01b5f52601260045260245ffd5b500490565b600181815b80851115614b4957815f1904821115614b2f57614b2f614a82565b80851615614b3c57918102915b93841c9390800290614b14565b509250929050565b5f82614b5f57506001610a44565b81614b6b57505f610a44565b8160018114614b815760028114614b8b57614ba7565b6001915050610a44565b60ff841115614b9c57614b9c614a82565b50506001821b610a44565b5060208310610133831016604e8410600b8410161715614bca575081810a610a44565b614bd48383614b0f565b805f1904821115614be757614be7614a82565b029392505050565b5f61486d8383614b51565b5f81518084525f5b81811015614c1e57602081850181015186830182015201614c02565b505f602082860101526020601f19601f83011685010191505092915050565b60018060a01b038316815260606020820152600960608201526865786563757465282960b81b608082015260a060408201525f61158c60a0830184614bfa565b5f8151808452602080850194508084015f5b83811015614cb45781516001600160a01b031687529582019590820190600101614c8f565b509495945050505050565b5f8151808452602080850194508084015f5b83811015614cb457815187529582019590820190600101614cd1565b5f81518084526020808501808196508360051b810191508286015f5b85811015614d33578284038952614d21848351614bfa565b98850198935090840190600101614d09565b5091979650505050505050565b60a081525f614d5260a0830188614c7d565b602083820381850152614d658289614cbf565b915083820360408501528187518084528284019150828160051b850101838a015f5b83811015614db557601f19878403018552614da3838351614bfa565b94860194925090850190600101614d87565b50508681036060880152614dc9818a614ced565b9450505050508281036080840152614de18185614bfa565b98975050505050505050565b5f60208284031215614dfd575f80fd5b815161486d81614845565b602081525f61486d6020830184614c7d565b81810381811115610a4457610a44614a82565b608081525f614e3f6080830186614c7d565b8281036020840152614e518186614cbf565b6001600160a01b03949094166040848101919091528385036060909401939093525050600e82526d05245534f4c5620434c45414e55560941b60208301520192915050565b634e487b7160e01b5f52602160045260245ffd5b6001600160a01b039384168152919092166020820152901515604082015260600190565b604080825283519082018190525f906020906060840190828701845b82811015614f0957815160ff1684529284019290840190600101614eea565b50505083810382850152614f1d8186614cbf565b9695505050505050565b602080825282518282018190525f919060409081850190868401855b82811015614d3357815180516001600160a01b0390811686528782015116878601528581015160ff1686860152606080820151908601526080808201519086015260a0808201519086015260c0908101519085015260e09093019290850190600101614f43565b602080825282518282018190525f919060409081850190868401855b82811015614d3357815180516001600160a01b0316855286810151878601528581015186860152606080820151908601526080908101519085015260a09093019290850190600101614fc6565b602080825282518282018190525f919060409081850190868401855b82811015614d3357815180516001600160a01b0390811686528782015116878601528581015160ff1686860152606080820151908601526080808201519086015260a0908101519085015260c0909301929085019060010161502f56fe657865637574655061796c6f616428616464726573732c737472696e672c6279746573290000000000000000000000004f6f977acdd1177dcd81ab83074855ecb9c2d49ea264697066735822122006a512811506517564e26f46c50bcc9eaf6feb486931d7c7eae6f8132561dd0b64736f6c63430008150033",
  "linkReferences": {},
  "deployedLinkReferences": {},
  "immutableReferences": {
    "1121": [
      {
        "length": 32,
        "start": 2000
      },
      {
        "length": 32,
        "start": 6231
      },
      {
        "length": 32,
        "start": 6609
      },
      {
        "length": 32,
        "start": 7665
      },
      {
        "length": 32,
        "start": 7892
      },
      {
        "length": 32,
        "start": 13542
      },
      {
        "length": 32,
        "start": 15263
      },
      {
        "length": 32,
        "start": 15718
      }
    ]
  },
  "inputSourceName": "project/contracts/payloads/IGP130/PayloadIGP130.sol",
  "buildInfoId": "solc-0_8_21-aecf8ac17713f664a576e190c318e30d44129e1b"
}