{
  "_format": "hh3-artifact-1",
  "contractName": "PayloadIGP134",
  "sourceName": "contracts/payloads/IGP134/PayloadIGP134.sol",
  "abi": [
    {
      "inputs": [
        {
          "internalType": "uint256",
          "name": "errorId_",
          "type": "uint256"
        }
      ],
      "name": "FluidLiquidityCalcsError",
      "type": "error"
    },
    {
      "anonymous": false,
      "inputs": [
        {
          "indexed": true,
          "internalType": "uint256",
          "name": "action",
          "type": "uint256"
        },
        {
          "indexed": true,
          "internalType": "address",
          "name": "by",
          "type": "address"
        }
      ],
      "name": "ActionSkipped",
      "type": "event"
    },
    {
      "anonymous": false,
      "inputs": [
        {
          "indexed": false,
          "internalType": "uint40",
          "name": "at",
          "type": "uint40"
        }
      ],
      "name": "ProposalCreationTimeSet",
      "type": "event"
    },
    {
      "inputs": [],
      "name": "ADDRESS_THIS",
      "outputs": [
        {
          "internalType": "address",
          "name": "",
          "type": "address"
        }
      ],
      "stateMutability": "view",
      "type": "function"
    },
    {
      "inputs": [],
      "name": "BTC_USD_PRICE",
      "outputs": [
        {
          "internalType": "uint256",
          "name": "",
          "type": "uint256"
        }
      ],
      "stateMutability": "pure",
      "type": "function"
    },
    {
      "inputs": [],
      "name": "DEX_FACTORY",
      "outputs": [
        {
          "internalType": "contract IFluidDexFactory",
          "name": "",
          "type": "address"
        }
      ],
      "stateMutability": "view",
      "type": "function"
    },
    {
      "inputs": [],
      "name": "DSA_CONNECTORS_V2",
      "outputs": [
        {
          "internalType": "contract IDSAConnectorsV2",
          "name": "",
          "type": "address"
        }
      ],
      "stateMutability": "view",
      "type": "function"
    },
    {
      "inputs": [],
      "name": "ETH_USD_PRICE",
      "outputs": [
        {
          "internalType": "uint256",
          "name": "",
          "type": "uint256"
        }
      ],
      "stateMutability": "pure",
      "type": "function"
    },
    {
      "inputs": [],
      "name": "FLUID_RESERVE",
      "outputs": [
        {
          "internalType": "contract IFluidReserveContract",
          "name": "",
          "type": "address"
        }
      ],
      "stateMutability": "view",
      "type": "function"
    },
    {
      "inputs": [],
      "name": "FLUID_USD_PRICE",
      "outputs": [
        {
          "internalType": "uint256",
          "name": "",
          "type": "uint256"
        }
      ],
      "stateMutability": "pure",
      "type": "function"
    },
    {
      "inputs": [],
      "name": "FLUID_VAULT_FACTORY_OWNER",
      "outputs": [
        {
          "internalType": "contract IFluidVaultFactory",
          "name": "",
          "type": "address"
        }
      ],
      "stateMutability": "view",
      "type": "function"
    },
    {
      "inputs": [],
      "name": "GOVERNOR",
      "outputs": [
        {
          "internalType": "contract IGovernorBravo",
          "name": "",
          "type": "address"
        }
      ],
      "stateMutability": "view",
      "type": "function"
    },
    {
      "inputs": [],
      "name": "IETHV2",
      "outputs": [
        {
          "internalType": "contract ILite",
          "name": "",
          "type": "address"
        }
      ],
      "stateMutability": "view",
      "type": "function"
    },
    {
      "inputs": [],
      "name": "JRUSDE_USD_PRICE",
      "outputs": [
        {
          "internalType": "uint256",
          "name": "",
          "type": "uint256"
        }
      ],
      "stateMutability": "pure",
      "type": "function"
    },
    {
      "inputs": [],
      "name": "LENDING_FACTORY",
      "outputs": [
        {
          "internalType": "contract IFluidLendingFactory",
          "name": "",
          "type": "address"
        }
      ],
      "stateMutability": "view",
      "type": "function"
    },
    {
      "inputs": [],
      "name": "LIQUIDITY",
      "outputs": [
        {
          "internalType": "contract IFluidLiquidityAdmin",
          "name": "",
          "type": "address"
        }
      ],
      "stateMutability": "view",
      "type": "function"
    },
    {
      "inputs": [],
      "name": "OSETH_USD_PRICE",
      "outputs": [
        {
          "internalType": "uint256",
          "name": "",
          "type": "uint256"
        }
      ],
      "stateMutability": "pure",
      "type": "function"
    },
    {
      "inputs": [],
      "name": "PAXG_USD_PRICE",
      "outputs": [
        {
          "internalType": "uint256",
          "name": "",
          "type": "uint256"
        }
      ],
      "stateMutability": "pure",
      "type": "function"
    },
    {
      "inputs": [],
      "name": "PROPOSAL_ID",
      "outputs": [
        {
          "internalType": "uint256",
          "name": "",
          "type": "uint256"
        }
      ],
      "stateMutability": "view",
      "type": "function"
    },
    {
      "inputs": [],
      "name": "PROPOSER",
      "outputs": [
        {
          "internalType": "address",
          "name": "",
          "type": "address"
        }
      ],
      "stateMutability": "view",
      "type": "function"
    },
    {
      "inputs": [],
      "name": "PROPOSER_AVO_MULTISIG",
      "outputs": [
        {
          "internalType": "address",
          "name": "",
          "type": "address"
        }
      ],
      "stateMutability": "view",
      "type": "function"
    },
    {
      "inputs": [],
      "name": "PROPOSER_AVO_MULTISIG_2",
      "outputs": [
        {
          "internalType": "address",
          "name": "",
          "type": "address"
        }
      ],
      "stateMutability": "view",
      "type": "function"
    },
    {
      "inputs": [],
      "name": "PROPOSER_AVO_MULTISIG_3",
      "outputs": [
        {
          "internalType": "address",
          "name": "",
          "type": "address"
        }
      ],
      "stateMutability": "view",
      "type": "function"
    },
    {
      "inputs": [],
      "name": "PROPOSER_AVO_MULTISIG_4",
      "outputs": [
        {
          "internalType": "address",
          "name": "",
          "type": "address"
        }
      ],
      "stateMutability": "view",
      "type": "function"
    },
    {
      "inputs": [],
      "name": "PROPOSER_AVO_MULTISIG_5",
      "outputs": [
        {
          "internalType": "address",
          "name": "",
          "type": "address"
        }
      ],
      "stateMutability": "view",
      "type": "function"
    },
    {
      "inputs": [],
      "name": "PST_USD_PRICE",
      "outputs": [
        {
          "internalType": "uint256",
          "name": "",
          "type": "uint256"
        }
      ],
      "stateMutability": "pure",
      "type": "function"
    },
    {
      "inputs": [],
      "name": "RESERVE_CONTRACT_PROXY",
      "outputs": [
        {
          "internalType": "address",
          "name": "",
          "type": "address"
        }
      ],
      "stateMutability": "view",
      "type": "function"
    },
    {
      "inputs": [],
      "name": "REUSD_USD_PRICE",
      "outputs": [
        {
          "internalType": "uint256",
          "name": "",
          "type": "uint256"
        }
      ],
      "stateMutability": "pure",
      "type": "function"
    },
    {
      "inputs": [],
      "name": "RLP_USD_PRICE",
      "outputs": [
        {
          "internalType": "uint256",
          "name": "",
          "type": "uint256"
        }
      ],
      "stateMutability": "pure",
      "type": "function"
    },
    {
      "inputs": [],
      "name": "SMART_LENDING_FACTORY",
      "outputs": [
        {
          "internalType": "contract IFluidSmartLendingFactory",
          "name": "",
          "type": "address"
        }
      ],
      "stateMutability": "view",
      "type": "function"
    },
    {
      "inputs": [],
      "name": "SRUSDE_USD_PRICE",
      "outputs": [
        {
          "internalType": "uint256",
          "name": "",
          "type": "uint256"
        }
      ],
      "stateMutability": "pure",
      "type": "function"
    },
    {
      "inputs": [],
      "name": "STABLE_USD_PRICE",
      "outputs": [
        {
          "internalType": "uint256",
          "name": "",
          "type": "uint256"
        }
      ],
      "stateMutability": "pure",
      "type": "function"
    },
    {
      "inputs": [],
      "name": "STETH_REDEMPTION_PROTOCOL",
      "outputs": [
        {
          "internalType": "contract IStETHRedemptionProtocol",
          "name": "",
          "type": "address"
        }
      ],
      "stateMutability": "view",
      "type": "function"
    },
    {
      "inputs": [],
      "name": "SUSDAI_USDC_DEX_ID",
      "outputs": [
        {
          "internalType": "uint256",
          "name": "",
          "type": "uint256"
        }
      ],
      "stateMutability": "view",
      "type": "function"
    },
    {
      "inputs": [],
      "name": "SUSDAI_USDT_DEX_ID",
      "outputs": [
        {
          "internalType": "uint256",
          "name": "",
          "type": "uint256"
        }
      ],
      "stateMutability": "view",
      "type": "function"
    },
    {
      "inputs": [],
      "name": "SUSDAI_USD_PRICE",
      "outputs": [
        {
          "internalType": "uint256",
          "name": "",
          "type": "uint256"
        }
      ],
      "stateMutability": "pure",
      "type": "function"
    },
    {
      "inputs": [],
      "name": "TEAM_MULTISIG",
      "outputs": [
        {
          "internalType": "address",
          "name": "",
          "type": "address"
        }
      ],
      "stateMutability": "view",
      "type": "function"
    },
    {
      "inputs": [],
      "name": "TEAM_MULTISIG_2",
      "outputs": [
        {
          "internalType": "address",
          "name": "",
          "type": "address"
        }
      ],
      "stateMutability": "view",
      "type": "function"
    },
    {
      "inputs": [],
      "name": "TIMELOCK",
      "outputs": [
        {
          "internalType": "contract ITimelock",
          "name": "",
          "type": "address"
        }
      ],
      "stateMutability": "view",
      "type": "function"
    },
    {
      "inputs": [],
      "name": "TREASURY",
      "outputs": [
        {
          "internalType": "contract IDSAV2",
          "name": "",
          "type": "address"
        }
      ],
      "stateMutability": "view",
      "type": "function"
    },
    {
      "inputs": [],
      "name": "USDAI_USDC_DEX_ID",
      "outputs": [
        {
          "internalType": "uint256",
          "name": "",
          "type": "uint256"
        }
      ],
      "stateMutability": "view",
      "type": "function"
    },
    {
      "inputs": [],
      "name": "VAULT_FACTORY",
      "outputs": [
        {
          "internalType": "contract IFluidVaultFactory",
          "name": "",
          "type": "address"
        }
      ],
      "stateMutability": "view",
      "type": "function"
    },
    {
      "inputs": [],
      "name": "VAULT_FACTORY_WRAPPER_OWNER",
      "outputs": [
        {
          "internalType": "contract IFluidVaultFactory",
          "name": "",
          "type": "address"
        }
      ],
      "stateMutability": "view",
      "type": "function"
    },
    {
      "inputs": [],
      "name": "VAULT_SUSDAI_GHO_ID",
      "outputs": [
        {
          "internalType": "uint256",
          "name": "",
          "type": "uint256"
        }
      ],
      "stateMutability": "view",
      "type": "function"
    },
    {
      "inputs": [],
      "name": "VAULT_SUSDAI_USDC_ID",
      "outputs": [
        {
          "internalType": "uint256",
          "name": "",
          "type": "uint256"
        }
      ],
      "stateMutability": "view",
      "type": "function"
    },
    {
      "inputs": [],
      "name": "VAULT_SUSDAI_USDC__USDC_ID",
      "outputs": [
        {
          "internalType": "uint256",
          "name": "",
          "type": "uint256"
        }
      ],
      "stateMutability": "view",
      "type": "function"
    },
    {
      "inputs": [],
      "name": "VAULT_SUSDAI_USDC__USDC_USDT_ID",
      "outputs": [
        {
          "internalType": "uint256",
          "name": "",
          "type": "uint256"
        }
      ],
      "stateMutability": "view",
      "type": "function"
    },
    {
      "inputs": [],
      "name": "VAULT_SUSDAI_USDT_ID",
      "outputs": [
        {
          "internalType": "uint256",
          "name": "",
          "type": "uint256"
        }
      ],
      "stateMutability": "view",
      "type": "function"
    },
    {
      "inputs": [],
      "name": "VAULT_SUSDAI_USDT__USDC_USDT_ID",
      "outputs": [
        {
          "internalType": "uint256",
          "name": "",
          "type": "uint256"
        }
      ],
      "stateMutability": "view",
      "type": "function"
    },
    {
      "inputs": [],
      "name": "VAULT_SUSDAI_USDT__USDT_ID",
      "outputs": [
        {
          "internalType": "uint256",
          "name": "",
          "type": "uint256"
        }
      ],
      "stateMutability": "view",
      "type": "function"
    },
    {
      "inputs": [],
      "name": "VAULT_SUSDAI__USDC_USDT_ID",
      "outputs": [
        {
          "internalType": "uint256",
          "name": "",
          "type": "uint256"
        }
      ],
      "stateMutability": "view",
      "type": "function"
    },
    {
      "inputs": [],
      "name": "VAULT_USDAI_USDC_ID",
      "outputs": [
        {
          "internalType": "uint256",
          "name": "",
          "type": "uint256"
        }
      ],
      "stateMutability": "view",
      "type": "function"
    },
    {
      "inputs": [],
      "name": "VAULT_USDAI_USDC__USDC_ID",
      "outputs": [
        {
          "internalType": "uint256",
          "name": "",
          "type": "uint256"
        }
      ],
      "stateMutability": "view",
      "type": "function"
    },
    {
      "inputs": [],
      "name": "XAUT_USD_PRICE",
      "outputs": [
        {
          "internalType": "uint256",
          "name": "",
          "type": "uint256"
        }
      ],
      "stateMutability": "pure",
      "type": "function"
    },
    {
      "inputs": [
        {
          "internalType": "uint256",
          "name": "action_",
          "type": "uint256"
        }
      ],
      "name": "actionStatus",
      "outputs": [
        {
          "internalType": "bool",
          "name": "",
          "type": "bool"
        }
      ],
      "stateMutability": "view",
      "type": "function"
    },
    {
      "inputs": [],
      "name": "csUSDL_USD_PRICE",
      "outputs": [
        {
          "internalType": "uint256",
          "name": "",
          "type": "uint256"
        }
      ],
      "stateMutability": "pure",
      "type": "function"
    },
    {
      "inputs": [],
      "name": "execute",
      "outputs": [],
      "stateMutability": "nonpayable",
      "type": "function"
    },
    {
      "inputs": [],
      "name": "ezETH_USD_PRICE",
      "outputs": [
        {
          "internalType": "uint256",
          "name": "",
          "type": "uint256"
        }
      ],
      "stateMutability": "pure",
      "type": "function"
    },
    {
      "inputs": [
        {
          "internalType": "uint256",
          "name": "dexId_",
          "type": "uint256"
        }
      ],
      "name": "getDexAddress",
      "outputs": [
        {
          "internalType": "address",
          "name": "",
          "type": "address"
        }
      ],
      "stateMutability": "view",
      "type": "function"
    },
    {
      "inputs": [
        {
          "internalType": "address",
          "name": "token",
          "type": "address"
        }
      ],
      "name": "getFTokenAddress",
      "outputs": [
        {
          "internalType": "address",
          "name": "",
          "type": "address"
        }
      ],
      "stateMutability": "view",
      "type": "function"
    },
    {
      "inputs": [],
      "name": "getProposalCreationTime",
      "outputs": [
        {
          "internalType": "uint40",
          "name": "",
          "type": "uint40"
        }
      ],
      "stateMutability": "view",
      "type": "function"
    },
    {
      "inputs": [
        {
          "internalType": "address",
          "name": "token",
          "type": "address"
        },
        {
          "internalType": "uint256",
          "name": "amount",
          "type": "uint256"
        },
        {
          "internalType": "uint256",
          "name": "amountInUSD",
          "type": "uint256"
        },
        {
          "internalType": "bool",
          "name": "isSupply",
          "type": "bool"
        }
      ],
      "name": "getRawAmount",
      "outputs": [
        {
          "internalType": "uint256",
          "name": "",
          "type": "uint256"
        }
      ],
      "stateMutability": "view",
      "type": "function"
    },
    {
      "inputs": [
        {
          "internalType": "uint256",
          "name": "dexId_",
          "type": "uint256"
        }
      ],
      "name": "getSmartLendingAddress",
      "outputs": [
        {
          "internalType": "address",
          "name": "",
          "type": "address"
        }
      ],
      "stateMutability": "view",
      "type": "function"
    },
    {
      "inputs": [
        {
          "internalType": "uint256",
          "name": "vaultId_",
          "type": "uint256"
        }
      ],
      "name": "getVaultAddress",
      "outputs": [
        {
          "internalType": "address",
          "name": "",
          "type": "address"
        }
      ],
      "stateMutability": "view",
      "type": "function"
    },
    {
      "inputs": [],
      "name": "isProposalExecutable",
      "outputs": [
        {
          "internalType": "bool",
          "name": "",
          "type": "bool"
        }
      ],
      "stateMutability": "view",
      "type": "function"
    },
    {
      "inputs": [],
      "name": "mETH_USD_PRICE",
      "outputs": [
        {
          "internalType": "uint256",
          "name": "",
          "type": "uint256"
        }
      ],
      "stateMutability": "pure",
      "type": "function"
    },
    {
      "inputs": [
        {
          "internalType": "string",
          "name": "description",
          "type": "string"
        }
      ],
      "name": "propose",
      "outputs": [],
      "stateMutability": "nonpayable",
      "type": "function"
    },
    {
      "inputs": [],
      "name": "rsETH_USD_PRICE",
      "outputs": [
        {
          "internalType": "uint256",
          "name": "",
          "type": "uint256"
        }
      ],
      "stateMutability": "pure",
      "type": "function"
    },
    {
      "inputs": [],
      "name": "sUSDe_USD_PRICE",
      "outputs": [
        {
          "internalType": "uint256",
          "name": "",
          "type": "uint256"
        }
      ],
      "stateMutability": "pure",
      "type": "function"
    },
    {
      "inputs": [],
      "name": "sUSDs_USD_PRICE",
      "outputs": [
        {
          "internalType": "uint256",
          "name": "",
          "type": "uint256"
        }
      ],
      "stateMutability": "pure",
      "type": "function"
    },
    {
      "inputs": [
        {
          "internalType": "uint256[]",
          "name": "actionsToSkip_",
          "type": "uint256[]"
        }
      ],
      "name": "setActionsToSkip",
      "outputs": [],
      "stateMutability": "nonpayable",
      "type": "function"
    },
    {
      "inputs": [
        {
          "internalType": "uint40",
          "name": "proposalCreationTime_",
          "type": "uint40"
        }
      ],
      "name": "setProposalCreationTime",
      "outputs": [],
      "stateMutability": "nonpayable",
      "type": "function"
    },
    {
      "inputs": [],
      "name": "syrupUSDC_USD_PRICE",
      "outputs": [
        {
          "internalType": "uint256",
          "name": "",
          "type": "uint256"
        }
      ],
      "stateMutability": "pure",
      "type": "function"
    },
    {
      "inputs": [],
      "name": "syrupUSDT_USD_PRICE",
      "outputs": [
        {
          "internalType": "uint256",
          "name": "",
          "type": "uint256"
        }
      ],
      "stateMutability": "pure",
      "type": "function"
    },
    {
      "inputs": [
        {
          "internalType": "bool",
          "name": "isExecutable_",
          "type": "bool"
        }
      ],
      "name": "toggleExecutable",
      "outputs": [],
      "stateMutability": "nonpayable",
      "type": "function"
    },
    {
      "inputs": [],
      "name": "verifyProposal",
      "outputs": [],
      "stateMutability": "view",
      "type": "function"
    },
    {
      "inputs": [],
      "name": "weETH_USD_PRICE",
      "outputs": [
        {
          "internalType": "uint256",
          "name": "",
          "type": "uint256"
        }
      ],
      "stateMutability": "pure",
      "type": "function"
    },
    {
      "inputs": [],
      "name": "weETHs_USD_PRICE",
      "outputs": [
        {
          "internalType": "uint256",
          "name": "",
          "type": "uint256"
        }
      ],
      "stateMutability": "pure",
      "type": "function"
    },
    {
      "inputs": [],
      "name": "wstETH_USD_PRICE",
      "outputs": [
        {
          "internalType": "uint256",
          "name": "",
          "type": "uint256"
        }
      ],
      "stateMutability": "pure",
      "type": "function"
    },
    {
      "inputs": [],
      "name": "wstUSR_USD_PRICE",
      "outputs": [
        {
          "internalType": "uint256",
          "name": "",
          "type": "uint256"
        }
      ],
      "stateMutability": "pure",
      "type": "function"
    }
  ],
  "bytecode": "0x60a060405234801561000f575f80fd5b50306080526080516146ee61005d5f395f818161084801528181611c5701528181611dd10152818161227d0152818161236001528181612e3b01528181613016015261325f01526146ee5ff3fe608060405234801561000f575f80fd5b506004361061044d575f3560e01c806383f5d77a11610242578063b753428b11610140578063f192f4c5116100bf578063f88ed60c11610084578063f88ed60c146108c0578063f90b914f146108db578063fb0ae918146108e3578063fb7727ca146108f6578063fcee0c98146108fe575f80fd5b8063f192f4c514610885578063f1989de51461088d578063f53eddcc14610895578063f6370aa9146108b0578063f6c5d304146108b8575f80fd5b8063bffa7f0f11610105578063bffa7f0f14610815578063c60dc26514610830578063cc025f7c14610843578063d6aaf3d21461086a578063e6bd26a214610872575f80fd5b8063b753428b146107e1578063b788f3a1146107e9578063bc3301a8146107fd578063bcbcc4e214610805578063bfb742e11461080d575f80fd5b80639d3d2a78116101cc578063aa98df3911610191578063aa98df39146107be578063ac1236f7146104bf578063ae68032b146107d1578063b225d9b1146107d9578063b69664951461060a575f80fd5b80639d3d2a781461074d5780639ef9473714610760578063a5caf0f614610779578063a64f56931461079b578063a9055836146107b6575f80fd5b806396bac9311161021257806396bac931146106ff57806396db7d5c1461071a5780639781a8ca1461072257806397b87b4a1461072a5780639993e75814610745575f80fd5b806383f5d77a146106c1578063841d2699146106c95780638e40b937146106dc57806395861bd7146106e4575f80fd5b80632b54c3731161034f57806364e9d567116102d9578063727a7c841161029e578063727a7c8414610668578063798d5ba3146106705780637a73bbc4146106835780637aadef8b1461068b5780637e2f35fa146106a6575f80fd5b806364e9d567146106355780636521e19f1461063d57806366760d7d146104ed5780636dc0ae22146106455780637000778e14610660575f80fd5b806348bbb5571161031f57806348bbb557146105d4578063588c77e6146105ef57806358f2552e1461060a5780636146195414610625578063623007321461062d575f80fd5b80632b54c373146105a15780632d2c5565146105a95780633484818b146105c4578063473dc4ab146105cc575f80fd5b806311ae7a14116103db5780631bbc51a7116103a05780631bbc51a71461055457806324e3f3d41461055c57806325ad7f4d146105645780632861c7d11461057f57806328787d001461059a575f80fd5b806311ae7a141461050a57806312e366aa146105125780631392d4ee14610525578063194c0e18146105455780631b7d757d1461054d575f80fd5b80630b396e66116104215780630b396e66146104af5780630bc9136e146104b75780630d67976f146104bf5780630e6a204c146104da578063103f2907146104ef575f80fd5b8062623d7d146104515780630251eb111461046c578063040e7a80146104745780630b0a1d9c1461047c575b5f80fd5b610459610919565b6040519081526020015b60405180910390f35b610459610968565b6104596109b2565b610497731f6b2bfdd5d1e6ade7b17027ff5300419a56ad6b81565b6040516001600160a01b039091168152602001610463565b6104596109fc565b610459608681565b61049773b031913cb7ad81b8a4ba412b471c2da69bea410b81565b6104ed6104e8366004613e6a565b610a46565b005b61049773324c5dc1fc42c7a4d43d92df1eba58a54d13bf2d81565b610459610ab8565b610497610520366004613e8c565b610b02565b60055465010000000000900460ff165b6040519015158152602001610463565b610459610b7d565b606d610459565b610459610bc7565b61045960b181565b610497739efde135ca4832abf0408c44c6f5f370eb0f35e881565b6104977352aa899454998be5b000ad077a46bbe360f4e49781565b6064610459565b610459610c11565b6104977328849d2b63fa8d361e5fc15cb8abb13019884d0981565b610459610c5b565b61045960ae81565b61049773e7eb63a8b6392481a9fdebb108cfd580dc8664d381565b610497735c43aac965ff230ac1cf63e924d0153291d78bad81565b61049773264786ef916af64a1db19f513f24a3681734ce9281565b6104ed610c9e565b610459610cc8565b610459610d0a565b610459610d54565b610497730204cd037b2ec03605cfdfe482d8e257c765fa1b81565b610459610d9e565b610459610de1565b6104ed61067e366004613ea3565b610e2b565b61045960ac81565b610497732386dc45added673317ef068992f19421b481f4c81565b61049773059a94a72951c0ae1cc1ce3bf0db52421bbe821081565b610459610f56565b6104976106d7366004613e8c565b610f98565b610459602f81565b61049773a0d3707c569ff8c87fa923d3823ec5d81c98be7881565b6104977354b91a0d94cb471f37f949c60f7fa7935b551d0381565b610459610fd2565b610459611015565b6104977391716c4eda1fb55e84bf8b4c7085f84285c1908581565b61045960b381565b61045961075b366004613f26565b611057565b60055460405164ffffffffff9091168152602001610463565b610535610787366004613e8c565b5f9081526006602052604090205460ff1690565b6104977397b0b3a8bdefe8cb9563a3c610019ad10db8ad1181565b61045961194a565b6104ed6107cc366004613f81565b611994565b610459611e3a565b61045960ab81565b610459611e84565b6104975f8051602061469983398151915281565b610459611ece565b610459611f18565b610459603081565b61049773a45f7bd6a5ff45d31aace6bcd3d426d9328cea0181565b61049761083e36600461402c565b611f5a565b6104977f000000000000000000000000000000000000000000000000000000000000000081565b61045960b081565b610497610880366004613e8c565b612048565b61045960b481565b61045960af81565b61049773e57227c7d5900165344b190fc7aa580bceb53b9b81565b610459612082565b61045960b281565b610497733daff61fe5cfb1f1b4ea7fba8173a58532ef184181565b610459602e81565b6104ed6108f1366004614047565b6120cc565b61045960ad81565b610497731e2e1aed876f67fe4fd54090fd7b8f57ce23421981565b60405162461bcd60e51b815260206004820152601760248201527f464c5549445f5553445f5052494345206e6f742073657400000000000000000060448201525f906064015b60405180910390fd5b60405162461bcd60e51b815260206004820152601860248201527f7765455448735f5553445f5052494345206e6f7420736574000000000000000060448201525f9060640161095f565b60405162461bcd60e51b815260206004820152601860248201527f4a52555344455f5553445f5052494345206e6f7420736574000000000000000060448201525f9060640161095f565b60405162461bcd60e51b815260206004820152601760248201527f72734554485f5553445f5052494345206e6f742073657400000000000000000060448201525f9060640161095f565b335f8051602061469983398151915214610a965760405162461bcd60e51b81526020600482015260116024820152706e6f742d7465616d2d6d756c746973696760781b604482015260640161095f565b60058054911515650100000000000265ff000000000019909216919091179055565b60405162461bcd60e51b815260206004820152601760248201527f73555344655f5553445f5052494345206e6f742073657400000000000000000060448201525f9060640161095f565b604051630971b35560e11b8152600481018290525f907391716c4eda1fb55e84bf8b4c7085f84285c19085906312e366aa906024015b602060405180830381865afa158015610b53573d5f803e3d5ffd5b505050506040513d601f19601f82011682018060405250810190610b77919061406b565b92915050565b60405162461bcd60e51b815260206004820152601860248201527f7773744554485f5553445f5052494345206e6f7420736574000000000000000060448201525f9060640161095f565b60405162461bcd60e51b815260206004820152601b60248201527f7379727570555344545f5553445f5052494345206e6f7420736574000000000060448201525f9060640161095f565b60405162461bcd60e51b815260206004820152601860248201527f63735553444c5f5553445f5052494345206e6f7420736574000000000000000060448201525f9060640161095f565b60405162461bcd60e51b815260206004820152601660248201527514105611d7d554d117d4149250d1481b9bdd081cd95d60521b60448201525f9060640161095f565b610ca6612225565b610cae612347565b610cb6612e22565b610cbe612ffd565b610cc6613247565b565b60405162461bcd60e51b815260206004820152601560248201527411551217d554d117d4149250d1481b9bdd081cd95d605a1b60448201525f9060640161095f565b60405162461bcd60e51b815260206004820152601760248201527f73555344735f5553445f5052494345206e6f742073657400000000000000000060448201525f9060640161095f565b60405162461bcd60e51b815260206004820152601760248201527f657a4554485f5553445f5052494345206e6f742073657400000000000000000060448201525f9060640161095f565b60405162461bcd60e51b81526020600482015260166024820152751610555517d554d117d4149250d1481b9bdd081cd95d60521b60448201525f9060640161095f565b60405162461bcd60e51b815260206004820152601760248201527f52455553445f5553445f5052494345206e6f742073657400000000000000000060448201525f9060640161095f565b335f8051602061469983398151915214610e7b5760405162461bcd60e51b81526020600482015260116024820152706e6f742d7465616d2d6d756c746973696760781b604482015260640161095f565b5f5b81811015610f515760065f848484818110610e9a57610e9a614086565b602090810292909201358352508101919091526040015f205460ff16610f3f57600160065f858585818110610ed157610ed1614086565b602090810292909201358352508101919091526040015f20805460ff191691151591909117905533838383818110610f0b57610f0b614086565b905060200201357f73d6986e29f26b55373edd4820203ff5e60986cb7a4b8456fb988f0aa546a2f060405160405180910390a35b80610f49816140ae565b915050610e7d565b505050565b60405162461bcd60e51b815260206004820152601560248201527414931417d554d117d4149250d1481b9bdd081cd95d605a1b60448201525f9060640161095f565b60405163841d269960e01b8152600481018290525f9073e57227c7d5900165344b190fc7aa580bceb53b9b9063841d269990602401610b38565b60405162461bcd60e51b81526020600482015260166024820152751b51551217d554d117d4149250d1481b9bdd081cd95d60521b60448201525f9060640161095f565b60405162461bcd60e51b8152602060048201526015602482015274109510d7d554d117d4149250d1481b9bdd081cd95d605a1b60448201525f9060640161095f565b5f808411801561106657505f83115b156110b35760405162461bcd60e51b815260206004820181905260248201527f626f74682075736420616e6420616d6f756e7420617265206e6f74207a65726f604482015260640161095f565b5f8073eeeeeeeeeeeeeeeeeeeeeeeeeeeeeeeeeeeeeeed196001600160a01b038816016110ed576110e2610cc8565b915060129050611801565b737f39c581f595b53c5cb19bd0b3f8da6c935e2c9f196001600160a01b0388160161111a576110e2610b7d565b73cd5fe23c85820f7b72d0926fc9b05b43e359b7ed196001600160a01b03881601611147576110e2612082565b73a1290d69c65a6fe4df752f95823fae25cb99e5a6196001600160a01b03881601611174576110e26109fc565b73917cee801a67f933f2e6b33fc0cd1ed2d5909d87196001600160a01b038816016111a1576110e2610968565b73d5f7838f5c461feff7fe49ea5ebaf7728bb0adf9196001600160a01b038816016111ce576110e2610fd2565b73bf5495efe5db9ce00f80364c8b423567e58d210f196001600160a01b038816016111fb576110e2610d54565b73f1c9acdc66974dfb6decb12aa385b9cd01190e37196001600160a01b03881601611228576110e2611ece565b732260fac5e5542a773aa44fbcfedf7c193bc2c598196001600160a01b0388160161126057611255611015565b915060089050611801565b73cbb7c0000ab88b473b1f5afd9ef808440eed33be196001600160a01b0388160161128d57611255611015565b7318084fba666a33d37592fa2633fd49a74dd93a87196001600160a01b038816016112ba576110e2611015565b73657e8c867d8b37dcc18fa4caead9c45eb088c641196001600160a01b038816016112e757611255611015565b738236a87084f8b84306f72007f36f2618a5634493196001600160a01b0388160161131457611255611015565b73a0b86991c6218b36c1d19d4a2e9eb0ce3606eb47196001600160a01b038816016113475760645b915060069050611801565b73dac17f958d2ee523a2206206994597c13d831ec6196001600160a01b0388160161137357606461133c565b7340d16fc0246ad3160ccc09b8d0d3a2cd28ae6c2e196001600160a01b0388160161139f5760646110e2565b734c9edd5852cd905f086c759e8383e09bff1e68b2196001600160a01b038816016113cb5760646110e2565b7315700b564ca08d9439c58ca5053166e8317aa137196001600160a01b038816016113f75760646110e2565b7366a1e37c9b0eaddca17d3662d6c05f4decf3e10f196001600160a01b038816016114235760646110e2565b7373a15fed60bf67631dc6cd7bc5b6e8da8190acf4196001600160a01b0388160161144f5760646110e2565b73085780639cc2cacd35e474e71f4d000e2405d8f5196001600160a01b0388160161147b5760646110e2565b73b01dd87b29d187f3e3a4bf6cdaebfb97f3d9ab97196001600160a01b038816016114a75760646110e2565b7348f9e38f3070ad8945dfeae3fa70987722e3d89b196001600160a01b038816016114d35760646110e2565b73c139190f447e929f090edeb554d95abb8b18ac1b196001600160a01b038816016114ff5760646110e2565b730a1a1a107e45b7ced86833863f482bc5f4ed82ee196001600160a01b0388160161152b5760646110e2565b739d39a5de30e57443bff2a8307a4256c8797a3496196001600160a01b03881601611558576110e2610ab8565b73a3931d71877c0e7a3148cb7eb4463524fec27fbc196001600160a01b03881601611585576110e2610d0a565b73356b8d89c1e1239cbbb9de4815c39a1474d5ba7c196001600160a01b038816016115b25761133c610bc7565b7380ac24aa929eaf5013f6436cda2a7ba190f5cc0a196001600160a01b038816016115df5761133c61194a565b735086bf358635b81d8c47c66d1c8b9e567db70c71196001600160a01b0388160161160c576110e2610de1565b7322ae3d9a738471f405169af055d31c687087d4c6196001600160a01b038816016116395761133c611f18565b730b2b2b2076d95dda7817e785989fe353fe955ef8196001600160a01b0388160161166557606d6110e2565b73beefc011e94f43b8b7b455ebab290c7ab4e216f0196001600160a01b03881601611692576110e2610c11565b73c58d044404d8b14e953c115e67823784dea53d8e196001600160a01b038816016116bf576110e26109b2565b733d7d6fdf07ee548b939a80edbc9b2256d0cdc002196001600160a01b038816016116ec576110e2611e84565b731202f5c7b4b9e47a1a484e8b270be34dbbc75054196001600160a01b03881601611719576110e2611e3a565b734956b52ae2ff65d74ca2d61207523288e4528f95196001600160a01b03881601611746576110e2610f56565b736f40d4a6237c257fff2db00fa0510deeecd303ea196001600160a01b03881601611773576110e2610919565b7368749665ff8d2d112fa859aa293f07a622782f37196001600160a01b038816016117a05761133c610d9e565b7345804880de22913dafe09f4980848ece6ecbaf77196001600160a01b038816016117cd576110e2610c5b565b60405162461bcd60e51b81526020600482015260096024820152681b9bdd0b599bdd5b9960ba1b604482015260640161095f565b604080516001600160a01b03891660208083019190915260058284015282518083038401815260608301938490528051910120632d71cdb960e21b90925260648101919091525f907352aa899454998be5b000ad077a46bbe360f4e4979063b5c736e490608401602060405180830381865afa158015611883573d5f803e3d5ffd5b505050506040513d601f19601f820116820180604052508101906118a791906140c6565b90505f806118b4836133f6565b915091505f876118c457816118c6565b825b905089156118f557806118de8b64e8d4a510006140dd565b6118e89190614108565b9650505050505050611942565b606461190182886140dd565b61190b9190614108565b61191686600a614207565b6119258b64e8d4a510006140dd565b61192f91906140dd565b6119399190614108565b96505050505050505b949350505050565b60405162461bcd60e51b815260206004820152601b60248201527f7379727570555344435f5553445f5052494345206e6f7420736574000000000060448201525f9060640161095f565b3373a45f7bd6a5ff45d31aace6bcd3d426d9328cea0114806119c25750335f80516020614699833981519152145b806119e057503073059a94a72951c0ae1cc1ce3bf0db52421bbe8210145b806119fe575030739efde135ca4832abf0408c44c6f5f370eb0f35e8145b80611a1c575030735c43aac965ff230ac1cf63e924d0153291d78bad145b80611a3a575030733daff61fe5cfb1f1b4ea7fba8173a58532ef1841145b80611a5857503073e7eb63a8b6392481a9fdebb108cfd580dc8664d3145b611a9d5760405162461bcd60e51b81526020600482015260166024820152751b5cd9cb9cd95b99195c8b5b9bdd0b585b1b1bddd95960521b604482015260640161095f565b6040805160018082528183019092525f9082602080830190803683370190505090505f8267ffffffffffffffff811115611ad957611ad9613f6d565b604051908082528060200260200182016040528015611b02578160200160208202803683370190505b5090505f8367ffffffffffffffff811115611b1f57611b1f613f6d565b604051908082528060200260200182016040528015611b5257816020015b6060815260200190600190039081611b3d5790505b5090505f8467ffffffffffffffff811115611b6f57611b6f613f6d565b604051908082528060200260200182016040528015611ba257816020015b6060815260200190600190039081611b8d5790505b509050732386dc45added673317ef068992f19421b481f4c845f81518110611bcc57611bcc614086565b60200260200101906001600160a01b031690816001600160a01b0316815250505f835f81518110611bff57611bff614086565b60200260200101818152505060405180606001604052806024815260200161467560249139825f81518110611c3657611c36614086565b602090810291909101810191909152604080515f81529182018152611c7e917f0000000000000000000000000000000000000000000000000000000000000000918101614255565b604051602081830303815290604052815f81518110611c9f57611c9f614086565b6020908102919091010152604051636d4ab48d60e11b81525f90730204cd037b2ec03605cfdfe482d8e257c765fa1b9063da95691a90611ceb9088908890889088908e90600401614358565b6020604051808303815f875af1158015611d07573d5f803e3d5ffd5b505050506040513d601f19601f82011682018060405250810190611d2b91906140c6565b905060868114611d745760405162461bcd60e51b815260206004820152601460248201527350524f504f53414c5f49535f4e4f545f53414d4560601b604482015260640161095f565b3373a45f7bd6a5ff45d31aace6bcd3d426d9328cea011480611da25750335f80516020614699833981519152145b15611db557611db0426120cc565b611e31565b604051631f615d2360e31b815264ffffffffff421660048201527f00000000000000000000000000000000000000000000000000000000000000006001600160a01b03169063fb0ae918906024015f604051808303815f87803b158015611e1a575f80fd5b505af1158015611e2c573d5f803e3d5ffd5b505050505b50505050505050565b60405162461bcd60e51b815260206004820152601860248201527f7773745553525f5553445f5052494345206e6f7420736574000000000000000060448201525f9060640161095f565b60405162461bcd60e51b815260206004820152601860248201527f5352555344455f5553445f5052494345206e6f7420736574000000000000000060448201525f9060640161095f565b60405162461bcd60e51b815260206004820152601760248201527f4f534554485f5553445f5052494345206e6f742073657400000000000000000060448201525f9060640161095f565b60405162461bcd60e51b81526020600482015260156024820152741414d517d554d117d4149250d1481b9bdd081cd95d605a1b60448201525f9060640161095f565b5f73c02aaa39b223fe8d0a0e5c4f27ead9083c756cc1196001600160a01b03831601611fe9576040805163bb4a64d360e01b81526001600160a01b03841660048201526024810191909152601060448201526f4e6174697665556e6465726c79696e6760801b60648201527354b91a0d94cb471f37f949c60f7fa7935b551d039063bb4a64d390608401610b38565b6040805163bb4a64d360e01b81526001600160a01b038416600482015260248101919091526006604482015265332a37b5b2b760d11b60648201527354b91a0d94cb471f37f949c60f7fa7935b551d039063bb4a64d390608401610b38565b60405163735e935160e11b8152600481018290525f9073324c5dc1fc42c7a4d43d92df1eba58a54d13bf2d9063e6bd26a290602401610b38565b60405162461bcd60e51b815260206004820152601760248201527f77654554485f5553445f5052494345206e6f742073657400000000000000000060448201525f9060640161095f565b3373a45f7bd6a5ff45d31aace6bcd3d426d9328cea0114806120fa5750335f80516020614699833981519152145b8061211857503373059a94a72951c0ae1cc1ce3bf0db52421bbe8210145b80612136575033739efde135ca4832abf0408c44c6f5f370eb0f35e8145b80612154575033735c43aac965ff230ac1cf63e924d0153291d78bad145b80612172575033733daff61fe5cfb1f1b4ea7fba8173a58532ef1841145b8061219057503373e7eb63a8b6392481a9fdebb108cfd580dc8664d3145b6121d55760405162461bcd60e51b81526020600482015260166024820152751b5cd9cb9cd95b99195c8b5b9bdd0b585b1b1bddd95960521b604482015260640161095f565b6005805464ffffffffff191664ffffffffff83169081179091556040519081527fc63b190684342aebf3bbf9112171a1da60123c5f3035abfe69043e5b985bb74a9060200160405180910390a150565b30732386dc45added673317ef068992f19421b481f4c1461227b5760405162461bcd60e51b815260206004820152601060248201526f3737ba16bb30b634b216b1b0b63632b960811b604482015260640161095f565b7f00000000000000000000000000000000000000000000000000000000000000006001600160a01b0316631392d4ee6040518163ffffffff1660e01b8152600401602060405180830381865afa1580156122d7573d5f803e3d5ffd5b505050506040513d601f19601f820116820180604052508101906122fb9190614405565b610cc65760405162461bcd60e51b815260206004820152601760248201527f70726f706f73616c2d6e6f742d65786563757461626c65000000000000000000604482015260640161095f565b6040516352e5787b60e11b8152600160048201819052907f00000000000000000000000000000000000000000000000000000000000000006001600160a01b03169063a5caf0f690602401602060405180830381865afa1580156123ad573d5f803e3d5ffd5b505050506040513d601f19601f820116820180604052508101906123d19190614405565b612e1f575f6123e06002610b02565b90505f6123ed602e610b02565b60408051610100810182526001600160a01b0383168152730b2b2b2076d95dda7817e785989fe353fe955ef9602082015273a0b86991c6218b36c1d19d4a2e9eb0ce3606eb4891810191909152600160608201525f608082018190526298968060a083015260c0820181905260e082015290915061246a816135eb565b604051630f18fc2760e31b81527391716c4eda1fb55e84bf8b4c7085f84285c19085906378c7e138906124b29085905f80516020614699833981519152905f90600401614420565b5f604051808303815f87803b1580156124c9575f80fd5b505af11580156124db573d5f803e3d5ffd5b5050505050505f6124ec6030610b02565b60408051610100810182526001600160a01b0383168152730b2b2b2076d95dda7817e785989fe353fe955ef9602082015273dac17f958d2ee523a2206206994597c13d831ec791810191909152600160608201525f608082018190526298968060a083015260c0820181905260e0820152909150612569816135eb565b604051630f18fc2760e31b81527391716c4eda1fb55e84bf8b4c7085f84285c19085906378c7e138906125b19085905f80516020614699833981519152905f90600401614420565b5f604051808303815f87803b1580156125c8575f80fd5b505af11580156125da573d5f803e3d5ffd5b5050505050505f6125eb60ab612048565b90505f6040518060e00160405280836001600160a01b031681526020015f600381111561261a5761261a614444565b8152730b2b2b2076d95dda7817e785989fe353fe955ef9602082015273a0b86991c6218b36c1d19d4a2e9eb0ce3606eb486040820152627a120060608201819052608082015262e4e1c060a09091015290506126758161374e565b604051637faa1d2160e01b815273b031913cb7ad81b8a4ba412b471c2da69bea410b90637faa1d21906126bd9085905f80516020614699833981519152905f90600401614420565b5f604051808303815f87803b1580156126d4575f80fd5b505af11580156126e6573d5f803e3d5ffd5b5050505050505f6126f760ac612048565b90505f6040518060e00160405280836001600160a01b031681526020015f600381111561272657612726614444565b8152730b2b2b2076d95dda7817e785989fe353fe955ef9602082015273dac17f958d2ee523a2206206994597c13d831ec76040820152627a120060608201819052608082015262e4e1c060a09091015290506127818161374e565b604051637faa1d2160e01b815273b031913cb7ad81b8a4ba412b471c2da69bea410b90637faa1d21906127c99085905f80516020614699833981519152905f90600401614420565b5f604051808303815f87803b1580156127e0575f80fd5b505af11580156127f2573d5f803e3d5ffd5b5050505050505f61280360ad612048565b90505f6040518060e00160405280836001600160a01b031681526020016002600381111561283357612833614444565b8152730b2b2b2076d95dda7817e785989fe353fe955ef960208201525f60408201819052627a120060608301526080820181905260a09091015290506128788161374e565b6040805160c0810182526001600160a01b03808616825284166020820152610bb89181019190915261546060608201526a02fa54641bae8aaa00000060808201526a05955e3bb3e743fec0000060a08201526128d381613916565b604051637faa1d2160e01b815273b031913cb7ad81b8a4ba412b471c2da69bea410b90637faa1d219061291b9086905f80516020614699833981519152905f90600401614420565b5f604051808303815f87803b158015612932575f80fd5b505af1158015612944573d5f803e3d5ffd5b505050505050505f61295660af612048565b90505f6040518060c00160405280846001600160a01b03168152602001836001600160a01b03168152602001610bb8815260200161546081526020016a02fa54641bae8aaa00000081526020016a0771d2fa45345aa900000081525090506129bd81613916565b604051637faa1d2160e01b815273b031913cb7ad81b8a4ba412b471c2da69bea410b90637faa1d2190612a059085905f80516020614699833981519152905f90600401614420565b5f604051808303815f87803b158015612a1c575f80fd5b505af1158015612a2e573d5f803e3d5ffd5b5050505050505f612a3f60b0612048565b90505f6040518060c00160405280846001600160a01b03168152602001836001600160a01b03168152602001610bb8815260200161546081526020016a02fa54641bae8aaa00000081526020016a0771d2fa45345aa90000008152509050612aa681613916565b604051637faa1d2160e01b815273b031913cb7ad81b8a4ba412b471c2da69bea410b90637faa1d2190612aee9085905f80516020614699833981519152905f90600401614420565b5f604051808303815f87803b158015612b05575f80fd5b505af1158015612b17573d5f803e3d5ffd5b5050505050505f612b2860b1612048565b90505f6040518060e00160405280836001600160a01b0316815260200160016003811115612b5857612b58614444565b81525f6020820181905273dac17f958d2ee523a2206206994597c13d831ec760408301526060820152627a120060808201526301312d0060a0909101529050612ba08161374e565b604051637faa1d2160e01b815273b031913cb7ad81b8a4ba412b471c2da69bea410b90637faa1d2190612be89085905f80516020614699833981519152905f90600401614420565b5f604051808303815f87803b158015612bff575f80fd5b505af1158015612c11573d5f803e3d5ffd5b5050505050505f612c2260b2612048565b90505f6040518060e00160405280836001600160a01b0316815260200160016003811115612c5257612c52614444565b81525f6020820181905273a0b86991c6218b36c1d19d4a2e9eb0ce3606eb4860408301526060820152627a120060808201526301312d0060a0909101529050612c9a8161374e565b604051637faa1d2160e01b815273b031913cb7ad81b8a4ba412b471c2da69bea410b90637faa1d2190612ce29085905f80516020614699833981519152905f90600401614420565b5f604051808303815f87803b158015612cf9575f80fd5b505af1158015612d0b573d5f803e3d5ffd5b5050505050505f612d1c60b3612048565b90505f6040518060e00160405280836001600160a01b031681526020015f6003811115612d4b57612d4b614444565b8152730b2b2b2076d95dda7817e785989fe353fe955ef960208201527340d16fc0246ad3160ccc09b8d0d3a2cd28ae6c2f6040820152627a120060608201819052608082015262e4e1c060a0909101529050612da68161374e565b604051637faa1d2160e01b815273b031913cb7ad81b8a4ba412b471c2da69bea410b90637faa1d2190612dee9085905f80516020614699833981519152905f90600401614420565b5f604051808303815f87803b158015612e05575f80fd5b505af1158015612e17573d5f803e3d5ffd5b505050505050505b50565b6040516352e5787b60e11b8152600260048201819052907f00000000000000000000000000000000000000000000000000000000000000006001600160a01b03169063a5caf0f690602401602060405180830381865afa158015612e88573d5f803e3d5ffd5b505050506040513d601f19601f82011682018060405250810190612eac9190614405565b612e1f575f612ebb602f610b02565b604051630f18fc2760e31b81529091507391716c4eda1fb55e84bf8b4c7085f84285c19085906378c7e13890612f079084905f8051602061469983398151915290600190600401614420565b5f604051808303815f87803b158015612f1e575f80fd5b505af1158015612f30573d5f803e3d5ffd5b505050505f612f3f60b4612048565b90505f6040518060e00160405280836001600160a01b0316815260200160016003811115612f6f57612f6f614444565b81525f6020820181905273a0b86991c6218b36c1d19d4a2e9eb0ce3606eb4860408301526060820152611b58608082015261232860a0909101529050612fb48161374e565b604051637faa1d2160e01b815273b031913cb7ad81b8a4ba412b471c2da69bea410b90637faa1d2190612dee9085905f8051602061469983398151915290600190600401614420565b6040516352e5787b60e11b8152600360048201819052907f00000000000000000000000000000000000000000000000000000000000000006001600160a01b03169063a5caf0f690602401602060405180830381865afa158015613063573d5f803e3d5ffd5b505050506040513d601f19601f820116820180604052508101906130879190614405565b612e1f575f61309660ae612048565b90506130b681730a1a1a107e45b7ced86833863f482bc5f4ed82ef613a38565b6130d48173a0b86991c6218b36c1d19d4a2e9eb0ce3606eb48613b07565b6040805160018082528183019092525f9160208083019080368337019050509050730a1a1a107e45b7ced86833863f482bc5f4ed82ef815f8151811061311c5761311c614086565b6001600160a01b0392909216602092830291909101909101526040805160018082528183019092525f9181602001602082028036833701905050905073a0b86991c6218b36c1d19d4a2e9eb0ce3606eb48815f8151811061317f5761317f614086565b6001600160a01b039092166020928302919091019091015260405163dd4cbf6b60e01b81527352aa899454998be5b000ad077a46bbe360f4e4979063dd4cbf6b906131d290869086908690600401614458565b5f604051808303815f87803b1580156131e9575f80fd5b505af11580156131fb573d5f803e3d5ffd5b5050604051637faa1d2160e01b815273b031913cb7ad81b8a4ba412b471c2da69bea410b9250637faa1d219150612dee9086905f80516020614699833981519152905f90600401614420565b6040516352e5787b60e11b81526004808201819052907f00000000000000000000000000000000000000000000000000000000000000006001600160a01b03169063a5caf0f690602401602060405180830381865afa1580156132ac573d5f803e3d5ffd5b505050506040513d601f19601f820116820180604052508101906132d09190614405565b612e1f576040805160018082528183019092525f916020808301908036833750506040805160018082528183019092529293505f9291506020808301908036833701905050905073ae7ab96520de3a18e5e111b5eaab095312d7fe84825f8151811061333e5761333e614086565b60200260200101906001600160a01b031690816001600160a01b031681525050680805e99fdcc5d00000815f8151811061337a5761337a614086565b6020908102919091010152604051631f70f8f560e11b815273264786ef916af64a1db19f513f24a3681734ce9290633ee1f1ea906133cd90859085905f8051602061469983398151915290600401614497565b5f604051808303815f87803b1580156133e4575f80fd5b505af1158015611e31573d5f803e3d5ffd5b67ffffffffffffffff605b82901c811690609b83901c16811580613418575080155b1561343b57604051636a86ba8960e11b815262011171600482015260240161095f565b61ffff8316603a84901c6401ffffffff16428181039160ea87901c617fff16911480613465575082155b806134705750806001145b1561347d57505050915091565b64496cebb80084840283020484019350617fff60db87901c169250826001036134a857505050915091565b826001166001036134fd5760019290921c91826c7e37be2022c0914b2680000000816134d6576134d66140f4565b049250612710601e87901c613fff166b033b2e3c9fd0803ce800000085010204925061352a565b60019290921c916305f5e100601e87901c613fff166127108501026b033b2e3c9fd0803ce8000000020492505b806001166001036135615760011c61271081016b033b2e3c9fd0803ce8000000820281613559576135596140f4565b049050613597565b60011c61271081016b033b2e3c9fd0803ce8000000820281613585576135856140f4565b046b033b2e3c9fd0803ce80000000390505b760a70c3c40a64e6c51999090b65f67d92400000000000008382026127100261ffff881691900402601087901c613fff16612710030292506801b5a660ea44b8000085840283020485019450505050915091565b806060015115613694575f6040518060a00160405280835f01516001600160a01b0316815260200183602001516001600160a01b031681526020016113888152602001610e1081526020018360a00151815250905061364981613bdc565b6040805160a0808201835284516001600160a01b0390811683528584015116602083015261138892820192909252610e10606082015290830151608082015261369181613bdc565b50505b806080015115612e1f575f6040518060c00160405280835f01516001600160a01b0316815260200183602001516001600160a01b031681526020016113888152602001610e1081526020018360c0015181526020018360e0015181525090506136fc81613cc9565b6040805160c0808201835284516001600160a01b0390811683528584015116602083015261138892820192909252610e10606082015290830151608082015260e083015160a0820152610f5181613cc9565b5f8160200151600381111561376557613765614444565b036137b4576040805160a08101825282516001600160a01b03908116825283830151166020820152611388918101919091526154606060820152608080830151908201526137b281613bdc565b505b5f816020015160038111156137cb576137cb614444565b03613830575f6040518060c00160405280835f01516001600160a01b0316815260200183606001516001600160a01b03168152602001611388815260200161546081526020018360a0015181526020018360c00151815250905061382e81613cc9565b505b60018160200151600381111561384857613848614444565b036138ad575f6040518060c00160405280835f01516001600160a01b0316815260200183606001516001600160a01b03168152602001610bb8815260200161546081526020018360a0015181526020018360c0015181525090506138ab81613cc9565b505b6002816020015160038111156138c5576138c5614444565b03612e1f576040805160a08101825282516001600160a01b03908116825283830151166020820152610dac9181019190915261546060608201526080808301519082015261391281613bdc565b5050565b6040805160018082528183019092525f91816020015b6139626040518060a001604052805f6001600160a01b031681526020015f81526020015f81526020015f81526020015f81525090565b81526020019060019003908161392c5790505090506040518060a0016040528083602001516001600160a01b031681526020018360400151815260200183606001518152602001836080015181526020018360a00151815250815f815181106139cd576139cd614086565b6020908102919091010152815160405163ba9af1e360e01b81526001600160a01b039091169063ba9af1e390613a0790849060040161450f565b5f604051808303815f87803b158015613a1e575f80fd5b505af1158015613a30573d5f803e3d5ffd5b505050505050565b6040805160018082528183019092525f91816020015b613a56613dcd565b815260200190600190039081613a4e5790505090506040518060c00160405280846001600160a01b03168152602001836001600160a01b03168152602001600160ff1681526020016001815260200162ffffff8152602001600a815250815f81518110613ac557613ac5614086565b60209081029190910101526040516301635db560e11b81527352aa899454998be5b000ad077a46bbe360f4e497906302c6bb6a906133cd908490600401614578565b6040805160018082528183019092525f91816020015b613b25613e12565b815260200190600190039081613b1d5790505090506040518060e00160405280846001600160a01b03168152602001836001600160a01b03168152602001600160ff1681526020016001815260200162ffffff8152602001600a81526020016014815250815f81518110613b9b57613b9b614086565b602090810291909101015260405162dc47c360e11b81527352aa899454998be5b000ad077a46bbe360f4e497906301b88f86906133cd9084906004016145f1565b6040805160018082528183019092525f91816020015b613bfa613dcd565b815260200190600190039081613bf25790505090506040518060c00160405280835f01516001600160a01b0316815260200183602001516001600160a01b03168152602001600160ff1681526020018360400151815260200183606001518152602001613c7284602001515f86608001516001611057565b815250815f81518110613c8757613c87614086565b60209081029190910101526040516301635db560e11b81527352aa899454998be5b000ad077a46bbe360f4e497906302c6bb6a90613a07908490600401614578565b6040805160018082528183019092525f91816020015b613ce7613e12565b815260200190600190039081613cdf5790505090506040518060e00160405280835f01516001600160a01b0316815260200183602001516001600160a01b03168152602001600160ff1681526020018360400151815260200183606001518152602001613d5e84602001515f86608001515f611057565b8152602001613d7784602001515f8660a001515f611057565b815250815f81518110613d8c57613d8c614086565b602090810291909101015260405162dc47c360e11b81527352aa899454998be5b000ad077a46bbe360f4e497906301b88f8690613a079084906004016145f1565b6040518060c001604052805f6001600160a01b031681526020015f6001600160a01b031681526020015f60ff1681526020015f81526020015f81526020015f81525090565b6040518060e001604052805f6001600160a01b031681526020015f6001600160a01b031681526020015f60ff1681526020015f81526020015f81526020015f81526020015f81525090565b8015158114612e1f575f80fd5b5f60208284031215613e7a575f80fd5b8135613e8581613e5d565b9392505050565b5f60208284031215613e9c575f80fd5b5035919050565b5f8060208385031215613eb4575f80fd5b823567ffffffffffffffff80821115613ecb575f80fd5b818501915085601f830112613ede575f80fd5b813581811115613eec575f80fd5b8660208260051b8501011115613f00575f80fd5b60209290920196919550909350505050565b6001600160a01b0381168114612e1f575f80fd5b5f805f8060808587031215613f39575f80fd5b8435613f4481613f12565b935060208501359250604085013591506060850135613f6281613e5d565b939692955090935050565b634e487b7160e01b5f52604160045260245ffd5b5f60208284031215613f91575f80fd5b813567ffffffffffffffff80821115613fa8575f80fd5b818401915084601f830112613fbb575f80fd5b813581811115613fcd57613fcd613f6d565b604051601f8201601f19908116603f01168101908382118183101715613ff557613ff5613f6d565b8160405282815287602084870101111561400d575f80fd5b826020860160208301375f928101602001929092525095945050505050565b5f6020828403121561403c575f80fd5b8135613e8581613f12565b5f60208284031215614057575f80fd5b813564ffffffffff81168114613e85575f80fd5b5f6020828403121561407b575f80fd5b8151613e8581613f12565b634e487b7160e01b5f52603260045260245ffd5b634e487b7160e01b5f52601160045260245ffd5b5f600182016140bf576140bf61409a565b5060010190565b5f602082840312156140d6575f80fd5b5051919050565b8082028115828204841417610b7757610b7761409a565b634e487b7160e01b5f52601260045260245ffd5b5f8261412257634e487b7160e01b5f52601260045260245ffd5b500490565b600181815b8085111561416157815f19048211156141475761414761409a565b8085161561415457918102915b93841c939080029061412c565b509250929050565b5f8261417757506001610b77565b8161418357505f610b77565b816001811461419957600281146141a3576141bf565b6001915050610b77565b60ff8411156141b4576141b461409a565b50506001821b610b77565b5060208310610133831016604e8410600b84101617156141e2575081810a610b77565b6141ec8383614127565b805f19048211156141ff576141ff61409a565b029392505050565b5f613e858383614169565b5f81518084525f5b818110156142365760208185018101518683018201520161421a565b505f602082860101526020601f19601f83011685010191505092915050565b60018060a01b038316815260606020820152600960608201526865786563757465282960b81b608082015260a060408201525f61194260a0830184614212565b5f8151808452602080850194508084015f5b838110156142cc5781516001600160a01b0316875295820195908201906001016142a7565b509495945050505050565b5f8151808452602080850194508084015f5b838110156142cc578151875295820195908201906001016142e9565b5f81518084526020808501808196508360051b810191508286015f5b8581101561434b578284038952614339848351614212565b98850198935090840190600101614321565b5091979650505050505050565b60a081525f61436a60a0830188614295565b60208382038185015261437d82896142d7565b915083820360408501528187518084528284019150828160051b850101838a015f5b838110156143cd57601f198784030185526143bb838351614212565b9486019492509085019060010161439f565b505086810360608801526143e1818a614305565b94505050505082810360808401526143f98185614212565b98975050505050505050565b5f60208284031215614415575f80fd5b8151613e8581613e5d565b6001600160a01b039384168152919092166020820152901515604082015260600190565b634e487b7160e01b5f52602160045260245ffd5b6001600160a01b03841681526060602082018190525f9061447b90830185614295565b828103604084015261448d8185614295565b9695505050505050565b608081525f6144a96080830186614295565b82810360208401526144bb81866142d7565b6001600160a01b03949094166040848101919091528385036060909401939093525050601882527f4c49544520535445544820524556454e554520434c41494d000000000000000060208301520192915050565b602080825282518282018190525f919060409081850190868401855b8281101561434b57815180516001600160a01b0316855286810151878601528581015186860152606080820151908601526080908101519085015260a0909301929085019060010161452b565b602080825282518282018190525f919060409081850190868401855b8281101561434b57815180516001600160a01b0390811686528782015116878601528581015160ff1686860152606080820151908601526080808201519086015260a0908101519085015260c09093019290850190600101614594565b602080825282518282018190525f919060409081850190868401855b8281101561434b57815180516001600160a01b0390811686528782015116878601528581015160ff1686860152606080820151908601526080808201519086015260a0808201519086015260c0908101519085015260e0909301929085019060010161460d56fe657865637574655061796c6f616428616464726573732c737472696e672c6279746573290000000000000000000000004f6f977acdd1177dcd81ab83074855ecb9c2d49ea264697066735822122053cd293c6c3d66082710c3a6d6c483225ddff678ad6978b2f76380c0feac9fd364736f6c63430008150033",
  "linkReferences": {},
  "deployedLinkReferences": {},
  "immutableReferences": {
    "727": [
      {
        "length": 32,
        "start": 2120
      },
      {
        "length": 32,
        "start": 7255
      },
      {
        "length": 32,
        "start": 7633
      },
      {
        "length": 32,
        "start": 8829
      },
      {
        "length": 32,
        "start": 9056
      },
      {
        "length": 32,
        "start": 11835
      },
      {
        "length": 32,
        "start": 12310
      },
      {
        "length": 32,
        "start": 12895
      }
    ]
  },
  "inputSourceName": "project/contracts/payloads/IGP134/PayloadIGP134.sol",
  "buildInfoId": "solc-0_8_21-3158732b6a8b44203b2c84ba1b61b4ffca6b2203"
}