{
  "_format": "hh3-artifact-1",
  "contractName": "PayloadIGP131",
  "sourceName": "contracts/payloads/IGP131/PayloadIGP131.sol",
  "abi": [
    {
      "inputs": [
        {
          "internalType": "uint256",
          "name": "errorId_",
          "type": "uint256"
        }
      ],
      "name": "FluidLiquidityCalcsError",
      "type": "error"
    },
    {
      "anonymous": false,
      "inputs": [
        {
          "indexed": true,
          "internalType": "uint256",
          "name": "action",
          "type": "uint256"
        },
        {
          "indexed": true,
          "internalType": "address",
          "name": "by",
          "type": "address"
        }
      ],
      "name": "ActionSkipped",
      "type": "event"
    },
    {
      "anonymous": false,
      "inputs": [
        {
          "indexed": false,
          "internalType": "uint40",
          "name": "at",
          "type": "uint40"
        }
      ],
      "name": "ProposalCreationTimeSet",
      "type": "event"
    },
    {
      "inputs": [],
      "name": "ADDRESS_THIS",
      "outputs": [
        {
          "internalType": "address",
          "name": "",
          "type": "address"
        }
      ],
      "stateMutability": "view",
      "type": "function"
    },
    {
      "inputs": [],
      "name": "BTC_USD_PRICE",
      "outputs": [
        {
          "internalType": "uint256",
          "name": "",
          "type": "uint256"
        }
      ],
      "stateMutability": "pure",
      "type": "function"
    },
    {
      "inputs": [],
      "name": "DEX_FACTORY",
      "outputs": [
        {
          "internalType": "contract IFluidDexFactory",
          "name": "",
          "type": "address"
        }
      ],
      "stateMutability": "view",
      "type": "function"
    },
    {
      "inputs": [],
      "name": "DSA_CONNECTORS_V2",
      "outputs": [
        {
          "internalType": "contract IDSAConnectorsV2",
          "name": "",
          "type": "address"
        }
      ],
      "stateMutability": "view",
      "type": "function"
    },
    {
      "inputs": [],
      "name": "ETH_USD_PRICE",
      "outputs": [
        {
          "internalType": "uint256",
          "name": "",
          "type": "uint256"
        }
      ],
      "stateMutability": "pure",
      "type": "function"
    },
    {
      "inputs": [],
      "name": "FLUID_RESERVE",
      "outputs": [
        {
          "internalType": "contract IFluidReserveContract",
          "name": "",
          "type": "address"
        }
      ],
      "stateMutability": "view",
      "type": "function"
    },
    {
      "inputs": [],
      "name": "FLUID_USD_PRICE",
      "outputs": [
        {
          "internalType": "uint256",
          "name": "",
          "type": "uint256"
        }
      ],
      "stateMutability": "pure",
      "type": "function"
    },
    {
      "inputs": [],
      "name": "FLUID_VAULT_FACTORY_OWNER",
      "outputs": [
        {
          "internalType": "contract IFluidVaultFactory",
          "name": "",
          "type": "address"
        }
      ],
      "stateMutability": "view",
      "type": "function"
    },
    {
      "inputs": [],
      "name": "GOVERNOR",
      "outputs": [
        {
          "internalType": "contract IGovernorBravo",
          "name": "",
          "type": "address"
        }
      ],
      "stateMutability": "view",
      "type": "function"
    },
    {
      "inputs": [],
      "name": "IETHV2",
      "outputs": [
        {
          "internalType": "contract ILite",
          "name": "",
          "type": "address"
        }
      ],
      "stateMutability": "view",
      "type": "function"
    },
    {
      "inputs": [],
      "name": "JRUSDE_USD_PRICE",
      "outputs": [
        {
          "internalType": "uint256",
          "name": "",
          "type": "uint256"
        }
      ],
      "stateMutability": "pure",
      "type": "function"
    },
    {
      "inputs": [],
      "name": "LENDING_FACTORY",
      "outputs": [
        {
          "internalType": "contract IFluidLendingFactory",
          "name": "",
          "type": "address"
        }
      ],
      "stateMutability": "view",
      "type": "function"
    },
    {
      "inputs": [],
      "name": "LIQUIDITY",
      "outputs": [
        {
          "internalType": "contract IFluidLiquidityAdmin",
          "name": "",
          "type": "address"
        }
      ],
      "stateMutability": "view",
      "type": "function"
    },
    {
      "inputs": [],
      "name": "OSETH_USD_PRICE",
      "outputs": [
        {
          "internalType": "uint256",
          "name": "",
          "type": "uint256"
        }
      ],
      "stateMutability": "pure",
      "type": "function"
    },
    {
      "inputs": [],
      "name": "PAXG_USD_PRICE",
      "outputs": [
        {
          "internalType": "uint256",
          "name": "",
          "type": "uint256"
        }
      ],
      "stateMutability": "pure",
      "type": "function"
    },
    {
      "inputs": [],
      "name": "PROPOSAL_ID",
      "outputs": [
        {
          "internalType": "uint256",
          "name": "",
          "type": "uint256"
        }
      ],
      "stateMutability": "view",
      "type": "function"
    },
    {
      "inputs": [],
      "name": "PROPOSER",
      "outputs": [
        {
          "internalType": "address",
          "name": "",
          "type": "address"
        }
      ],
      "stateMutability": "view",
      "type": "function"
    },
    {
      "inputs": [],
      "name": "PROPOSER_AVO_MULTISIG",
      "outputs": [
        {
          "internalType": "address",
          "name": "",
          "type": "address"
        }
      ],
      "stateMutability": "view",
      "type": "function"
    },
    {
      "inputs": [],
      "name": "PROPOSER_AVO_MULTISIG_2",
      "outputs": [
        {
          "internalType": "address",
          "name": "",
          "type": "address"
        }
      ],
      "stateMutability": "view",
      "type": "function"
    },
    {
      "inputs": [],
      "name": "PROPOSER_AVO_MULTISIG_3",
      "outputs": [
        {
          "internalType": "address",
          "name": "",
          "type": "address"
        }
      ],
      "stateMutability": "view",
      "type": "function"
    },
    {
      "inputs": [],
      "name": "PROPOSER_AVO_MULTISIG_4",
      "outputs": [
        {
          "internalType": "address",
          "name": "",
          "type": "address"
        }
      ],
      "stateMutability": "view",
      "type": "function"
    },
    {
      "inputs": [],
      "name": "PROPOSER_AVO_MULTISIG_5",
      "outputs": [
        {
          "internalType": "address",
          "name": "",
          "type": "address"
        }
      ],
      "stateMutability": "view",
      "type": "function"
    },
    {
      "inputs": [],
      "name": "PST_USDC_DEX_ID",
      "outputs": [
        {
          "internalType": "uint256",
          "name": "",
          "type": "uint256"
        }
      ],
      "stateMutability": "view",
      "type": "function"
    },
    {
      "inputs": [],
      "name": "PST_USD_PRICE",
      "outputs": [
        {
          "internalType": "uint256",
          "name": "",
          "type": "uint256"
        }
      ],
      "stateMutability": "pure",
      "type": "function"
    },
    {
      "inputs": [],
      "name": "RESERVE_CONTRACT_PROXY",
      "outputs": [
        {
          "internalType": "address",
          "name": "",
          "type": "address"
        }
      ],
      "stateMutability": "view",
      "type": "function"
    },
    {
      "inputs": [],
      "name": "REUSD_USD_PRICE",
      "outputs": [
        {
          "internalType": "uint256",
          "name": "",
          "type": "uint256"
        }
      ],
      "stateMutability": "pure",
      "type": "function"
    },
    {
      "inputs": [],
      "name": "RLP_USD_PRICE",
      "outputs": [
        {
          "internalType": "uint256",
          "name": "",
          "type": "uint256"
        }
      ],
      "stateMutability": "pure",
      "type": "function"
    },
    {
      "inputs": [],
      "name": "SMART_LENDING_FACTORY",
      "outputs": [
        {
          "internalType": "contract IFluidSmartLendingFactory",
          "name": "",
          "type": "address"
        }
      ],
      "stateMutability": "view",
      "type": "function"
    },
    {
      "inputs": [],
      "name": "SRUSDE_USD_PRICE",
      "outputs": [
        {
          "internalType": "uint256",
          "name": "",
          "type": "uint256"
        }
      ],
      "stateMutability": "pure",
      "type": "function"
    },
    {
      "inputs": [],
      "name": "STABLE_USD_PRICE",
      "outputs": [
        {
          "internalType": "uint256",
          "name": "",
          "type": "uint256"
        }
      ],
      "stateMutability": "pure",
      "type": "function"
    },
    {
      "inputs": [],
      "name": "STETH_REDEMPTION_PROTOCOL",
      "outputs": [
        {
          "internalType": "contract IStETHRedemptionProtocol",
          "name": "",
          "type": "address"
        }
      ],
      "stateMutability": "view",
      "type": "function"
    },
    {
      "inputs": [],
      "name": "TEAM_MULTISIG",
      "outputs": [
        {
          "internalType": "address",
          "name": "",
          "type": "address"
        }
      ],
      "stateMutability": "view",
      "type": "function"
    },
    {
      "inputs": [],
      "name": "TEAM_MULTISIG_2",
      "outputs": [
        {
          "internalType": "address",
          "name": "",
          "type": "address"
        }
      ],
      "stateMutability": "view",
      "type": "function"
    },
    {
      "inputs": [],
      "name": "TIMELOCK",
      "outputs": [
        {
          "internalType": "contract ITimelock",
          "name": "",
          "type": "address"
        }
      ],
      "stateMutability": "view",
      "type": "function"
    },
    {
      "inputs": [],
      "name": "TREASURY",
      "outputs": [
        {
          "internalType": "contract IDSAV2",
          "name": "",
          "type": "address"
        }
      ],
      "stateMutability": "view",
      "type": "function"
    },
    {
      "inputs": [],
      "name": "VAULT_FACTORY",
      "outputs": [
        {
          "internalType": "contract IFluidVaultFactory",
          "name": "",
          "type": "address"
        }
      ],
      "stateMutability": "view",
      "type": "function"
    },
    {
      "inputs": [],
      "name": "VAULT_PST_USDC_ID",
      "outputs": [
        {
          "internalType": "uint256",
          "name": "",
          "type": "uint256"
        }
      ],
      "stateMutability": "view",
      "type": "function"
    },
    {
      "inputs": [],
      "name": "VAULT_PST_USDC__USDC_ID",
      "outputs": [
        {
          "internalType": "uint256",
          "name": "",
          "type": "uint256"
        }
      ],
      "stateMutability": "view",
      "type": "function"
    },
    {
      "inputs": [],
      "name": "VAULT_PST_USDC__USDC_USDT_ID",
      "outputs": [
        {
          "internalType": "uint256",
          "name": "",
          "type": "uint256"
        }
      ],
      "stateMutability": "view",
      "type": "function"
    },
    {
      "inputs": [],
      "name": "VAULT_PST_USDT_ID",
      "outputs": [
        {
          "internalType": "uint256",
          "name": "",
          "type": "uint256"
        }
      ],
      "stateMutability": "view",
      "type": "function"
    },
    {
      "inputs": [],
      "name": "VAULT_PST__USDC_USDT_ID",
      "outputs": [
        {
          "internalType": "uint256",
          "name": "",
          "type": "uint256"
        }
      ],
      "stateMutability": "view",
      "type": "function"
    },
    {
      "inputs": [],
      "name": "XAUT_USD_PRICE",
      "outputs": [
        {
          "internalType": "uint256",
          "name": "",
          "type": "uint256"
        }
      ],
      "stateMutability": "pure",
      "type": "function"
    },
    {
      "inputs": [
        {
          "internalType": "uint256",
          "name": "action_",
          "type": "uint256"
        }
      ],
      "name": "actionStatus",
      "outputs": [
        {
          "internalType": "bool",
          "name": "",
          "type": "bool"
        }
      ],
      "stateMutability": "view",
      "type": "function"
    },
    {
      "inputs": [],
      "name": "csUSDL_USD_PRICE",
      "outputs": [
        {
          "internalType": "uint256",
          "name": "",
          "type": "uint256"
        }
      ],
      "stateMutability": "pure",
      "type": "function"
    },
    {
      "inputs": [],
      "name": "execute",
      "outputs": [],
      "stateMutability": "nonpayable",
      "type": "function"
    },
    {
      "inputs": [],
      "name": "ezETH_USD_PRICE",
      "outputs": [
        {
          "internalType": "uint256",
          "name": "",
          "type": "uint256"
        }
      ],
      "stateMutability": "pure",
      "type": "function"
    },
    {
      "inputs": [
        {
          "internalType": "uint256",
          "name": "dexId_",
          "type": "uint256"
        }
      ],
      "name": "getDexAddress",
      "outputs": [
        {
          "internalType": "address",
          "name": "",
          "type": "address"
        }
      ],
      "stateMutability": "view",
      "type": "function"
    },
    {
      "inputs": [
        {
          "internalType": "address",
          "name": "token",
          "type": "address"
        }
      ],
      "name": "getFTokenAddress",
      "outputs": [
        {
          "internalType": "address",
          "name": "",
          "type": "address"
        }
      ],
      "stateMutability": "view",
      "type": "function"
    },
    {
      "inputs": [],
      "name": "getProposalCreationTime",
      "outputs": [
        {
          "internalType": "uint40",
          "name": "",
          "type": "uint40"
        }
      ],
      "stateMutability": "view",
      "type": "function"
    },
    {
      "inputs": [
        {
          "internalType": "address",
          "name": "token",
          "type": "address"
        },
        {
          "internalType": "uint256",
          "name": "amount",
          "type": "uint256"
        },
        {
          "internalType": "uint256",
          "name": "amountInUSD",
          "type": "uint256"
        },
        {
          "internalType": "bool",
          "name": "isSupply",
          "type": "bool"
        }
      ],
      "name": "getRawAmount",
      "outputs": [
        {
          "internalType": "uint256",
          "name": "",
          "type": "uint256"
        }
      ],
      "stateMutability": "view",
      "type": "function"
    },
    {
      "inputs": [
        {
          "internalType": "uint256",
          "name": "dexId_",
          "type": "uint256"
        }
      ],
      "name": "getSmartLendingAddress",
      "outputs": [
        {
          "internalType": "address",
          "name": "",
          "type": "address"
        }
      ],
      "stateMutability": "view",
      "type": "function"
    },
    {
      "inputs": [
        {
          "internalType": "uint256",
          "name": "vaultId_",
          "type": "uint256"
        }
      ],
      "name": "getVaultAddress",
      "outputs": [
        {
          "internalType": "address",
          "name": "",
          "type": "address"
        }
      ],
      "stateMutability": "view",
      "type": "function"
    },
    {
      "inputs": [],
      "name": "isProposalExecutable",
      "outputs": [
        {
          "internalType": "bool",
          "name": "",
          "type": "bool"
        }
      ],
      "stateMutability": "view",
      "type": "function"
    },
    {
      "inputs": [],
      "name": "mETH_USD_PRICE",
      "outputs": [
        {
          "internalType": "uint256",
          "name": "",
          "type": "uint256"
        }
      ],
      "stateMutability": "pure",
      "type": "function"
    },
    {
      "inputs": [
        {
          "internalType": "string",
          "name": "description",
          "type": "string"
        }
      ],
      "name": "propose",
      "outputs": [],
      "stateMutability": "nonpayable",
      "type": "function"
    },
    {
      "inputs": [],
      "name": "rsETH_USD_PRICE",
      "outputs": [
        {
          "internalType": "uint256",
          "name": "",
          "type": "uint256"
        }
      ],
      "stateMutability": "pure",
      "type": "function"
    },
    {
      "inputs": [],
      "name": "sUSDe_USD_PRICE",
      "outputs": [
        {
          "internalType": "uint256",
          "name": "",
          "type": "uint256"
        }
      ],
      "stateMutability": "pure",
      "type": "function"
    },
    {
      "inputs": [],
      "name": "sUSDs_USD_PRICE",
      "outputs": [
        {
          "internalType": "uint256",
          "name": "",
          "type": "uint256"
        }
      ],
      "stateMutability": "pure",
      "type": "function"
    },
    {
      "inputs": [
        {
          "internalType": "uint256[]",
          "name": "actionsToSkip_",
          "type": "uint256[]"
        }
      ],
      "name": "setActionsToSkip",
      "outputs": [],
      "stateMutability": "nonpayable",
      "type": "function"
    },
    {
      "inputs": [
        {
          "internalType": "uint40",
          "name": "proposalCreationTime_",
          "type": "uint40"
        }
      ],
      "name": "setProposalCreationTime",
      "outputs": [],
      "stateMutability": "nonpayable",
      "type": "function"
    },
    {
      "inputs": [],
      "name": "syrupUSDC_USD_PRICE",
      "outputs": [
        {
          "internalType": "uint256",
          "name": "",
          "type": "uint256"
        }
      ],
      "stateMutability": "pure",
      "type": "function"
    },
    {
      "inputs": [],
      "name": "syrupUSDT_USD_PRICE",
      "outputs": [
        {
          "internalType": "uint256",
          "name": "",
          "type": "uint256"
        }
      ],
      "stateMutability": "pure",
      "type": "function"
    },
    {
      "inputs": [
        {
          "internalType": "bool",
          "name": "isExecutable_",
          "type": "bool"
        }
      ],
      "name": "toggleExecutable",
      "outputs": [],
      "stateMutability": "nonpayable",
      "type": "function"
    },
    {
      "inputs": [],
      "name": "verifyProposal",
      "outputs": [],
      "stateMutability": "view",
      "type": "function"
    },
    {
      "inputs": [],
      "name": "weETH_USD_PRICE",
      "outputs": [
        {
          "internalType": "uint256",
          "name": "",
          "type": "uint256"
        }
      ],
      "stateMutability": "pure",
      "type": "function"
    },
    {
      "inputs": [],
      "name": "weETHs_USD_PRICE",
      "outputs": [
        {
          "internalType": "uint256",
          "name": "",
          "type": "uint256"
        }
      ],
      "stateMutability": "pure",
      "type": "function"
    },
    {
      "inputs": [],
      "name": "wstETH_USD_PRICE",
      "outputs": [
        {
          "internalType": "uint256",
          "name": "",
          "type": "uint256"
        }
      ],
      "stateMutability": "pure",
      "type": "function"
    },
    {
      "inputs": [],
      "name": "wstUSR_USD_PRICE",
      "outputs": [
        {
          "internalType": "uint256",
          "name": "",
          "type": "uint256"
        }
      ],
      "stateMutability": "pure",
      "type": "function"
    }
  ],
  "bytecode": "0x60a060405234801561000f575f80fd5b50306080526080516147376100645f395f81816107cd01528181611b6301528181611cdd015281816121470152818161222a015281816123d201528181612a2101528181612c5e01526132e301526147375ff3fe608060405234801561000f575f80fd5b50600436106103ea575f3560e01c8063798d5ba31161020b578063ae68032b1161011f578063c60dc265116100b4578063f53eddcc11610084578063f53eddcc1461080a578063f6370aa914610825578063f88ed60c1461082d578063fb0ae91814610848578063fcee0c981461085b575f80fd5b8063c60dc265146107b5578063cc025f7c146107c8578063daa2e9a2146107ef578063e6bd26a2146107f7575f80fd5b8063b8fd95e9116100ef578063b8fd95e914610783578063bc3301a81461078b578063bcbcc4e214610793578063bffa7f0f1461079a575f80fd5b8063ae68032b1461075f578063b696649514610595578063b753428b14610767578063b788f3a11461076f575f80fd5b80639781a8ca116101a0578063a5caf0f611610170578063a5caf0f6146106ec578063a64f56931461070e578063a905583614610729578063aa98df3914610731578063ac1236f714610744575f80fd5b80639781a8ca1461069d57806397b87b4a146106a55780639d3d2a78146106c05780639ef94737146106d3575f80fd5b8063841d2699116101db578063841d26991461064c57806395861bd71461065f57806396bac9311461067a57806396db7d5c14610695575f80fd5b8063798d5ba3146105fb5780637aadef8b1461060e5780637e2f35fa1461062957806383f5d77a14610644575f80fd5b806328787d001161030257806358f2552e116102975780636521e19f116102675780636521e19f146105c857806366760d7d1461047f5780636dc0ae22146105d05780637000778e146105eb578063727a7c84146105f3575f80fd5b806358f2552e1461059557806361461954146105b057806362300732146105b857806364e9d567146105c0575f80fd5b80633484818b116102d25780633484818b1461054f57806348bbb5571461055757806353bc346714610572578063588c77e61461057a575f80fd5b806328787d001461051d5780632b54c373146105245780632d2c55651461052c5780632eebab9c14610547575f80fd5b80630e6a204c116103835780631392d4ee116103535780631392d4ee146104b7578063194c0e18146104d75780631bbc51a7146104df57806325ad7f4d146104e75780632861c7d114610502575f80fd5b80630e6a204c1461046c578063103f29071461048157806311ae7a141461049c57806312e366aa146104a4575f80fd5b80630b396e66116103be5780630b396e661461044c5780630bc9136e146104545780630c78d1d01461045c5780630de0660714610464575f80fd5b8062623d7d146103ee5780630251eb1114610409578063040e7a80146104115780630b0a1d9c14610419575b5f80fd5b6103f6610876565b6040519081526020015b60405180910390f35b6103f66108c5565b6103f661090f565b610434731f6b2bfdd5d1e6ade7b17027ff5300419a56ad6b81565b6040516001600160a01b039091168152602001610400565b6103f6610959565b6103f6608381565b6103f660a881565b6103f660a681565b61047f61047a366004613e6d565b6109a3565b005b61043473324c5dc1fc42c7a4d43d92df1eba58a54d13bf2d81565b6103f6610a15565b6104346104b2366004613e8f565b610a5f565b60055465010000000000900460ff165b6040519015158152602001610400565b6103f6610ada565b6103f6610b24565b610434739efde135ca4832abf0408c44c6f5f370eb0f35e881565b6104347352aa899454998be5b000ad077a46bbe360f4e49781565b60646103f6565b6103f6610b6e565b6104347328849d2b63fa8d361e5fc15cb8abb13019884d0981565b6103f660a981565b6103f6610bb8565b61043473e7eb63a8b6392481a9fdebb108cfd580dc8664d381565b6103f660a781565b610434735c43aac965ff230ac1cf63e924d0153291d78bad81565b61043473264786ef916af64a1db19f513f24a3681734ce9281565b61047f610bfb565b6103f6610c2d565b6103f6610c6f565b6103f6610cb9565b610434730204cd037b2ec03605cfdfe482d8e257c765fa1b81565b6103f6610d03565b6103f6610d46565b61047f610609366004613ea6565b610d90565b610434732386dc45added673317ef068992f19421b481f4c81565b61043473059a94a72951c0ae1cc1ce3bf0db52421bbe821081565b6103f6610ebb565b61043461065a366004613e8f565b610efd565b61043473a0d3707c569ff8c87fa923d3823ec5d81c98be7881565b6104347354b91a0d94cb471f37f949c60f7fa7935b551d0381565b6103f6610f37565b6103f6610f7a565b6104347391716c4eda1fb55e84bf8b4c7085f84285c1908581565b6103f66106ce366004613f29565b610fbc565b60055460405164ffffffffff9091168152602001610400565b6104c76106fa366004613e8f565b5f9081526006602052604090205460ff1690565b6104347397b0b3a8bdefe8cb9563a3c610019ad10db8ad1181565b6103f6611856565b61047f61073f366004613f84565b6118a0565b61043473b031913cb7ad81b8a4ba412b471c2da69bea410b81565b6103f6611d46565b6103f6611d90565b6104345f805160206146e283398151915281565b6103f6602d81565b6103f6611dda565b606e6103f6565b61043473a45f7bd6a5ff45d31aace6bcd3d426d9328cea0181565b6104346107c336600461402f565b611e24565b6104347f000000000000000000000000000000000000000000000000000000000000000081565b6103f660a581565b610434610805366004613e8f565b611f12565b61043473e57227c7d5900165344b190fc7aa580bceb53b9b81565b6103f6611f4c565b610434733daff61fe5cfb1f1b4ea7fba8173a58532ef184181565b61047f61085636600461404a565b611f96565b610434731e2e1aed876f67fe4fd54090fd7b8f57ce23421981565b60405162461bcd60e51b815260206004820152601760248201527f464c5549445f5553445f5052494345206e6f742073657400000000000000000060448201525f906064015b60405180910390fd5b60405162461bcd60e51b815260206004820152601860248201527f7765455448735f5553445f5052494345206e6f7420736574000000000000000060448201525f906064016108bc565b60405162461bcd60e51b815260206004820152601860248201527f4a52555344455f5553445f5052494345206e6f7420736574000000000000000060448201525f906064016108bc565b60405162461bcd60e51b815260206004820152601760248201527f72734554485f5553445f5052494345206e6f742073657400000000000000000060448201525f906064016108bc565b335f805160206146e2833981519152146109f35760405162461bcd60e51b81526020600482015260116024820152706e6f742d7465616d2d6d756c746973696760781b60448201526064016108bc565b60058054911515650100000000000265ff000000000019909216919091179055565b60405162461bcd60e51b815260206004820152601760248201527f73555344655f5553445f5052494345206e6f742073657400000000000000000060448201525f906064016108bc565b604051630971b35560e11b8152600481018290525f907391716c4eda1fb55e84bf8b4c7085f84285c19085906312e366aa906024015b602060405180830381865afa158015610ab0573d5f803e3d5ffd5b505050506040513d601f19601f82011682018060405250810190610ad4919061406e565b92915050565b60405162461bcd60e51b815260206004820152601860248201527f7773744554485f5553445f5052494345206e6f7420736574000000000000000060448201525f906064016108bc565b60405162461bcd60e51b815260206004820152601b60248201527f7379727570555344545f5553445f5052494345206e6f7420736574000000000060448201525f906064016108bc565b60405162461bcd60e51b815260206004820152601860248201527f63735553444c5f5553445f5052494345206e6f7420736574000000000000000060448201525f906064016108bc565b60405162461bcd60e51b815260206004820152601660248201527514105611d7d554d117d4149250d1481b9bdd081cd95d60521b60448201525f906064016108bc565b610c036120ef565b610c0b612211565b610c136123b9565b610c1b612a08565b610c23612c46565b610c2b6132ca565b565b60405162461bcd60e51b815260206004820152601560248201527411551217d554d117d4149250d1481b9bdd081cd95d605a1b60448201525f906064016108bc565b60405162461bcd60e51b815260206004820152601760248201527f73555344735f5553445f5052494345206e6f742073657400000000000000000060448201525f906064016108bc565b60405162461bcd60e51b815260206004820152601760248201527f657a4554485f5553445f5052494345206e6f742073657400000000000000000060448201525f906064016108bc565b60405162461bcd60e51b81526020600482015260166024820152751610555517d554d117d4149250d1481b9bdd081cd95d60521b60448201525f906064016108bc565b60405162461bcd60e51b815260206004820152601760248201527f52455553445f5553445f5052494345206e6f742073657400000000000000000060448201525f906064016108bc565b335f805160206146e283398151915214610de05760405162461bcd60e51b81526020600482015260116024820152706e6f742d7465616d2d6d756c746973696760781b60448201526064016108bc565b5f5b81811015610eb65760065f848484818110610dff57610dff614089565b602090810292909201358352508101919091526040015f205460ff16610ea457600160065f858585818110610e3657610e36614089565b602090810292909201358352508101919091526040015f20805460ff191691151591909117905533838383818110610e7057610e70614089565b905060200201357f73d6986e29f26b55373edd4820203ff5e60986cb7a4b8456fb988f0aa546a2f060405160405180910390a35b80610eae816140b1565b915050610de2565b505050565b60405162461bcd60e51b815260206004820152601560248201527414931417d554d117d4149250d1481b9bdd081cd95d605a1b60448201525f906064016108bc565b60405163841d269960e01b8152600481018290525f9073e57227c7d5900165344b190fc7aa580bceb53b9b9063841d269990602401610a95565b60405162461bcd60e51b81526020600482015260166024820152751b51551217d554d117d4149250d1481b9bdd081cd95d60521b60448201525f906064016108bc565b60405162461bcd60e51b8152602060048201526015602482015274109510d7d554d117d4149250d1481b9bdd081cd95d605a1b60448201525f906064016108bc565b5f8084118015610fcb57505f83115b156110185760405162461bcd60e51b815260206004820181905260248201527f626f74682075736420616e6420616d6f756e7420617265206e6f74207a65726f60448201526064016108bc565b5f8073eeeeeeeeeeeeeeeeeeeeeeeeeeeeeeeeeeeeeeed196001600160a01b0388160161105257611047610c2d565b91506012905061170d565b737f39c581f595b53c5cb19bd0b3f8da6c935e2c9f196001600160a01b0388160161107f57611047610ada565b73cd5fe23c85820f7b72d0926fc9b05b43e359b7ed196001600160a01b038816016110ac57611047611f4c565b73a1290d69c65a6fe4df752f95823fae25cb99e5a6196001600160a01b038816016110d957611047610959565b73917cee801a67f933f2e6b33fc0cd1ed2d5909d87196001600160a01b03881601611106576110476108c5565b73d5f7838f5c461feff7fe49ea5ebaf7728bb0adf9196001600160a01b0388160161113357611047610f37565b73bf5495efe5db9ce00f80364c8b423567e58d210f196001600160a01b0388160161116057611047610cb9565b73f1c9acdc66974dfb6decb12aa385b9cd01190e37196001600160a01b0388160161118d57611047611dda565b732260fac5e5542a773aa44fbcfedf7c193bc2c598196001600160a01b038816016111c5576111ba610f7a565b91506008905061170d565b73cbb7c0000ab88b473b1f5afd9ef808440eed33be196001600160a01b038816016111f2576111ba610f7a565b7318084fba666a33d37592fa2633fd49a74dd93a87196001600160a01b0388160161121f57611047610f7a565b73657e8c867d8b37dcc18fa4caead9c45eb088c641196001600160a01b0388160161124c576111ba610f7a565b738236a87084f8b84306f72007f36f2618a5634493196001600160a01b03881601611279576111ba610f7a565b73a0b86991c6218b36c1d19d4a2e9eb0ce3606eb47196001600160a01b038816016112ac5760645b91506006905061170d565b73dac17f958d2ee523a2206206994597c13d831ec6196001600160a01b038816016112d85760646112a1565b7340d16fc0246ad3160ccc09b8d0d3a2cd28ae6c2e196001600160a01b03881601611304576064611047565b734c9edd5852cd905f086c759e8383e09bff1e68b2196001600160a01b03881601611330576064611047565b7315700b564ca08d9439c58ca5053166e8317aa137196001600160a01b0388160161135c576064611047565b7366a1e37c9b0eaddca17d3662d6c05f4decf3e10f196001600160a01b03881601611388576064611047565b7373a15fed60bf67631dc6cd7bc5b6e8da8190acf4196001600160a01b038816016113b4576064611047565b73085780639cc2cacd35e474e71f4d000e2405d8f5196001600160a01b038816016113e0576064611047565b73b01dd87b29d187f3e3a4bf6cdaebfb97f3d9ab97196001600160a01b0388160161140c576064611047565b7348f9e38f3070ad8945dfeae3fa70987722e3d89b196001600160a01b03881601611438576064611047565b73c139190f447e929f090edeb554d95abb8b18ac1b196001600160a01b03881601611464576064611047565b739d39a5de30e57443bff2a8307a4256c8797a3496196001600160a01b0388160161149157611047610a15565b73a3931d71877c0e7a3148cb7eb4463524fec27fbc196001600160a01b038816016114be57611047610c6f565b73356b8d89c1e1239cbbb9de4815c39a1474d5ba7c196001600160a01b038816016114eb576112a1610b24565b7380ac24aa929eaf5013f6436cda2a7ba190f5cc0a196001600160a01b03881601611518576112a1611856565b735086bf358635b81d8c47c66d1c8b9e567db70c71196001600160a01b0388160161154557611047610d46565b7322ae3d9a738471f405169af055d31c687087d4c6196001600160a01b0388160161157157606e6112a1565b73beefc011e94f43b8b7b455ebab290c7ab4e216f0196001600160a01b0388160161159e57611047610b6e565b73c58d044404d8b14e953c115e67823784dea53d8e196001600160a01b038816016115cb5761104761090f565b733d7d6fdf07ee548b939a80edbc9b2256d0cdc002196001600160a01b038816016115f857611047611d90565b731202f5c7b4b9e47a1a484e8b270be34dbbc75054196001600160a01b0388160161162557611047611d46565b734956b52ae2ff65d74ca2d61207523288e4528f95196001600160a01b0388160161165257611047610ebb565b736f40d4a6237c257fff2db00fa0510deeecd303ea196001600160a01b0388160161167f57611047610876565b7368749665ff8d2d112fa859aa293f07a622782f37196001600160a01b038816016116ac576112a1610d03565b7345804880de22913dafe09f4980848ece6ecbaf77196001600160a01b038816016116d957611047610bb8565b60405162461bcd60e51b81526020600482015260096024820152681b9bdd0b599bdd5b9960ba1b60448201526064016108bc565b604080516001600160a01b03891660208083019190915260058284015282518083038401815260608301938490528051910120632d71cdb960e21b90925260648101919091525f907352aa899454998be5b000ad077a46bbe360f4e4979063b5c736e490608401602060405180830381865afa15801561178f573d5f803e3d5ffd5b505050506040513d601f19601f820116820180604052508101906117b391906140c9565b90505f806117c0836134b4565b915091505f876117d057816117d2565b825b9050891561180157806117ea8b64e8d4a510006140e0565b6117f4919061410b565b965050505050505061184e565b606461180d82886140e0565b611817919061410b565b61182286600a61420a565b6118318b64e8d4a510006140e0565b61183b91906140e0565b611845919061410b565b96505050505050505b949350505050565b60405162461bcd60e51b815260206004820152601b60248201527f7379727570555344435f5553445f5052494345206e6f7420736574000000000060448201525f906064016108bc565b3373a45f7bd6a5ff45d31aace6bcd3d426d9328cea0114806118ce5750335f805160206146e2833981519152145b806118ec57503073059a94a72951c0ae1cc1ce3bf0db52421bbe8210145b8061190a575030739efde135ca4832abf0408c44c6f5f370eb0f35e8145b80611928575030735c43aac965ff230ac1cf63e924d0153291d78bad145b80611946575030733daff61fe5cfb1f1b4ea7fba8173a58532ef1841145b8061196457503073e7eb63a8b6392481a9fdebb108cfd580dc8664d3145b6119a95760405162461bcd60e51b81526020600482015260166024820152751b5cd9cb9cd95b99195c8b5b9bdd0b585b1b1bddd95960521b60448201526064016108bc565b6040805160018082528183019092525f9082602080830190803683370190505090505f8267ffffffffffffffff8111156119e5576119e5613f70565b604051908082528060200260200182016040528015611a0e578160200160208202803683370190505b5090505f8367ffffffffffffffff811115611a2b57611a2b613f70565b604051908082528060200260200182016040528015611a5e57816020015b6060815260200190600190039081611a495790505b5090505f8467ffffffffffffffff811115611a7b57611a7b613f70565b604051908082528060200260200182016040528015611aae57816020015b6060815260200190600190039081611a995790505b509050732386dc45added673317ef068992f19421b481f4c845f81518110611ad857611ad8614089565b60200260200101906001600160a01b031690816001600160a01b0316815250505f835f81518110611b0b57611b0b614089565b6020026020010181815250506040518060600160405280602481526020016146be60249139825f81518110611b4257611b42614089565b602090810291909101810191909152604080515f81529182018152611b8a917f0000000000000000000000000000000000000000000000000000000000000000918101614258565b604051602081830303815290604052815f81518110611bab57611bab614089565b6020908102919091010152604051636d4ab48d60e11b81525f90730204cd037b2ec03605cfdfe482d8e257c765fa1b9063da95691a90611bf79088908890889088908e906004016143a1565b6020604051808303815f875af1158015611c13573d5f803e3d5ffd5b505050506040513d601f19601f82011682018060405250810190611c3791906140c9565b905060838114611c805760405162461bcd60e51b815260206004820152601460248201527350524f504f53414c5f49535f4e4f545f53414d4560601b60448201526064016108bc565b3373a45f7bd6a5ff45d31aace6bcd3d426d9328cea011480611cae5750335f805160206146e2833981519152145b15611cc157611cbc42611f96565b611d3d565b604051631f615d2360e31b815264ffffffffff421660048201527f00000000000000000000000000000000000000000000000000000000000000006001600160a01b03169063fb0ae918906024015f604051808303815f87803b158015611d26575f80fd5b505af1158015611d38573d5f803e3d5ffd5b505050505b50505050505050565b60405162461bcd60e51b815260206004820152601860248201527f7773745553525f5553445f5052494345206e6f7420736574000000000000000060448201525f906064016108bc565b60405162461bcd60e51b815260206004820152601860248201527f5352555344455f5553445f5052494345206e6f7420736574000000000000000060448201525f906064016108bc565b60405162461bcd60e51b815260206004820152601760248201527f4f534554485f5553445f5052494345206e6f742073657400000000000000000060448201525f906064016108bc565b5f73c02aaa39b223fe8d0a0e5c4f27ead9083c756cc1196001600160a01b03831601611eb3576040805163bb4a64d360e01b81526001600160a01b03841660048201526024810191909152601060448201526f4e6174697665556e6465726c79696e6760801b60648201527354b91a0d94cb471f37f949c60f7fa7935b551d039063bb4a64d390608401610a95565b6040805163bb4a64d360e01b81526001600160a01b038416600482015260248101919091526006604482015265332a37b5b2b760d11b60648201527354b91a0d94cb471f37f949c60f7fa7935b551d039063bb4a64d390608401610a95565b60405163735e935160e11b8152600481018290525f9073324c5dc1fc42c7a4d43d92df1eba58a54d13bf2d9063e6bd26a290602401610a95565b60405162461bcd60e51b815260206004820152601760248201527f77654554485f5553445f5052494345206e6f742073657400000000000000000060448201525f906064016108bc565b3373a45f7bd6a5ff45d31aace6bcd3d426d9328cea011480611fc45750335f805160206146e2833981519152145b80611fe257503373059a94a72951c0ae1cc1ce3bf0db52421bbe8210145b80612000575033739efde135ca4832abf0408c44c6f5f370eb0f35e8145b8061201e575033735c43aac965ff230ac1cf63e924d0153291d78bad145b8061203c575033733daff61fe5cfb1f1b4ea7fba8173a58532ef1841145b8061205a57503373e7eb63a8b6392481a9fdebb108cfd580dc8664d3145b61209f5760405162461bcd60e51b81526020600482015260166024820152751b5cd9cb9cd95b99195c8b5b9bdd0b585b1b1bddd95960521b60448201526064016108bc565b6005805464ffffffffff191664ffffffffff83169081179091556040519081527fc63b190684342aebf3bbf9112171a1da60123c5f3035abfe69043e5b985bb74a9060200160405180910390a150565b30732386dc45added673317ef068992f19421b481f4c146121455760405162461bcd60e51b815260206004820152601060248201526f3737ba16bb30b634b216b1b0b63632b960811b60448201526064016108bc565b7f00000000000000000000000000000000000000000000000000000000000000006001600160a01b0316631392d4ee6040518163ffffffff1660e01b8152600401602060405180830381865afa1580156121a1573d5f803e3d5ffd5b505050506040513d601f19601f820116820180604052508101906121c5919061440d565b610c2b5760405162461bcd60e51b815260206004820152601760248201527f70726f706f73616c2d6e6f742d65786563757461626c6500000000000000000060448201526064016108bc565b6040516352e5787b60e11b8152600160048201819052907f00000000000000000000000000000000000000000000000000000000000000006001600160a01b03169063a5caf0f690602401602060405180830381865afa158015612277573d5f803e3d5ffd5b505050506040513d601f19601f8201168201806040525081019061229b919061440d565b6123b6576040805160018082528183019092525f91816020015b6122bd613dd0565b8152602001906001900390816122b55790505090506040518060c001604052806122e7608e611f12565b6001600160a01b03168152731202f5c7b4b9e47a1a484e8b270be34dbbc750556020820152600160408201819052606082015262ffffff608082015268014d1120d7b160000060a090910152815182905f9061234557612345614089565b60209081029190910101526040516301635db560e11b81527352aa899454998be5b000ad077a46bbe360f4e497906302c6bb6a90612387908490600401614428565b5f604051808303815f87803b15801561239e575f80fd5b505af11580156123b0573d5f803e3d5ffd5b50505050505b50565b6040516352e5787b60e11b8152600260048201819052907f00000000000000000000000000000000000000000000000000000000000000006001600160a01b03169063a5caf0f690602401602060405180830381865afa15801561241f573d5f803e3d5ffd5b505050506040513d601f19601f82011682018060405250810190612443919061440d565b6123b65760408051600480825260a082019092525f91816020015b612466613e15565b81526020019060019003908161245e5790505090506124a6612488606e611f12565b73a0b86991c6218b36c1d19d4a2e9eb0ce3606eb48628954406136a9565b815f815181106124b8576124b8614089565b60200260200101819052506124ee6124d0606f611f12565b73dac17f958d2ee523a2206206994597c13d831ec7626acfc06136a9565b8160018151811061250157612501614089565b602002602001018190525061253c6125196070611f12565b7340d16fc0246ad3160ccc09b8d0d3a2cd28ae6c2f678ac7230489e800006136a9565b8160028151811061254f5761254f614089565b60200260200101819052506125856125676085611f12565b73a0b86991c6218b36c1d19d4a2e9eb0ce3606eb48629896806136a9565b8160038151811061259857612598614089565b602090810291909101015260405162dc47c360e11b81527352aa899454998be5b000ad077a46bbe360f4e497906301b88f86906125d99084906004016144ae565b5f604051808303815f87803b1580156125f0575f80fd5b505af1158015612602573d5f803e3d5ffd5b50506040516306f1841b60e11b8152732386dc45added673317ef068992f19421b481f4c60048201526001602482015273264786ef916af64a1db19f513f24a3681734ce929250630de3083691506044015f604051808303815f87803b15801561266a575f80fd5b505af115801561267c573d5f803e3d5ffd5b505f92506003915061268b9050565b6040519080825280602002602001820160405280156126b4578160200160208202803683370190505b50604080516003808252608082019092529192505f9190602082016060803683370190505090506126e5606e611f12565b825f815181106126f7576126f7614089565b60200260200101906001600160a01b031690816001600160a01b031681525050612721606f611f12565b8260018151811061273457612734614089565b60200260200101906001600160a01b031690816001600160a01b03168152505061275e6070611f12565b8260028151811061277157612771614089565b6001600160a01b0390921660209283029190910190910152604051632bb3939960e01b815273264786ef916af64a1db19f513f24a3681734ce9290632bb39399906127c29085908590600401614531565b5f604051808303815f87803b1580156127d9575f80fd5b505af11580156127eb573d5f803e3d5ffd5b505f9450600193506127fc92505050565b604051908082528060200260200182016040528015612825578160200160208202803683370190505b506040805160018082528183019092529192505f91906020808301908036833750506040805160018082528183019092529293505f9291506020808301908036833750506040805160018082528183019092529293505f929150602080830190803683370190505090506128996085611f12565b845f815181106128ab576128ab614089565b6001600160a01b03909216602092830291909101909101526040516321955eab60e11b815273264786ef916af64a1db19f513f24a3681734ce929063432abd56906129049087908790879081908890819060040161455e565b5f604051808303815f87803b15801561291b575f80fd5b505af115801561292d573d5f803e3d5ffd5b505050505050505061295c612942606e611f12565b73a0b86991c6218b36c1d19d4a2e9eb0ce3606eb48613707565b612983612969606f611f12565b73dac17f958d2ee523a2206206994597c13d831ec7613707565b6129aa6129906070611f12565b7340d16fc0246ad3160ccc09b8d0d3a2cd28ae6c2f613707565b6129b76129426085611f12565b6040516306f1841b60e11b8152732386dc45added673317ef068992f19421b481f4c60048201525f602482015273264786ef916af64a1db19f513f24a3681734ce9290630de3083690604401612387565b6040516352e5787b60e11b8152600360048201819052907f00000000000000000000000000000000000000000000000000000000000000006001600160a01b03169063a5caf0f690602401602060405180830381865afa158015612a6e573d5f803e3d5ffd5b505050506040513d601f19601f82011682018060405250810190612a92919061440d565b6123b6576040805160018082528183019092525f91816020015b6060815260200190600190039081612aac5750506040805160018082528183019092529192505f9190602082015b6060815260200190600190039081612ada5790505090506040518060400160405280600781526020016642415349432d4160c81b815250825f81518110612b2357612b23614089565b6020908102919091010152604051736f40d4a6237c257fff2db00fa0510deeecd303eb6024820152699ed194db19b238c0000060448201525f805160206146e283398151915260648201525f6084820181905260a482015260c40160408051601f198184030181529190526020810180516001600160e01b03166325e9d5c160e11b179052815182905f90612bba57612bba614089565b60209081029190910101526040516324c1324d60e21b81527328849d2b63fa8d361e5fc15cb8abb13019884d0990639304c93490612c00908590859030906004016145df565b6020604051808303815f875af1158015612c1c573d5f803e3d5ffd5b505050506040513d601f19601f82011682018060405250810190612c4091906140c9565b50505050565b6040516352e5787b60e11b81526004808201819052907f00000000000000000000000000000000000000000000000000000000000000006001600160a01b03169063a5caf0f690602401602060405180830381865afa158015612cab573d5f803e3d5ffd5b505050506040513d601f19601f82011682018060405250810190612ccf919061440d565b6123b6575f612cde6002610a5f565b90505f612ceb60a5611f12565b90505f6040518060e00160405280836001600160a01b031681526020015f6003811115612d1a57612d1a61461c565b81527322ae3d9a738471f405169af055d31c687087d4c7602082015273a0b86991c6218b36c1d19d4a2e9eb0ce3606eb486040820152627a12006060820152624c4b4060808201526298968060a0909101529050612d7781613805565b604051637faa1d2160e01b815273b031913cb7ad81b8a4ba412b471c2da69bea410b90637faa1d2190612dbf9085905f805160206146e2833981519152905f90600401614630565b5f604051808303815f87803b158015612dd6575f80fd5b505af1158015612de8573d5f803e3d5ffd5b5050505050505f612df960a6611f12565b90505f6040518060e00160405280836001600160a01b031681526020015f6003811115612e2857612e2861461c565b81527322ae3d9a738471f405169af055d31c687087d4c7602082015273dac17f958d2ee523a2206206994597c13d831ec76040820152627a12006060820152624c4b4060808201526298968060a0909101529050612e8581613805565b604051637faa1d2160e01b815273b031913cb7ad81b8a4ba412b471c2da69bea410b90637faa1d2190612ecd9085905f805160206146e2833981519152905f90600401614630565b5f604051808303815f87803b158015612ee4575f80fd5b505af1158015612ef6573d5f803e3d5ffd5b5050505050505f612f0760a7611f12565b604051637faa1d2160e01b815290915073b031913cb7ad81b8a4ba412b471c2da69bea410b90637faa1d2190612f529084905f805160206146e2833981519152905f90600401614630565b5f604051808303815f87803b158015612f69575f80fd5b505af1158015612f7b573d5f803e3d5ffd5b50505050505f612f8b60a8611f12565b90505f6040518060e00160405280836001600160a01b0316815260200160026003811115612fbb57612fbb61461c565b81527322ae3d9a738471f405169af055d31c687087d4c760208201525f60408201819052627a120060608301526080820181905260a090910152905061300081613805565b604051637faa1d2160e01b815273b031913cb7ad81b8a4ba412b471c2da69bea410b90637faa1d21906130489085905f805160206146e2833981519152905f90600401614630565b5f604051808303815f87803b15801561305f575f80fd5b505af1158015613071573d5f803e3d5ffd5b505050505f6040518060c00160405280856001600160a01b03168152602001846001600160a01b03168152602001610bb8815260200161546081526020016a021165458500521280000081526020016a0422ca8b0a00a42500000081525090506130da816139cd565b5050505f6130e860a9611f12565b604051637faa1d2160e01b815290915073b031913cb7ad81b8a4ba412b471c2da69bea410b90637faa1d21906131339084905f805160206146e2833981519152905f90600401614630565b5f604051808303815f87803b15801561314a575f80fd5b505af115801561315c573d5f803e3d5ffd5b505050505f6040518060c00160405280846001600160a01b03168152602001836001600160a01b03168152602001610bb8815260200161546081526020016a021165458500521280000081526020016a0422ca8b0a00a42500000081525090506131c5816139cd565b50505f6131d2602d610a5f565b60408051610100810182526001600160a01b03831681527322ae3d9a738471f405169af055d31c687087d4c7602082015273a0b86991c6218b36c1d19d4a2e9eb0ce3606eb4891810191909152600160608201525f60808201819052624c4b4060a083015260c0820181905260e082015290915061324f81613abe565b604051630f18fc2760e31b81527391716c4eda1fb55e84bf8b4c7085f84285c19085906378c7e138906132979085905f805160206146e2833981519152905f90600401614630565b5f604051808303815f87803b1580156132ae575f80fd5b505af11580156132c0573d5f803e3d5ffd5b5050505050505050565b6040516352e5787b60e11b8152600560048201819052907f00000000000000000000000000000000000000000000000000000000000000006001600160a01b03169063a5caf0f690602401602060405180830381865afa158015613330573d5f803e3d5ffd5b505050506040513d601f19601f82011682018060405250810190613354919061440d565b6123b65760405163081607ff60e11b815273b3e586bce929312e8b0685e2c12c1d6dbbcdc37060048201527397b0b3a8bdefe8cb9563a3c610019ad10db8ad119063102c0ffe906024015f604051808303815f87803b1580156133b5575f80fd5b505af11580156133c7573d5f803e3d5ffd5b505060405163081607ff60e11b815273a6aec494aa19dc910944e2374e9ea159dc919c5960048201527397b0b3a8bdefe8cb9563a3c610019ad10db8ad11925063102c0ffe91506024015f604051808303815f87803b158015613428575f80fd5b505af115801561343a573d5f803e3d5ffd5b505060405163081607ff60e11b815273ce40798c731ce4f90eb239e4894d9c643eb1dde760048201527397b0b3a8bdefe8cb9563a3c610019ad10db8ad11925063102c0ffe91506024015f604051808303815f87803b15801561349b575f80fd5b505af11580156134ad573d5f803e3d5ffd5b5050505050565b67ffffffffffffffff605b82901c811690609b83901c168115806134d6575080155b156134f957604051636a86ba8960e11b81526201117160048201526024016108bc565b61ffff8316603a84901c6401ffffffff16428181039160ea87901c617fff16911480613523575082155b8061352e5750806001145b1561353b57505050915091565b64496cebb80084840283020484019350617fff60db87901c1692508260010361356657505050915091565b826001166001036135bb5760019290921c91826c7e37be2022c0914b268000000081613594576135946140f7565b049250612710601e87901c613fff166b033b2e3c9fd0803ce80000008501020492506135e8565b60019290921c916305f5e100601e87901c613fff166127108501026b033b2e3c9fd0803ce8000000020492505b8060011660010361361f5760011c61271081016b033b2e3c9fd0803ce8000000820281613617576136176140f7565b049050613655565b60011c61271081016b033b2e3c9fd0803ce8000000820281613643576136436140f7565b046b033b2e3c9fd0803ce80000000390505b760a70c3c40a64e6c51999090b65f67d92400000000000008382026127100261ffff881691900402601087901c613fff16612710030292506801b5a660ea44b8000085840283020485019450505050915091565b6136b1613e15565b6040518060e00160405280856001600160a01b03168152602001846001600160a01b03168152602001600160ff1681526020016001815260200162ffffff81526020018381526020018381525090509392505050565b6040805160018082528183019092525f91816020015b613725613e15565b81526020019060019003908161371d5790505090506040518060e00160405280846001600160a01b03168152602001836001600160a01b03168152602001600160ff1681526020016001815260200162ffffff8152602001600a81526020016014815250815f8151811061379b5761379b614089565b602090810291909101015260405162dc47c360e11b81527352aa899454998be5b000ad077a46bbe360f4e497906301b88f86906137dc9084906004016144ae565b5f604051808303815f87803b1580156137f3575f80fd5b505af1158015611d3d573d5f803e3d5ffd5b5f8160200151600381111561381c5761381c61461c565b0361386b576040805160a08101825282516001600160a01b039081168252838301511660208201526113889181019190915261546060608201526080808301519082015261386981613c21565b505b5f816020015160038111156138825761388261461c565b036138e7575f6040518060c00160405280835f01516001600160a01b0316815260200183606001516001600160a01b03168152602001611388815260200161546081526020018360a0015181526020018360c0015181525090506138e581613ccc565b505b6001816020015160038111156138ff576138ff61461c565b03613964575f6040518060c00160405280835f01516001600160a01b0316815260200183606001516001600160a01b03168152602001610bb8815260200161546081526020018360a0015181526020018360c00151815250905061396281613ccc565b505b60028160200151600381111561397c5761397c61461c565b036123b6576040805160a08101825282516001600160a01b03908116825283830151166020820152610dac918101919091526154606060820152608080830151908201526139c981613c21565b5050565b6040805160018082528183019092525f91816020015b613a196040518060a001604052805f6001600160a01b031681526020015f81526020015f81526020015f81526020015f81525090565b8152602001906001900390816139e35790505090506040518060a0016040528083602001516001600160a01b031681526020018360400151815260200183606001518152602001836080015181526020018360a00151815250815f81518110613a8457613a84614089565b6020908102919091010152815160405163ba9af1e360e01b81526001600160a01b039091169063ba9af1e390612387908490600401614654565b806060015115613b67575f6040518060a00160405280835f01516001600160a01b0316815260200183602001516001600160a01b031681526020016113888152602001610e1081526020018360a001518152509050613b1c81613c21565b6040805160a0808201835284516001600160a01b0390811683528584015116602083015261138892820192909252610e106060820152908301516080820152613b6481613c21565b50505b8060800151156123b6575f6040518060c00160405280835f01516001600160a01b0316815260200183602001516001600160a01b031681526020016113888152602001610e1081526020018360c0015181526020018360e001518152509050613bcf81613ccc565b6040805160c0808201835284516001600160a01b0390811683528584015116602083015261138892820192909252610e10606082015290830151608082015260e083015160a0820152610eb681613ccc565b6040805160018082528183019092525f91816020015b613c3f613dd0565b815260200190600190039081613c375790505090506040518060c00160405280835f01516001600160a01b0316815260200183602001516001600160a01b03168152602001600160ff1681526020018360400151815260200183606001518152602001613cb784602001515f86608001516001610fbc565b815250815f8151811061234557612345614089565b6040805160018082528183019092525f91816020015b613cea613e15565b815260200190600190039081613ce25790505090506040518060e00160405280835f01516001600160a01b0316815260200183602001516001600160a01b03168152602001600160ff1681526020018360400151815260200183606001518152602001613d6184602001515f86608001515f610fbc565b8152602001613d7a84602001515f8660a001515f610fbc565b815250815f81518110613d8f57613d8f614089565b602090810291909101015260405162dc47c360e11b81527352aa899454998be5b000ad077a46bbe360f4e497906301b88f86906123879084906004016144ae565b6040518060c001604052805f6001600160a01b031681526020015f6001600160a01b031681526020015f60ff1681526020015f81526020015f81526020015f81525090565b6040518060e001604052805f6001600160a01b031681526020015f6001600160a01b031681526020015f60ff1681526020015f81526020015f81526020015f81526020015f81525090565b80151581146123b6575f80fd5b5f60208284031215613e7d575f80fd5b8135613e8881613e60565b9392505050565b5f60208284031215613e9f575f80fd5b5035919050565b5f8060208385031215613eb7575f80fd5b823567ffffffffffffffff80821115613ece575f80fd5b818501915085601f830112613ee1575f80fd5b813581811115613eef575f80fd5b8660208260051b8501011115613f03575f80fd5b60209290920196919550909350505050565b6001600160a01b03811681146123b6575f80fd5b5f805f8060808587031215613f3c575f80fd5b8435613f4781613f15565b935060208501359250604085013591506060850135613f6581613e60565b939692955090935050565b634e487b7160e01b5f52604160045260245ffd5b5f60208284031215613f94575f80fd5b813567ffffffffffffffff80821115613fab575f80fd5b818401915084601f830112613fbe575f80fd5b813581811115613fd057613fd0613f70565b604051601f8201601f19908116603f01168101908382118183101715613ff857613ff8613f70565b81604052828152876020848701011115614010575f80fd5b826020860160208301375f928101602001929092525095945050505050565b5f6020828403121561403f575f80fd5b8135613e8881613f15565b5f6020828403121561405a575f80fd5b813564ffffffffff81168114613e88575f80fd5b5f6020828403121561407e575f80fd5b8151613e8881613f15565b634e487b7160e01b5f52603260045260245ffd5b634e487b7160e01b5f52601160045260245ffd5b5f600182016140c2576140c261409d565b5060010190565b5f602082840312156140d9575f80fd5b5051919050565b8082028115828204841417610ad457610ad461409d565b634e487b7160e01b5f52601260045260245ffd5b5f8261412557634e487b7160e01b5f52601260045260245ffd5b500490565b600181815b8085111561416457815f190482111561414a5761414a61409d565b8085161561415757918102915b93841c939080029061412f565b509250929050565b5f8261417a57506001610ad4565b8161418657505f610ad4565b816001811461419c57600281146141a6576141c2565b6001915050610ad4565b60ff8411156141b7576141b761409d565b50506001821b610ad4565b5060208310610133831016604e8410600b84101617156141e5575081810a610ad4565b6141ef838361412a565b805f19048211156142025761420261409d565b029392505050565b5f613e88838361416c565b5f81518084525f5b818110156142395760208185018101518683018201520161421d565b505f602082860101526020601f19601f83011685010191505092915050565b60018060a01b038316815260606020820152600960608201526865786563757465282960b81b608082015260a060408201525f61184e60a0830184614215565b5f8151808452602080850194508084015f5b838110156142cf5781516001600160a01b0316875295820195908201906001016142aa565b509495945050505050565b5f8151808452602080850194508084015f5b838110156142cf578151875295820195908201906001016142ec565b5f82825180855260208086019550808260051b8401018186015f5b8481101561435157601f1986840301895261433f838351614215565b98840198925090830190600101614323565b5090979650505050505050565b5f815180845260208085019450848260051b86018286015f5b8581101561435157838303895261438f838351614215565b98850198925090840190600101614377565b60a081525f6143b360a0830188614298565b82810360208401526143c581886142da565b905082810360408401526143d98187614308565b905082810360608401526143ed818661435e565b905082810360808401526144018185614215565b98975050505050505050565b5f6020828403121561441d575f80fd5b8151613e8881613e60565b602080825282518282018190525f919060409081850190868401855b828110156144a157815180516001600160a01b0390811686528782015116878601528581015160ff1686860152606080820151908601526080808201519086015260a0908101519085015260c09093019290850190600101614444565b5091979650505050505050565b602080825282518282018190525f919060409081850190868401855b828110156144a157815180516001600160a01b0390811686528782015116878601528581015160ff1686860152606080820151908601526080808201519086015260a0808201519086015260c0908101519085015260e090930192908501906001016144ca565b604081525f6145436040830185614298565b828103602084015261455581856142da565b95945050505050565b60c081525f61457060c0830189614298565b828103602084015261458281896142da565b9050828103604084015261459681886142da565b905082810360608401526145aa81876142da565b905082810360808401526145be81866142da565b905082810360a08401526145d281856142da565b9998505050505050505050565b606081525f6145f16060830186614308565b8281036020840152614603818661435e565b91505060018060a01b0383166040830152949350505050565b634e487b7160e01b5f52602160045260245ffd5b6001600160a01b039384168152919092166020820152901515604082015260600190565b602080825282518282018190525f919060409081850190868401855b828110156144a157815180516001600160a01b0316855286810151878601528581015186860152606080820151908601526080908101519085015260a0909301929085019060010161467056fe657865637574655061796c6f616428616464726573732c737472696e672c6279746573290000000000000000000000004f6f977acdd1177dcd81ab83074855ecb9c2d49ea264697066735822122074e4af8df2833155996e913bfdc2565b34355d163acca6f8efec7c3743df58f364736f6c63430008150033",
  "linkReferences": {},
  "deployedLinkReferences": {},
  "immutableReferences": {
    "792": [
      {
        "length": 32,
        "start": 1997
      },
      {
        "length": 32,
        "start": 7011
      },
      {
        "length": 32,
        "start": 7389
      },
      {
        "length": 32,
        "start": 8519
      },
      {
        "length": 32,
        "start": 8746
      },
      {
        "length": 32,
        "start": 9170
      },
      {
        "length": 32,
        "start": 10785
      },
      {
        "length": 32,
        "start": 11358
      },
      {
        "length": 32,
        "start": 13027
      }
    ]
  },
  "inputSourceName": "project/contracts/payloads/IGP131/PayloadIGP131.sol",
  "buildInfoId": "solc-0_8_21-4b7abb23914bc9fbb5beffb750987260e628864f"
}