{
  "_format": "hh3-artifact-1",
  "contractName": "PayloadIGP132",
  "sourceName": "contracts/payloads/IGP132/PayloadIGP132.sol",
  "abi": [
    {
      "inputs": [
        {
          "internalType": "uint256",
          "name": "errorId_",
          "type": "uint256"
        }
      ],
      "name": "FluidLiquidityCalcsError",
      "type": "error"
    },
    {
      "anonymous": false,
      "inputs": [
        {
          "indexed": true,
          "internalType": "uint256",
          "name": "action",
          "type": "uint256"
        },
        {
          "indexed": true,
          "internalType": "address",
          "name": "by",
          "type": "address"
        }
      ],
      "name": "ActionSkipped",
      "type": "event"
    },
    {
      "anonymous": false,
      "inputs": [
        {
          "indexed": false,
          "internalType": "uint40",
          "name": "at",
          "type": "uint40"
        }
      ],
      "name": "ProposalCreationTimeSet",
      "type": "event"
    },
    {
      "inputs": [],
      "name": "ADDRESS_THIS",
      "outputs": [
        {
          "internalType": "address",
          "name": "",
          "type": "address"
        }
      ],
      "stateMutability": "view",
      "type": "function"
    },
    {
      "inputs": [],
      "name": "BTC_USD_PRICE",
      "outputs": [
        {
          "internalType": "uint256",
          "name": "",
          "type": "uint256"
        }
      ],
      "stateMutability": "pure",
      "type": "function"
    },
    {
      "inputs": [],
      "name": "DEX_FACTORY",
      "outputs": [
        {
          "internalType": "contract IFluidDexFactory",
          "name": "",
          "type": "address"
        }
      ],
      "stateMutability": "view",
      "type": "function"
    },
    {
      "inputs": [],
      "name": "DSA_CONNECTORS_V2",
      "outputs": [
        {
          "internalType": "contract IDSAConnectorsV2",
          "name": "",
          "type": "address"
        }
      ],
      "stateMutability": "view",
      "type": "function"
    },
    {
      "inputs": [],
      "name": "ETH_USD_PRICE",
      "outputs": [
        {
          "internalType": "uint256",
          "name": "",
          "type": "uint256"
        }
      ],
      "stateMutability": "pure",
      "type": "function"
    },
    {
      "inputs": [],
      "name": "FLUID_RESERVE",
      "outputs": [
        {
          "internalType": "contract IFluidReserveContract",
          "name": "",
          "type": "address"
        }
      ],
      "stateMutability": "view",
      "type": "function"
    },
    {
      "inputs": [],
      "name": "FLUID_USD_PRICE",
      "outputs": [
        {
          "internalType": "uint256",
          "name": "",
          "type": "uint256"
        }
      ],
      "stateMutability": "pure",
      "type": "function"
    },
    {
      "inputs": [],
      "name": "FLUID_VAULT_FACTORY_OWNER",
      "outputs": [
        {
          "internalType": "contract IFluidVaultFactory",
          "name": "",
          "type": "address"
        }
      ],
      "stateMutability": "view",
      "type": "function"
    },
    {
      "inputs": [],
      "name": "GOVERNOR",
      "outputs": [
        {
          "internalType": "contract IGovernorBravo",
          "name": "",
          "type": "address"
        }
      ],
      "stateMutability": "view",
      "type": "function"
    },
    {
      "inputs": [],
      "name": "IETHV2",
      "outputs": [
        {
          "internalType": "contract ILite",
          "name": "",
          "type": "address"
        }
      ],
      "stateMutability": "view",
      "type": "function"
    },
    {
      "inputs": [],
      "name": "JRUSDE_USD_PRICE",
      "outputs": [
        {
          "internalType": "uint256",
          "name": "",
          "type": "uint256"
        }
      ],
      "stateMutability": "pure",
      "type": "function"
    },
    {
      "inputs": [],
      "name": "LENDING_FACTORY",
      "outputs": [
        {
          "internalType": "contract IFluidLendingFactory",
          "name": "",
          "type": "address"
        }
      ],
      "stateMutability": "view",
      "type": "function"
    },
    {
      "inputs": [],
      "name": "LIQUIDITY",
      "outputs": [
        {
          "internalType": "contract IFluidLiquidityAdmin",
          "name": "",
          "type": "address"
        }
      ],
      "stateMutability": "view",
      "type": "function"
    },
    {
      "inputs": [],
      "name": "OSETH_USD_PRICE",
      "outputs": [
        {
          "internalType": "uint256",
          "name": "",
          "type": "uint256"
        }
      ],
      "stateMutability": "pure",
      "type": "function"
    },
    {
      "inputs": [],
      "name": "PAXG_USD_PRICE",
      "outputs": [
        {
          "internalType": "uint256",
          "name": "",
          "type": "uint256"
        }
      ],
      "stateMutability": "pure",
      "type": "function"
    },
    {
      "inputs": [],
      "name": "PROPOSAL_ID",
      "outputs": [
        {
          "internalType": "uint256",
          "name": "",
          "type": "uint256"
        }
      ],
      "stateMutability": "view",
      "type": "function"
    },
    {
      "inputs": [],
      "name": "PROPOSER",
      "outputs": [
        {
          "internalType": "address",
          "name": "",
          "type": "address"
        }
      ],
      "stateMutability": "view",
      "type": "function"
    },
    {
      "inputs": [],
      "name": "PROPOSER_AVO_MULTISIG",
      "outputs": [
        {
          "internalType": "address",
          "name": "",
          "type": "address"
        }
      ],
      "stateMutability": "view",
      "type": "function"
    },
    {
      "inputs": [],
      "name": "PROPOSER_AVO_MULTISIG_2",
      "outputs": [
        {
          "internalType": "address",
          "name": "",
          "type": "address"
        }
      ],
      "stateMutability": "view",
      "type": "function"
    },
    {
      "inputs": [],
      "name": "PROPOSER_AVO_MULTISIG_3",
      "outputs": [
        {
          "internalType": "address",
          "name": "",
          "type": "address"
        }
      ],
      "stateMutability": "view",
      "type": "function"
    },
    {
      "inputs": [],
      "name": "PROPOSER_AVO_MULTISIG_4",
      "outputs": [
        {
          "internalType": "address",
          "name": "",
          "type": "address"
        }
      ],
      "stateMutability": "view",
      "type": "function"
    },
    {
      "inputs": [],
      "name": "PROPOSER_AVO_MULTISIG_5",
      "outputs": [
        {
          "internalType": "address",
          "name": "",
          "type": "address"
        }
      ],
      "stateMutability": "view",
      "type": "function"
    },
    {
      "inputs": [],
      "name": "PST_USD_PRICE",
      "outputs": [
        {
          "internalType": "uint256",
          "name": "",
          "type": "uint256"
        }
      ],
      "stateMutability": "pure",
      "type": "function"
    },
    {
      "inputs": [],
      "name": "RESERVE_CONTRACT_PROXY",
      "outputs": [
        {
          "internalType": "address",
          "name": "",
          "type": "address"
        }
      ],
      "stateMutability": "view",
      "type": "function"
    },
    {
      "inputs": [],
      "name": "REUSD_USD_PRICE",
      "outputs": [
        {
          "internalType": "uint256",
          "name": "",
          "type": "uint256"
        }
      ],
      "stateMutability": "pure",
      "type": "function"
    },
    {
      "inputs": [],
      "name": "RLP_USD_PRICE",
      "outputs": [
        {
          "internalType": "uint256",
          "name": "",
          "type": "uint256"
        }
      ],
      "stateMutability": "pure",
      "type": "function"
    },
    {
      "inputs": [],
      "name": "SMART_LENDING_FACTORY",
      "outputs": [
        {
          "internalType": "contract IFluidSmartLendingFactory",
          "name": "",
          "type": "address"
        }
      ],
      "stateMutability": "view",
      "type": "function"
    },
    {
      "inputs": [],
      "name": "SRUSDE_USD_PRICE",
      "outputs": [
        {
          "internalType": "uint256",
          "name": "",
          "type": "uint256"
        }
      ],
      "stateMutability": "pure",
      "type": "function"
    },
    {
      "inputs": [],
      "name": "STABLE_USD_PRICE",
      "outputs": [
        {
          "internalType": "uint256",
          "name": "",
          "type": "uint256"
        }
      ],
      "stateMutability": "pure",
      "type": "function"
    },
    {
      "inputs": [],
      "name": "STETH_REDEMPTION_PROTOCOL",
      "outputs": [
        {
          "internalType": "contract IStETHRedemptionProtocol",
          "name": "",
          "type": "address"
        }
      ],
      "stateMutability": "view",
      "type": "function"
    },
    {
      "inputs": [],
      "name": "TEAM_MULTISIG",
      "outputs": [
        {
          "internalType": "address",
          "name": "",
          "type": "address"
        }
      ],
      "stateMutability": "view",
      "type": "function"
    },
    {
      "inputs": [],
      "name": "TEAM_MULTISIG_2",
      "outputs": [
        {
          "internalType": "address",
          "name": "",
          "type": "address"
        }
      ],
      "stateMutability": "view",
      "type": "function"
    },
    {
      "inputs": [],
      "name": "TIMELOCK",
      "outputs": [
        {
          "internalType": "contract ITimelock",
          "name": "",
          "type": "address"
        }
      ],
      "stateMutability": "view",
      "type": "function"
    },
    {
      "inputs": [],
      "name": "TREASURY",
      "outputs": [
        {
          "internalType": "contract IDSAV2",
          "name": "",
          "type": "address"
        }
      ],
      "stateMutability": "view",
      "type": "function"
    },
    {
      "inputs": [],
      "name": "VAULT_FACTORY",
      "outputs": [
        {
          "internalType": "contract IFluidVaultFactory",
          "name": "",
          "type": "address"
        }
      ],
      "stateMutability": "view",
      "type": "function"
    },
    {
      "inputs": [],
      "name": "XAUT_USD_PRICE",
      "outputs": [
        {
          "internalType": "uint256",
          "name": "",
          "type": "uint256"
        }
      ],
      "stateMutability": "pure",
      "type": "function"
    },
    {
      "inputs": [
        {
          "internalType": "uint256",
          "name": "action_",
          "type": "uint256"
        }
      ],
      "name": "actionStatus",
      "outputs": [
        {
          "internalType": "bool",
          "name": "",
          "type": "bool"
        }
      ],
      "stateMutability": "view",
      "type": "function"
    },
    {
      "inputs": [],
      "name": "csUSDL_USD_PRICE",
      "outputs": [
        {
          "internalType": "uint256",
          "name": "",
          "type": "uint256"
        }
      ],
      "stateMutability": "pure",
      "type": "function"
    },
    {
      "inputs": [],
      "name": "execute",
      "outputs": [],
      "stateMutability": "nonpayable",
      "type": "function"
    },
    {
      "inputs": [],
      "name": "ezETH_USD_PRICE",
      "outputs": [
        {
          "internalType": "uint256",
          "name": "",
          "type": "uint256"
        }
      ],
      "stateMutability": "pure",
      "type": "function"
    },
    {
      "inputs": [
        {
          "internalType": "uint256",
          "name": "dexId_",
          "type": "uint256"
        }
      ],
      "name": "getDexAddress",
      "outputs": [
        {
          "internalType": "address",
          "name": "",
          "type": "address"
        }
      ],
      "stateMutability": "view",
      "type": "function"
    },
    {
      "inputs": [
        {
          "internalType": "address",
          "name": "token",
          "type": "address"
        }
      ],
      "name": "getFTokenAddress",
      "outputs": [
        {
          "internalType": "address",
          "name": "",
          "type": "address"
        }
      ],
      "stateMutability": "view",
      "type": "function"
    },
    {
      "inputs": [],
      "name": "getProposalCreationTime",
      "outputs": [
        {
          "internalType": "uint40",
          "name": "",
          "type": "uint40"
        }
      ],
      "stateMutability": "view",
      "type": "function"
    },
    {
      "inputs": [
        {
          "internalType": "address",
          "name": "token",
          "type": "address"
        },
        {
          "internalType": "uint256",
          "name": "amount",
          "type": "uint256"
        },
        {
          "internalType": "uint256",
          "name": "amountInUSD",
          "type": "uint256"
        },
        {
          "internalType": "bool",
          "name": "isSupply",
          "type": "bool"
        }
      ],
      "name": "getRawAmount",
      "outputs": [
        {
          "internalType": "uint256",
          "name": "",
          "type": "uint256"
        }
      ],
      "stateMutability": "view",
      "type": "function"
    },
    {
      "inputs": [
        {
          "internalType": "uint256",
          "name": "dexId_",
          "type": "uint256"
        }
      ],
      "name": "getSmartLendingAddress",
      "outputs": [
        {
          "internalType": "address",
          "name": "",
          "type": "address"
        }
      ],
      "stateMutability": "view",
      "type": "function"
    },
    {
      "inputs": [
        {
          "internalType": "uint256",
          "name": "vaultId_",
          "type": "uint256"
        }
      ],
      "name": "getVaultAddress",
      "outputs": [
        {
          "internalType": "address",
          "name": "",
          "type": "address"
        }
      ],
      "stateMutability": "view",
      "type": "function"
    },
    {
      "inputs": [],
      "name": "isProposalExecutable",
      "outputs": [
        {
          "internalType": "bool",
          "name": "",
          "type": "bool"
        }
      ],
      "stateMutability": "view",
      "type": "function"
    },
    {
      "inputs": [],
      "name": "mETH_USD_PRICE",
      "outputs": [
        {
          "internalType": "uint256",
          "name": "",
          "type": "uint256"
        }
      ],
      "stateMutability": "pure",
      "type": "function"
    },
    {
      "inputs": [
        {
          "internalType": "string",
          "name": "description",
          "type": "string"
        }
      ],
      "name": "propose",
      "outputs": [],
      "stateMutability": "nonpayable",
      "type": "function"
    },
    {
      "inputs": [],
      "name": "rsETH_USD_PRICE",
      "outputs": [
        {
          "internalType": "uint256",
          "name": "",
          "type": "uint256"
        }
      ],
      "stateMutability": "pure",
      "type": "function"
    },
    {
      "inputs": [],
      "name": "sUSDe_USD_PRICE",
      "outputs": [
        {
          "internalType": "uint256",
          "name": "",
          "type": "uint256"
        }
      ],
      "stateMutability": "pure",
      "type": "function"
    },
    {
      "inputs": [],
      "name": "sUSDs_USD_PRICE",
      "outputs": [
        {
          "internalType": "uint256",
          "name": "",
          "type": "uint256"
        }
      ],
      "stateMutability": "pure",
      "type": "function"
    },
    {
      "inputs": [
        {
          "internalType": "uint256[]",
          "name": "actionsToSkip_",
          "type": "uint256[]"
        }
      ],
      "name": "setActionsToSkip",
      "outputs": [],
      "stateMutability": "nonpayable",
      "type": "function"
    },
    {
      "inputs": [
        {
          "internalType": "uint40",
          "name": "proposalCreationTime_",
          "type": "uint40"
        }
      ],
      "name": "setProposalCreationTime",
      "outputs": [],
      "stateMutability": "nonpayable",
      "type": "function"
    },
    {
      "inputs": [],
      "name": "syrupUSDC_USD_PRICE",
      "outputs": [
        {
          "internalType": "uint256",
          "name": "",
          "type": "uint256"
        }
      ],
      "stateMutability": "pure",
      "type": "function"
    },
    {
      "inputs": [],
      "name": "syrupUSDT_USD_PRICE",
      "outputs": [
        {
          "internalType": "uint256",
          "name": "",
          "type": "uint256"
        }
      ],
      "stateMutability": "pure",
      "type": "function"
    },
    {
      "inputs": [
        {
          "internalType": "bool",
          "name": "isExecutable_",
          "type": "bool"
        }
      ],
      "name": "toggleExecutable",
      "outputs": [],
      "stateMutability": "nonpayable",
      "type": "function"
    },
    {
      "inputs": [],
      "name": "verifyProposal",
      "outputs": [],
      "stateMutability": "view",
      "type": "function"
    },
    {
      "inputs": [],
      "name": "weETH_USD_PRICE",
      "outputs": [
        {
          "internalType": "uint256",
          "name": "",
          "type": "uint256"
        }
      ],
      "stateMutability": "pure",
      "type": "function"
    },
    {
      "inputs": [],
      "name": "weETHs_USD_PRICE",
      "outputs": [
        {
          "internalType": "uint256",
          "name": "",
          "type": "uint256"
        }
      ],
      "stateMutability": "pure",
      "type": "function"
    },
    {
      "inputs": [],
      "name": "wstETH_USD_PRICE",
      "outputs": [
        {
          "internalType": "uint256",
          "name": "",
          "type": "uint256"
        }
      ],
      "stateMutability": "pure",
      "type": "function"
    },
    {
      "inputs": [],
      "name": "wstUSR_USD_PRICE",
      "outputs": [
        {
          "internalType": "uint256",
          "name": "",
          "type": "uint256"
        }
      ],
      "stateMutability": "pure",
      "type": "function"
    }
  ],
  "bytecode": "0x60a060405234801561000f575f80fd5b503060805260805161301d61004f5f395f818161076c01528181611b5101528181611cd201528181612185015281816122680152612534015261301d5ff3fe608060405234801561000f575f80fd5b50600436106103a8575f3560e01c80637aadef8b116101ea578063ac1236f711610114578063c60dc265116100a9578063f6370aa911610079578063f6370aa9146107bc578063f88ed60c146107c4578063fb0ae918146107df578063fcee0c98146107f2575f80fd5b8063c60dc26514610754578063cc025f7c14610767578063e6bd26a21461078e578063f53eddcc146107a1575f80fd5b8063b788f3a1116100e4578063b788f3a11461070e578063bc3301a814610729578063bcbcc4e214610731578063bffa7f0f14610739575f80fd5b8063ac1236f7146106e3578063ae68032b146106fe578063b696649514610534578063b753428b14610706575f80fd5b80639781a8ca1161018a578063a5caf0f61161015a578063a5caf0f61461068b578063a64f5693146106ad578063a9055836146106c8578063aa98df39146106d0575f80fd5b80639781a8ca1461063c57806397b87b4a146106445780639d3d2a781461065f5780639ef9473714610672575f80fd5b8063841d2699116101c5578063841d2699146105eb57806395861bd7146105fe57806396bac9311461061957806396db7d5c14610634575f80fd5b80637aadef8b146105ad5780637e2f35fa146105c857806383f5d77a146105e3575f80fd5b806328787d00116102d6578063623007321161026b5780636dc0ae221161023b5780636dc0ae221461056f5780637000778e1461058a578063727a7c8414610592578063798d5ba31461059a575f80fd5b8063623007321461055757806364e9d5671461055f5780636521e19f1461056757806366760d7d1461042d575f80fd5b806348bbb557116102a657806348bbb557146104fe578063588c77e61461051957806358f2552e14610534578063614619541461054f575f80fd5b806328787d00146104cb5780632b54c373146104d35780632d2c5565146104db5780633484818b146104f6575f80fd5b8063103f29071161034c578063194c0e181161031c578063194c0e18146104855780631bbc51a71461048d57806325ad7f4d146104955780632861c7d1146104b0575f80fd5b8063103f29071461042f57806311ae7a141461044a57806312e366aa146104525780631392d4ee14610465575f80fd5b80630b0a1d9c116103875780630b0a1d9c146103d75780630b396e661461040a5780630bc9136e146104125780630e6a204c1461041a575f80fd5b8062623d7d146103ac5780630251eb11146103c7578063040e7a80146103cf575b5f80fd5b6103b461080d565b6040519081526020015b60405180910390f35b6103b461085c565b6103b46108a6565b6103f2731f6b2bfdd5d1e6ade7b17027ff5300419a56ad6b81565b6040516001600160a01b0390911681526020016103be565b6103b46108f0565b6103b4608481565b61042d610428366004612953565b61093a565b005b6103f273324c5dc1fc42c7a4d43d92df1eba58a54d13bf2d81565b6103b46109b3565b6103f2610460366004612975565b6109fd565b60055465010000000000900460ff165b60405190151581526020016103be565b6103b4610a78565b6103b4610ac2565b6103f2739efde135ca4832abf0408c44c6f5f370eb0f35e881565b6103f27352aa899454998be5b000ad077a46bbe360f4e49781565b6103b4610b0c565b6103b4610b56565b6103f27328849d2b63fa8d361e5fc15cb8abb13019884d0981565b6103b4610ba0565b6103f273e7eb63a8b6392481a9fdebb108cfd580dc8664d381565b6103f2735c43aac965ff230ac1cf63e924d0153291d78bad81565b6103f273264786ef916af64a1db19f513f24a3681734ce9281565b61042d610be3565b6103b4610bfd565b6103b4610c3f565b6103b4610c89565b6103f2730204cd037b2ec03605cfdfe482d8e257c765fa1b81565b6103b4610cd3565b6103b4610d16565b61042d6105a836600461298c565b610d60565b6103f2732386dc45added673317ef068992f19421b481f4c81565b6103f273059a94a72951c0ae1cc1ce3bf0db52421bbe821081565b6103b4610e92565b6103f26105f9366004612975565b610ed4565b6103f273a0d3707c569ff8c87fa923d3823ec5d81c98be7881565b6103f27354b91a0d94cb471f37f949c60f7fa7935b551d0381565b6103b4610f0e565b6103b4610f51565b6103f27391716c4eda1fb55e84bf8b4c7085f84285c1908581565b6103b461066d366004612a0f565b610f93565b60055460405164ffffffffff90911681526020016103be565b610475610699366004612975565b5f9081526006602052604090205460ff1690565b6103f27397b0b3a8bdefe8cb9563a3c610019ad10db8ad1181565b6103b461183d565b61042d6106de366004612a6a565b611887565b6103f273b031913cb7ad81b8a4ba412b471c2da69bea410b81565b6103b4611d3b565b6103b4611d85565b6103f2734f6f977acdd1177dcd81ab83074855ecb9c2d49e81565b6103b4611dcf565b6103b4611e19565b6103f273a45f7bd6a5ff45d31aace6bcd3d426d9328cea0181565b6103f2610762366004612b15565b611e5b565b6103f27f000000000000000000000000000000000000000000000000000000000000000081565b6103f261079c366004612975565b611f49565b6103f273e57227c7d5900165344b190fc7aa580bceb53b9b81565b6103b4611f83565b6103f2733daff61fe5cfb1f1b4ea7fba8173a58532ef184181565b61042d6107ed366004612b30565b611fcd565b6103f2731e2e1aed876f67fe4fd54090fd7b8f57ce23421981565b60405162461bcd60e51b815260206004820152601760248201527f464c5549445f5553445f5052494345206e6f742073657400000000000000000060448201525f906064015b60405180910390fd5b60405162461bcd60e51b815260206004820152601860248201527f7765455448735f5553445f5052494345206e6f7420736574000000000000000060448201525f90606401610853565b60405162461bcd60e51b815260206004820152601860248201527f4a52555344455f5553445f5052494345206e6f7420736574000000000000000060448201525f90606401610853565b60405162461bcd60e51b815260206004820152601760248201527f72734554485f5553445f5052494345206e6f742073657400000000000000000060448201525f90606401610853565b33734f6f977acdd1177dcd81ab83074855ecb9c2d49e146109915760405162461bcd60e51b81526020600482015260116024820152706e6f742d7465616d2d6d756c746973696760781b6044820152606401610853565b60058054911515650100000000000265ff000000000019909216919091179055565b60405162461bcd60e51b815260206004820152601760248201527f73555344655f5553445f5052494345206e6f742073657400000000000000000060448201525f90606401610853565b604051630971b35560e11b8152600481018290525f907391716c4eda1fb55e84bf8b4c7085f84285c19085906312e366aa906024015b602060405180830381865afa158015610a4e573d5f803e3d5ffd5b505050506040513d601f19601f82011682018060405250810190610a729190612b54565b92915050565b60405162461bcd60e51b815260206004820152601860248201527f7773744554485f5553445f5052494345206e6f7420736574000000000000000060448201525f90606401610853565b60405162461bcd60e51b815260206004820152601b60248201527f7379727570555344545f5553445f5052494345206e6f7420736574000000000060448201525f90606401610853565b60405162461bcd60e51b815260206004820152601860248201527f535441424c455f5553445f5052494345206e6f7420736574000000000000000060448201525f90606401610853565b60405162461bcd60e51b815260206004820152601860248201527f63735553444c5f5553445f5052494345206e6f7420736574000000000000000060448201525f90606401610853565b60405162461bcd60e51b815260206004820152601660248201527514105611d7d554d117d4149250d1481b9bdd081cd95d60521b60448201525f90606401610853565b610beb61212d565b610bf361224f565b610bfb61251b565b565b60405162461bcd60e51b815260206004820152601560248201527411551217d554d117d4149250d1481b9bdd081cd95d605a1b60448201525f90606401610853565b60405162461bcd60e51b815260206004820152601760248201527f73555344735f5553445f5052494345206e6f742073657400000000000000000060448201525f90606401610853565b60405162461bcd60e51b815260206004820152601760248201527f657a4554485f5553445f5052494345206e6f742073657400000000000000000060448201525f90606401610853565b60405162461bcd60e51b81526020600482015260166024820152751610555517d554d117d4149250d1481b9bdd081cd95d60521b60448201525f90606401610853565b60405162461bcd60e51b815260206004820152601760248201527f52455553445f5553445f5052494345206e6f742073657400000000000000000060448201525f90606401610853565b33734f6f977acdd1177dcd81ab83074855ecb9c2d49e14610db75760405162461bcd60e51b81526020600482015260116024820152706e6f742d7465616d2d6d756c746973696760781b6044820152606401610853565b5f5b81811015610e8d5760065f848484818110610dd657610dd6612b6f565b602090810292909201358352508101919091526040015f205460ff16610e7b57600160065f858585818110610e0d57610e0d612b6f565b602090810292909201358352508101919091526040015f20805460ff191691151591909117905533838383818110610e4757610e47612b6f565b905060200201357f73d6986e29f26b55373edd4820203ff5e60986cb7a4b8456fb988f0aa546a2f060405160405180910390a35b80610e8581612b97565b915050610db9565b505050565b60405162461bcd60e51b815260206004820152601560248201527414931417d554d117d4149250d1481b9bdd081cd95d605a1b60448201525f90606401610853565b60405163841d269960e01b8152600481018290525f9073e57227c7d5900165344b190fc7aa580bceb53b9b9063841d269990602401610a33565b60405162461bcd60e51b81526020600482015260166024820152751b51551217d554d117d4149250d1481b9bdd081cd95d60521b60448201525f90606401610853565b60405162461bcd60e51b8152602060048201526015602482015274109510d7d554d117d4149250d1481b9bdd081cd95d605a1b60448201525f90606401610853565b5f8084118015610fa257505f83115b15610fef5760405162461bcd60e51b815260206004820181905260248201527f626f74682075736420616e6420616d6f756e7420617265206e6f74207a65726f6044820152606401610853565b5f8073eeeeeeeeeeeeeeeeeeeeeeeeeeeeeeeeeeeeeeed196001600160a01b038816016110295761101e610bfd565b9150601290506116f4565b737f39c581f595b53c5cb19bd0b3f8da6c935e2c9f196001600160a01b038816016110565761101e610a78565b73cd5fe23c85820f7b72d0926fc9b05b43e359b7ed196001600160a01b038816016110835761101e611f83565b73a1290d69c65a6fe4df752f95823fae25cb99e5a6196001600160a01b038816016110b05761101e6108f0565b73917cee801a67f933f2e6b33fc0cd1ed2d5909d87196001600160a01b038816016110dd5761101e61085c565b73d5f7838f5c461feff7fe49ea5ebaf7728bb0adf9196001600160a01b0388160161110a5761101e610f0e565b73bf5495efe5db9ce00f80364c8b423567e58d210f196001600160a01b038816016111375761101e610c89565b73f1c9acdc66974dfb6decb12aa385b9cd01190e37196001600160a01b038816016111645761101e611dcf565b732260fac5e5542a773aa44fbcfedf7c193bc2c598196001600160a01b0388160161119c57611191610f51565b9150600890506116f4565b73cbb7c0000ab88b473b1f5afd9ef808440eed33be196001600160a01b038816016111c957611191610f51565b7318084fba666a33d37592fa2633fd49a74dd93a87196001600160a01b038816016111f65761101e610f51565b73657e8c867d8b37dcc18fa4caead9c45eb088c641196001600160a01b0388160161122357611191610f51565b738236a87084f8b84306f72007f36f2618a5634493196001600160a01b0388160161125057611191610f51565b73a0b86991c6218b36c1d19d4a2e9eb0ce3606eb47196001600160a01b038816016112885761127d610b0c565b9150600690506116f4565b73dac17f958d2ee523a2206206994597c13d831ec6196001600160a01b038816016112b55761127d610b0c565b7340d16fc0246ad3160ccc09b8d0d3a2cd28ae6c2e196001600160a01b038816016112e25761101e610b0c565b734c9edd5852cd905f086c759e8383e09bff1e68b2196001600160a01b0388160161130f5761101e610b0c565b7315700b564ca08d9439c58ca5053166e8317aa137196001600160a01b0388160161133c5761101e610b0c565b7366a1e37c9b0eaddca17d3662d6c05f4decf3e10f196001600160a01b038816016113695761101e610b0c565b7373a15fed60bf67631dc6cd7bc5b6e8da8190acf4196001600160a01b038816016113965761101e610b0c565b73085780639cc2cacd35e474e71f4d000e2405d8f5196001600160a01b038816016113c35761101e610b0c565b73b01dd87b29d187f3e3a4bf6cdaebfb97f3d9ab97196001600160a01b038816016113f05761101e610b0c565b7348f9e38f3070ad8945dfeae3fa70987722e3d89b196001600160a01b0388160161141d5761101e610b0c565b73c139190f447e929f090edeb554d95abb8b18ac1b196001600160a01b0388160161144a5761101e610b0c565b739d39a5de30e57443bff2a8307a4256c8797a3496196001600160a01b038816016114775761101e6109b3565b73a3931d71877c0e7a3148cb7eb4463524fec27fbc196001600160a01b038816016114a45761101e610c3f565b73356b8d89c1e1239cbbb9de4815c39a1474d5ba7c196001600160a01b038816016114d15761127d610ac2565b7380ac24aa929eaf5013f6436cda2a7ba190f5cc0a196001600160a01b038816016114fe5761127d61183d565b735086bf358635b81d8c47c66d1c8b9e567db70c71196001600160a01b0388160161152b5761101e610d16565b7322ae3d9a738471f405169af055d31c687087d4c6196001600160a01b038816016115585761127d611e19565b73beefc011e94f43b8b7b455ebab290c7ab4e216f0196001600160a01b038816016115855761101e610b56565b73c58d044404d8b14e953c115e67823784dea53d8e196001600160a01b038816016115b25761101e6108a6565b733d7d6fdf07ee548b939a80edbc9b2256d0cdc002196001600160a01b038816016115df5761101e611d85565b731202f5c7b4b9e47a1a484e8b270be34dbbc75054196001600160a01b0388160161160c5761101e611d3b565b734956b52ae2ff65d74ca2d61207523288e4528f95196001600160a01b038816016116395761101e610e92565b736f40d4a6237c257fff2db00fa0510deeecd303ea196001600160a01b038816016116665761101e61080d565b7368749665ff8d2d112fa859aa293f07a622782f37196001600160a01b038816016116935761127d610cd3565b7345804880de22913dafe09f4980848ece6ecbaf77196001600160a01b038816016116c05761101e610ba0565b60405162461bcd60e51b81526020600482015260096024820152681b9bdd0b599bdd5b9960ba1b6044820152606401610853565b604080516001600160a01b03891660208083019190915260058284015282518083038401815260608301938490528051910120632d71cdb960e21b90925260648101919091525f907352aa899454998be5b000ad077a46bbe360f4e4979063b5c736e490608401602060405180830381865afa158015611776573d5f803e3d5ffd5b505050506040513d601f19601f8201168201806040525081019061179a9190612baf565b90505f806117a78361260d565b915091505f876117b757816117b9565b825b905089156117e857806117d18b64e8d4a51000612bc6565b6117db9190612bf1565b9650505050505050611835565b60646117f48288612bc6565b6117fe9190612bf1565b61180986600a612cf0565b6118188b64e8d4a51000612bc6565b6118229190612bc6565b61182c9190612bf1565b96505050505050505b949350505050565b60405162461bcd60e51b815260206004820152601b60248201527f7379727570555344435f5553445f5052494345206e6f7420736574000000000060448201525f90606401610853565b3373a45f7bd6a5ff45d31aace6bcd3d426d9328cea0114806118bc575033734f6f977acdd1177dcd81ab83074855ecb9c2d49e145b806118da57503073059a94a72951c0ae1cc1ce3bf0db52421bbe8210145b806118f8575030739efde135ca4832abf0408c44c6f5f370eb0f35e8145b80611916575030735c43aac965ff230ac1cf63e924d0153291d78bad145b80611934575030733daff61fe5cfb1f1b4ea7fba8173a58532ef1841145b8061195257503073e7eb63a8b6392481a9fdebb108cfd580dc8664d3145b6119975760405162461bcd60e51b81526020600482015260166024820152751b5cd9cb9cd95b99195c8b5b9bdd0b585b1b1bddd95960521b6044820152606401610853565b6040805160018082528183019092525f9082602080830190803683370190505090505f8267ffffffffffffffff8111156119d3576119d3612a56565b6040519080825280602002602001820160405280156119fc578160200160208202803683370190505b5090505f8367ffffffffffffffff811115611a1957611a19612a56565b604051908082528060200260200182016040528015611a4c57816020015b6060815260200190600190039081611a375790505b5090505f8467ffffffffffffffff811115611a6957611a69612a56565b604051908082528060200260200182016040528015611a9c57816020015b6060815260200190600190039081611a875790505b509050732386dc45added673317ef068992f19421b481f4c845f81518110611ac657611ac6612b6f565b60200260200101906001600160a01b031690816001600160a01b0316815250505f835f81518110611af957611af9612b6f565b602002602001018181525050604051806060016040528060248152602001612fc460249139825f81518110611b3057611b30612b6f565b602090810291909101810191909152604080515f81529182018152611b78917f0000000000000000000000000000000000000000000000000000000000000000918101612d3e565b604051602081830303815290604052815f81518110611b9957611b99612b6f565b6020908102919091010152604051636d4ab48d60e11b81525f90730204cd037b2ec03605cfdfe482d8e257c765fa1b9063da95691a90611be59088908890889088908e90600401612e0a565b6020604051808303815f875af1158015611c01573d5f803e3d5ffd5b505050506040513d601f19601f82011682018060405250810190611c259190612baf565b905060848114611c6e5760405162461bcd60e51b815260206004820152601460248201527350524f504f53414c5f49535f4e4f545f53414d4560601b6044820152606401610853565b3373a45f7bd6a5ff45d31aace6bcd3d426d9328cea011480611ca3575033734f6f977acdd1177dcd81ab83074855ecb9c2d49e145b15611cb657611cb142611fcd565b611d32565b604051631f615d2360e31b815264ffffffffff421660048201527f00000000000000000000000000000000000000000000000000000000000000006001600160a01b03169063fb0ae918906024015f604051808303815f87803b158015611d1b575f80fd5b505af1158015611d2d573d5f803e3d5ffd5b505050505b50505050505050565b60405162461bcd60e51b815260206004820152601860248201527f7773745553525f5553445f5052494345206e6f7420736574000000000000000060448201525f90606401610853565b60405162461bcd60e51b815260206004820152601860248201527f5352555344455f5553445f5052494345206e6f7420736574000000000000000060448201525f90606401610853565b60405162461bcd60e51b815260206004820152601760248201527f4f534554485f5553445f5052494345206e6f742073657400000000000000000060448201525f90606401610853565b60405162461bcd60e51b81526020600482015260156024820152741414d517d554d117d4149250d1481b9bdd081cd95d605a1b60448201525f90606401610853565b5f73c02aaa39b223fe8d0a0e5c4f27ead9083c756cc1196001600160a01b03831601611eea576040805163bb4a64d360e01b81526001600160a01b03841660048201526024810191909152601060448201526f4e6174697665556e6465726c79696e6760801b60648201527354b91a0d94cb471f37f949c60f7fa7935b551d039063bb4a64d390608401610a33565b6040805163bb4a64d360e01b81526001600160a01b038416600482015260248101919091526006604482015265332a37b5b2b760d11b60648201527354b91a0d94cb471f37f949c60f7fa7935b551d039063bb4a64d390608401610a33565b60405163735e935160e11b8152600481018290525f9073324c5dc1fc42c7a4d43d92df1eba58a54d13bf2d9063e6bd26a290602401610a33565b60405162461bcd60e51b815260206004820152601760248201527f77654554485f5553445f5052494345206e6f742073657400000000000000000060448201525f90606401610853565b3373a45f7bd6a5ff45d31aace6bcd3d426d9328cea011480612002575033734f6f977acdd1177dcd81ab83074855ecb9c2d49e145b8061202057503373059a94a72951c0ae1cc1ce3bf0db52421bbe8210145b8061203e575033739efde135ca4832abf0408c44c6f5f370eb0f35e8145b8061205c575033735c43aac965ff230ac1cf63e924d0153291d78bad145b8061207a575033733daff61fe5cfb1f1b4ea7fba8173a58532ef1841145b8061209857503373e7eb63a8b6392481a9fdebb108cfd580dc8664d3145b6120dd5760405162461bcd60e51b81526020600482015260166024820152751b5cd9cb9cd95b99195c8b5b9bdd0b585b1b1bddd95960521b6044820152606401610853565b6005805464ffffffffff191664ffffffffff83169081179091556040519081527fc63b190684342aebf3bbf9112171a1da60123c5f3035abfe69043e5b985bb74a9060200160405180910390a150565b30732386dc45added673317ef068992f19421b481f4c146121835760405162461bcd60e51b815260206004820152601060248201526f3737ba16bb30b634b216b1b0b63632b960811b6044820152606401610853565b7f00000000000000000000000000000000000000000000000000000000000000006001600160a01b0316631392d4ee6040518163ffffffff1660e01b8152600401602060405180830381865afa1580156121df573d5f803e3d5ffd5b505050506040513d601f19601f820116820180604052508101906122039190612ea8565b610bfb5760405162461bcd60e51b815260206004820152601760248201527f70726f706f73616c2d6e6f742d65786563757461626c650000000000000000006044820152606401610853565b6040516352e5787b60e11b8152600160048201819052907f00000000000000000000000000000000000000000000000000000000000000006001600160a01b03169063a5caf0f690602401602060405180830381865afa1580156122b5573d5f803e3d5ffd5b505050506040513d601f19601f820116820180604052508101906122d99190612ea8565b61251857604080516003808252608082019092525f91816020015b6123366040518060e001604052805f6001600160a01b031681526020015f81526020015f81526020015f81526020015f81526020015f81526020015f81525090565b8152602001906001900390816122f45790505090506040518060e0016040528073a0b86991c6218b36c1d19d4a2e9eb0ce3606eb486001600160a01b03168152602001612134815260200161245481526020015f8152602001610258815260200161032081526020016105dc815250815f815181106123b7576123b7612b6f565b60200260200101819052506040518060e0016040528073dac17f958d2ee523a2206206994597c13d831ec76001600160a01b03168152602001612134815260200161245481526020015f8152602001610258815260200161032081526020016105dc8152508160018151811061242f5761242f612b6f565b60200260200101819052506040518060e001604052807340d16fc0246ad3160ccc09b8d0d3a2cd28ae6c2f6001600160a01b03168152602001612134815260200161245481526020015f815260200161028a81526020016103b681526020016105dc815250816002815181106124a7576124a7612b6f565b6020908102919091010152604051639dde597760e01b81527352aa899454998be5b000ad077a46bbe360f4e49790639dde5977906124e9908490600401612ec3565b5f604051808303815f87803b158015612500575f80fd5b505af1158015612512573d5f803e3d5ffd5b50505050505b50565b6040516352e5787b60e11b8152600260048201819052907f00000000000000000000000000000000000000000000000000000000000000006001600160a01b03169063a5caf0f690602401602060405180830381865afa158015612581573d5f803e3d5ffd5b505050506040513d601f19601f820116820180604052508101906125a59190612ea8565b612518576125db734f6f977acdd1177dcd81ab83074855ecb9c2d49e73a0b86991c6218b36c1d19d4a2e9eb0ce3606eb48612802565b612518734f6f977acdd1177dcd81ab83074855ecb9c2d49e73dac17f958d2ee523a2206206994597c13d831ec7612802565b67ffffffffffffffff605b82901c811690609b83901c1681158061262f575080155b1561265257604051636a86ba8960e11b8152620111716004820152602401610853565b61ffff8316603a84901c6401ffffffff16428181039160ea87901c617fff1691148061267c575082155b806126875750806001145b1561269457505050915091565b64496cebb80084840283020484019350617fff60db87901c169250826001036126bf57505050915091565b826001166001036127145760019290921c91826c7e37be2022c0914b2680000000816126ed576126ed612bdd565b049250612710601e87901c613fff166b033b2e3c9fd0803ce8000000850102049250612741565b60019290921c916305f5e100601e87901c613fff166127108501026b033b2e3c9fd0803ce8000000020492505b806001166001036127785760011c61271081016b033b2e3c9fd0803ce800000082028161277057612770612bdd565b0490506127ae565b60011c61271081016b033b2e3c9fd0803ce800000082028161279c5761279c612bdd565b046b033b2e3c9fd0803ce80000000390505b760a70c3c40a64e6c51999090b65f67d92400000000000008382026127100261ffff881691900402601087901c613fff16612710030292506801b5a660ea44b8000085840283020485019450505050915091565b6040805160018082528183019092525f91816020015b6128666040518060e001604052805f6001600160a01b031681526020015f6001600160a01b031681526020015f60ff1681526020015f81526020015f81526020015f81526020015f81525090565b8152602001906001900390816128185790505090506040518060e00160405280846001600160a01b03168152602001836001600160a01b03168152602001600160ff1681526020016001815260200162ffffff8152602001600a81526020016014815250815f815181106128dc576128dc612b6f565b602090810291909101015260405162dc47c360e11b81527352aa899454998be5b000ad077a46bbe360f4e497906301b88f869061291d908490600401612f40565b5f604051808303815f87803b158015612934575f80fd5b505af1158015611d32573d5f803e3d5ffd5b8015158114612518575f80fd5b5f60208284031215612963575f80fd5b813561296e81612946565b9392505050565b5f60208284031215612985575f80fd5b5035919050565b5f806020838503121561299d575f80fd5b823567ffffffffffffffff808211156129b4575f80fd5b818501915085601f8301126129c7575f80fd5b8135818111156129d5575f80fd5b8660208260051b85010111156129e9575f80fd5b60209290920196919550909350505050565b6001600160a01b0381168114612518575f80fd5b5f805f8060808587031215612a22575f80fd5b8435612a2d816129fb565b935060208501359250604085013591506060850135612a4b81612946565b939692955090935050565b634e487b7160e01b5f52604160045260245ffd5b5f60208284031215612a7a575f80fd5b813567ffffffffffffffff80821115612a91575f80fd5b818401915084601f830112612aa4575f80fd5b813581811115612ab657612ab6612a56565b604051601f8201601f19908116603f01168101908382118183101715612ade57612ade612a56565b81604052828152876020848701011115612af6575f80fd5b826020860160208301375f928101602001929092525095945050505050565b5f60208284031215612b25575f80fd5b813561296e816129fb565b5f60208284031215612b40575f80fd5b813564ffffffffff8116811461296e575f80fd5b5f60208284031215612b64575f80fd5b815161296e816129fb565b634e487b7160e01b5f52603260045260245ffd5b634e487b7160e01b5f52601160045260245ffd5b5f60018201612ba857612ba8612b83565b5060010190565b5f60208284031215612bbf575f80fd5b5051919050565b8082028115828204841417610a7257610a72612b83565b634e487b7160e01b5f52601260045260245ffd5b5f82612c0b57634e487b7160e01b5f52601260045260245ffd5b500490565b600181815b80851115612c4a57815f1904821115612c3057612c30612b83565b80851615612c3d57918102915b93841c9390800290612c15565b509250929050565b5f82612c6057506001610a72565b81612c6c57505f610a72565b8160018114612c825760028114612c8c57612ca8565b6001915050610a72565b60ff841115612c9d57612c9d612b83565b50506001821b610a72565b5060208310610133831016604e8410600b8410161715612ccb575081810a610a72565b612cd58383612c10565b805f1904821115612ce857612ce8612b83565b029392505050565b5f61296e8383612c52565b5f81518084525f5b81811015612d1f57602081850181015186830182015201612d03565b505f602082860101526020601f19601f83011685010191505092915050565b60018060a01b038316815260606020820152600960608201526865786563757465282960b81b608082015260a060408201525f61183560a0830184612cfb565b5f8151808452602080850194508084015f5b83811015612dac57815187529582019590820190600101612d90565b509495945050505050565b5f81518084526020808501808196508360051b810191508286015f5b85811015612dfd578284038952612deb848351612cfb565b98850198935090840190600101612dd3565b5091979650505050505050565b60a080825286519082018190525f9060209060c0840190828a01845b82811015612e4b5781516001600160a01b031684529284019290840190600101612e26565b50505083810382850152612e5f8189612d7e565b9150508281036040840152612e748187612db7565b90508281036060840152612e888186612db7565b90508281036080840152612e9c8185612cfb565b98975050505050505050565b5f60208284031215612eb8575f80fd5b815161296e81612946565b602080825282518282018190525f919060409081850190868401855b82811015612dfd57815180516001600160a01b0316855286810151878601528581015186860152606080820151908601526080808201519086015260a0808201519086015260c0908101519085015260e09093019290850190600101612edf565b602080825282518282018190525f919060409081850190868401855b82811015612dfd57815180516001600160a01b0390811686528782015116878601528581015160ff1686860152606080820151908601526080808201519086015260a0808201519086015260c0908101519085015260e09093019290850190600101612f5c56fe657865637574655061796c6f616428616464726573732c737472696e672c627974657329a26469706673582212202cf1ab31768574fa9fca48c9168ab693a8acd15a456728e736b4bbd45c1ff60f64736f6c63430008150033",
  "linkReferences": {},
  "deployedLinkReferences": {},
  "immutableReferences": {
    "210": [
      {
        "length": 32,
        "start": 1900
      },
      {
        "length": 32,
        "start": 6993
      },
      {
        "length": 32,
        "start": 7378
      },
      {
        "length": 32,
        "start": 8581
      },
      {
        "length": 32,
        "start": 8808
      },
      {
        "length": 32,
        "start": 9524
      }
    ]
  },
  "inputSourceName": "project/contracts/payloads/IGP132/PayloadIGP132.sol",
  "buildInfoId": "solc-0_8_21-c0cff46cbf21bdfc778b7cb329177682a7ca1ebb"
}